{
  "contractName": "Debank",
  "abi": [
    {
      "inputs": [],
      "stateMutability": "nonpayable",
      "type": "constructor"
    },
    {
      "anonymous": false,
      "inputs": [
        {
          "indexed": false,
          "internalType": "string",
          "name": "choiceOfCurrency",
          "type": "string"
        },
        {
          "indexed": false,
          "internalType": "uint256",
          "name": "amount",
          "type": "uint256"
        }
      ],
      "name": "Withdraw",
      "type": "event"
    },
    {
      "inputs": [
        {
          "internalType": "uint256",
          "name": "",
          "type": "uint256"
        }
      ],
      "name": "Users",
      "outputs": [
        {
          "internalType": "string",
          "name": "name",
          "type": "string"
        },
        {
          "internalType": "uint256",
          "name": "balance",
          "type": "uint256"
        },
        {
          "internalType": "address",
          "name": "add",
          "type": "address"
        }
      ],
      "stateMutability": "view",
      "type": "function"
    },
    {
      "inputs": [],
      "name": "numUsers",
      "outputs": [
        {
          "internalType": "uint256",
          "name": "",
          "type": "uint256"
        }
      ],
      "stateMutability": "view",
      "type": "function"
    },
    {
      "inputs": [
        {
          "internalType": "uint256",
          "name": "x",
          "type": "uint256"
        },
        {
          "internalType": "uint256",
          "name": "y",
          "type": "uint256"
        }
      ],
      "name": "initializeCro",
      "outputs": [
        {
          "internalType": "uint256",
          "name": "",
          "type": "uint256"
        }
      ],
      "stateMutability": "nonpayable",
      "type": "function"
    },
    {
      "inputs": [
        {
          "internalType": "uint256",
          "name": "x",
          "type": "uint256"
        },
        {
          "internalType": "uint256",
          "name": "y",
          "type": "uint256"
        }
      ],
      "name": "initializeShib",
      "outputs": [
        {
          "internalType": "uint256",
          "name": "",
          "type": "uint256"
        }
      ],
      "stateMutability": "nonpayable",
      "type": "function"
    },
    {
      "inputs": [
        {
          "internalType": "uint256",
          "name": "x",
          "type": "uint256"
        },
        {
          "internalType": "uint256",
          "name": "y",
          "type": "uint256"
        }
      ],
      "name": "initializeUni",
      "outputs": [
        {
          "internalType": "uint256",
          "name": "",
          "type": "uint256"
        }
      ],
      "stateMutability": "nonpayable",
      "type": "function"
    },
    {
      "inputs": [
        {
          "internalType": "string",
          "name": "name",
          "type": "string"
        }
      ],
      "name": "register",
      "outputs": [
        {
          "internalType": "uint256",
          "name": "",
          "type": "uint256"
        }
      ],
      "stateMutability": "payable",
      "type": "function"
    },
    {
      "inputs": [
        {
          "internalType": "uint256",
          "name": "id",
          "type": "uint256"
        }
      ],
      "name": "checkBalance",
      "outputs": [
        {
          "internalType": "uint256",
          "name": "",
          "type": "uint256"
        }
      ],
      "stateMutability": "view",
      "type": "function"
    },
    {
      "inputs": [
        {
          "internalType": "uint256",
          "name": "id",
          "type": "uint256"
        }
      ],
      "name": "deposit",
      "outputs": [],
      "stateMutability": "payable",
      "type": "function"
    },
    {
      "inputs": [
        {
          "internalType": "uint256",
          "name": "id",
          "type": "uint256"
        },
        {
          "internalType": "uint256",
          "name": "amt",
          "type": "uint256"
        }
      ],
      "name": "withdraw",
      "outputs": [],
      "stateMutability": "nonpayable",
      "type": "function"
    },
    {
      "inputs": [
        {
          "internalType": "uint256",
          "name": "id",
          "type": "uint256"
        },
        {
          "internalType": "uint256",
          "name": "amt",
          "type": "uint256"
        }
      ],
      "name": "convertToCRO",
      "outputs": [],
      "stateMutability": "nonpayable",
      "type": "function"
    },
    {
      "inputs": [
        {
          "internalType": "uint256",
          "name": "id",
          "type": "uint256"
        },
        {
          "internalType": "uint256",
          "name": "amt",
          "type": "uint256"
        }
      ],
      "name": "convertToSHIB",
      "outputs": [],
      "stateMutability": "nonpayable",
      "type": "function"
    },
    {
      "inputs": [
        {
          "internalType": "uint256",
          "name": "id",
          "type": "uint256"
        },
        {
          "internalType": "uint256",
          "name": "amt",
          "type": "uint256"
        }
      ],
      "name": "convertToUNI",
      "outputs": [],
      "stateMutability": "nonpayable",
      "type": "function"
    },
    {
      "inputs": [
        {
          "internalType": "string",
          "name": "choiceOfCurrency",
          "type": "string"
        },
        {
          "internalType": "uint256",
          "name": "id",
          "type": "uint256"
        },
        {
          "internalType": "uint256",
          "name": "amt",
          "type": "uint256"
        }
      ],
      "name": "convertBackToETH",
      "outputs": [],
      "stateMutability": "nonpayable",
      "type": "function"
    },
    {
      "inputs": [
        {
          "internalType": "uint256",
          "name": "currencyType",
          "type": "uint256"
        },
        {
          "internalType": "uint256",
          "name": "amount",
          "type": "uint256"
        },
        {
          "internalType": "uint256",
          "name": "collateralCurrency",
          "type": "uint256"
        },
        {
          "internalType": "uint256",
          "name": "collateralAmount",
          "type": "uint256"
        }
      ],
      "name": "returnRatio",
      "outputs": [
        {
          "internalType": "uint256",
          "name": "",
          "type": "uint256"
        }
      ],
      "stateMutability": "view",
      "type": "function"
    }
  ],
  "bytecode": "0x608060405260006006553480156200001657600080fd5b506000604051620000279062000107565b604051809103906000f08015801562000044573d6000803e3d6000fd5b5060008054600160a060020a031916600160a060020a03831617815560405191925090620000729062000115565b604051809103906000f0801580156200008f573d6000803e3d6000fd5b5060018054600160a060020a031916600160a060020a038316179055604051909150600090620000bf9062000123565b604051809103906000f080158015620000dc573d6000803e3d6000fd5b5060028054600160a060020a031916600160a060020a03929092169190911790555062000131915050565b611134806200165683390190565b611135806200278a83390190565b61113380620038bf83390190565b61151580620001416000396000f3fe6080604052600436106100fa576000357c010000000000000000000000000000000000000000000000000000000090048063a5a85e7f1161009c578063e7782d6c11610076578063e7782d6c1461024c578063e9ec146e1461026c578063e9f1dc3d1461028c578063f2c298be146102ac57600080fd5b8063a5a85e7f146101f9578063b6b55f2514610219578063ba2dc9a11461022c57600080fd5b8063441a3e70116100d8578063441a3e70146101795780635333eed0146101995780637f286286146101b95780638d612ad7146101d957600080fd5b80630da34ff6146100ff57806319a50f49146101215780631e98fd1c1461014a575b600080fd5b34801561010b57600080fd5b5061011f61011a366004611039565b6102bf565b005b34801561012d57600080fd5b5061013760065481565b6040519081526020015b60405180910390f35b34801561015657600080fd5b5061016a61016536600461105b565b6103b6565b604051610141939291906110c4565b34801561018557600080fd5b5061011f610194366004611039565b61046a565b3480156101a557600080fd5b506101376101b4366004611039565b61055f565b3480156101c557600080fd5b506101376101d436600461105b565b610579565b3480156101e557600080fd5b5061011f6101f4366004611039565b6105a5565b34801561020557600080fd5b506101376102143660046110f6565b610667565b61011f61022736600461105b565b610714565b34801561023857600080fd5b5061011f6102473660046111ce565b6107b0565b34801561025857600080fd5b50610137610267366004611039565b610d94565b34801561027857600080fd5b50610137610287366004611039565b610dac565b34801561029857600080fd5b5061011f6102a7366004611039565b610dc4565b6101376102ba36600461121c565b610e86565b6102cb61271082611272565b60008381526007602052604090206001015410156103075760405160e560020a62461bcd0281526004016102fe90611297565b60405180910390fd5b6001546040517fe4b50cb800000000000000000000000000000000000000000000000000000000815260048101839052600160a060020a039091169063e4b50cb890602401600060405180830381600087803b15801561036657600080fd5b505af115801561037a573d6000803e3d6000fd5b505050506127108161038c9190611272565b600083815260076020526040812060010180549091906103ad9084906112ce565b90915550505050565b6007602052600090815260409020805481906103d1906112e1565b80601f01602080910402602001604051908101604052809291908181526020018280546103fd906112e1565b801561044a5780601f1061041f5761010080835404028352916020019161044a565b820191906000526020600020905b81548152906001019060200180831161042d57829003601f168201915b505050506001830154600290930154919291600160a060020a0316905083565b6000828152600760205260409020600201548290600160a060020a0316331461049257600080fd5b600082116104e55760405160e560020a62461bcd02815260206004820152601560248201527f43616e6e6f74207769746864726177203020455448000000000000000000000060448201526064016102fe565b60008381526007602052604090206001015482101561050357600080fd5b600083815260076020526040812060010180548492906105249084906112ce565b90915550506040513390819084156108fc029085906000818181858888f19350505050158015610558573d6000803e3d6000fd5b5050505050565b600061056b8383610fa0565b600581905590505b92915050565b600081600654811061058a57600080fd5b60008381526007602052604090206001015491505b50919050565b6105b0600a82611272565b60008381526007602052604090206001015410156105e35760405160e560020a62461bcd0281526004016102fe90611297565b6002546040517fe4b50cb800000000000000000000000000000000000000000000000000000000815260048101839052600160a060020a039091169063e4b50cb890602401600060405180830381600087803b15801561064257600080fd5b505af1158015610656573d6000803e3d6000fd5b50505050600a8161038c9190611272565b600084600003610686578360035461067f9190611318565b93506106b5565b8460010361069c578360045461067f9190611318565b846002036106b557836005546106b29190611318565b93505b826000036106d257816003546106cb9190611318565b9150610701565b826001036106e857816004546106cb9190611318565b8260020361070157816005546106fe9190611318565b91505b61070b8285610fa0565b95945050505050565b6000818152600760205260409020600201548190600160a060020a0316331461073c57600080fd5b6000341161078f5760405160e560020a62461bcd02815260206004820152601460248201527f43616e6e6f74206465706f73697420302045544800000000000000000000000060448201526064016102fe565b600082815260076020526040812060010180543492906103ad90849061132f565b6040517f43726f0000000000000000000000000000000000000000000000000000000000602082015260230160405160208183030381529060405280519060200120836040516020016108039190611342565b60405160208183030381529060405280519060200120036109e457600054604080517fc71daccb00000000000000000000000000000000000000000000000000000000815290518392600160a060020a03169163c71daccb9160048083019260209291908290030181865afa158015610880573d6000803e3d6000fd5b505050506040513d601f19601f820116820180604052508101906108a4919061135e565b10156108f55760405160e560020a62461bcd02815260206004820152601860248201527f596f7520646f6e74206861766520656e6f7567682043524f000000000000000060448201526064016102fe565b6000546040517f412664ae00000000000000000000000000000000000000000000000000000000815230600482015260248101839052600160a060020a039091169063412664ae90604401600060405180830381600087803b15801561095a57600080fd5b505af115801561096e573d6000803e3d6000fd5b5050505060648161097f9190611272565b600083815260076020526040812060010180549091906109a090849061132f565b90915550506040517ffd950f75bf83187106ca979032c87af4e8bedbeff7455cba6df787f978267f29906109d79085908490611377565b60405180910390a1505050565b6040517f536869620000000000000000000000000000000000000000000000000000000060208201526024016040516020818303038152906040528051906020012083604051602001610a379190611342565b6040516020818303038152906040528051906020012003610bba57600154604080517fc71daccb00000000000000000000000000000000000000000000000000000000815290518392600160a060020a03169163c71daccb9160048083019260209291908290030181865afa158015610ab4573d6000803e3d6000fd5b505050506040513d601f19601f82011682018060405250810190610ad8919061135e565b1015610b295760405160e560020a62461bcd02815260206004820152601960248201527f596f7520646f6e74206861766520656e6f75676820534849420000000000000060448201526064016102fe565b6001546040517f2fdcfbd200000000000000000000000000000000000000000000000000000000815233600482015230602482015260448101839052600160a060020a0390911690632fdcfbd290606401600060405180830381600087803b158015610b9457600080fd5b505af1158015610ba8573d6000803e3d6000fd5b505050506127108161097f9190611272565b6040517f556e69000000000000000000000000000000000000000000000000000000000060208201526023016040516020818303038152906040528051906020012083604051602001610c0d9190611342565b6040516020818303038152906040528051906020012003610d8f57600254604080517fc71daccb00000000000000000000000000000000000000000000000000000000815290518392600160a060020a03169163c71daccb9160048083019260209291908290030181865afa158015610c8a573d6000803e3d6000fd5b505050506040513d601f19601f82011682018060405250810190610cae919061135e565b1015610cff5760405160e560020a62461bcd02815260206004820152601860248201527f596f7520646f6e74206861766520656e6f75676820554e49000000000000000060448201526064016102fe565b6002546040517f2fdcfbd200000000000000000000000000000000000000000000000000000000815233600482015230602482015260448101839052600160a060020a0390911690632fdcfbd290606401600060405180830381600087803b158015610d6a57600080fd5b505af1158015610d7e573d6000803e3d6000fd5b50505050600a8161097f9190611272565b505050565b6000610da08383610fa0565b60048190559392505050565b6000610db88383610fa0565b60038190559392505050565b610dcf606482611272565b6000838152600760205260409020600101541015610e025760405160e560020a62461bcd0281526004016102fe90611297565b6000546040517fe4b50cb800000000000000000000000000000000000000000000000000000000815260048101839052600160a060020a039091169063e4b50cb890602401600060405180830381600087803b158015610e6157600080fd5b505af1158015610e75573d6000803e3d6000fd5b5050505060648161038c9190611272565b6000662386f26fc10000341015610f085760405160e560020a62461bcd02815260206004820152602760248201527f6174206c6561737420302e303120455448206973206e656564656420746f207260448201527f656769737465720000000000000000000000000000000000000000000000000060648201526084016102fe565b6040805160608101825283815234602082015233918101919091526006805460009182610f3483611399565b909155506000818152600760205260409020835191925083918190610f599082611400565b50602082015160018201556040909101516002909101805473ffffffffffffffffffffffffffffffffffffffff1916600160a060020a039092169190911790559392505050565b6000610fd282610fcc610fb4826002610fd9565b610fc687670de0b6b3a7640000610fe5565b9061101b565b90610fd9565b9392505050565b6000610fd28284611272565b600082600003610ff757506000610573565b6110018284611318565b90508161100e8483611272565b14610573576105736114c6565b6000611027828461132f565b905082811015610573576105736114c6565b6000806040838503121561104c57600080fd5b50508035926020909101359150565b60006020828403121561106d57600080fd5b5035919050565b60005b8381101561108f578181015183820152602001611077565b50506000910152565b600081518084526110b0816020860160208601611074565b601f01601f19169290920160200192915050565b6060815260006110d76060830186611098565b9050836020830152600160a060020a0383166040830152949350505050565b6000806000806080858703121561110c57600080fd5b5050823594602084013594506040840135936060013592509050565b60e060020a634e487b7102600052604160045260246000fd5b600082601f83011261115257600080fd5b813567ffffffffffffffff8082111561116d5761116d611128565b604051601f8301601f19908116603f0116810190828211818310171561119557611195611128565b816040528381528660208588010111156111ae57600080fd5b836020870160208301376000602085830101528094505050505092915050565b6000806000606084860312156111e357600080fd5b833567ffffffffffffffff8111156111fa57600080fd5b61120686828701611141565b9660208601359650604090950135949350505050565b60006020828403121561122e57600080fd5b813567ffffffffffffffff81111561124557600080fd5b61125184828501611141565b949350505050565b60e060020a634e487b7102600052601160045260246000fd5b6000826112925760e060020a634e487b7102600052601260045260246000fd5b500490565b60208082526019908201527f596f7520646f6e2774206861766520656e6f7567682045544800000000000000604082015260600190565b8181038181111561057357610573611259565b6002810460018216806112f557607f821691505b60208210810361059f5760e060020a634e487b7102600052602260045260246000fd5b808202811582820484141761057357610573611259565b8082018082111561057357610573611259565b60008251611354818460208701611074565b9190910192915050565b60006020828403121561137057600080fd5b5051919050565b60408152600061138a6040830185611098565b90508260208301529392505050565b6000600182016113ab576113ab611259565b5060010190565b601f821115610d8f576000818152602081206020601f860104810160208610156113d95750805b6020601f860104820191505b818110156113f8578281556001016113e5565b505050505050565b815167ffffffffffffffff81111561141a5761141a611128565b61142e8161142884546112e1565b846113b2565b602080601f831160018114611467576000841561144b5750858301515b60028086026008870290910a60001904198216178655506113f8565b600085815260208120601f198616915b8281101561149657888601518255948401946001909101908401611477565b50858210156114b657878501516008601f88160260020a60001904191681555b5050505050600202600101905550565b60e060020a634e487b7102600052600160045260246000fdfea2646970667358221220e6b79a8fd4a12467a80a812693f0d83e97c3b33022a6d05792ea896e3ab9840864736f6c63430008110033608060405234801561001057600080fd5b50600060405161001f90610072565b604051809103906000f08015801561003b573d6000803e3d6000fd5b5060008054600160a060020a03909216600160a060020a0319928316179055600380549091163317905550620186a060015561007f565b610a5b806106d983390190565b61064b8061008e6000396000f3fe608060405260043610610066577c010000000000000000000000000000000000000000000000000000000060003504632fdcfbd2811461006b578063412664ae1461008d5780635f515226146100ad578063c71daccb146100df578063e4b50cb8146100f4575b600080fd5b34801561007757600080fd5b5061008b6100863660046104ff565b610107565b005b34801561009957600080fd5b5061008b6100a836600461053b565b6101a5565b3480156100b957600080fd5b506100cd6100c8366004610565565b61023a565b60405190815260200160405180910390f35b3480156100eb57600080fd5b506100cd6102c8565b61008b610102366004610587565b610353565b6000546040517f23b872dd000000000000000000000000000000000000000000000000000000008152600160a060020a038581166004830152848116602483015260448201849052909116906323b872dd906064016020604051808303816000875af115801561017b573d6000803e3d6000fd5b505050506040513d601f19601f8201168201806040525081019061019f91906105a0565b50505050565b6000546040517fa9059cbb000000000000000000000000000000000000000000000000000000008152600160a060020a038481166004830152602482018490529091169063a9059cbb906044016020604051808303816000875af1158015610211573d6000803e3d6000fd5b505050506040513d601f19601f8201168201806040525081019061023591906105a0565b505050565b600080546040517f70a08231000000000000000000000000000000000000000000000000000000008152600160a060020a038481166004830152909116906370a0823190602401602060405180830381865afa15801561029e573d6000803e3d6000fd5b505050506040513d601f19601f820116820180604052508101906102c291906105c2565b92915050565b600080546040517f70a08231000000000000000000000000000000000000000000000000000000008152336004820152600160a060020a03909116906370a0823190602401602060405180830381865afa15801561032a573d6000803e3d6000fd5b505050506040513d601f19601f8201168201806040525081019061034e91906105c2565b905090565b600154600054604080517f18160ddd00000000000000000000000000000000000000000000000000000000815290518492600160a060020a0316916318160ddd9160048083019260209291908290030181865afa1580156103b8573d6000803e3d6000fd5b505050506040513d601f19601f820116820180604052508101906103dc91906105c2565b6103e691906105db565b10610451576040517f08c379a000000000000000000000000000000000000000000000000000000000815260206004820152601860248201527f43524f20737570706c79206973206e6f7420656e6f7567680000000000000000604482015260640160405180910390fd5b6000546040517f40c10f1900000000000000000000000000000000000000000000000000000000815233600482015260248101839052600160a060020a03909116906340c10f19906044016020604051808303816000875af11580156104bb573d6000803e3d6000fd5b505050506040513d601f19601f820116820180604052508101906104df91906105a0565b5050565b8035600160a060020a03811681146104fa57600080fd5b919050565b60008060006060848603121561051457600080fd5b61051d846104e3565b925061052b602085016104e3565b9150604084013590509250925092565b6000806040838503121561054e57600080fd5b610557836104e3565b946020939093013593505050565b60006020828403121561057757600080fd5b610580826104e3565b9392505050565b60006020828403121561059957600080fd5b5035919050565b6000602082840312156105b257600080fd5b8151801515811461058057600080fd5b6000602082840312156105d457600080fd5b5051919050565b808201808211156102c2577f4e487b7100000000000000000000000000000000000000000000000000000000600052601160045260246000fdfea264697066735822122080cf17889ede27cea772398e8da824d45c3284efe5c95263504e59db389cfb2064736f6c63430008110033608060405260008054600160a860020a031916610100330217905534801561002657600080fd5b50610a25806100366000396000f3fe608060405234801561001057600080fd5b5060043610610107576000357c01000000000000000000000000000000000000000000000000000000009004806370a08231116100a95780638da5cb5b116100835780638da5cb5b1461023757806395d89b411461024f578063a9059cbb1461028b578063dd62ed3e1461029e57600080fd5b806370a08231146101dc5780637d64bcb414610205578063893d20e81461020d57600080fd5b806318160ddd116100e557806318160ddd1461018a57806323b872dd1461019c578063313ce567146101af57806340c10f19146101c957600080fd5b806305d2035b1461010c57806306fdde031461012e578063095ea7b314610177575b600080fd5b6000546101199060ff1681565b60405190151581526020015b60405180910390f35b61016a6040518060400160405280600981526020017f44696365546f6b656e000000000000000000000000000000000000000000000081525081565b604051610125919061084d565b6101196101853660046108b7565b6102d7565b6003545b604051908152602001610125565b6101196101aa3660046108e1565b610344565b6101b7601281565b60405160ff9091168152602001610125565b6101196101d73660046108b7565b610565565b61018e6101ea36600461091d565b600160a060020a031660009081526002602052604090205490565b61011961065a565b6000546101009004600160a060020a03165b604051600160a060020a039091168152602001610125565b60005461021f906101009004600160a060020a031681565b61016a6040518060400160405280600281526020017f445400000000000000000000000000000000000000000000000000000000000081525081565b6101196102993660046108b7565b6106c1565b61018e6102ac366004610938565b600160a060020a03918216600090815260016020908152604080832093909416825291909152205490565b336000818152600160209081526040808320600160a060020a038716808552925280832085905551919290917f8c5be1e5ebec7d5bd14f71427d1e84f3dd0314c0f7b2291e5b200ac8c7c3b925906103329086815260200190565b60405180910390a35060015b92915050565b6000600160a060020a03831661035957600080fd5b600160a060020a0384166000908152600260205260409020548211156103e0576040517f08c379a000000000000000000000000000000000000000000000000000000000815260206004820181905260248201527f46726f6d20646f65736e2774206861766520656e6f7567682062616c616e636560448201526064015b60405180910390fd5b600160a060020a038416600090815260016020908152604080832032845290915290205482111561046d576040517f08c379a000000000000000000000000000000000000000000000000000000000815260206004820152601e60248201527f4e6f7420616c6c6f77656420746f207370656e642074686973206d756368000060448201526064016103d7565b600160a060020a038416600090815260026020526040902054610490908361080c565b600160a060020a0380861660009081526002602052604080822093909355908516815220546104bf908361082f565b600160a060020a0380851660009081526002602090815260408083209490945591871681526001825282812032825290915220546104fd908361080c565b600160a060020a03858116600081815260016020908152604080832032845282529182902094909455518581529186169290917fddf252ad1be2c89b69c2b068fc378daa952ba7f163c4a11628f55a4df523b3ef910160405180910390a35060019392505050565b600080546101009004600160a060020a0316331461058257600080fd5b60005460ff161561059257600080fd5b60035461059f908361082f565b600355600160a060020a0383166000908152600260205260409020546105c5908361082f565b600160a060020a038416600081815260026020526040908190209290925590517f0f6798a560793a54c3bcfe86a93cde1e73087d944c0ea20544137d4121396885906106149085815260200190565b60405180910390a2604051828152600160a060020a038416906000907fddf252ad1be2c89b69c2b068fc378daa952ba7f163c4a11628f55a4df523b3ef90602001610332565b600080546101009004600160a060020a0316331461067757600080fd5b60005460ff161561068757600080fd5b6000805460ff191660011781556040517fae5184fba832cb2b1f702aca6117b8d265eaf03ad33eb133f19dde0f5920fa089190a150600190565b6000600160a060020a0383166106d657600080fd5b32600090815260026020526040902054821115610775576040517f08c379a000000000000000000000000000000000000000000000000000000000815260206004820152602660248201527f6d73672e73656e64657220646f65736e2774206861766520656e6f756768206260448201527f616c616e6365000000000000000000000000000000000000000000000000000060648201526084016103d7565b3260009081526002602052604090205461078f908361080c565b3260009081526002602052604080822092909255600160a060020a038516815220546107bb908361082f565b600160a060020a0384166000818152600260205260409081902092909255905132907fddf252ad1be2c89b69c2b068fc378daa952ba7f163c4a11628f55a4df523b3ef906103329086815260200190565b60008282111561081e5761081e61096b565b61082882846109c9565b9392505050565b600061083b82846109dc565b90508281101561033e5761033e61096b565b600060208083528351808285015260005b8181101561087a5785810183015185820160400152820161085e565b506000604082860101526040601f19601f8301168501019250505092915050565b8035600160a060020a03811681146108b257600080fd5b919050565b600080604083850312156108ca57600080fd5b6108d38361089b565b946020939093013593505050565b6000806000606084860312156108f657600080fd5b6108ff8461089b565b925061090d6020850161089b565b9150604084013590509250925092565b60006020828403121561092f57600080fd5b6108288261089b565b6000806040838503121561094b57600080fd5b6109548361089b565b91506109626020840161089b565b90509250929050565b7f4e487b7100000000000000000000000000000000000000000000000000000000600052600160045260246000fd5b7f4e487b7100000000000000000000000000000000000000000000000000000000600052601160045260246000fd5b8181038181111561033e5761033e61099a565b8082018082111561033e5761033e61099a56fea26469706673582212207abe87f2a9935227aaed9e2370ae396d356146763d882aadfba3fe20b0be922364736f6c63430008110033608060405234801561001057600080fd5b50600060405161001f90610073565b604051809103906000f08015801561003b573d6000803e3d6000fd5b5060008054600160a060020a03909216600160a060020a03199283161790556003805490911633179055506305f5e100600155610080565b610a5b806106da83390190565b61064b8061008f6000396000f3fe608060405260043610610066577c010000000000000000000000000000000000000000000000000000000060003504632fdcfbd2811461006b578063412664ae1461008d5780635f515226146100ad578063c71daccb146100df578063e4b50cb8146100f4575b600080fd5b34801561007757600080fd5b5061008b6100863660046104ff565b610107565b005b34801561009957600080fd5b5061008b6100a836600461053b565b6101a5565b3480156100b957600080fd5b506100cd6100c8366004610565565b61023a565b60405190815260200160405180910390f35b3480156100eb57600080fd5b506100cd6102c8565b61008b610102366004610587565b610353565b6000546040517f23b872dd000000000000000000000000000000000000000000000000000000008152600160a060020a038581166004830152848116602483015260448201849052909116906323b872dd906064016020604051808303816000875af115801561017b573d6000803e3d6000fd5b505050506040513d601f19601f8201168201806040525081019061019f91906105a0565b50505050565b6000546040517fa9059cbb000000000000000000000000000000000000000000000000000000008152600160a060020a038481166004830152602482018490529091169063a9059cbb906044016020604051808303816000875af1158015610211573d6000803e3d6000fd5b505050506040513d601f19601f8201168201806040525081019061023591906105a0565b505050565b600080546040517f70a08231000000000000000000000000000000000000000000000000000000008152600160a060020a038481166004830152909116906370a0823190602401602060405180830381865afa15801561029e573d6000803e3d6000fd5b505050506040513d601f19601f820116820180604052508101906102c291906105c2565b92915050565b600080546040517f70a08231000000000000000000000000000000000000000000000000000000008152336004820152600160a060020a03909116906370a0823190602401602060405180830381865afa15801561032a573d6000803e3d6000fd5b505050506040513d601f19601f8201168201806040525081019061034e91906105c2565b905090565b600154600054604080517f18160ddd00000000000000000000000000000000000000000000000000000000815290518492600160a060020a0316916318160ddd9160048083019260209291908290030181865afa1580156103b8573d6000803e3d6000fd5b505050506040513d601f19601f820116820180604052508101906103dc91906105c2565b6103e691906105db565b10610451576040517f08c379a000000000000000000000000000000000000000000000000000000000815260206004820152601960248201527f5348494220737570706c79206973206e6f7420656e6f75676800000000000000604482015260640160405180910390fd5b6000546040517f40c10f1900000000000000000000000000000000000000000000000000000000815233600482015260248101839052600160a060020a03909116906340c10f19906044016020604051808303816000875af11580156104bb573d6000803e3d6000fd5b505050506040513d601f19601f820116820180604052508101906104df91906105a0565b5050565b8035600160a060020a03811681146104fa57600080fd5b919050565b60008060006060848603121561051457600080fd5b61051d846104e3565b925061052b602085016104e3565b9150604084013590509250925092565b6000806040838503121561054e57600080fd5b610557836104e3565b946020939093013593505050565b60006020828403121561057757600080fd5b610580826104e3565b9392505050565b60006020828403121561059957600080fd5b5035919050565b6000602082840312156105b257600080fd5b8151801515811461058057600080fd5b6000602082840312156105d457600080fd5b5051919050565b808201808211156102c2577f4e487b7100000000000000000000000000000000000000000000000000000000600052601160045260246000fdfea264697066735822122039dff3ceefa11c41eae80c5b65fc83c0470bed6c02935479a438bd69caeffdfa64736f6c63430008110033608060405260008054600160a860020a031916610100330217905534801561002657600080fd5b50610a25806100366000396000f3fe608060405234801561001057600080fd5b5060043610610107576000357c01000000000000000000000000000000000000000000000000000000009004806370a08231116100a95780638da5cb5b116100835780638da5cb5b1461023757806395d89b411461024f578063a9059cbb1461028b578063dd62ed3e1461029e57600080fd5b806370a08231146101dc5780637d64bcb414610205578063893d20e81461020d57600080fd5b806318160ddd116100e557806318160ddd1461018a57806323b872dd1461019c578063313ce567146101af57806340c10f19146101c957600080fd5b806305d2035b1461010c57806306fdde031461012e578063095ea7b314610177575b600080fd5b6000546101199060ff1681565b60405190151581526020015b60405180910390f35b61016a6040518060400160405280600981526020017f44696365546f6b656e000000000000000000000000000000000000000000000081525081565b604051610125919061084d565b6101196101853660046108b7565b6102d7565b6003545b604051908152602001610125565b6101196101aa3660046108e1565b610344565b6101b7601281565b60405160ff9091168152602001610125565b6101196101d73660046108b7565b610565565b61018e6101ea36600461091d565b600160a060020a031660009081526002602052604090205490565b61011961065a565b6000546101009004600160a060020a03165b604051600160a060020a039091168152602001610125565b60005461021f906101009004600160a060020a031681565b61016a6040518060400160405280600281526020017f445400000000000000000000000000000000000000000000000000000000000081525081565b6101196102993660046108b7565b6106c1565b61018e6102ac366004610938565b600160a060020a03918216600090815260016020908152604080832093909416825291909152205490565b336000818152600160209081526040808320600160a060020a038716808552925280832085905551919290917f8c5be1e5ebec7d5bd14f71427d1e84f3dd0314c0f7b2291e5b200ac8c7c3b925906103329086815260200190565b60405180910390a35060015b92915050565b6000600160a060020a03831661035957600080fd5b600160a060020a0384166000908152600260205260409020548211156103e0576040517f08c379a000000000000000000000000000000000000000000000000000000000815260206004820181905260248201527f46726f6d20646f65736e2774206861766520656e6f7567682062616c616e636560448201526064015b60405180910390fd5b600160a060020a038416600090815260016020908152604080832032845290915290205482111561046d576040517f08c379a000000000000000000000000000000000000000000000000000000000815260206004820152601e60248201527f4e6f7420616c6c6f77656420746f207370656e642074686973206d756368000060448201526064016103d7565b600160a060020a038416600090815260026020526040902054610490908361080c565b600160a060020a0380861660009081526002602052604080822093909355908516815220546104bf908361082f565b600160a060020a0380851660009081526002602090815260408083209490945591871681526001825282812032825290915220546104fd908361080c565b600160a060020a03858116600081815260016020908152604080832032845282529182902094909455518581529186169290917fddf252ad1be2c89b69c2b068fc378daa952ba7f163c4a11628f55a4df523b3ef910160405180910390a35060019392505050565b600080546101009004600160a060020a0316331461058257600080fd5b60005460ff161561059257600080fd5b60035461059f908361082f565b600355600160a060020a0383166000908152600260205260409020546105c5908361082f565b600160a060020a038416600081815260026020526040908190209290925590517f0f6798a560793a54c3bcfe86a93cde1e73087d944c0ea20544137d4121396885906106149085815260200190565b60405180910390a2604051828152600160a060020a038416906000907fddf252ad1be2c89b69c2b068fc378daa952ba7f163c4a11628f55a4df523b3ef90602001610332565b600080546101009004600160a060020a0316331461067757600080fd5b60005460ff161561068757600080fd5b6000805460ff191660011781556040517fae5184fba832cb2b1f702aca6117b8d265eaf03ad33eb133f19dde0f5920fa089190a150600190565b6000600160a060020a0383166106d657600080fd5b32600090815260026020526040902054821115610775576040517f08c379a000000000000000000000000000000000000000000000000000000000815260206004820152602660248201527f6d73672e73656e64657220646f65736e2774206861766520656e6f756768206260448201527f616c616e6365000000000000000000000000000000000000000000000000000060648201526084016103d7565b3260009081526002602052604090205461078f908361080c565b3260009081526002602052604080822092909255600160a060020a038516815220546107bb908361082f565b600160a060020a0384166000818152600260205260409081902092909255905132907fddf252ad1be2c89b69c2b068fc378daa952ba7f163c4a11628f55a4df523b3ef906103329086815260200190565b60008282111561081e5761081e61096b565b61082882846109c9565b9392505050565b600061083b82846109dc565b90508281101561033e5761033e61096b565b600060208083528351808285015260005b8181101561087a5785810183015185820160400152820161085e565b506000604082860101526040601f19601f8301168501019250505092915050565b8035600160a060020a03811681146108b257600080fd5b919050565b600080604083850312156108ca57600080fd5b6108d38361089b565b946020939093013593505050565b6000806000606084860312156108f657600080fd5b6108ff8461089b565b925061090d6020850161089b565b9150604084013590509250925092565b60006020828403121561092f57600080fd5b6108288261089b565b6000806040838503121561094b57600080fd5b6109548361089b565b91506109626020840161089b565b90509250929050565b7f4e487b7100000000000000000000000000000000000000000000000000000000600052600160045260246000fd5b7f4e487b7100000000000000000000000000000000000000000000000000000000600052601160045260246000fd5b8181038181111561033e5761033e61099a565b8082018082111561033e5761033e61099a56fea26469706673582212207abe87f2a9935227aaed9e2370ae396d356146763d882aadfba3fe20b0be922364736f6c63430008110033608060405234801561001057600080fd5b50600060405161001f90610071565b604051809103906000f08015801561003b573d6000803e3d6000fd5b5060008054600160a060020a03909216600160a060020a031992831617905560038054909116331790555061271060015561007e565b610a5b806106d883390190565b61064b8061008d6000396000f3fe608060405260043610610066577c010000000000000000000000000000000000000000000000000000000060003504632fdcfbd2811461006b578063412664ae1461008d5780635f515226146100ad578063c71daccb146100df578063e4b50cb8146100f4575b600080fd5b34801561007757600080fd5b5061008b6100863660046104ff565b610107565b005b34801561009957600080fd5b5061008b6100a836600461053b565b6101a5565b3480156100b957600080fd5b506100cd6100c8366004610565565b61023a565b60405190815260200160405180910390f35b3480156100eb57600080fd5b506100cd6102c8565b61008b610102366004610587565b610353565b6000546040517f23b872dd000000000000000000000000000000000000000000000000000000008152600160a060020a038581166004830152848116602483015260448201849052909116906323b872dd906064016020604051808303816000875af115801561017b573d6000803e3d6000fd5b505050506040513d601f19601f8201168201806040525081019061019f91906105a0565b50505050565b6000546040517fa9059cbb000000000000000000000000000000000000000000000000000000008152600160a060020a038481166004830152602482018490529091169063a9059cbb906044016020604051808303816000875af1158015610211573d6000803e3d6000fd5b505050506040513d601f19601f8201168201806040525081019061023591906105a0565b505050565b600080546040517f70a08231000000000000000000000000000000000000000000000000000000008152600160a060020a038481166004830152909116906370a0823190602401602060405180830381865afa15801561029e573d6000803e3d6000fd5b505050506040513d601f19601f820116820180604052508101906102c291906105c2565b92915050565b600080546040517f70a08231000000000000000000000000000000000000000000000000000000008152336004820152600160a060020a03909116906370a0823190602401602060405180830381865afa15801561032a573d6000803e3d6000fd5b505050506040513d601f19601f8201168201806040525081019061034e91906105c2565b905090565b600154600054604080517f18160ddd00000000000000000000000000000000000000000000000000000000815290518492600160a060020a0316916318160ddd9160048083019260209291908290030181865afa1580156103b8573d6000803e3d6000fd5b505050506040513d601f19601f820116820180604052508101906103dc91906105c2565b6103e691906105db565b10610451576040517f08c379a000000000000000000000000000000000000000000000000000000000815260206004820152601860248201527f554e4920737570706c79206973206e6f7420656e6f7567680000000000000000604482015260640160405180910390fd5b6000546040517f40c10f1900000000000000000000000000000000000000000000000000000000815233600482015260248101839052600160a060020a03909116906340c10f19906044016020604051808303816000875af11580156104bb573d6000803e3d6000fd5b505050506040513d601f19601f820116820180604052508101906104df91906105a0565b5050565b8035600160a060020a03811681146104fa57600080fd5b919050565b60008060006060848603121561051457600080fd5b61051d846104e3565b925061052b602085016104e3565b9150604084013590509250925092565b6000806040838503121561054e57600080fd5b610557836104e3565b946020939093013593505050565b60006020828403121561057757600080fd5b610580826104e3565b9392505050565b60006020828403121561059957600080fd5b5035919050565b6000602082840312156105b257600080fd5b8151801515811461058057600080fd5b6000602082840312156105d457600080fd5b5051919050565b808201808211156102c2577f4e487b7100000000000000000000000000000000000000000000000000000000600052601160045260246000fdfea2646970667358221220be98639154f7df9a2ab6865a57e57f300ac46025bf909f1c404a2ba7d7754ff064736f6c63430008110033608060405260008054600160a860020a031916610100330217905534801561002657600080fd5b50610a25806100366000396000f3fe608060405234801561001057600080fd5b5060043610610107576000357c01000000000000000000000000000000000000000000000000000000009004806370a08231116100a95780638da5cb5b116100835780638da5cb5b1461023757806395d89b411461024f578063a9059cbb1461028b578063dd62ed3e1461029e57600080fd5b806370a08231146101dc5780637d64bcb414610205578063893d20e81461020d57600080fd5b806318160ddd116100e557806318160ddd1461018a57806323b872dd1461019c578063313ce567146101af57806340c10f19146101c957600080fd5b806305d2035b1461010c57806306fdde031461012e578063095ea7b314610177575b600080fd5b6000546101199060ff1681565b60405190151581526020015b60405180910390f35b61016a6040518060400160405280600981526020017f44696365546f6b656e000000000000000000000000000000000000000000000081525081565b604051610125919061084d565b6101196101853660046108b7565b6102d7565b6003545b604051908152602001610125565b6101196101aa3660046108e1565b610344565b6101b7601281565b60405160ff9091168152602001610125565b6101196101d73660046108b7565b610565565b61018e6101ea36600461091d565b600160a060020a031660009081526002602052604090205490565b61011961065a565b6000546101009004600160a060020a03165b604051600160a060020a039091168152602001610125565b60005461021f906101009004600160a060020a031681565b61016a6040518060400160405280600281526020017f445400000000000000000000000000000000000000000000000000000000000081525081565b6101196102993660046108b7565b6106c1565b61018e6102ac366004610938565b600160a060020a03918216600090815260016020908152604080832093909416825291909152205490565b336000818152600160209081526040808320600160a060020a038716808552925280832085905551919290917f8c5be1e5ebec7d5bd14f71427d1e84f3dd0314c0f7b2291e5b200ac8c7c3b925906103329086815260200190565b60405180910390a35060015b92915050565b6000600160a060020a03831661035957600080fd5b600160a060020a0384166000908152600260205260409020548211156103e0576040517f08c379a000000000000000000000000000000000000000000000000000000000815260206004820181905260248201527f46726f6d20646f65736e2774206861766520656e6f7567682062616c616e636560448201526064015b60405180910390fd5b600160a060020a038416600090815260016020908152604080832032845290915290205482111561046d576040517f08c379a000000000000000000000000000000000000000000000000000000000815260206004820152601e60248201527f4e6f7420616c6c6f77656420746f207370656e642074686973206d756368000060448201526064016103d7565b600160a060020a038416600090815260026020526040902054610490908361080c565b600160a060020a0380861660009081526002602052604080822093909355908516815220546104bf908361082f565b600160a060020a0380851660009081526002602090815260408083209490945591871681526001825282812032825290915220546104fd908361080c565b600160a060020a03858116600081815260016020908152604080832032845282529182902094909455518581529186169290917fddf252ad1be2c89b69c2b068fc378daa952ba7f163c4a11628f55a4df523b3ef910160405180910390a35060019392505050565b600080546101009004600160a060020a0316331461058257600080fd5b60005460ff161561059257600080fd5b60035461059f908361082f565b600355600160a060020a0383166000908152600260205260409020546105c5908361082f565b600160a060020a038416600081815260026020526040908190209290925590517f0f6798a560793a54c3bcfe86a93cde1e73087d944c0ea20544137d4121396885906106149085815260200190565b60405180910390a2604051828152600160a060020a038416906000907fddf252ad1be2c89b69c2b068fc378daa952ba7f163c4a11628f55a4df523b3ef90602001610332565b600080546101009004600160a060020a0316331461067757600080fd5b60005460ff161561068757600080fd5b6000805460ff191660011781556040517fae5184fba832cb2b1f702aca6117b8d265eaf03ad33eb133f19dde0f5920fa089190a150600190565b6000600160a060020a0383166106d657600080fd5b32600090815260026020526040902054821115610775576040517f08c379a000000000000000000000000000000000000000000000000000000000815260206004820152602660248201527f6d73672e73656e64657220646f65736e2774206861766520656e6f756768206260448201527f616c616e6365000000000000000000000000000000000000000000000000000060648201526084016103d7565b3260009081526002602052604090205461078f908361080c565b3260009081526002602052604080822092909255600160a060020a038516815220546107bb908361082f565b600160a060020a0384166000818152600260205260409081902092909255905132907fddf252ad1be2c89b69c2b068fc378daa952ba7f163c4a11628f55a4df523b3ef906103329086815260200190565b60008282111561081e5761081e61096b565b61082882846109c9565b9392505050565b600061083b82846109dc565b90508281101561033e5761033e61096b565b600060208083528351808285015260005b8181101561087a5785810183015185820160400152820161085e565b506000604082860101526040601f19601f8301168501019250505092915050565b8035600160a060020a03811681146108b257600080fd5b919050565b600080604083850312156108ca57600080fd5b6108d38361089b565b946020939093013593505050565b6000806000606084860312156108f657600080fd5b6108ff8461089b565b925061090d6020850161089b565b9150604084013590509250925092565b60006020828403121561092f57600080fd5b6108288261089b565b6000806040838503121561094b57600080fd5b6109548361089b565b91506109626020840161089b565b90509250929050565b7f4e487b7100000000000000000000000000000000000000000000000000000000600052600160045260246000fd5b7f4e487b7100000000000000000000000000000000000000000000000000000000600052601160045260246000fd5b8181038181111561033e5761033e61099a565b8082018082111561033e5761033e61099a56fea26469706673582212207abe87f2a9935227aaed9e2370ae396d356146763d882aadfba3fe20b0be922364736f6c63430008110033",
  "immutableReferences": {},
  "source": "// SPDX-License-Identifier: MIT\r\npragma solidity >= 0.5.0;\r\nimport \"./RNG.sol\";\r\nimport \"./Cro.sol\";\r\nimport \"./Shib.sol\";\r\nimport \"./Uni.sol\";\r\n\r\nlibrary DSMath {\r\n    using SafeMath for uint256;\r\n    uint256 constant PRECISION = 10**18;\r\n    function wdiv(uint256 x, uint256 y) internal pure returns (uint256 z) {\r\n        z = x.mul(PRECISION).add(y.div(2)).div(y);\r\n    }\r\n}\r\n\r\ncontract Debank{\r\n    using DSMath for uint256;\r\n    Cro cro;\r\n    Shib shib;\r\n    Uni uni;\r\n    uint256 croRate;\r\n    uint256 shibRate;\r\n    uint256 uniRate;\r\n\r\n    constructor() public {        \r\n        Cro c = new Cro();\r\n        cro = c;\r\n        Shib s = new Shib();\r\n        shib = s;\r\n        Uni u = new Uni();\r\n        uni = u;\r\n    }\r\n\r\n    function initializeCro(uint256 x, uint256 y) public returns (uint256) {\r\n        croRate = DSMath.wdiv(x,y);\r\n        return croRate;\r\n    }\r\n\r\n    function initializeShib(uint256 x, uint256 y) public returns (uint256) {\r\n        shibRate = DSMath.wdiv(x,y);\r\n        return shibRate;\r\n    }\r\n\r\n    function initializeUni(uint256 x, uint256 y) public returns (uint256) {\r\n        uniRate = DSMath.wdiv(x,y);\r\n        return uniRate;\r\n    }\r\n\r\n    struct user{\r\n        string name;\r\n        uint256 balance;\r\n        address add;\r\n    }\r\n\r\n    event Withdraw(string choiceOfCurrency, uint256 amount);\r\n\r\n    uint256 public numUsers = 0;\r\n    mapping(uint256 => user) public Users;\r\n\r\n        \r\n    modifier userOnly(uint256 id) {\r\n        require(Users[id].add == msg.sender);\r\n        _;\r\n    }\r\n\r\n    modifier validUserId(uint256 id) {\r\n        require(id < numUsers);\r\n        _;\r\n    }\r\n\r\n    function register(string memory name) public payable returns(uint256){\r\n        require(msg.value >= 0.01 ether, \"at least 0.01 ETH is needed to register\");\r\n\r\n        user memory newUser = user(\r\n            name,\r\n            msg.value,\r\n            msg.sender\r\n        );\r\n\r\n        uint256 newUserId = numUsers++;\r\n        Users[newUserId] = newUser; \r\n        return newUserId;   \r\n\r\n    }\r\n\r\n    function checkBalance(uint256 id) public view validUserId(id) returns(uint256){\r\n        return Users[id].balance;\r\n    }\r\n\r\n    function deposit(uint256 id)  public payable userOnly(id){\r\n        require(msg.value > 0 ether, \"Cannot deposit 0 ETH\");\r\n        Users[id].balance += msg.value;\r\n    }\r\n\r\n    function withdraw(uint256 id, uint256 amt) public userOnly(id){\r\n        require(amt > 0 , \"Cannot withdraw 0 ETH\");\r\n        require(amt >= Users[id].balance);\r\n        Users[id].balance -= amt;\r\n        address payable recipient = payable(msg.sender);\r\n        recipient.transfer(amt);\r\n        // msg.sender.transfer(amt);\r\n    }\r\n\r\n\r\n    function convertToCRO(uint256 id,uint256 amt) public {\r\n        require(Users[id].balance >= amt/100,\"You don't have enough ETH\");\r\n        cro.getToken(amt);\r\n        Users[id].balance -= amt/100;\r\n    }\r\n\r\n    function convertToSHIB(uint256 id,uint256 amt) public {\r\n        require(Users[id].balance >= amt/10000,\"You don't have enough ETH\");\r\n        shib.getToken(amt);\r\n        Users[id].balance -= amt/10000;\r\n    }\r\n\r\n    function convertToUNI(uint256 id,uint256 amt) public {\r\n        require(Users[id].balance >= amt/10,\"You don't have enough ETH\");\r\n        uni.getToken(amt);\r\n        Users[id].balance -= amt/10;\r\n    }\r\n    function convertBackToETH(string memory choiceOfCurrency, uint256 id, uint256 amt) public {\r\n        if(keccak256(abi.encodePacked(choiceOfCurrency))==keccak256(abi.encodePacked(\"Cro\")) ) {\r\n            require(cro.checkBalance() >= amt, \"You dont have enough CRO\");\r\n            cro.sendToken(address(this),amt);\r\n            Users[id].balance += amt/100;\r\n            emit Withdraw(choiceOfCurrency, amt);\r\n        } else if(keccak256(abi.encodePacked(choiceOfCurrency))==keccak256(abi.encodePacked(\"Shib\")) ) {\r\n            require(shib.checkBalance() >= amt, \"You dont have enough SHIB\");\r\n            shib.sendToken(msg.sender,address(this), amt);\r\n            Users[id].balance += amt/10000;\r\n            emit Withdraw(choiceOfCurrency, amt);\r\n        } else if(keccak256(abi.encodePacked(choiceOfCurrency))==keccak256(abi.encodePacked(\"Uni\")) ) {\r\n            require(uni.checkBalance() >= amt, \"You dont have enough UNI\");\r\n            uni.sendToken(msg.sender, address(this), amt);\r\n            Users[id].balance += amt/10;\r\n            emit Withdraw(choiceOfCurrency, amt);\r\n        } \r\n    }\r\n\r\n    function returnRatio(uint256 currencyType, uint256 amount, uint256 collateralCurrency, uint256 collateralAmount) public view returns (uint256) { \r\n        if (currencyType == 0) { \r\n            amount = croRate * amount; \r\n        } else if (currencyType == 1) { \r\n            amount = shibRate * amount; \r\n        } else if (currencyType == 2) {  \r\n            amount = uniRate * amount; \r\n        } \r\n\r\n        if (collateralCurrency == 0) { \r\n            collateralAmount = croRate * collateralAmount; \r\n        } else if (collateralCurrency == 1) { \r\n            collateralAmount = shibRate * collateralAmount; \r\n        } else if (collateralCurrency == 2) { \r\n            collateralAmount = uniRate * collateralAmount;             \r\n        } \r\n \r\n        return collateralAmount.wdiv(amount); \r\n    }\r\n\r\n}\r\n\r\n",
  "sourcePath": "C:\\Documents\\NUS\\NUS Mods\\IS4302\\DeBank\\contracts\\Debank.sol",
  "compiler": {
    "name": "solc",
    "version": "0.8.17+commit.8df45f5f.Emscripten.clang"
  },
  "schemaVersion": "3.4.11",
  "updatedAt": "2023-04-09T05:21:59.311Z",
  "devdoc": {
    "kind": "dev",
    "methods": {},
    "version": 1
  },
  "userdoc": {
    "kind": "user",
    "methods": {},
    "version": 1
  }
}