{
  "contractName": "Debank",
  "abi": [
    {
      "inputs": [],
      "stateMutability": "nonpayable",
      "type": "constructor"
    },
    {
      "anonymous": false,
      "inputs": [
        {
          "indexed": false,
          "internalType": "string",
          "name": "choiceOfCurrency",
          "type": "string"
        },
        {
          "indexed": false,
          "internalType": "uint256",
          "name": "amount",
          "type": "uint256"
        }
      ],
      "name": "Withdraw",
      "type": "event"
    },
    {
      "inputs": [
        {
          "internalType": "uint256",
          "name": "",
          "type": "uint256"
        }
      ],
      "name": "Users",
      "outputs": [
        {
          "internalType": "string",
          "name": "name",
          "type": "string"
        },
        {
          "internalType": "uint256",
          "name": "balance",
          "type": "uint256"
        },
        {
          "internalType": "address",
          "name": "add",
          "type": "address"
        }
      ],
      "stateMutability": "view",
      "type": "function"
    },
    {
      "inputs": [],
      "name": "numUsers",
      "outputs": [
        {
          "internalType": "uint256",
          "name": "",
          "type": "uint256"
        }
      ],
      "stateMutability": "view",
      "type": "function"
    },
    {
      "inputs": [
        {
          "internalType": "uint256",
          "name": "x",
          "type": "uint256"
        },
        {
          "internalType": "uint256",
          "name": "y",
          "type": "uint256"
        }
      ],
      "name": "initializeCro",
      "outputs": [
        {
          "internalType": "uint256",
          "name": "",
          "type": "uint256"
        }
      ],
      "stateMutability": "nonpayable",
      "type": "function"
    },
    {
      "inputs": [
        {
          "internalType": "uint256",
          "name": "x",
          "type": "uint256"
        },
        {
          "internalType": "uint256",
          "name": "y",
          "type": "uint256"
        }
      ],
      "name": "initializeShib",
      "outputs": [
        {
          "internalType": "uint256",
          "name": "",
          "type": "uint256"
        }
      ],
      "stateMutability": "nonpayable",
      "type": "function"
    },
    {
      "inputs": [
        {
          "internalType": "uint256",
          "name": "x",
          "type": "uint256"
        },
        {
          "internalType": "uint256",
          "name": "y",
          "type": "uint256"
        }
      ],
      "name": "initializeUni",
      "outputs": [
        {
          "internalType": "uint256",
          "name": "",
          "type": "uint256"
        }
      ],
      "stateMutability": "nonpayable",
      "type": "function"
    },
    {
      "inputs": [
        {
          "internalType": "string",
          "name": "name",
          "type": "string"
        }
      ],
      "name": "register",
      "outputs": [
        {
          "internalType": "uint256",
          "name": "",
          "type": "uint256"
        }
      ],
      "stateMutability": "payable",
      "type": "function"
    },
    {
      "inputs": [
        {
          "internalType": "uint256",
          "name": "id",
          "type": "uint256"
        }
      ],
      "name": "checkBalance",
      "outputs": [
        {
          "internalType": "uint256",
          "name": "",
          "type": "uint256"
        }
      ],
      "stateMutability": "view",
      "type": "function"
    },
    {
      "inputs": [
        {
          "internalType": "uint256",
          "name": "id",
          "type": "uint256"
        }
      ],
      "name": "deposit",
      "outputs": [],
      "stateMutability": "payable",
      "type": "function"
    },
    {
      "inputs": [
        {
          "internalType": "uint256",
          "name": "id",
          "type": "uint256"
        },
        {
          "internalType": "uint256",
          "name": "amt",
          "type": "uint256"
        }
      ],
      "name": "withdraw",
      "outputs": [],
      "stateMutability": "nonpayable",
      "type": "function"
    },
    {
      "inputs": [
        {
          "internalType": "uint256",
          "name": "id",
          "type": "uint256"
        },
        {
          "internalType": "uint256",
          "name": "amt",
          "type": "uint256"
        }
      ],
      "name": "convertToCRO",
      "outputs": [],
      "stateMutability": "nonpayable",
      "type": "function"
    },
    {
      "inputs": [
        {
          "internalType": "uint256",
          "name": "id",
          "type": "uint256"
        },
        {
          "internalType": "uint256",
          "name": "amt",
          "type": "uint256"
        }
      ],
      "name": "convertToSHIB",
      "outputs": [],
      "stateMutability": "nonpayable",
      "type": "function"
    },
    {
      "inputs": [
        {
          "internalType": "uint256",
          "name": "id",
          "type": "uint256"
        },
        {
          "internalType": "uint256",
          "name": "amt",
          "type": "uint256"
        }
      ],
      "name": "convertToUNI",
      "outputs": [],
      "stateMutability": "nonpayable",
      "type": "function"
    },
    {
      "inputs": [
        {
          "internalType": "string",
          "name": "choiceOfCurrency",
          "type": "string"
        },
        {
          "internalType": "uint256",
          "name": "id",
          "type": "uint256"
        },
        {
          "internalType": "uint256",
          "name": "amt",
          "type": "uint256"
        }
      ],
      "name": "convertBackToETH",
      "outputs": [],
      "stateMutability": "nonpayable",
      "type": "function"
    },
    {
      "inputs": [
        {
          "internalType": "uint256",
          "name": "currencyType",
          "type": "uint256"
        },
        {
          "internalType": "uint256",
          "name": "amount",
          "type": "uint256"
        },
        {
          "internalType": "uint256",
          "name": "collateralCurrency",
          "type": "uint256"
        },
        {
          "internalType": "uint256",
          "name": "collateralAmount",
          "type": "uint256"
        }
      ],
      "name": "returnRatio",
      "outputs": [
        {
          "internalType": "uint256",
          "name": "",
          "type": "uint256"
        }
      ],
      "stateMutability": "view",
      "type": "function"
    }
  ],
  "bytecode": "0x608060405260405162000012906200024a565b604051809103906000f0801580156200002f573d6000803e3d6000fd5b50600160006101000a81548173ffffffffffffffffffffffffffffffffffffffff021916908373ffffffffffffffffffffffffffffffffffffffff1602179055506040516200007e9062000258565b604051809103906000f0801580156200009b573d6000803e3d6000fd5b50600260006101000a81548173ffffffffffffffffffffffffffffffffffffffff021916908373ffffffffffffffffffffffffffffffffffffffff1602179055506000600655348015620000ee57600080fd5b506000604051620000ff9062000266565b604051809103906000f0801580156200011c573d6000803e3d6000fd5b509050806000806101000a81548173ffffffffffffffffffffffffffffffffffffffff021916908373ffffffffffffffffffffffffffffffffffffffff16021790555060006040516200016f906200024a565b604051809103906000f0801580156200018c573d6000803e3d6000fd5b50905080600160006101000a81548173ffffffffffffffffffffffffffffffffffffffff021916908373ffffffffffffffffffffffffffffffffffffffff1602179055506000604051620001e09062000258565b604051809103906000f080158015620001fd573d6000803e3d6000fd5b50905080600260006101000a81548173ffffffffffffffffffffffffffffffffffffffff021916908373ffffffffffffffffffffffffffffffffffffffff16021790555050505062000274565b611f0d806200250b83390190565b611f0b806200441883390190565b611f0c806200632383390190565b61228780620002846000396000f3fe6080604052600436106100dd5760003560e01c8063a5a85e7f1161007f578063e7782d6c11610059578063e7782d6c146102c3578063e9ec146e14610300578063e9f1dc3d1461033d578063f2c298be14610366576100dd565b8063a5a85e7f14610241578063b6b55f251461027e578063ba2dc9a11461029a576100dd565b8063441a3e70116100bb578063441a3e70146101755780635333eed01461019e5780637f286286146101db5780638d612ad714610218576100dd565b80630da34ff6146100e257806319a50f491461010b5780631e98fd1c14610136575b600080fd5b3480156100ee57600080fd5b5061010960048036038101906101049190611467565b610396565b005b34801561011757600080fd5b506101206104c7565b60405161012d91906114b6565b60405180910390f35b34801561014257600080fd5b5061015d600480360381019061015891906114d1565b6104cd565b60405161016c939291906115cf565b60405180910390f35b34801561018157600080fd5b5061019c60048036038101906101979190611467565b61059f565b005b3480156101aa57600080fd5b506101c560048036038101906101c09190611467565b6106f3565b6040516101d291906114b6565b60405180910390f35b3480156101e757600080fd5b5061020260048036038101906101fd91906114d1565b610719565b60405161020f91906114b6565b60405180910390f35b34801561022457600080fd5b5061023f600480360381019061023a9190611467565b610749565b005b34801561024d57600080fd5b506102686004803603810190610263919061160d565b610878565b60405161027591906114b6565b60405180910390f35b610298600480360381019061029391906114d1565b610940565b005b3480156102a657600080fd5b506102c160048036038101906102bc91906117a9565b610a23565b005b3480156102cf57600080fd5b506102ea60048036038101906102e59190611467565b6110a5565b6040516102f791906114b6565b60405180910390f35b34801561030c57600080fd5b5061032760048036038101906103229190611467565b6110cb565b60405161033491906114b6565b60405180910390f35b34801561034957600080fd5b50610364600480360381019061035f9190611467565b6110f1565b005b610380600480360381019061037b9190611818565b61121e565b60405161038d91906114b6565b60405180910390f35b612710816103a491906118bf565b600760008481526020019081526020016000206001015410156103fc576040517f08c379a00000000000000000000000000000000000000000000000000000000081526004016103f39061193c565b60405180910390fd5b600160009054906101000a900473ffffffffffffffffffffffffffffffffffffffff1673ffffffffffffffffffffffffffffffffffffffff1663e4b50cb8826040518263ffffffff1660e01b815260040161045791906114b6565b600060405180830381600087803b15801561047157600080fd5b505af1158015610485573d6000803e3d6000fd5b505050506127108161049791906118bf565b6007600084815260200190815260200160002060010160008282546104bc919061195c565b925050819055505050565b60065481565b60076020528060005260406000206000915090508060000180546104f0906119bf565b80601f016020809104026020016040519081016040528092919081815260200182805461051c906119bf565b80156105695780601f1061053e57610100808354040283529160200191610569565b820191906000526020600020905b81548152906001019060200180831161054c57829003601f168201915b5050505050908060010154908060020160009054906101000a900473ffffffffffffffffffffffffffffffffffffffff16905083565b813373ffffffffffffffffffffffffffffffffffffffff166007600083815260200190815260200160002060020160009054906101000a900473ffffffffffffffffffffffffffffffffffffffff1673ffffffffffffffffffffffffffffffffffffffff161461060e57600080fd5b60008211610651576040517f08c379a000000000000000000000000000000000000000000000000000000000815260040161064890611a3c565b60405180910390fd5b600760008481526020019081526020016000206001015482101561067457600080fd5b8160076000858152602001908152602001600020600101600082825461069a919061195c565b9250508190555060003390508073ffffffffffffffffffffffffffffffffffffffff166108fc849081150290604051600060405180830381858888f193505050501580156106ec573d6000803e3d6000fd5b5050505050565b6000610708828461134290919063ffffffff16565b600581905550600554905092915050565b600081600654811061072a57600080fd5b6007600084815260200190815260200160002060010154915050919050565b600a8161075691906118bf565b600760008481526020019081526020016000206001015410156107ae576040517f08c379a00000000000000000000000000000000000000000000000000000000081526004016107a59061193c565b60405180910390fd5b600260009054906101000a900473ffffffffffffffffffffffffffffffffffffffff1673ffffffffffffffffffffffffffffffffffffffff1663e4b50cb8826040518263ffffffff1660e01b815260040161080991906114b6565b600060405180830381600087803b15801561082357600080fd5b505af1158015610837573d6000803e3d6000fd5b50505050600a8161084891906118bf565b60076000848152602001908152602001600020600101600082825461086d919061195c565b925050819055505050565b6000808503610896578360035461088f9190611a5c565b93506108ce565b600185036108b357836004546108ac9190611a5c565b93506108cd565b600285036108cc57836005546108c99190611a5c565b93505b5b5b600083036108eb57816003546108e49190611a5c565b9150610923565b6001830361090857816004546109019190611a5c565b9150610922565b60028303610921578160055461091e9190611a5c565b91505b5b5b610936848361134290919063ffffffff16565b9050949350505050565b803373ffffffffffffffffffffffffffffffffffffffff166007600083815260200190815260200160002060020160009054906101000a900473ffffffffffffffffffffffffffffffffffffffff1673ffffffffffffffffffffffffffffffffffffffff16146109af57600080fd5b600034116109f2576040517f08c379a00000000000000000000000000000000000000000000000000000000081526004016109e990611aea565b60405180910390fd5b34600760008481526020019081526020016000206001016000828254610a189190611b0a565b925050819055505050565b604051602001610a3290611b95565b6040516020818303038152906040528051906020012083604051602001610a599190611bdb565b6040516020818303038152906040528051906020012003610c49578060008054906101000a900473ffffffffffffffffffffffffffffffffffffffff1673ffffffffffffffffffffffffffffffffffffffff1663c71daccb6040518163ffffffff1660e01b8152600401602060405180830381865afa158015610ae0573d6000803e3d6000fd5b505050506040513d601f19601f82011682018060405250810190610b049190611c07565b1015610b45576040517f08c379a0000000000000000000000000000000000000000000000000000000008152600401610b3c90611c80565b60405180910390fd5b60008054906101000a900473ffffffffffffffffffffffffffffffffffffffff1673ffffffffffffffffffffffffffffffffffffffff1663412664ae30836040518363ffffffff1660e01b8152600401610ba0929190611ca0565b600060405180830381600087803b158015610bba57600080fd5b505af1158015610bce573d6000803e3d6000fd5b50505050606481610bdf91906118bf565b600760008481526020019081526020016000206001016000828254610c049190611b0a565b925050819055507ffd950f75bf83187106ca979032c87af4e8bedbeff7455cba6df787f978267f298382604051610c3c929190611cc9565b60405180910390a16110a0565b604051602001610c5890611d45565b6040516020818303038152906040528051906020012083604051602001610c7f9190611bdb565b6040516020818303038152906040528051906020012003610e765780600160009054906101000a900473ffffffffffffffffffffffffffffffffffffffff1673ffffffffffffffffffffffffffffffffffffffff1663c71daccb6040518163ffffffff1660e01b8152600401602060405180830381865afa158015610d08573d6000803e3d6000fd5b505050506040513d601f19601f82011682018060405250810190610d2c9190611c07565b1015610d6d576040517f08c379a0000000000000000000000000000000000000000000000000000000008152600401610d6490611da6565b60405180910390fd5b600160009054906101000a900473ffffffffffffffffffffffffffffffffffffffff1673ffffffffffffffffffffffffffffffffffffffff16632fdcfbd23330846040518463ffffffff1660e01b8152600401610dcc93929190611dc6565b600060405180830381600087803b158015610de657600080fd5b505af1158015610dfa573d6000803e3d6000fd5b5050505061271081610e0c91906118bf565b600760008481526020019081526020016000206001016000828254610e319190611b0a565b925050819055507ffd950f75bf83187106ca979032c87af4e8bedbeff7455cba6df787f978267f298382604051610e69929190611cc9565b60405180910390a161109f565b604051602001610e8590611e49565b6040516020818303038152906040528051906020012083604051602001610eac9190611bdb565b604051602081830303815290604052805190602001200361109e5780600260009054906101000a900473ffffffffffffffffffffffffffffffffffffffff1673ffffffffffffffffffffffffffffffffffffffff1663c71daccb6040518163ffffffff1660e01b8152600401602060405180830381865afa158015610f35573d6000803e3d6000fd5b505050506040513d601f19601f82011682018060405250810190610f599190611c07565b1015610f9a576040517f08c379a0000000000000000000000000000000000000000000000000000000008152600401610f9190611eaa565b60405180910390fd5b600260009054906101000a900473ffffffffffffffffffffffffffffffffffffffff1673ffffffffffffffffffffffffffffffffffffffff16632fdcfbd23330846040518463ffffffff1660e01b8152600401610ff993929190611dc6565b600060405180830381600087803b15801561101357600080fd5b505af1158015611027573d6000803e3d6000fd5b50505050600a8161103891906118bf565b60076000848152602001908152602001600020600101600082825461105d9190611b0a565b925050819055507ffd950f75bf83187106ca979032c87af4e8bedbeff7455cba6df787f978267f298382604051611095929190611cc9565b60405180910390a15b5b5b505050565b60006110ba828461134290919063ffffffff16565b600481905550600454905092915050565b60006110e0828461134290919063ffffffff16565b600381905550600354905092915050565b6064816110fe91906118bf565b60076000848152602001908152602001600020600101541015611156576040517f08c379a000000000000000000000000000000000000000000000000000000000815260040161114d9061193c565b60405180910390fd5b60008054906101000a900473ffffffffffffffffffffffffffffffffffffffff1673ffffffffffffffffffffffffffffffffffffffff1663e4b50cb8826040518263ffffffff1660e01b81526004016111af91906114b6565b600060405180830381600087803b1580156111c957600080fd5b505af11580156111dd573d6000803e3d6000fd5b505050506064816111ee91906118bf565b600760008481526020019081526020016000206001016000828254611213919061195c565b925050819055505050565b6000662386f26fc1000034101561126a576040517f08c379a000000000000000000000000000000000000000000000000000000000815260040161126190611f3c565b60405180910390fd5b600060405180606001604052808481526020013481526020013373ffffffffffffffffffffffffffffffffffffffff1681525090506000600660008154809291906112b490611f5c565b919050559050816007600083815260200190815260200160002060008201518160000190816112e39190612150565b506020820151816001015560408201518160020160006101000a81548173ffffffffffffffffffffffffffffffffffffffff021916908373ffffffffffffffffffffffffffffffffffffffff1602179055509050508092505050919050565b60006113968261138861135f60028661139e90919063ffffffff16565b61137a670de0b6b3a7640000886113b490919063ffffffff16565b6113f690919063ffffffff16565b61139e90919063ffffffff16565b905092915050565b600081836113ac91906118bf565b905092915050565b60008083036113c657600090506113f0565b81836113d29190611a5c565b90508183826113e191906118bf565b146113ef576113ee612222565b5b5b92915050565b600081836114049190611b0a565b90508281101561141757611416612222565b5b92915050565b6000604051905090565b600080fd5b600080fd5b6000819050919050565b61144481611431565b811461144f57600080fd5b50565b6000813590506114618161143b565b92915050565b6000806040838503121561147e5761147d611427565b5b600061148c85828601611452565b925050602061149d85828601611452565b9150509250929050565b6114b081611431565b82525050565b60006020820190506114cb60008301846114a7565b92915050565b6000602082840312156114e7576114e6611427565b5b60006114f584828501611452565b91505092915050565b600081519050919050565b600082825260208201905092915050565b60005b8381101561153857808201518184015260208101905061151d565b60008484015250505050565b6000601f19601f8301169050919050565b6000611560826114fe565b61156a8185611509565b935061157a81856020860161151a565b61158381611544565b840191505092915050565b600073ffffffffffffffffffffffffffffffffffffffff82169050919050565b60006115b98261158e565b9050919050565b6115c9816115ae565b82525050565b600060608201905081810360008301526115e98186611555565b90506115f860208301856114a7565b61160560408301846115c0565b949350505050565b6000806000806080858703121561162757611626611427565b5b600061163587828801611452565b945050602061164687828801611452565b935050604061165787828801611452565b925050606061166887828801611452565b91505092959194509250565b600080fd5b600080fd5b7f4e487b7100000000000000000000000000000000000000000000000000000000600052604160045260246000fd5b6116b682611544565b810181811067ffffffffffffffff821117156116d5576116d461167e565b5b80604052505050565b60006116e861141d565b90506116f482826116ad565b919050565b600067ffffffffffffffff8211156117145761171361167e565b5b61171d82611544565b9050602081019050919050565b82818337600083830152505050565b600061174c611747846116f9565b6116de565b90508281526020810184848401111561176857611767611679565b5b61177384828561172a565b509392505050565b600082601f8301126117905761178f611674565b5b81356117a0848260208601611739565b91505092915050565b6000806000606084860312156117c2576117c1611427565b5b600084013567ffffffffffffffff8111156117e0576117df61142c565b5b6117ec8682870161177b565b93505060206117fd86828701611452565b925050604061180e86828701611452565b9150509250925092565b60006020828403121561182e5761182d611427565b5b600082013567ffffffffffffffff81111561184c5761184b61142c565b5b6118588482850161177b565b91505092915050565b7f4e487b7100000000000000000000000000000000000000000000000000000000600052601260045260246000fd5b7f4e487b7100000000000000000000000000000000000000000000000000000000600052601160045260246000fd5b60006118ca82611431565b91506118d583611431565b9250826118e5576118e4611861565b5b828204905092915050565b7f596f7520646f6e2774206861766520656e6f7567682045544800000000000000600082015250565b6000611926601983611509565b9150611931826118f0565b602082019050919050565b6000602082019050818103600083015261195581611919565b9050919050565b600061196782611431565b915061197283611431565b925082820390508181111561198a57611989611890565b5b92915050565b7f4e487b7100000000000000000000000000000000000000000000000000000000600052602260045260246000fd5b600060028204905060018216806119d757607f821691505b6020821081036119ea576119e9611990565b5b50919050565b7f43616e6e6f742077697468647261772030204554480000000000000000000000600082015250565b6000611a26601583611509565b9150611a31826119f0565b602082019050919050565b60006020820190508181036000830152611a5581611a19565b9050919050565b6000611a6782611431565b9150611a7283611431565b9250828202611a8081611431565b91508282048414831517611a9757611a96611890565b5b5092915050565b7f43616e6e6f74206465706f736974203020455448000000000000000000000000600082015250565b6000611ad4601483611509565b9150611adf82611a9e565b602082019050919050565b60006020820190508181036000830152611b0381611ac7565b9050919050565b6000611b1582611431565b9150611b2083611431565b9250828201905080821115611b3857611b37611890565b5b92915050565b600081905092915050565b7f43726f0000000000000000000000000000000000000000000000000000000000600082015250565b6000611b7f600383611b3e565b9150611b8a82611b49565b600382019050919050565b6000611ba082611b72565b9150819050919050565b6000611bb5826114fe565b611bbf8185611b3e565b9350611bcf81856020860161151a565b80840191505092915050565b6000611be78284611baa565b915081905092915050565b600081519050611c018161143b565b92915050565b600060208284031215611c1d57611c1c611427565b5b6000611c2b84828501611bf2565b91505092915050565b7f596f7520646f6e74206861766520656e6f7567682043524f0000000000000000600082015250565b6000611c6a601883611509565b9150611c7582611c34565b602082019050919050565b60006020820190508181036000830152611c9981611c5d565b9050919050565b6000604082019050611cb560008301856115c0565b611cc260208301846114a7565b9392505050565b60006040820190508181036000830152611ce38185611555565b9050611cf260208301846114a7565b9392505050565b7f5368696200000000000000000000000000000000000000000000000000000000600082015250565b6000611d2f600483611b3e565b9150611d3a82611cf9565b600482019050919050565b6000611d5082611d22565b9150819050919050565b7f596f7520646f6e74206861766520656e6f756768205348494200000000000000600082015250565b6000611d90601983611509565b9150611d9b82611d5a565b602082019050919050565b60006020820190508181036000830152611dbf81611d83565b9050919050565b6000606082019050611ddb60008301866115c0565b611de860208301856115c0565b611df560408301846114a7565b949350505050565b7f556e690000000000000000000000000000000000000000000000000000000000600082015250565b6000611e33600383611b3e565b9150611e3e82611dfd565b600382019050919050565b6000611e5482611e26565b9150819050919050565b7f596f7520646f6e74206861766520656e6f75676820554e490000000000000000600082015250565b6000611e94601883611509565b9150611e9f82611e5e565b602082019050919050565b60006020820190508181036000830152611ec381611e87565b9050919050565b7f6174206c6561737420302e303120455448206973206e656564656420746f207260008201527f6567697374657200000000000000000000000000000000000000000000000000602082015250565b6000611f26602783611509565b9150611f3182611eca565b604082019050919050565b60006020820190508181036000830152611f5581611f19565b9050919050565b6000611f6782611431565b91507fffffffffffffffffffffffffffffffffffffffffffffffffffffffffffffffff8203611f9957611f98611890565b5b600182019050919050565b60008190508160005260206000209050919050565b60006020601f8301049050919050565b600082821b905092915050565b6000600883026120067fffffffffffffffffffffffffffffffffffffffffffffffffffffffffffffffff82611fc9565b6120108683611fc9565b95508019841693508086168417925050509392505050565b6000819050919050565b600061204d61204861204384611431565b612028565b611431565b9050919050565b6000819050919050565b61206783612032565b61207b61207382612054565b848454611fd6565b825550505050565b600090565b612090612083565b61209b81848461205e565b505050565b5b818110156120bf576120b4600082612088565b6001810190506120a1565b5050565b601f821115612104576120d581611fa4565b6120de84611fb9565b810160208510156120ed578190505b6121016120f985611fb9565b8301826120a0565b50505b505050565b600082821c905092915050565b600061212760001984600802612109565b1980831691505092915050565b60006121408383612116565b9150826002028217905092915050565b612159826114fe565b67ffffffffffffffff8111156121725761217161167e565b5b61217c82546119bf565b6121878282856120c3565b600060209050601f8311600181146121ba57600084156121a8578287015190505b6121b28582612134565b86555061221a565b601f1984166121c886611fa4565b60005b828110156121f0578489015182556001820191506020850194506020810190506121cb565b8683101561220d5784890151612209601f891682612116565b8355505b6001600288020188555050505b505050505050565b7f4e487b7100000000000000000000000000000000000000000000000000000000600052600160045260246000fdfea264697066735822122024aabab59216e3cd0750f9f5d1d6babb6d1e5d77c1a4612deff4192163669dce64736f6c63430008110033608060405234801561001057600080fd5b50600060405161001f906100d0565b604051809103906000f08015801561003b573d6000803e3d6000fd5b509050806000806101000a81548173ffffffffffffffffffffffffffffffffffffffff021916908373ffffffffffffffffffffffffffffffffffffffff16021790555033600360006101000a81548173ffffffffffffffffffffffffffffffffffffffff021916908373ffffffffffffffffffffffffffffffffffffffff1602179055506305f5e100600181905550506100dd565b6114f780610a1683390190565b61092a806100ec6000396000f3fe60806040526004361061004a5760003560e01c80632fdcfbd21461004f578063412664ae146100785780635f515226146100a1578063c71daccb146100de578063e4b50cb814610109575b600080fd5b34801561005b57600080fd5b50610076600480360381019061007191906105cc565b610125565b005b34801561008457600080fd5b5061009f600480360381019061009a919061061f565b6101cb565b005b3480156100ad57600080fd5b506100c860048036038101906100c3919061065f565b61026e565b6040516100d5919061069b565b60405180910390f35b3480156100ea57600080fd5b506100f3610312565b604051610100919061069b565b60405180910390f35b610123600480360381019061011e91906106b6565b6103b4565b005b60008054906101000a900473ffffffffffffffffffffffffffffffffffffffff1673ffffffffffffffffffffffffffffffffffffffff166323b872dd8484846040518463ffffffff1660e01b8152600401610182939291906106f2565b6020604051808303816000875af11580156101a1573d6000803e3d6000fd5b505050506040513d601f19601f820116820180604052508101906101c59190610761565b50505050565b60008054906101000a900473ffffffffffffffffffffffffffffffffffffffff1673ffffffffffffffffffffffffffffffffffffffff1663a9059cbb83836040518363ffffffff1660e01b815260040161022692919061078e565b6020604051808303816000875af1158015610245573d6000803e3d6000fd5b505050506040513d601f19601f820116820180604052508101906102699190610761565b505050565b60008060009054906101000a900473ffffffffffffffffffffffffffffffffffffffff1673ffffffffffffffffffffffffffffffffffffffff166370a08231836040518263ffffffff1660e01b81526004016102ca91906107b7565b602060405180830381865afa1580156102e7573d6000803e3d6000fd5b505050506040513d601f19601f8201168201806040525081019061030b91906107e7565b9050919050565b60008060009054906101000a900473ffffffffffffffffffffffffffffffffffffffff1673ffffffffffffffffffffffffffffffffffffffff166370a08231336040518263ffffffff1660e01b815260040161036e91906107b7565b602060405180830381865afa15801561038b573d6000803e3d6000fd5b505050506040513d601f19601f820116820180604052508101906103af91906107e7565b905090565b6001548160008054906101000a900473ffffffffffffffffffffffffffffffffffffffff1673ffffffffffffffffffffffffffffffffffffffff166318160ddd6040518163ffffffff1660e01b8152600401602060405180830381865afa158015610423573d6000803e3d6000fd5b505050506040513d601f19601f8201168201806040525081019061044791906107e7565b6104519190610843565b10610491576040517f08c379a0000000000000000000000000000000000000000000000000000000008152600401610488906108d4565b60405180910390fd5b60008054906101000a900473ffffffffffffffffffffffffffffffffffffffff1673ffffffffffffffffffffffffffffffffffffffff166340c10f1933836040518363ffffffff1660e01b81526004016104ec92919061078e565b6020604051808303816000875af115801561050b573d6000803e3d6000fd5b505050506040513d601f19601f8201168201806040525081019061052f9190610761565b5050565b600080fd5b600073ffffffffffffffffffffffffffffffffffffffff82169050919050565b600061056382610538565b9050919050565b61057381610558565b811461057e57600080fd5b50565b6000813590506105908161056a565b92915050565b6000819050919050565b6105a981610596565b81146105b457600080fd5b50565b6000813590506105c6816105a0565b92915050565b6000806000606084860312156105e5576105e4610533565b5b60006105f386828701610581565b935050602061060486828701610581565b9250506040610615868287016105b7565b9150509250925092565b6000806040838503121561063657610635610533565b5b600061064485828601610581565b9250506020610655858286016105b7565b9150509250929050565b60006020828403121561067557610674610533565b5b600061068384828501610581565b91505092915050565b61069581610596565b82525050565b60006020820190506106b0600083018461068c565b92915050565b6000602082840312156106cc576106cb610533565b5b60006106da848285016105b7565b91505092915050565b6106ec81610558565b82525050565b600060608201905061070760008301866106e3565b61071460208301856106e3565b610721604083018461068c565b949350505050565b60008115159050919050565b61073e81610729565b811461074957600080fd5b50565b60008151905061075b81610735565b92915050565b60006020828403121561077757610776610533565b5b60006107858482850161074c565b91505092915050565b60006040820190506107a360008301856106e3565b6107b0602083018461068c565b9392505050565b60006020820190506107cc60008301846106e3565b92915050565b6000815190506107e1816105a0565b92915050565b6000602082840312156107fd576107fc610533565b5b600061080b848285016107d2565b91505092915050565b7f4e487b7100000000000000000000000000000000000000000000000000000000600052601160045260246000fd5b600061084e82610596565b915061085983610596565b925082820190508082111561087157610870610814565b5b92915050565b600082825260208201905092915050565b7f5348494220737570706c79206973206e6f7420656e6f75676800000000000000600082015250565b60006108be601983610877565b91506108c982610888565b602082019050919050565b600060208201905081810360008301526108ed816108b1565b905091905056fea2646970667358221220d5d1885b28bdd8832e38aba989d2f1d3e1851f8e8d76fa450de3bbf88b57e29964736f6c63430008110033608060405260008060006101000a81548160ff02191690831515021790555033600060016101000a81548173ffffffffffffffffffffffffffffffffffffffff021916908373ffffffffffffffffffffffffffffffffffffffff16021790555034801561006b57600080fd5b5061147c8061007b6000396000f3fe608060405234801561001057600080fd5b50600436106100ea5760003560e01c806370a082311161008c5780638da5cb5b116100665780638da5cb5b1461026357806395d89b4114610281578063a9059cbb1461029f578063dd62ed3e146102cf576100ea565b806370a08231146101f75780637d64bcb414610227578063893d20e814610245576100ea565b806318160ddd116100c857806318160ddd1461015b57806323b872dd14610179578063313ce567146101a957806340c10f19146101c7576100ea565b806305d2035b146100ef57806306fdde031461010d578063095ea7b31461012b575b600080fd5b6100f76102ff565b6040516101049190610f25565b60405180910390f35b610115610310565b6040516101229190610fd0565b60405180910390f35b6101456004803603810190610140919061108b565b610349565b6040516101529190610f25565b60405180910390f35b61016361043b565b60405161017091906110da565b60405180910390f35b610193600480360381019061018e91906110f5565b610445565b6040516101a09190610f25565b60405180910390f35b6101b1610869565b6040516101be9190611164565b60405180910390f35b6101e160048036038101906101dc919061108b565b61086e565b6040516101ee9190610f25565b60405180910390f35b610211600480360381019061020c919061117f565b610a4f565b60405161021e91906110da565b60405180910390f35b61022f610a98565b60405161023c9190610f25565b60405180910390f35b61024d610b58565b60405161025a91906111bb565b60405180910390f35b61026b610b81565b60405161027891906111bb565b60405180910390f35b610289610ba7565b6040516102969190610fd0565b60405180910390f35b6102b960048036038101906102b4919061108b565b610be0565b6040516102c69190610f25565b60405180910390f35b6102e960048036038101906102e491906111d6565b610e35565b6040516102f691906110da565b60405180910390f35b60008054906101000a900460ff1681565b6040518060400160405280600981526020017f44696365546f6b656e000000000000000000000000000000000000000000000081525081565b600081600160003373ffffffffffffffffffffffffffffffffffffffff1673ffffffffffffffffffffffffffffffffffffffff16815260200190815260200160002060008573ffffffffffffffffffffffffffffffffffffffff1673ffffffffffffffffffffffffffffffffffffffff168152602001908152602001600020819055508273ffffffffffffffffffffffffffffffffffffffff163373ffffffffffffffffffffffffffffffffffffffff167f8c5be1e5ebec7d5bd14f71427d1e84f3dd0314c0f7b2291e5b200ac8c7c3b9258460405161042991906110da565b60405180910390a36001905092915050565b6000600354905090565b60008073ffffffffffffffffffffffffffffffffffffffff168373ffffffffffffffffffffffffffffffffffffffff160361047f57600080fd5b600260008573ffffffffffffffffffffffffffffffffffffffff1673ffffffffffffffffffffffffffffffffffffffff16815260200190815260200160002054821115610501576040517f08c379a00000000000000000000000000000000000000000000000000000000081526004016104f890611262565b60405180910390fd5b600160008573ffffffffffffffffffffffffffffffffffffffff1673ffffffffffffffffffffffffffffffffffffffff16815260200190815260200160002060003273ffffffffffffffffffffffffffffffffffffffff1673ffffffffffffffffffffffffffffffffffffffff168152602001908152602001600020548211156105c0576040517f08c379a00000000000000000000000000000000000000000000000000000000081526004016105b7906112ce565b60405180910390fd5b61061282600260008773ffffffffffffffffffffffffffffffffffffffff1673ffffffffffffffffffffffffffffffffffffffff16815260200190815260200160002054610ebc90919063ffffffff16565b600260008673ffffffffffffffffffffffffffffffffffffffff1673ffffffffffffffffffffffffffffffffffffffff168152602001908152602001600020819055506106a782600260008673ffffffffffffffffffffffffffffffffffffffff1673ffffffffffffffffffffffffffffffffffffffff16815260200190815260200160002054610ee390919063ffffffff16565b600260008573ffffffffffffffffffffffffffffffffffffffff1673ffffffffffffffffffffffffffffffffffffffff1681526020019081526020016000208190555061077982600160008773ffffffffffffffffffffffffffffffffffffffff1673ffffffffffffffffffffffffffffffffffffffff16815260200190815260200160002060003273ffffffffffffffffffffffffffffffffffffffff1673ffffffffffffffffffffffffffffffffffffffff16815260200190815260200160002054610ebc90919063ffffffff16565b600160008673ffffffffffffffffffffffffffffffffffffffff1673ffffffffffffffffffffffffffffffffffffffff16815260200190815260200160002060003273ffffffffffffffffffffffffffffffffffffffff1673ffffffffffffffffffffffffffffffffffffffff168152602001908152602001600020819055508273ffffffffffffffffffffffffffffffffffffffff168473ffffffffffffffffffffffffffffffffffffffff167fddf252ad1be2c89b69c2b068fc378daa952ba7f163c4a11628f55a4df523b3ef8460405161085691906110da565b60405180910390a3600190509392505050565b601281565b60008060019054906101000a900473ffffffffffffffffffffffffffffffffffffffff1673ffffffffffffffffffffffffffffffffffffffff163373ffffffffffffffffffffffffffffffffffffffff16146108c957600080fd5b60008054906101000a900460ff16156108e157600080fd5b6108f682600354610ee390919063ffffffff16565b60038190555061094e82600260008673ffffffffffffffffffffffffffffffffffffffff1673ffffffffffffffffffffffffffffffffffffffff16815260200190815260200160002054610ee390919063ffffffff16565b600260008573ffffffffffffffffffffffffffffffffffffffff1673ffffffffffffffffffffffffffffffffffffffff168152602001908152602001600020819055508273ffffffffffffffffffffffffffffffffffffffff167f0f6798a560793a54c3bcfe86a93cde1e73087d944c0ea20544137d4121396885836040516109d791906110da565b60405180910390a28273ffffffffffffffffffffffffffffffffffffffff16600073ffffffffffffffffffffffffffffffffffffffff167fddf252ad1be2c89b69c2b068fc378daa952ba7f163c4a11628f55a4df523b3ef84604051610a3d91906110da565b60405180910390a36001905092915050565b6000600260008373ffffffffffffffffffffffffffffffffffffffff1673ffffffffffffffffffffffffffffffffffffffff168152602001908152602001600020549050919050565b60008060019054906101000a900473ffffffffffffffffffffffffffffffffffffffff1673ffffffffffffffffffffffffffffffffffffffff163373ffffffffffffffffffffffffffffffffffffffff1614610af357600080fd5b60008054906101000a900460ff1615610b0b57600080fd5b60016000806101000a81548160ff0219169083151502179055507fae5184fba832cb2b1f702aca6117b8d265eaf03ad33eb133f19dde0f5920fa0860405160405180910390a16001905090565b60008060019054906101000a900473ffffffffffffffffffffffffffffffffffffffff16905090565b600060019054906101000a900473ffffffffffffffffffffffffffffffffffffffff1681565b6040518060400160405280600281526020017f445400000000000000000000000000000000000000000000000000000000000081525081565b60008073ffffffffffffffffffffffffffffffffffffffff168373ffffffffffffffffffffffffffffffffffffffff1603610c1a57600080fd5b600260003273ffffffffffffffffffffffffffffffffffffffff1673ffffffffffffffffffffffffffffffffffffffff16815260200190815260200160002054821115610c9c576040517f08c379a0000000000000000000000000000000000000000000000000000000008152600401610c9390611360565b60405180910390fd5b610cee82600260003273ffffffffffffffffffffffffffffffffffffffff1673ffffffffffffffffffffffffffffffffffffffff16815260200190815260200160002054610ebc90919063ffffffff16565b600260003273ffffffffffffffffffffffffffffffffffffffff1673ffffffffffffffffffffffffffffffffffffffff16815260200190815260200160002081905550610d8382600260008673ffffffffffffffffffffffffffffffffffffffff1673ffffffffffffffffffffffffffffffffffffffff16815260200190815260200160002054610ee390919063ffffffff16565b600260008573ffffffffffffffffffffffffffffffffffffffff1673ffffffffffffffffffffffffffffffffffffffff168152602001908152602001600020819055508273ffffffffffffffffffffffffffffffffffffffff163273ffffffffffffffffffffffffffffffffffffffff167fddf252ad1be2c89b69c2b068fc378daa952ba7f163c4a11628f55a4df523b3ef84604051610e2391906110da565b60405180910390a36001905092915050565b6000600160008473ffffffffffffffffffffffffffffffffffffffff1673ffffffffffffffffffffffffffffffffffffffff16815260200190815260200160002060008373ffffffffffffffffffffffffffffffffffffffff1673ffffffffffffffffffffffffffffffffffffffff16815260200190815260200160002054905092915050565b600082821115610ecf57610ece611380565b5b8183610edb91906113de565b905092915050565b60008183610ef19190611412565b905082811015610f0457610f03611380565b5b92915050565b60008115159050919050565b610f1f81610f0a565b82525050565b6000602082019050610f3a6000830184610f16565b92915050565b600081519050919050565b600082825260208201905092915050565b60005b83811015610f7a578082015181840152602081019050610f5f565b60008484015250505050565b6000601f19601f8301169050919050565b6000610fa282610f40565b610fac8185610f4b565b9350610fbc818560208601610f5c565b610fc581610f86565b840191505092915050565b60006020820190508181036000830152610fea8184610f97565b905092915050565b600080fd5b600073ffffffffffffffffffffffffffffffffffffffff82169050919050565b600061102282610ff7565b9050919050565b61103281611017565b811461103d57600080fd5b50565b60008135905061104f81611029565b92915050565b6000819050919050565b61106881611055565b811461107357600080fd5b50565b6000813590506110858161105f565b92915050565b600080604083850312156110a2576110a1610ff2565b5b60006110b085828601611040565b92505060206110c185828601611076565b9150509250929050565b6110d481611055565b82525050565b60006020820190506110ef60008301846110cb565b92915050565b60008060006060848603121561110e5761110d610ff2565b5b600061111c86828701611040565b935050602061112d86828701611040565b925050604061113e86828701611076565b9150509250925092565b600060ff82169050919050565b61115e81611148565b82525050565b60006020820190506111796000830184611155565b92915050565b60006020828403121561119557611194610ff2565b5b60006111a384828501611040565b91505092915050565b6111b581611017565b82525050565b60006020820190506111d060008301846111ac565b92915050565b600080604083850312156111ed576111ec610ff2565b5b60006111fb85828601611040565b925050602061120c85828601611040565b9150509250929050565b7f46726f6d20646f65736e2774206861766520656e6f7567682062616c616e6365600082015250565b600061124c602083610f4b565b915061125782611216565b602082019050919050565b6000602082019050818103600083015261127b8161123f565b9050919050565b7f4e6f7420616c6c6f77656420746f207370656e642074686973206d7563680000600082015250565b60006112b8601e83610f4b565b91506112c382611282565b602082019050919050565b600060208201905081810360008301526112e7816112ab565b9050919050565b7f6d73672e73656e64657220646f65736e2774206861766520656e6f756768206260008201527f616c616e63650000000000000000000000000000000000000000000000000000602082015250565b600061134a602683610f4b565b9150611355826112ee565b604082019050919050565b600060208201905081810360008301526113798161133d565b9050919050565b7f4e487b7100000000000000000000000000000000000000000000000000000000600052600160045260246000fd5b7f4e487b7100000000000000000000000000000000000000000000000000000000600052601160045260246000fd5b60006113e982611055565b91506113f483611055565b925082820390508181111561140c5761140b6113af565b5b92915050565b600061141d82611055565b915061142883611055565b92508282019050808211156114405761143f6113af565b5b9291505056fea2646970667358221220439dc5e7fb8660dee6f558f8c46097de741ef2171c3c95a14b80724ef3b3b13064736f6c63430008110033608060405234801561001057600080fd5b50600060405161001f906100ce565b604051809103906000f08015801561003b573d6000803e3d6000fd5b509050806000806101000a81548173ffffffffffffffffffffffffffffffffffffffff021916908373ffffffffffffffffffffffffffffffffffffffff16021790555033600360006101000a81548173ffffffffffffffffffffffffffffffffffffffff021916908373ffffffffffffffffffffffffffffffffffffffff160217905550612710600181905550506100db565b6114f780610a1483390190565b61092a806100ea6000396000f3fe60806040526004361061004a5760003560e01c80632fdcfbd21461004f578063412664ae146100785780635f515226146100a1578063c71daccb146100de578063e4b50cb814610109575b600080fd5b34801561005b57600080fd5b50610076600480360381019061007191906105cc565b610125565b005b34801561008457600080fd5b5061009f600480360381019061009a919061061f565b6101cb565b005b3480156100ad57600080fd5b506100c860048036038101906100c3919061065f565b61026e565b6040516100d5919061069b565b60405180910390f35b3480156100ea57600080fd5b506100f3610312565b604051610100919061069b565b60405180910390f35b610123600480360381019061011e91906106b6565b6103b4565b005b60008054906101000a900473ffffffffffffffffffffffffffffffffffffffff1673ffffffffffffffffffffffffffffffffffffffff166323b872dd8484846040518463ffffffff1660e01b8152600401610182939291906106f2565b6020604051808303816000875af11580156101a1573d6000803e3d6000fd5b505050506040513d601f19601f820116820180604052508101906101c59190610761565b50505050565b60008054906101000a900473ffffffffffffffffffffffffffffffffffffffff1673ffffffffffffffffffffffffffffffffffffffff1663a9059cbb83836040518363ffffffff1660e01b815260040161022692919061078e565b6020604051808303816000875af1158015610245573d6000803e3d6000fd5b505050506040513d601f19601f820116820180604052508101906102699190610761565b505050565b60008060009054906101000a900473ffffffffffffffffffffffffffffffffffffffff1673ffffffffffffffffffffffffffffffffffffffff166370a08231836040518263ffffffff1660e01b81526004016102ca91906107b7565b602060405180830381865afa1580156102e7573d6000803e3d6000fd5b505050506040513d601f19601f8201168201806040525081019061030b91906107e7565b9050919050565b60008060009054906101000a900473ffffffffffffffffffffffffffffffffffffffff1673ffffffffffffffffffffffffffffffffffffffff166370a08231336040518263ffffffff1660e01b815260040161036e91906107b7565b602060405180830381865afa15801561038b573d6000803e3d6000fd5b505050506040513d601f19601f820116820180604052508101906103af91906107e7565b905090565b6001548160008054906101000a900473ffffffffffffffffffffffffffffffffffffffff1673ffffffffffffffffffffffffffffffffffffffff166318160ddd6040518163ffffffff1660e01b8152600401602060405180830381865afa158015610423573d6000803e3d6000fd5b505050506040513d601f19601f8201168201806040525081019061044791906107e7565b6104519190610843565b10610491576040517f08c379a0000000000000000000000000000000000000000000000000000000008152600401610488906108d4565b60405180910390fd5b60008054906101000a900473ffffffffffffffffffffffffffffffffffffffff1673ffffffffffffffffffffffffffffffffffffffff166340c10f1933836040518363ffffffff1660e01b81526004016104ec92919061078e565b6020604051808303816000875af115801561050b573d6000803e3d6000fd5b505050506040513d601f19601f8201168201806040525081019061052f9190610761565b5050565b600080fd5b600073ffffffffffffffffffffffffffffffffffffffff82169050919050565b600061056382610538565b9050919050565b61057381610558565b811461057e57600080fd5b50565b6000813590506105908161056a565b92915050565b6000819050919050565b6105a981610596565b81146105b457600080fd5b50565b6000813590506105c6816105a0565b92915050565b6000806000606084860312156105e5576105e4610533565b5b60006105f386828701610581565b935050602061060486828701610581565b9250506040610615868287016105b7565b9150509250925092565b6000806040838503121561063657610635610533565b5b600061064485828601610581565b9250506020610655858286016105b7565b9150509250929050565b60006020828403121561067557610674610533565b5b600061068384828501610581565b91505092915050565b61069581610596565b82525050565b60006020820190506106b0600083018461068c565b92915050565b6000602082840312156106cc576106cb610533565b5b60006106da848285016105b7565b91505092915050565b6106ec81610558565b82525050565b600060608201905061070760008301866106e3565b61071460208301856106e3565b610721604083018461068c565b949350505050565b60008115159050919050565b61073e81610729565b811461074957600080fd5b50565b60008151905061075b81610735565b92915050565b60006020828403121561077757610776610533565b5b60006107858482850161074c565b91505092915050565b60006040820190506107a360008301856106e3565b6107b0602083018461068c565b9392505050565b60006020820190506107cc60008301846106e3565b92915050565b6000815190506107e1816105a0565b92915050565b6000602082840312156107fd576107fc610533565b5b600061080b848285016107d2565b91505092915050565b7f4e487b7100000000000000000000000000000000000000000000000000000000600052601160045260246000fd5b600061084e82610596565b915061085983610596565b925082820190508082111561087157610870610814565b5b92915050565b600082825260208201905092915050565b7f554e4920737570706c79206973206e6f7420656e6f7567680000000000000000600082015250565b60006108be601883610877565b91506108c982610888565b602082019050919050565b600060208201905081810360008301526108ed816108b1565b905091905056fea26469706673582212200a3cf50d5249e51dff6cb2c363631cf2bca11e18237319bb66158e2e333548e964736f6c63430008110033608060405260008060006101000a81548160ff02191690831515021790555033600060016101000a81548173ffffffffffffffffffffffffffffffffffffffff021916908373ffffffffffffffffffffffffffffffffffffffff16021790555034801561006b57600080fd5b5061147c8061007b6000396000f3fe608060405234801561001057600080fd5b50600436106100ea5760003560e01c806370a082311161008c5780638da5cb5b116100665780638da5cb5b1461026357806395d89b4114610281578063a9059cbb1461029f578063dd62ed3e146102cf576100ea565b806370a08231146101f75780637d64bcb414610227578063893d20e814610245576100ea565b806318160ddd116100c857806318160ddd1461015b57806323b872dd14610179578063313ce567146101a957806340c10f19146101c7576100ea565b806305d2035b146100ef57806306fdde031461010d578063095ea7b31461012b575b600080fd5b6100f76102ff565b6040516101049190610f25565b60405180910390f35b610115610310565b6040516101229190610fd0565b60405180910390f35b6101456004803603810190610140919061108b565b610349565b6040516101529190610f25565b60405180910390f35b61016361043b565b60405161017091906110da565b60405180910390f35b610193600480360381019061018e91906110f5565b610445565b6040516101a09190610f25565b60405180910390f35b6101b1610869565b6040516101be9190611164565b60405180910390f35b6101e160048036038101906101dc919061108b565b61086e565b6040516101ee9190610f25565b60405180910390f35b610211600480360381019061020c919061117f565b610a4f565b60405161021e91906110da565b60405180910390f35b61022f610a98565b60405161023c9190610f25565b60405180910390f35b61024d610b58565b60405161025a91906111bb565b60405180910390f35b61026b610b81565b60405161027891906111bb565b60405180910390f35b610289610ba7565b6040516102969190610fd0565b60405180910390f35b6102b960048036038101906102b4919061108b565b610be0565b6040516102c69190610f25565b60405180910390f35b6102e960048036038101906102e491906111d6565b610e35565b6040516102f691906110da565b60405180910390f35b60008054906101000a900460ff1681565b6040518060400160405280600981526020017f44696365546f6b656e000000000000000000000000000000000000000000000081525081565b600081600160003373ffffffffffffffffffffffffffffffffffffffff1673ffffffffffffffffffffffffffffffffffffffff16815260200190815260200160002060008573ffffffffffffffffffffffffffffffffffffffff1673ffffffffffffffffffffffffffffffffffffffff168152602001908152602001600020819055508273ffffffffffffffffffffffffffffffffffffffff163373ffffffffffffffffffffffffffffffffffffffff167f8c5be1e5ebec7d5bd14f71427d1e84f3dd0314c0f7b2291e5b200ac8c7c3b9258460405161042991906110da565b60405180910390a36001905092915050565b6000600354905090565b60008073ffffffffffffffffffffffffffffffffffffffff168373ffffffffffffffffffffffffffffffffffffffff160361047f57600080fd5b600260008573ffffffffffffffffffffffffffffffffffffffff1673ffffffffffffffffffffffffffffffffffffffff16815260200190815260200160002054821115610501576040517f08c379a00000000000000000000000000000000000000000000000000000000081526004016104f890611262565b60405180910390fd5b600160008573ffffffffffffffffffffffffffffffffffffffff1673ffffffffffffffffffffffffffffffffffffffff16815260200190815260200160002060003273ffffffffffffffffffffffffffffffffffffffff1673ffffffffffffffffffffffffffffffffffffffff168152602001908152602001600020548211156105c0576040517f08c379a00000000000000000000000000000000000000000000000000000000081526004016105b7906112ce565b60405180910390fd5b61061282600260008773ffffffffffffffffffffffffffffffffffffffff1673ffffffffffffffffffffffffffffffffffffffff16815260200190815260200160002054610ebc90919063ffffffff16565b600260008673ffffffffffffffffffffffffffffffffffffffff1673ffffffffffffffffffffffffffffffffffffffff168152602001908152602001600020819055506106a782600260008673ffffffffffffffffffffffffffffffffffffffff1673ffffffffffffffffffffffffffffffffffffffff16815260200190815260200160002054610ee390919063ffffffff16565b600260008573ffffffffffffffffffffffffffffffffffffffff1673ffffffffffffffffffffffffffffffffffffffff1681526020019081526020016000208190555061077982600160008773ffffffffffffffffffffffffffffffffffffffff1673ffffffffffffffffffffffffffffffffffffffff16815260200190815260200160002060003273ffffffffffffffffffffffffffffffffffffffff1673ffffffffffffffffffffffffffffffffffffffff16815260200190815260200160002054610ebc90919063ffffffff16565b600160008673ffffffffffffffffffffffffffffffffffffffff1673ffffffffffffffffffffffffffffffffffffffff16815260200190815260200160002060003273ffffffffffffffffffffffffffffffffffffffff1673ffffffffffffffffffffffffffffffffffffffff168152602001908152602001600020819055508273ffffffffffffffffffffffffffffffffffffffff168473ffffffffffffffffffffffffffffffffffffffff167fddf252ad1be2c89b69c2b068fc378daa952ba7f163c4a11628f55a4df523b3ef8460405161085691906110da565b60405180910390a3600190509392505050565b601281565b60008060019054906101000a900473ffffffffffffffffffffffffffffffffffffffff1673ffffffffffffffffffffffffffffffffffffffff163373ffffffffffffffffffffffffffffffffffffffff16146108c957600080fd5b60008054906101000a900460ff16156108e157600080fd5b6108f682600354610ee390919063ffffffff16565b60038190555061094e82600260008673ffffffffffffffffffffffffffffffffffffffff1673ffffffffffffffffffffffffffffffffffffffff16815260200190815260200160002054610ee390919063ffffffff16565b600260008573ffffffffffffffffffffffffffffffffffffffff1673ffffffffffffffffffffffffffffffffffffffff168152602001908152602001600020819055508273ffffffffffffffffffffffffffffffffffffffff167f0f6798a560793a54c3bcfe86a93cde1e73087d944c0ea20544137d4121396885836040516109d791906110da565b60405180910390a28273ffffffffffffffffffffffffffffffffffffffff16600073ffffffffffffffffffffffffffffffffffffffff167fddf252ad1be2c89b69c2b068fc378daa952ba7f163c4a11628f55a4df523b3ef84604051610a3d91906110da565b60405180910390a36001905092915050565b6000600260008373ffffffffffffffffffffffffffffffffffffffff1673ffffffffffffffffffffffffffffffffffffffff168152602001908152602001600020549050919050565b60008060019054906101000a900473ffffffffffffffffffffffffffffffffffffffff1673ffffffffffffffffffffffffffffffffffffffff163373ffffffffffffffffffffffffffffffffffffffff1614610af357600080fd5b60008054906101000a900460ff1615610b0b57600080fd5b60016000806101000a81548160ff0219169083151502179055507fae5184fba832cb2b1f702aca6117b8d265eaf03ad33eb133f19dde0f5920fa0860405160405180910390a16001905090565b60008060019054906101000a900473ffffffffffffffffffffffffffffffffffffffff16905090565b600060019054906101000a900473ffffffffffffffffffffffffffffffffffffffff1681565b6040518060400160405280600281526020017f445400000000000000000000000000000000000000000000000000000000000081525081565b60008073ffffffffffffffffffffffffffffffffffffffff168373ffffffffffffffffffffffffffffffffffffffff1603610c1a57600080fd5b600260003273ffffffffffffffffffffffffffffffffffffffff1673ffffffffffffffffffffffffffffffffffffffff16815260200190815260200160002054821115610c9c576040517f08c379a0000000000000000000000000000000000000000000000000000000008152600401610c9390611360565b60405180910390fd5b610cee82600260003273ffffffffffffffffffffffffffffffffffffffff1673ffffffffffffffffffffffffffffffffffffffff16815260200190815260200160002054610ebc90919063ffffffff16565b600260003273ffffffffffffffffffffffffffffffffffffffff1673ffffffffffffffffffffffffffffffffffffffff16815260200190815260200160002081905550610d8382600260008673ffffffffffffffffffffffffffffffffffffffff1673ffffffffffffffffffffffffffffffffffffffff16815260200190815260200160002054610ee390919063ffffffff16565b600260008573ffffffffffffffffffffffffffffffffffffffff1673ffffffffffffffffffffffffffffffffffffffff168152602001908152602001600020819055508273ffffffffffffffffffffffffffffffffffffffff163273ffffffffffffffffffffffffffffffffffffffff167fddf252ad1be2c89b69c2b068fc378daa952ba7f163c4a11628f55a4df523b3ef84604051610e2391906110da565b60405180910390a36001905092915050565b6000600160008473ffffffffffffffffffffffffffffffffffffffff1673ffffffffffffffffffffffffffffffffffffffff16815260200190815260200160002060008373ffffffffffffffffffffffffffffffffffffffff1673ffffffffffffffffffffffffffffffffffffffff16815260200190815260200160002054905092915050565b600082821115610ecf57610ece611380565b5b8183610edb91906113de565b905092915050565b60008183610ef19190611412565b905082811015610f0457610f03611380565b5b92915050565b60008115159050919050565b610f1f81610f0a565b82525050565b6000602082019050610f3a6000830184610f16565b92915050565b600081519050919050565b600082825260208201905092915050565b60005b83811015610f7a578082015181840152602081019050610f5f565b60008484015250505050565b6000601f19601f8301169050919050565b6000610fa282610f40565b610fac8185610f4b565b9350610fbc818560208601610f5c565b610fc581610f86565b840191505092915050565b60006020820190508181036000830152610fea8184610f97565b905092915050565b600080fd5b600073ffffffffffffffffffffffffffffffffffffffff82169050919050565b600061102282610ff7565b9050919050565b61103281611017565b811461103d57600080fd5b50565b60008135905061104f81611029565b92915050565b6000819050919050565b61106881611055565b811461107357600080fd5b50565b6000813590506110858161105f565b92915050565b600080604083850312156110a2576110a1610ff2565b5b60006110b085828601611040565b92505060206110c185828601611076565b9150509250929050565b6110d481611055565b82525050565b60006020820190506110ef60008301846110cb565b92915050565b60008060006060848603121561110e5761110d610ff2565b5b600061111c86828701611040565b935050602061112d86828701611040565b925050604061113e86828701611076565b9150509250925092565b600060ff82169050919050565b61115e81611148565b82525050565b60006020820190506111796000830184611155565b92915050565b60006020828403121561119557611194610ff2565b5b60006111a384828501611040565b91505092915050565b6111b581611017565b82525050565b60006020820190506111d060008301846111ac565b92915050565b600080604083850312156111ed576111ec610ff2565b5b60006111fb85828601611040565b925050602061120c85828601611040565b9150509250929050565b7f46726f6d20646f65736e2774206861766520656e6f7567682062616c616e6365600082015250565b600061124c602083610f4b565b915061125782611216565b602082019050919050565b6000602082019050818103600083015261127b8161123f565b9050919050565b7f4e6f7420616c6c6f77656420746f207370656e642074686973206d7563680000600082015250565b60006112b8601e83610f4b565b91506112c382611282565b602082019050919050565b600060208201905081810360008301526112e7816112ab565b9050919050565b7f6d73672e73656e64657220646f65736e2774206861766520656e6f756768206260008201527f616c616e63650000000000000000000000000000000000000000000000000000602082015250565b600061134a602683610f4b565b9150611355826112ee565b604082019050919050565b600060208201905081810360008301526113798161133d565b9050919050565b7f4e487b7100000000000000000000000000000000000000000000000000000000600052600160045260246000fd5b7f4e487b7100000000000000000000000000000000000000000000000000000000600052601160045260246000fd5b60006113e982611055565b91506113f483611055565b925082820390508181111561140c5761140b6113af565b5b92915050565b600061141d82611055565b915061142883611055565b92508282019050808211156114405761143f6113af565b5b9291505056fea2646970667358221220439dc5e7fb8660dee6f558f8c46097de741ef2171c3c95a14b80724ef3b3b13064736f6c63430008110033608060405234801561001057600080fd5b50600060405161001f906100cf565b604051809103906000f08015801561003b573d6000803e3d6000fd5b509050806000806101000a81548173ffffffffffffffffffffffffffffffffffffffff021916908373ffffffffffffffffffffffffffffffffffffffff16021790555033600360006101000a81548173ffffffffffffffffffffffffffffffffffffffff021916908373ffffffffffffffffffffffffffffffffffffffff160217905550620186a0600181905550506100dc565b6114f780610a1583390190565b61092a806100eb6000396000f3fe60806040526004361061004a5760003560e01c80632fdcfbd21461004f578063412664ae146100785780635f515226146100a1578063c71daccb146100de578063e4b50cb814610109575b600080fd5b34801561005b57600080fd5b50610076600480360381019061007191906105cc565b610125565b005b34801561008457600080fd5b5061009f600480360381019061009a919061061f565b6101cb565b005b3480156100ad57600080fd5b506100c860048036038101906100c3919061065f565b61026e565b6040516100d5919061069b565b60405180910390f35b3480156100ea57600080fd5b506100f3610312565b604051610100919061069b565b60405180910390f35b610123600480360381019061011e91906106b6565b6103b4565b005b60008054906101000a900473ffffffffffffffffffffffffffffffffffffffff1673ffffffffffffffffffffffffffffffffffffffff166323b872dd8484846040518463ffffffff1660e01b8152600401610182939291906106f2565b6020604051808303816000875af11580156101a1573d6000803e3d6000fd5b505050506040513d601f19601f820116820180604052508101906101c59190610761565b50505050565b60008054906101000a900473ffffffffffffffffffffffffffffffffffffffff1673ffffffffffffffffffffffffffffffffffffffff1663a9059cbb83836040518363ffffffff1660e01b815260040161022692919061078e565b6020604051808303816000875af1158015610245573d6000803e3d6000fd5b505050506040513d601f19601f820116820180604052508101906102699190610761565b505050565b60008060009054906101000a900473ffffffffffffffffffffffffffffffffffffffff1673ffffffffffffffffffffffffffffffffffffffff166370a08231836040518263ffffffff1660e01b81526004016102ca91906107b7565b602060405180830381865afa1580156102e7573d6000803e3d6000fd5b505050506040513d601f19601f8201168201806040525081019061030b91906107e7565b9050919050565b60008060009054906101000a900473ffffffffffffffffffffffffffffffffffffffff1673ffffffffffffffffffffffffffffffffffffffff166370a08231336040518263ffffffff1660e01b815260040161036e91906107b7565b602060405180830381865afa15801561038b573d6000803e3d6000fd5b505050506040513d601f19601f820116820180604052508101906103af91906107e7565b905090565b6001548160008054906101000a900473ffffffffffffffffffffffffffffffffffffffff1673ffffffffffffffffffffffffffffffffffffffff166318160ddd6040518163ffffffff1660e01b8152600401602060405180830381865afa158015610423573d6000803e3d6000fd5b505050506040513d601f19601f8201168201806040525081019061044791906107e7565b6104519190610843565b10610491576040517f08c379a0000000000000000000000000000000000000000000000000000000008152600401610488906108d4565b60405180910390fd5b60008054906101000a900473ffffffffffffffffffffffffffffffffffffffff1673ffffffffffffffffffffffffffffffffffffffff166340c10f1933836040518363ffffffff1660e01b81526004016104ec92919061078e565b6020604051808303816000875af115801561050b573d6000803e3d6000fd5b505050506040513d601f19601f8201168201806040525081019061052f9190610761565b5050565b600080fd5b600073ffffffffffffffffffffffffffffffffffffffff82169050919050565b600061056382610538565b9050919050565b61057381610558565b811461057e57600080fd5b50565b6000813590506105908161056a565b92915050565b6000819050919050565b6105a981610596565b81146105b457600080fd5b50565b6000813590506105c6816105a0565b92915050565b6000806000606084860312156105e5576105e4610533565b5b60006105f386828701610581565b935050602061060486828701610581565b9250506040610615868287016105b7565b9150509250925092565b6000806040838503121561063657610635610533565b5b600061064485828601610581565b9250506020610655858286016105b7565b9150509250929050565b60006020828403121561067557610674610533565b5b600061068384828501610581565b91505092915050565b61069581610596565b82525050565b60006020820190506106b0600083018461068c565b92915050565b6000602082840312156106cc576106cb610533565b5b60006106da848285016105b7565b91505092915050565b6106ec81610558565b82525050565b600060608201905061070760008301866106e3565b61071460208301856106e3565b610721604083018461068c565b949350505050565b60008115159050919050565b61073e81610729565b811461074957600080fd5b50565b60008151905061075b81610735565b92915050565b60006020828403121561077757610776610533565b5b60006107858482850161074c565b91505092915050565b60006040820190506107a360008301856106e3565b6107b0602083018461068c565b9392505050565b60006020820190506107cc60008301846106e3565b92915050565b6000815190506107e1816105a0565b92915050565b6000602082840312156107fd576107fc610533565b5b600061080b848285016107d2565b91505092915050565b7f4e487b7100000000000000000000000000000000000000000000000000000000600052601160045260246000fd5b600061084e82610596565b915061085983610596565b925082820190508082111561087157610870610814565b5b92915050565b600082825260208201905092915050565b7f43524f20737570706c79206973206e6f7420656e6f7567680000000000000000600082015250565b60006108be601883610877565b91506108c982610888565b602082019050919050565b600060208201905081810360008301526108ed816108b1565b905091905056fea264697066735822122034002949167fd6f3691d1823f92b7a4e800fa23cbdfa21cef752266b0207ead564736f6c63430008110033608060405260008060006101000a81548160ff02191690831515021790555033600060016101000a81548173ffffffffffffffffffffffffffffffffffffffff021916908373ffffffffffffffffffffffffffffffffffffffff16021790555034801561006b57600080fd5b5061147c8061007b6000396000f3fe608060405234801561001057600080fd5b50600436106100ea5760003560e01c806370a082311161008c5780638da5cb5b116100665780638da5cb5b1461026357806395d89b4114610281578063a9059cbb1461029f578063dd62ed3e146102cf576100ea565b806370a08231146101f75780637d64bcb414610227578063893d20e814610245576100ea565b806318160ddd116100c857806318160ddd1461015b57806323b872dd14610179578063313ce567146101a957806340c10f19146101c7576100ea565b806305d2035b146100ef57806306fdde031461010d578063095ea7b31461012b575b600080fd5b6100f76102ff565b6040516101049190610f25565b60405180910390f35b610115610310565b6040516101229190610fd0565b60405180910390f35b6101456004803603810190610140919061108b565b610349565b6040516101529190610f25565b60405180910390f35b61016361043b565b60405161017091906110da565b60405180910390f35b610193600480360381019061018e91906110f5565b610445565b6040516101a09190610f25565b60405180910390f35b6101b1610869565b6040516101be9190611164565b60405180910390f35b6101e160048036038101906101dc919061108b565b61086e565b6040516101ee9190610f25565b60405180910390f35b610211600480360381019061020c919061117f565b610a4f565b60405161021e91906110da565b60405180910390f35b61022f610a98565b60405161023c9190610f25565b60405180910390f35b61024d610b58565b60405161025a91906111bb565b60405180910390f35b61026b610b81565b60405161027891906111bb565b60405180910390f35b610289610ba7565b6040516102969190610fd0565b60405180910390f35b6102b960048036038101906102b4919061108b565b610be0565b6040516102c69190610f25565b60405180910390f35b6102e960048036038101906102e491906111d6565b610e35565b6040516102f691906110da565b60405180910390f35b60008054906101000a900460ff1681565b6040518060400160405280600981526020017f44696365546f6b656e000000000000000000000000000000000000000000000081525081565b600081600160003373ffffffffffffffffffffffffffffffffffffffff1673ffffffffffffffffffffffffffffffffffffffff16815260200190815260200160002060008573ffffffffffffffffffffffffffffffffffffffff1673ffffffffffffffffffffffffffffffffffffffff168152602001908152602001600020819055508273ffffffffffffffffffffffffffffffffffffffff163373ffffffffffffffffffffffffffffffffffffffff167f8c5be1e5ebec7d5bd14f71427d1e84f3dd0314c0f7b2291e5b200ac8c7c3b9258460405161042991906110da565b60405180910390a36001905092915050565b6000600354905090565b60008073ffffffffffffffffffffffffffffffffffffffff168373ffffffffffffffffffffffffffffffffffffffff160361047f57600080fd5b600260008573ffffffffffffffffffffffffffffffffffffffff1673ffffffffffffffffffffffffffffffffffffffff16815260200190815260200160002054821115610501576040517f08c379a00000000000000000000000000000000000000000000000000000000081526004016104f890611262565b60405180910390fd5b600160008573ffffffffffffffffffffffffffffffffffffffff1673ffffffffffffffffffffffffffffffffffffffff16815260200190815260200160002060003273ffffffffffffffffffffffffffffffffffffffff1673ffffffffffffffffffffffffffffffffffffffff168152602001908152602001600020548211156105c0576040517f08c379a00000000000000000000000000000000000000000000000000000000081526004016105b7906112ce565b60405180910390fd5b61061282600260008773ffffffffffffffffffffffffffffffffffffffff1673ffffffffffffffffffffffffffffffffffffffff16815260200190815260200160002054610ebc90919063ffffffff16565b600260008673ffffffffffffffffffffffffffffffffffffffff1673ffffffffffffffffffffffffffffffffffffffff168152602001908152602001600020819055506106a782600260008673ffffffffffffffffffffffffffffffffffffffff1673ffffffffffffffffffffffffffffffffffffffff16815260200190815260200160002054610ee390919063ffffffff16565b600260008573ffffffffffffffffffffffffffffffffffffffff1673ffffffffffffffffffffffffffffffffffffffff1681526020019081526020016000208190555061077982600160008773ffffffffffffffffffffffffffffffffffffffff1673ffffffffffffffffffffffffffffffffffffffff16815260200190815260200160002060003273ffffffffffffffffffffffffffffffffffffffff1673ffffffffffffffffffffffffffffffffffffffff16815260200190815260200160002054610ebc90919063ffffffff16565b600160008673ffffffffffffffffffffffffffffffffffffffff1673ffffffffffffffffffffffffffffffffffffffff16815260200190815260200160002060003273ffffffffffffffffffffffffffffffffffffffff1673ffffffffffffffffffffffffffffffffffffffff168152602001908152602001600020819055508273ffffffffffffffffffffffffffffffffffffffff168473ffffffffffffffffffffffffffffffffffffffff167fddf252ad1be2c89b69c2b068fc378daa952ba7f163c4a11628f55a4df523b3ef8460405161085691906110da565b60405180910390a3600190509392505050565b601281565b60008060019054906101000a900473ffffffffffffffffffffffffffffffffffffffff1673ffffffffffffffffffffffffffffffffffffffff163373ffffffffffffffffffffffffffffffffffffffff16146108c957600080fd5b60008054906101000a900460ff16156108e157600080fd5b6108f682600354610ee390919063ffffffff16565b60038190555061094e82600260008673ffffffffffffffffffffffffffffffffffffffff1673ffffffffffffffffffffffffffffffffffffffff16815260200190815260200160002054610ee390919063ffffffff16565b600260008573ffffffffffffffffffffffffffffffffffffffff1673ffffffffffffffffffffffffffffffffffffffff168152602001908152602001600020819055508273ffffffffffffffffffffffffffffffffffffffff167f0f6798a560793a54c3bcfe86a93cde1e73087d944c0ea20544137d4121396885836040516109d791906110da565b60405180910390a28273ffffffffffffffffffffffffffffffffffffffff16600073ffffffffffffffffffffffffffffffffffffffff167fddf252ad1be2c89b69c2b068fc378daa952ba7f163c4a11628f55a4df523b3ef84604051610a3d91906110da565b60405180910390a36001905092915050565b6000600260008373ffffffffffffffffffffffffffffffffffffffff1673ffffffffffffffffffffffffffffffffffffffff168152602001908152602001600020549050919050565b60008060019054906101000a900473ffffffffffffffffffffffffffffffffffffffff1673ffffffffffffffffffffffffffffffffffffffff163373ffffffffffffffffffffffffffffffffffffffff1614610af357600080fd5b60008054906101000a900460ff1615610b0b57600080fd5b60016000806101000a81548160ff0219169083151502179055507fae5184fba832cb2b1f702aca6117b8d265eaf03ad33eb133f19dde0f5920fa0860405160405180910390a16001905090565b60008060019054906101000a900473ffffffffffffffffffffffffffffffffffffffff16905090565b600060019054906101000a900473ffffffffffffffffffffffffffffffffffffffff1681565b6040518060400160405280600281526020017f445400000000000000000000000000000000000000000000000000000000000081525081565b60008073ffffffffffffffffffffffffffffffffffffffff168373ffffffffffffffffffffffffffffffffffffffff1603610c1a57600080fd5b600260003273ffffffffffffffffffffffffffffffffffffffff1673ffffffffffffffffffffffffffffffffffffffff16815260200190815260200160002054821115610c9c576040517f08c379a0000000000000000000000000000000000000000000000000000000008152600401610c9390611360565b60405180910390fd5b610cee82600260003273ffffffffffffffffffffffffffffffffffffffff1673ffffffffffffffffffffffffffffffffffffffff16815260200190815260200160002054610ebc90919063ffffffff16565b600260003273ffffffffffffffffffffffffffffffffffffffff1673ffffffffffffffffffffffffffffffffffffffff16815260200190815260200160002081905550610d8382600260008673ffffffffffffffffffffffffffffffffffffffff1673ffffffffffffffffffffffffffffffffffffffff16815260200190815260200160002054610ee390919063ffffffff16565b600260008573ffffffffffffffffffffffffffffffffffffffff1673ffffffffffffffffffffffffffffffffffffffff168152602001908152602001600020819055508273ffffffffffffffffffffffffffffffffffffffff163273ffffffffffffffffffffffffffffffffffffffff167fddf252ad1be2c89b69c2b068fc378daa952ba7f163c4a11628f55a4df523b3ef84604051610e2391906110da565b60405180910390a36001905092915050565b6000600160008473ffffffffffffffffffffffffffffffffffffffff1673ffffffffffffffffffffffffffffffffffffffff16815260200190815260200160002060008373ffffffffffffffffffffffffffffffffffffffff1673ffffffffffffffffffffffffffffffffffffffff16815260200190815260200160002054905092915050565b600082821115610ecf57610ece611380565b5b8183610edb91906113de565b905092915050565b60008183610ef19190611412565b905082811015610f0457610f03611380565b5b92915050565b60008115159050919050565b610f1f81610f0a565b82525050565b6000602082019050610f3a6000830184610f16565b92915050565b600081519050919050565b600082825260208201905092915050565b60005b83811015610f7a578082015181840152602081019050610f5f565b60008484015250505050565b6000601f19601f8301169050919050565b6000610fa282610f40565b610fac8185610f4b565b9350610fbc818560208601610f5c565b610fc581610f86565b840191505092915050565b60006020820190508181036000830152610fea8184610f97565b905092915050565b600080fd5b600073ffffffffffffffffffffffffffffffffffffffff82169050919050565b600061102282610ff7565b9050919050565b61103281611017565b811461103d57600080fd5b50565b60008135905061104f81611029565b92915050565b6000819050919050565b61106881611055565b811461107357600080fd5b50565b6000813590506110858161105f565b92915050565b600080604083850312156110a2576110a1610ff2565b5b60006110b085828601611040565b92505060206110c185828601611076565b9150509250929050565b6110d481611055565b82525050565b60006020820190506110ef60008301846110cb565b92915050565b60008060006060848603121561110e5761110d610ff2565b5b600061111c86828701611040565b935050602061112d86828701611040565b925050604061113e86828701611076565b9150509250925092565b600060ff82169050919050565b61115e81611148565b82525050565b60006020820190506111796000830184611155565b92915050565b60006020828403121561119557611194610ff2565b5b60006111a384828501611040565b91505092915050565b6111b581611017565b82525050565b60006020820190506111d060008301846111ac565b92915050565b600080604083850312156111ed576111ec610ff2565b5b60006111fb85828601611040565b925050602061120c85828601611040565b9150509250929050565b7f46726f6d20646f65736e2774206861766520656e6f7567682062616c616e6365600082015250565b600061124c602083610f4b565b915061125782611216565b602082019050919050565b6000602082019050818103600083015261127b8161123f565b9050919050565b7f4e6f7420616c6c6f77656420746f207370656e642074686973206d7563680000600082015250565b60006112b8601e83610f4b565b91506112c382611282565b602082019050919050565b600060208201905081810360008301526112e7816112ab565b9050919050565b7f6d73672e73656e64657220646f65736e2774206861766520656e6f756768206260008201527f616c616e63650000000000000000000000000000000000000000000000000000602082015250565b600061134a602683610f4b565b9150611355826112ee565b604082019050919050565b600060208201905081810360008301526113798161133d565b9050919050565b7f4e487b7100000000000000000000000000000000000000000000000000000000600052600160045260246000fd5b7f4e487b7100000000000000000000000000000000000000000000000000000000600052601160045260246000fd5b60006113e982611055565b91506113f483611055565b925082820390508181111561140c5761140b6113af565b5b92915050565b600061141d82611055565b915061142883611055565b92508282019050808211156114405761143f6113af565b5b9291505056fea2646970667358221220439dc5e7fb8660dee6f558f8c46097de741ef2171c3c95a14b80724ef3b3b13064736f6c63430008110033",
  "immutableReferences": {},
  "source": "// SPDX-License-Identifier: MIT\r\npragma solidity >= 0.5.0;\r\nimport \"./RNG.sol\";\r\nimport \"./Cro.sol\";\r\nimport \"./Shib.sol\";\r\nimport \"./Uni.sol\";\r\n\r\nlibrary DSMath {\r\n    using SafeMath for uint256;\r\n    uint256 constant PRECISION = 10**18;\r\n    function wdiv(uint256 x, uint256 y) internal pure returns (uint256 z) {\r\n        z = x.mul(PRECISION).add(y.div(2)).div(y);\r\n    }\r\n}\r\n\r\ncontract Debank{\r\n    using DSMath for uint256;\r\n    Cro cro;\r\n    Shib shib = new Shib();\r\n    Uni uni = new Uni();\r\n    uint256 croRate;\r\n    uint256 shibRate;\r\n    uint256 uniRate;\r\n\r\n    constructor() public {        \r\n        Cro c = new Cro();\r\n        cro = c;\r\n        Shib s = new Shib();\r\n        shib = s;\r\n        Uni u = new Uni();\r\n        uni = u;\r\n    }\r\n\r\n    function initializeCro(uint256 x, uint256 y) public returns (uint256) {\r\n        croRate = x.wdiv(y);\r\n        return croRate;\r\n    }\r\n\r\n    function initializeShib(uint256 x, uint256 y) public returns (uint256) {\r\n        shibRate = x.wdiv(y);\r\n        return shibRate;\r\n    }\r\n\r\n    function initializeUni(uint256 x, uint256 y) public returns (uint256) {\r\n        uniRate = x.wdiv(y);\r\n        return uniRate;\r\n    }\r\n\r\n    struct user{\r\n        string name;\r\n        uint256 balance;\r\n        address add;\r\n    }\r\n\r\n    event Withdraw(string choiceOfCurrency, uint256 amount);\r\n\r\n    uint256 public numUsers = 0;\r\n    mapping(uint256 => user) public Users;\r\n\r\n        \r\n    modifier userOnly(uint256 id) {\r\n        require(Users[id].add == msg.sender);\r\n        _;\r\n    }\r\n\r\n    modifier validUserId(uint256 id) {\r\n        require(id < numUsers);\r\n        _;\r\n    }\r\n\r\n    function register(string memory name) public payable returns(uint256){\r\n        require(msg.value >= 0.01 ether, \"at least 0.01 ETH is needed to register\");\r\n\r\n        user memory newUser = user(\r\n            name,\r\n            msg.value,\r\n            msg.sender\r\n        );\r\n\r\n        uint256 newUserId = numUsers++;\r\n        Users[newUserId] = newUser; \r\n        return newUserId;   \r\n\r\n    }\r\n\r\n    function checkBalance(uint256 id) public view validUserId(id) returns(uint256){\r\n        return Users[id].balance;\r\n    }\r\n\r\n    function deposit(uint256 id)  public payable userOnly(id){\r\n        require(msg.value > 0 ether, \"Cannot deposit 0 ETH\");\r\n        Users[id].balance += msg.value;\r\n    }\r\n\r\n    function withdraw(uint256 id, uint256 amt) public userOnly(id){\r\n        require(amt > 0 , \"Cannot withdraw 0 ETH\");\r\n        require(amt >= Users[id].balance);\r\n        Users[id].balance -= amt;\r\n        address payable recipient = payable(msg.sender);\r\n        recipient.transfer(amt);\r\n        // msg.sender.transfer(amt);\r\n    }\r\n\r\n\r\n    function convertToCRO(uint256 id,uint256 amt) public {\r\n        require(Users[id].balance >= amt/100,\"You don't have enough ETH\");\r\n        cro.getToken(amt);\r\n        Users[id].balance -= amt/100;\r\n    }\r\n\r\n    function convertToSHIB(uint256 id,uint256 amt) public {\r\n        require(Users[id].balance >= amt/10000,\"You don't have enough ETH\");\r\n        shib.getToken(amt);\r\n        Users[id].balance -= amt/10000;\r\n    }\r\n\r\n    function convertToUNI(uint256 id,uint256 amt) public {\r\n        require(Users[id].balance >= amt/10,\"You don't have enough ETH\");\r\n        uni.getToken(amt);\r\n        Users[id].balance -= amt/10;\r\n    }\r\n    function convertBackToETH(string memory choiceOfCurrency, uint256 id, uint256 amt) public {\r\n        if(keccak256(abi.encodePacked(choiceOfCurrency))==keccak256(abi.encodePacked(\"Cro\")) ) {\r\n            require(cro.checkBalance() >= amt, \"You dont have enough CRO\");\r\n            cro.sendToken(address(this),amt);\r\n            Users[id].balance += amt/100;\r\n            emit Withdraw(choiceOfCurrency, amt);\r\n        } else if(keccak256(abi.encodePacked(choiceOfCurrency))==keccak256(abi.encodePacked(\"Shib\")) ) {\r\n            require(shib.checkBalance() >= amt, \"You dont have enough SHIB\");\r\n            shib.sendToken(msg.sender,address(this), amt);\r\n            Users[id].balance += amt/10000;\r\n            emit Withdraw(choiceOfCurrency, amt);\r\n        } else if(keccak256(abi.encodePacked(choiceOfCurrency))==keccak256(abi.encodePacked(\"Uni\")) ) {\r\n            require(uni.checkBalance() >= amt, \"You dont have enough UNI\");\r\n            uni.sendToken(msg.sender, address(this), amt);\r\n            Users[id].balance += amt/10;\r\n            emit Withdraw(choiceOfCurrency, amt);\r\n        } \r\n    }\r\n\r\n    function returnRatio(uint256 currencyType, uint256 amount, uint256 collateralCurrency, uint256 collateralAmount) public view returns (uint256) { \r\n        if (currencyType == 0) { \r\n            amount = croRate * amount; \r\n        } else if (currencyType == 1) { \r\n            amount = shibRate * amount; \r\n        } else if (currencyType == 2) {  \r\n            amount = uniRate * amount; \r\n        } \r\n\r\n        if (collateralCurrency == 0) { \r\n            collateralAmount = croRate * collateralAmount; \r\n        } else if (collateralCurrency == 1) { \r\n            collateralAmount = shibRate * collateralAmount; \r\n        } else if (collateralCurrency == 2) { \r\n            collateralAmount = uniRate * collateralAmount;             \r\n        } \r\n \r\n        return collateralAmount.wdiv(amount); \r\n    }\r\n\r\n}\r\n\r\n",
  "sourcePath": "/Users/kaushikr/Documents/DeBank/contracts/DeBank.sol",
  "compiler": {
    "name": "solc",
    "version": "0.8.17+commit.8df45f5f.Emscripten.clang"
  },
  "schemaVersion": "3.4.11",
  "updatedAt": "2023-04-09T04:59:23.438Z",
  "devdoc": {
    "kind": "dev",
    "methods": {},
    "version": 1
  },
  "userdoc": {
    "kind": "user",
    "methods": {},
    "version": 1
  }
}