{
  "contractName": "Helper",
  "abi": [
    {
      "inputs": [],
      "name": "platformFee",
      "outputs": [
        {
          "internalType": "uint256",
          "name": "",
          "type": "uint256"
        }
      ],
      "stateMutability": "view",
      "type": "function"
    },
    {
      "inputs": [],
      "name": "transactionFee",
      "outputs": [
        {
          "internalType": "uint256",
          "name": "",
          "type": "uint256"
        }
      ],
      "stateMutability": "view",
      "type": "function"
    },
    {
      "inputs": [
        {
          "internalType": "uint256",
          "name": "amt",
          "type": "uint256"
        }
      ],
      "name": "getPlatformFee",
      "outputs": [
        {
          "internalType": "uint256",
          "name": "",
          "type": "uint256"
        }
      ],
      "stateMutability": "view",
      "type": "function"
    },
    {
      "inputs": [
        {
          "internalType": "uint256",
          "name": "amt",
          "type": "uint256"
        }
      ],
      "name": "getTransactionFee",
      "outputs": [
        {
          "internalType": "uint256",
          "name": "",
          "type": "uint256"
        }
      ],
      "stateMutability": "view",
      "type": "function"
    },
    {
      "inputs": [
        {
          "internalType": "uint256",
          "name": "choiceOfCurrency",
          "type": "uint256"
        },
        {
          "internalType": "address",
          "name": "user",
          "type": "address"
        },
        {
          "internalType": "address",
          "name": "recipient",
          "type": "address"
        }
      ],
      "name": "chargePlatformFee",
      "outputs": [],
      "stateMutability": "payable",
      "type": "function"
    },
    {
      "inputs": [
        {
          "internalType": "uint256",
          "name": "choiceOfCurrency",
          "type": "uint256"
        },
        {
          "internalType": "address",
          "name": "user",
          "type": "address"
        },
        {
          "internalType": "address",
          "name": "recipient",
          "type": "address"
        }
      ],
      "name": "chargeTransactionFee",
      "outputs": [],
      "stateMutability": "payable",
      "type": "function"
    },
    {
      "inputs": [
        {
          "internalType": "uint256",
          "name": "choiceOfCurrency",
          "type": "uint256"
        },
        {
          "internalType": "uint256",
          "name": "amt",
          "type": "uint256"
        },
        {
          "internalType": "address",
          "name": "from",
          "type": "address"
        }
      ],
      "name": "withdrawFee",
      "outputs": [],
      "stateMutability": "nonpayable",
      "type": "function"
    }
  ],
  "bytecode": "0x6080604052604051620000129062000165565b604051809103906000f0801580156200002f573d6000803e3d6000fd5b506000806101000a81548173ffffffffffffffffffffffffffffffffffffffff021916908373ffffffffffffffffffffffffffffffffffffffff1602179055506040516200007d9062000173565b604051809103906000f0801580156200009a573d6000803e3d6000fd5b50600160006101000a81548173ffffffffffffffffffffffffffffffffffffffff021916908373ffffffffffffffffffffffffffffffffffffffff160217905550604051620000e99062000181565b604051809103906000f08015801562000106573d6000803e3d6000fd5b50600260006101000a81548173ffffffffffffffffffffffffffffffffffffffff021916908373ffffffffffffffffffffffffffffffffffffffff1602179055506064600355600a6004553480156200015e57600080fd5b506200018f565b611f0c80620014bf83390190565b611f0d80620033cb83390190565b611f0b80620052d883390190565b611320806200019f6000396000f3fe6080604052600436106100705760003560e01c806393071e141161004e57806393071e14146100e55780639ed3edf014610101578063d97939eb1461012c578063dfc7d4881461016957610070565b8063033732ed1461007557806326232a2e1461009e57806361b4bd90146100c9575b600080fd5b34801561008157600080fd5b5061009c6004803603810190610097919061106d565b6101a6565b005b3480156100aa57600080fd5b506100b3610650565b6040516100c091906110cf565b60405180910390f35b6100e360048036038101906100de91906110ea565b610656565b005b6100ff60048036038101906100fa91906110ea565b610b06565b005b34801561010d57600080fd5b50610116610fb6565b60405161012391906110cf565b60405180910390f35b34801561013857600080fd5b50610153600480360381019061014e919061113d565b610fbc565b60405161016091906110cf565b60405180910390f35b34801561017557600080fd5b50610190600480360381019061018b919061113d565b610fc8565b60405161019d91906110cf565b60405180910390f35b600083036103305760006064836101bd9190611199565b90508060008054906101000a900473ffffffffffffffffffffffffffffffffffffffff1673ffffffffffffffffffffffffffffffffffffffff16635f515226846040518263ffffffff1660e01b815260040161021991906111d9565b602060405180830381865afa158015610236573d6000803e3d6000fd5b505050506040513d601f19601f8201168201806040525081019061025a9190611209565b101561029b576040517f08c379a000000000000000000000000000000000000000000000000000000000815260040161029290611293565b60405180910390fd5b60008054906101000a900473ffffffffffffffffffffffffffffffffffffffff1673ffffffffffffffffffffffffffffffffffffffff16632fdcfbd28333846040518463ffffffff1660e01b81526004016102f8939291906112b3565b600060405180830381600087803b15801561031257600080fd5b505af1158015610326573d6000803e3d6000fd5b505050505061064b565b600183036104bf576000612710836103489190611199565b905080600160009054906101000a900473ffffffffffffffffffffffffffffffffffffffff1673ffffffffffffffffffffffffffffffffffffffff16635f515226846040518263ffffffff1660e01b81526004016103a691906111d9565b602060405180830381865afa1580156103c3573d6000803e3d6000fd5b505050506040513d601f19601f820116820180604052508101906103e79190611209565b1015610428576040517f08c379a000000000000000000000000000000000000000000000000000000000815260040161041f90611293565b60405180910390fd5b600160009054906101000a900473ffffffffffffffffffffffffffffffffffffffff1673ffffffffffffffffffffffffffffffffffffffff16632fdcfbd28333846040518463ffffffff1660e01b8152600401610487939291906112b3565b600060405180830381600087803b1580156104a157600080fd5b505af11580156104b5573d6000803e3d6000fd5b505050505061064a565b60028303610649576000600a836104d69190611199565b905080600260009054906101000a900473ffffffffffffffffffffffffffffffffffffffff1673ffffffffffffffffffffffffffffffffffffffff16635f515226846040518263ffffffff1660e01b815260040161053491906111d9565b602060405180830381865afa158015610551573d6000803e3d6000fd5b505050506040513d601f19601f820116820180604052508101906105759190611209565b10156105b6576040517f08c379a00000000000000000000000000000000000000000000000000000000081526004016105ad90611293565b60405180910390fd5b600260009054906101000a900473ffffffffffffffffffffffffffffffffffffffff1673ffffffffffffffffffffffffffffffffffffffff16632fdcfbd28333846040518463ffffffff1660e01b8152600401610615939291906112b3565b600060405180830381600087803b15801561062f57600080fd5b505af1158015610643573d6000803e3d6000fd5b50505050505b5b5b505050565b60035481565b600083036107e2576000606460045461066f9190611199565b90508060008054906101000a900473ffffffffffffffffffffffffffffffffffffffff1673ffffffffffffffffffffffffffffffffffffffff16635f515226856040518263ffffffff1660e01b81526004016106cb91906111d9565b602060405180830381865afa1580156106e8573d6000803e3d6000fd5b505050506040513d601f19601f8201168201806040525081019061070c9190611209565b101561074d576040517f08c379a000000000000000000000000000000000000000000000000000000000815260040161074490611293565b60405180910390fd5b60008054906101000a900473ffffffffffffffffffffffffffffffffffffffff1673ffffffffffffffffffffffffffffffffffffffff16632fdcfbd28484846040518463ffffffff1660e01b81526004016107aa939291906112b3565b600060405180830381600087803b1580156107c457600080fd5b505af11580156107d8573d6000803e3d6000fd5b5050505050610b01565b600183036109735760006127106004546107fc9190611199565b905080600160009054906101000a900473ffffffffffffffffffffffffffffffffffffffff1673ffffffffffffffffffffffffffffffffffffffff16635f515226856040518263ffffffff1660e01b815260040161085a91906111d9565b602060405180830381865afa158015610877573d6000803e3d6000fd5b505050506040513d601f19601f8201168201806040525081019061089b9190611209565b10156108dc576040517f08c379a00000000000000000000000000000000000000000000000000000000081526004016108d390611293565b60405180910390fd5b600160009054906101000a900473ffffffffffffffffffffffffffffffffffffffff1673ffffffffffffffffffffffffffffffffffffffff16632fdcfbd28484846040518463ffffffff1660e01b815260040161093b939291906112b3565b600060405180830381600087803b15801561095557600080fd5b505af1158015610969573d6000803e3d6000fd5b5050505050610b00565b60028303610aff576000600a60045461098c9190611199565b905080600260009054906101000a900473ffffffffffffffffffffffffffffffffffffffff1673ffffffffffffffffffffffffffffffffffffffff16635f515226856040518263ffffffff1660e01b81526004016109ea91906111d9565b602060405180830381865afa158015610a07573d6000803e3d6000fd5b505050506040513d601f19601f82011682018060405250810190610a2b9190611209565b1015610a6c576040517f08c379a0000000000000000000000000000000000000000000000000000000008152600401610a6390611293565b60405180910390fd5b600260009054906101000a900473ffffffffffffffffffffffffffffffffffffffff1673ffffffffffffffffffffffffffffffffffffffff16632fdcfbd28484846040518463ffffffff1660e01b8152600401610acb939291906112b3565b600060405180830381600087803b158015610ae557600080fd5b505af1158015610af9573d6000803e3d6000fd5b50505050505b5b5b505050565b60008303610c925760006064600354610b1f9190611199565b90508060008054906101000a900473ffffffffffffffffffffffffffffffffffffffff1673ffffffffffffffffffffffffffffffffffffffff16635f515226856040518263ffffffff1660e01b8152600401610b7b91906111d9565b602060405180830381865afa158015610b98573d6000803e3d6000fd5b505050506040513d601f19601f82011682018060405250810190610bbc9190611209565b1015610bfd576040517f08c379a0000000000000000000000000000000000000000000000000000000008152600401610bf490611293565b60405180910390fd5b60008054906101000a900473ffffffffffffffffffffffffffffffffffffffff1673ffffffffffffffffffffffffffffffffffffffff16632fdcfbd28484846040518463ffffffff1660e01b8152600401610c5a939291906112b3565b600060405180830381600087803b158015610c7457600080fd5b505af1158015610c88573d6000803e3d6000fd5b5050505050610fb1565b60018303610e23576000612710600354610cac9190611199565b905080600160009054906101000a900473ffffffffffffffffffffffffffffffffffffffff1673ffffffffffffffffffffffffffffffffffffffff16635f515226856040518263ffffffff1660e01b8152600401610d0a91906111d9565b602060405180830381865afa158015610d27573d6000803e3d6000fd5b505050506040513d601f19601f82011682018060405250810190610d4b9190611209565b1015610d8c576040517f08c379a0000000000000000000000000000000000000000000000000000000008152600401610d8390611293565b60405180910390fd5b600160009054906101000a900473ffffffffffffffffffffffffffffffffffffffff1673ffffffffffffffffffffffffffffffffffffffff16632fdcfbd28484846040518463ffffffff1660e01b8152600401610deb939291906112b3565b600060405180830381600087803b158015610e0557600080fd5b505af1158015610e19573d6000803e3d6000fd5b5050505050610fb0565b60028303610faf576000600a600354610e3c9190611199565b905080600260009054906101000a900473ffffffffffffffffffffffffffffffffffffffff1673ffffffffffffffffffffffffffffffffffffffff16635f515226856040518263ffffffff1660e01b8152600401610e9a91906111d9565b602060405180830381865afa158015610eb7573d6000803e3d6000fd5b505050506040513d601f19601f82011682018060405250810190610edb9190611209565b1015610f1c576040517f08c379a0000000000000000000000000000000000000000000000000000000008152600401610f1390611293565b60405180910390fd5b600260009054906101000a900473ffffffffffffffffffffffffffffffffffffffff1673ffffffffffffffffffffffffffffffffffffffff16632fdcfbd28484846040518463ffffffff1660e01b8152600401610f7b939291906112b3565b600060405180830381600087803b158015610f9557600080fd5b505af1158015610fa9573d6000803e3d6000fd5b50505050505b5b5b505050565b60045481565b60006003549050919050565b60006004549050919050565b600080fd5b6000819050919050565b610fec81610fd9565b8114610ff757600080fd5b50565b60008135905061100981610fe3565b92915050565b600073ffffffffffffffffffffffffffffffffffffffff82169050919050565b600061103a8261100f565b9050919050565b61104a8161102f565b811461105557600080fd5b50565b60008135905061106781611041565b92915050565b60008060006060848603121561108657611085610fd4565b5b600061109486828701610ffa565b93505060206110a586828701610ffa565b92505060406110b686828701611058565b9150509250925092565b6110c981610fd9565b82525050565b60006020820190506110e460008301846110c0565b92915050565b60008060006060848603121561110357611102610fd4565b5b600061111186828701610ffa565b935050602061112286828701611058565b925050604061113386828701611058565b9150509250925092565b60006020828403121561115357611152610fd4565b5b600061116184828501610ffa565b91505092915050565b7f4e487b7100000000000000000000000000000000000000000000000000000000600052601260045260246000fd5b60006111a482610fd9565b91506111af83610fd9565b9250826111bf576111be61116a565b5b828204905092915050565b6111d38161102f565b82525050565b60006020820190506111ee60008301846111ca565b92915050565b60008151905061120381610fe3565b92915050565b60006020828403121561121f5761121e610fd4565b5b600061122d848285016111f4565b91505092915050565b600082825260208201905092915050565b7f496e73756666696369656e7420746f6b656e7300000000000000000000000000600082015250565b600061127d601383611236565b915061128882611247565b602082019050919050565b600060208201905081810360008301526112ac81611270565b9050919050565b60006060820190506112c860008301866111ca565b6112d560208301856111ca565b6112e260408301846110c0565b94935050505056fea2646970667358221220f4ee503ecac867d10864338cd387a31b7f321e07c40da5d4574d5fa571e3695864736f6c63430008110033608060405234801561001057600080fd5b50600060405161001f906100cf565b604051809103906000f08015801561003b573d6000803e3d6000fd5b509050806000806101000a81548173ffffffffffffffffffffffffffffffffffffffff021916908373ffffffffffffffffffffffffffffffffffffffff16021790555033600360006101000a81548173ffffffffffffffffffffffffffffffffffffffff021916908373ffffffffffffffffffffffffffffffffffffffff160217905550620186a0600181905550506100dc565b6114f780610a1583390190565b61092a806100eb6000396000f3fe60806040526004361061004a5760003560e01c80632fdcfbd21461004f578063412664ae146100785780635f515226146100a1578063c71daccb146100de578063e4b50cb814610109575b600080fd5b34801561005b57600080fd5b50610076600480360381019061007191906105cc565b610125565b005b34801561008457600080fd5b5061009f600480360381019061009a919061061f565b6101cb565b005b3480156100ad57600080fd5b506100c860048036038101906100c3919061065f565b61026e565b6040516100d5919061069b565b60405180910390f35b3480156100ea57600080fd5b506100f3610312565b604051610100919061069b565b60405180910390f35b610123600480360381019061011e91906106b6565b6103b4565b005b60008054906101000a900473ffffffffffffffffffffffffffffffffffffffff1673ffffffffffffffffffffffffffffffffffffffff166323b872dd8484846040518463ffffffff1660e01b8152600401610182939291906106f2565b6020604051808303816000875af11580156101a1573d6000803e3d6000fd5b505050506040513d601f19601f820116820180604052508101906101c59190610761565b50505050565b60008054906101000a900473ffffffffffffffffffffffffffffffffffffffff1673ffffffffffffffffffffffffffffffffffffffff1663a9059cbb83836040518363ffffffff1660e01b815260040161022692919061078e565b6020604051808303816000875af1158015610245573d6000803e3d6000fd5b505050506040513d601f19601f820116820180604052508101906102699190610761565b505050565b60008060009054906101000a900473ffffffffffffffffffffffffffffffffffffffff1673ffffffffffffffffffffffffffffffffffffffff166370a08231836040518263ffffffff1660e01b81526004016102ca91906107b7565b602060405180830381865afa1580156102e7573d6000803e3d6000fd5b505050506040513d601f19601f8201168201806040525081019061030b91906107e7565b9050919050565b60008060009054906101000a900473ffffffffffffffffffffffffffffffffffffffff1673ffffffffffffffffffffffffffffffffffffffff166370a08231336040518263ffffffff1660e01b815260040161036e91906107b7565b602060405180830381865afa15801561038b573d6000803e3d6000fd5b505050506040513d601f19601f820116820180604052508101906103af91906107e7565b905090565b6001548160008054906101000a900473ffffffffffffffffffffffffffffffffffffffff1673ffffffffffffffffffffffffffffffffffffffff166318160ddd6040518163ffffffff1660e01b8152600401602060405180830381865afa158015610423573d6000803e3d6000fd5b505050506040513d601f19601f8201168201806040525081019061044791906107e7565b6104519190610843565b10610491576040517f08c379a0000000000000000000000000000000000000000000000000000000008152600401610488906108d4565b60405180910390fd5b60008054906101000a900473ffffffffffffffffffffffffffffffffffffffff1673ffffffffffffffffffffffffffffffffffffffff166340c10f1933836040518363ffffffff1660e01b81526004016104ec92919061078e565b6020604051808303816000875af115801561050b573d6000803e3d6000fd5b505050506040513d601f19601f8201168201806040525081019061052f9190610761565b5050565b600080fd5b600073ffffffffffffffffffffffffffffffffffffffff82169050919050565b600061056382610538565b9050919050565b61057381610558565b811461057e57600080fd5b50565b6000813590506105908161056a565b92915050565b6000819050919050565b6105a981610596565b81146105b457600080fd5b50565b6000813590506105c6816105a0565b92915050565b6000806000606084860312156105e5576105e4610533565b5b60006105f386828701610581565b935050602061060486828701610581565b9250506040610615868287016105b7565b9150509250925092565b6000806040838503121561063657610635610533565b5b600061064485828601610581565b9250506020610655858286016105b7565b9150509250929050565b60006020828403121561067557610674610533565b5b600061068384828501610581565b91505092915050565b61069581610596565b82525050565b60006020820190506106b0600083018461068c565b92915050565b6000602082840312156106cc576106cb610533565b5b60006106da848285016105b7565b91505092915050565b6106ec81610558565b82525050565b600060608201905061070760008301866106e3565b61071460208301856106e3565b610721604083018461068c565b949350505050565b60008115159050919050565b61073e81610729565b811461074957600080fd5b50565b60008151905061075b81610735565b92915050565b60006020828403121561077757610776610533565b5b60006107858482850161074c565b91505092915050565b60006040820190506107a360008301856106e3565b6107b0602083018461068c565b9392505050565b60006020820190506107cc60008301846106e3565b92915050565b6000815190506107e1816105a0565b92915050565b6000602082840312156107fd576107fc610533565b5b600061080b848285016107d2565b91505092915050565b7f4e487b7100000000000000000000000000000000000000000000000000000000600052601160045260246000fd5b600061084e82610596565b915061085983610596565b925082820190508082111561087157610870610814565b5b92915050565b600082825260208201905092915050565b7f43524f20737570706c79206973206e6f7420656e6f7567680000000000000000600082015250565b60006108be601883610877565b91506108c982610888565b602082019050919050565b600060208201905081810360008301526108ed816108b1565b905091905056fea2646970667358221220f7b2a394f0affe5143ae77f21cf6071df85655b75cf4cd38994f3f8992352ba064736f6c63430008110033608060405260008060006101000a81548160ff02191690831515021790555033600060016101000a81548173ffffffffffffffffffffffffffffffffffffffff021916908373ffffffffffffffffffffffffffffffffffffffff16021790555034801561006b57600080fd5b5061147c8061007b6000396000f3fe608060405234801561001057600080fd5b50600436106100ea5760003560e01c806370a082311161008c5780638da5cb5b116100665780638da5cb5b1461026357806395d89b4114610281578063a9059cbb1461029f578063dd62ed3e146102cf576100ea565b806370a08231146101f75780637d64bcb414610227578063893d20e814610245576100ea565b806318160ddd116100c857806318160ddd1461015b57806323b872dd14610179578063313ce567146101a957806340c10f19146101c7576100ea565b806305d2035b146100ef57806306fdde031461010d578063095ea7b31461012b575b600080fd5b6100f76102ff565b6040516101049190610f25565b60405180910390f35b610115610310565b6040516101229190610fd0565b60405180910390f35b6101456004803603810190610140919061108b565b610349565b6040516101529190610f25565b60405180910390f35b61016361043b565b60405161017091906110da565b60405180910390f35b610193600480360381019061018e91906110f5565b610445565b6040516101a09190610f25565b60405180910390f35b6101b1610869565b6040516101be9190611164565b60405180910390f35b6101e160048036038101906101dc919061108b565b61086e565b6040516101ee9190610f25565b60405180910390f35b610211600480360381019061020c919061117f565b610a4f565b60405161021e91906110da565b60405180910390f35b61022f610a98565b60405161023c9190610f25565b60405180910390f35b61024d610b58565b60405161025a91906111bb565b60405180910390f35b61026b610b81565b60405161027891906111bb565b60405180910390f35b610289610ba7565b6040516102969190610fd0565b60405180910390f35b6102b960048036038101906102b4919061108b565b610be0565b6040516102c69190610f25565b60405180910390f35b6102e960048036038101906102e491906111d6565b610e35565b6040516102f691906110da565b60405180910390f35b60008054906101000a900460ff1681565b6040518060400160405280600981526020017f44696365546f6b656e000000000000000000000000000000000000000000000081525081565b600081600160003373ffffffffffffffffffffffffffffffffffffffff1673ffffffffffffffffffffffffffffffffffffffff16815260200190815260200160002060008573ffffffffffffffffffffffffffffffffffffffff1673ffffffffffffffffffffffffffffffffffffffff168152602001908152602001600020819055508273ffffffffffffffffffffffffffffffffffffffff163373ffffffffffffffffffffffffffffffffffffffff167f8c5be1e5ebec7d5bd14f71427d1e84f3dd0314c0f7b2291e5b200ac8c7c3b9258460405161042991906110da565b60405180910390a36001905092915050565b6000600354905090565b60008073ffffffffffffffffffffffffffffffffffffffff168373ffffffffffffffffffffffffffffffffffffffff160361047f57600080fd5b600260008573ffffffffffffffffffffffffffffffffffffffff1673ffffffffffffffffffffffffffffffffffffffff16815260200190815260200160002054821115610501576040517f08c379a00000000000000000000000000000000000000000000000000000000081526004016104f890611262565b60405180910390fd5b600160008573ffffffffffffffffffffffffffffffffffffffff1673ffffffffffffffffffffffffffffffffffffffff16815260200190815260200160002060003273ffffffffffffffffffffffffffffffffffffffff1673ffffffffffffffffffffffffffffffffffffffff168152602001908152602001600020548211156105c0576040517f08c379a00000000000000000000000000000000000000000000000000000000081526004016105b7906112ce565b60405180910390fd5b61061282600260008773ffffffffffffffffffffffffffffffffffffffff1673ffffffffffffffffffffffffffffffffffffffff16815260200190815260200160002054610ebc90919063ffffffff16565b600260008673ffffffffffffffffffffffffffffffffffffffff1673ffffffffffffffffffffffffffffffffffffffff168152602001908152602001600020819055506106a782600260008673ffffffffffffffffffffffffffffffffffffffff1673ffffffffffffffffffffffffffffffffffffffff16815260200190815260200160002054610ee390919063ffffffff16565b600260008573ffffffffffffffffffffffffffffffffffffffff1673ffffffffffffffffffffffffffffffffffffffff1681526020019081526020016000208190555061077982600160008773ffffffffffffffffffffffffffffffffffffffff1673ffffffffffffffffffffffffffffffffffffffff16815260200190815260200160002060003273ffffffffffffffffffffffffffffffffffffffff1673ffffffffffffffffffffffffffffffffffffffff16815260200190815260200160002054610ebc90919063ffffffff16565b600160008673ffffffffffffffffffffffffffffffffffffffff1673ffffffffffffffffffffffffffffffffffffffff16815260200190815260200160002060003273ffffffffffffffffffffffffffffffffffffffff1673ffffffffffffffffffffffffffffffffffffffff168152602001908152602001600020819055508273ffffffffffffffffffffffffffffffffffffffff168473ffffffffffffffffffffffffffffffffffffffff167fddf252ad1be2c89b69c2b068fc378daa952ba7f163c4a11628f55a4df523b3ef8460405161085691906110da565b60405180910390a3600190509392505050565b601281565b60008060019054906101000a900473ffffffffffffffffffffffffffffffffffffffff1673ffffffffffffffffffffffffffffffffffffffff163373ffffffffffffffffffffffffffffffffffffffff16146108c957600080fd5b60008054906101000a900460ff16156108e157600080fd5b6108f682600354610ee390919063ffffffff16565b60038190555061094e82600260008673ffffffffffffffffffffffffffffffffffffffff1673ffffffffffffffffffffffffffffffffffffffff16815260200190815260200160002054610ee390919063ffffffff16565b600260008573ffffffffffffffffffffffffffffffffffffffff1673ffffffffffffffffffffffffffffffffffffffff168152602001908152602001600020819055508273ffffffffffffffffffffffffffffffffffffffff167f0f6798a560793a54c3bcfe86a93cde1e73087d944c0ea20544137d4121396885836040516109d791906110da565b60405180910390a28273ffffffffffffffffffffffffffffffffffffffff16600073ffffffffffffffffffffffffffffffffffffffff167fddf252ad1be2c89b69c2b068fc378daa952ba7f163c4a11628f55a4df523b3ef84604051610a3d91906110da565b60405180910390a36001905092915050565b6000600260008373ffffffffffffffffffffffffffffffffffffffff1673ffffffffffffffffffffffffffffffffffffffff168152602001908152602001600020549050919050565b60008060019054906101000a900473ffffffffffffffffffffffffffffffffffffffff1673ffffffffffffffffffffffffffffffffffffffff163373ffffffffffffffffffffffffffffffffffffffff1614610af357600080fd5b60008054906101000a900460ff1615610b0b57600080fd5b60016000806101000a81548160ff0219169083151502179055507fae5184fba832cb2b1f702aca6117b8d265eaf03ad33eb133f19dde0f5920fa0860405160405180910390a16001905090565b60008060019054906101000a900473ffffffffffffffffffffffffffffffffffffffff16905090565b600060019054906101000a900473ffffffffffffffffffffffffffffffffffffffff1681565b6040518060400160405280600281526020017f445400000000000000000000000000000000000000000000000000000000000081525081565b60008073ffffffffffffffffffffffffffffffffffffffff168373ffffffffffffffffffffffffffffffffffffffff1603610c1a57600080fd5b600260003273ffffffffffffffffffffffffffffffffffffffff1673ffffffffffffffffffffffffffffffffffffffff16815260200190815260200160002054821115610c9c576040517f08c379a0000000000000000000000000000000000000000000000000000000008152600401610c9390611360565b60405180910390fd5b610cee82600260003273ffffffffffffffffffffffffffffffffffffffff1673ffffffffffffffffffffffffffffffffffffffff16815260200190815260200160002054610ebc90919063ffffffff16565b600260003273ffffffffffffffffffffffffffffffffffffffff1673ffffffffffffffffffffffffffffffffffffffff16815260200190815260200160002081905550610d8382600260008673ffffffffffffffffffffffffffffffffffffffff1673ffffffffffffffffffffffffffffffffffffffff16815260200190815260200160002054610ee390919063ffffffff16565b600260008573ffffffffffffffffffffffffffffffffffffffff1673ffffffffffffffffffffffffffffffffffffffff168152602001908152602001600020819055508273ffffffffffffffffffffffffffffffffffffffff163273ffffffffffffffffffffffffffffffffffffffff167fddf252ad1be2c89b69c2b068fc378daa952ba7f163c4a11628f55a4df523b3ef84604051610e2391906110da565b60405180910390a36001905092915050565b6000600160008473ffffffffffffffffffffffffffffffffffffffff1673ffffffffffffffffffffffffffffffffffffffff16815260200190815260200160002060008373ffffffffffffffffffffffffffffffffffffffff1673ffffffffffffffffffffffffffffffffffffffff16815260200190815260200160002054905092915050565b600082821115610ecf57610ece611380565b5b8183610edb91906113de565b905092915050565b60008183610ef19190611412565b905082811015610f0457610f03611380565b5b92915050565b60008115159050919050565b610f1f81610f0a565b82525050565b6000602082019050610f3a6000830184610f16565b92915050565b600081519050919050565b600082825260208201905092915050565b60005b83811015610f7a578082015181840152602081019050610f5f565b60008484015250505050565b6000601f19601f8301169050919050565b6000610fa282610f40565b610fac8185610f4b565b9350610fbc818560208601610f5c565b610fc581610f86565b840191505092915050565b60006020820190508181036000830152610fea8184610f97565b905092915050565b600080fd5b600073ffffffffffffffffffffffffffffffffffffffff82169050919050565b600061102282610ff7565b9050919050565b61103281611017565b811461103d57600080fd5b50565b60008135905061104f81611029565b92915050565b6000819050919050565b61106881611055565b811461107357600080fd5b50565b6000813590506110858161105f565b92915050565b600080604083850312156110a2576110a1610ff2565b5b60006110b085828601611040565b92505060206110c185828601611076565b9150509250929050565b6110d481611055565b82525050565b60006020820190506110ef60008301846110cb565b92915050565b60008060006060848603121561110e5761110d610ff2565b5b600061111c86828701611040565b935050602061112d86828701611040565b925050604061113e86828701611076565b9150509250925092565b600060ff82169050919050565b61115e81611148565b82525050565b60006020820190506111796000830184611155565b92915050565b60006020828403121561119557611194610ff2565b5b60006111a384828501611040565b91505092915050565b6111b581611017565b82525050565b60006020820190506111d060008301846111ac565b92915050565b600080604083850312156111ed576111ec610ff2565b5b60006111fb85828601611040565b925050602061120c85828601611040565b9150509250929050565b7f46726f6d20646f65736e2774206861766520656e6f7567682062616c616e6365600082015250565b600061124c602083610f4b565b915061125782611216565b602082019050919050565b6000602082019050818103600083015261127b8161123f565b9050919050565b7f4e6f7420616c6c6f77656420746f207370656e642074686973206d7563680000600082015250565b60006112b8601e83610f4b565b91506112c382611282565b602082019050919050565b600060208201905081810360008301526112e7816112ab565b9050919050565b7f6d73672e73656e64657220646f65736e2774206861766520656e6f756768206260008201527f616c616e63650000000000000000000000000000000000000000000000000000602082015250565b600061134a602683610f4b565b9150611355826112ee565b604082019050919050565b600060208201905081810360008301526113798161133d565b9050919050565b7f4e487b7100000000000000000000000000000000000000000000000000000000600052600160045260246000fd5b7f4e487b7100000000000000000000000000000000000000000000000000000000600052601160045260246000fd5b60006113e982611055565b91506113f483611055565b925082820390508181111561140c5761140b6113af565b5b92915050565b600061141d82611055565b915061142883611055565b92508282019050808211156114405761143f6113af565b5b9291505056fea264697066735822122055e20cd80ea2cd2bd026a392831a30f5be75da9081be809572426a06fdded42c64736f6c63430008110033608060405234801561001057600080fd5b50600060405161001f906100d0565b604051809103906000f08015801561003b573d6000803e3d6000fd5b509050806000806101000a81548173ffffffffffffffffffffffffffffffffffffffff021916908373ffffffffffffffffffffffffffffffffffffffff16021790555033600360006101000a81548173ffffffffffffffffffffffffffffffffffffffff021916908373ffffffffffffffffffffffffffffffffffffffff1602179055506305f5e100600181905550506100dd565b6114f780610a1683390190565b61092a806100ec6000396000f3fe60806040526004361061004a5760003560e01c80632fdcfbd21461004f578063412664ae146100785780635f515226146100a1578063c71daccb146100de578063e4b50cb814610109575b600080fd5b34801561005b57600080fd5b50610076600480360381019061007191906105cc565b610125565b005b34801561008457600080fd5b5061009f600480360381019061009a919061061f565b6101cb565b005b3480156100ad57600080fd5b506100c860048036038101906100c3919061065f565b61026e565b6040516100d5919061069b565b60405180910390f35b3480156100ea57600080fd5b506100f3610312565b604051610100919061069b565b60405180910390f35b610123600480360381019061011e91906106b6565b6103b4565b005b60008054906101000a900473ffffffffffffffffffffffffffffffffffffffff1673ffffffffffffffffffffffffffffffffffffffff166323b872dd8484846040518463ffffffff1660e01b8152600401610182939291906106f2565b6020604051808303816000875af11580156101a1573d6000803e3d6000fd5b505050506040513d601f19601f820116820180604052508101906101c59190610761565b50505050565b60008054906101000a900473ffffffffffffffffffffffffffffffffffffffff1673ffffffffffffffffffffffffffffffffffffffff1663a9059cbb83836040518363ffffffff1660e01b815260040161022692919061078e565b6020604051808303816000875af1158015610245573d6000803e3d6000fd5b505050506040513d601f19601f820116820180604052508101906102699190610761565b505050565b60008060009054906101000a900473ffffffffffffffffffffffffffffffffffffffff1673ffffffffffffffffffffffffffffffffffffffff166370a08231836040518263ffffffff1660e01b81526004016102ca91906107b7565b602060405180830381865afa1580156102e7573d6000803e3d6000fd5b505050506040513d601f19601f8201168201806040525081019061030b91906107e7565b9050919050565b60008060009054906101000a900473ffffffffffffffffffffffffffffffffffffffff1673ffffffffffffffffffffffffffffffffffffffff166370a08231336040518263ffffffff1660e01b815260040161036e91906107b7565b602060405180830381865afa15801561038b573d6000803e3d6000fd5b505050506040513d601f19601f820116820180604052508101906103af91906107e7565b905090565b6001548160008054906101000a900473ffffffffffffffffffffffffffffffffffffffff1673ffffffffffffffffffffffffffffffffffffffff166318160ddd6040518163ffffffff1660e01b8152600401602060405180830381865afa158015610423573d6000803e3d6000fd5b505050506040513d601f19601f8201168201806040525081019061044791906107e7565b6104519190610843565b10610491576040517f08c379a0000000000000000000000000000000000000000000000000000000008152600401610488906108d4565b60405180910390fd5b60008054906101000a900473ffffffffffffffffffffffffffffffffffffffff1673ffffffffffffffffffffffffffffffffffffffff166340c10f1933836040518363ffffffff1660e01b81526004016104ec92919061078e565b6020604051808303816000875af115801561050b573d6000803e3d6000fd5b505050506040513d601f19601f8201168201806040525081019061052f9190610761565b5050565b600080fd5b600073ffffffffffffffffffffffffffffffffffffffff82169050919050565b600061056382610538565b9050919050565b61057381610558565b811461057e57600080fd5b50565b6000813590506105908161056a565b92915050565b6000819050919050565b6105a981610596565b81146105b457600080fd5b50565b6000813590506105c6816105a0565b92915050565b6000806000606084860312156105e5576105e4610533565b5b60006105f386828701610581565b935050602061060486828701610581565b9250506040610615868287016105b7565b9150509250925092565b6000806040838503121561063657610635610533565b5b600061064485828601610581565b9250506020610655858286016105b7565b9150509250929050565b60006020828403121561067557610674610533565b5b600061068384828501610581565b91505092915050565b61069581610596565b82525050565b60006020820190506106b0600083018461068c565b92915050565b6000602082840312156106cc576106cb610533565b5b60006106da848285016105b7565b91505092915050565b6106ec81610558565b82525050565b600060608201905061070760008301866106e3565b61071460208301856106e3565b610721604083018461068c565b949350505050565b60008115159050919050565b61073e81610729565b811461074957600080fd5b50565b60008151905061075b81610735565b92915050565b60006020828403121561077757610776610533565b5b60006107858482850161074c565b91505092915050565b60006040820190506107a360008301856106e3565b6107b0602083018461068c565b9392505050565b60006020820190506107cc60008301846106e3565b92915050565b6000815190506107e1816105a0565b92915050565b6000602082840312156107fd576107fc610533565b5b600061080b848285016107d2565b91505092915050565b7f4e487b7100000000000000000000000000000000000000000000000000000000600052601160045260246000fd5b600061084e82610596565b915061085983610596565b925082820190508082111561087157610870610814565b5b92915050565b600082825260208201905092915050565b7f5348494220737570706c79206973206e6f7420656e6f75676800000000000000600082015250565b60006108be601983610877565b91506108c982610888565b602082019050919050565b600060208201905081810360008301526108ed816108b1565b905091905056fea264697066735822122030ed0d37a9ddf70591694fd7b2e13daba7525b1097c3702dc166a53b37f18ef064736f6c63430008110033608060405260008060006101000a81548160ff02191690831515021790555033600060016101000a81548173ffffffffffffffffffffffffffffffffffffffff021916908373ffffffffffffffffffffffffffffffffffffffff16021790555034801561006b57600080fd5b5061147c8061007b6000396000f3fe608060405234801561001057600080fd5b50600436106100ea5760003560e01c806370a082311161008c5780638da5cb5b116100665780638da5cb5b1461026357806395d89b4114610281578063a9059cbb1461029f578063dd62ed3e146102cf576100ea565b806370a08231146101f75780637d64bcb414610227578063893d20e814610245576100ea565b806318160ddd116100c857806318160ddd1461015b57806323b872dd14610179578063313ce567146101a957806340c10f19146101c7576100ea565b806305d2035b146100ef57806306fdde031461010d578063095ea7b31461012b575b600080fd5b6100f76102ff565b6040516101049190610f25565b60405180910390f35b610115610310565b6040516101229190610fd0565b60405180910390f35b6101456004803603810190610140919061108b565b610349565b6040516101529190610f25565b60405180910390f35b61016361043b565b60405161017091906110da565b60405180910390f35b610193600480360381019061018e91906110f5565b610445565b6040516101a09190610f25565b60405180910390f35b6101b1610869565b6040516101be9190611164565b60405180910390f35b6101e160048036038101906101dc919061108b565b61086e565b6040516101ee9190610f25565b60405180910390f35b610211600480360381019061020c919061117f565b610a4f565b60405161021e91906110da565b60405180910390f35b61022f610a98565b60405161023c9190610f25565b60405180910390f35b61024d610b58565b60405161025a91906111bb565b60405180910390f35b61026b610b81565b60405161027891906111bb565b60405180910390f35b610289610ba7565b6040516102969190610fd0565b60405180910390f35b6102b960048036038101906102b4919061108b565b610be0565b6040516102c69190610f25565b60405180910390f35b6102e960048036038101906102e491906111d6565b610e35565b6040516102f691906110da565b60405180910390f35b60008054906101000a900460ff1681565b6040518060400160405280600981526020017f44696365546f6b656e000000000000000000000000000000000000000000000081525081565b600081600160003373ffffffffffffffffffffffffffffffffffffffff1673ffffffffffffffffffffffffffffffffffffffff16815260200190815260200160002060008573ffffffffffffffffffffffffffffffffffffffff1673ffffffffffffffffffffffffffffffffffffffff168152602001908152602001600020819055508273ffffffffffffffffffffffffffffffffffffffff163373ffffffffffffffffffffffffffffffffffffffff167f8c5be1e5ebec7d5bd14f71427d1e84f3dd0314c0f7b2291e5b200ac8c7c3b9258460405161042991906110da565b60405180910390a36001905092915050565b6000600354905090565b60008073ffffffffffffffffffffffffffffffffffffffff168373ffffffffffffffffffffffffffffffffffffffff160361047f57600080fd5b600260008573ffffffffffffffffffffffffffffffffffffffff1673ffffffffffffffffffffffffffffffffffffffff16815260200190815260200160002054821115610501576040517f08c379a00000000000000000000000000000000000000000000000000000000081526004016104f890611262565b60405180910390fd5b600160008573ffffffffffffffffffffffffffffffffffffffff1673ffffffffffffffffffffffffffffffffffffffff16815260200190815260200160002060003273ffffffffffffffffffffffffffffffffffffffff1673ffffffffffffffffffffffffffffffffffffffff168152602001908152602001600020548211156105c0576040517f08c379a00000000000000000000000000000000000000000000000000000000081526004016105b7906112ce565b60405180910390fd5b61061282600260008773ffffffffffffffffffffffffffffffffffffffff1673ffffffffffffffffffffffffffffffffffffffff16815260200190815260200160002054610ebc90919063ffffffff16565b600260008673ffffffffffffffffffffffffffffffffffffffff1673ffffffffffffffffffffffffffffffffffffffff168152602001908152602001600020819055506106a782600260008673ffffffffffffffffffffffffffffffffffffffff1673ffffffffffffffffffffffffffffffffffffffff16815260200190815260200160002054610ee390919063ffffffff16565b600260008573ffffffffffffffffffffffffffffffffffffffff1673ffffffffffffffffffffffffffffffffffffffff1681526020019081526020016000208190555061077982600160008773ffffffffffffffffffffffffffffffffffffffff1673ffffffffffffffffffffffffffffffffffffffff16815260200190815260200160002060003273ffffffffffffffffffffffffffffffffffffffff1673ffffffffffffffffffffffffffffffffffffffff16815260200190815260200160002054610ebc90919063ffffffff16565b600160008673ffffffffffffffffffffffffffffffffffffffff1673ffffffffffffffffffffffffffffffffffffffff16815260200190815260200160002060003273ffffffffffffffffffffffffffffffffffffffff1673ffffffffffffffffffffffffffffffffffffffff168152602001908152602001600020819055508273ffffffffffffffffffffffffffffffffffffffff168473ffffffffffffffffffffffffffffffffffffffff167fddf252ad1be2c89b69c2b068fc378daa952ba7f163c4a11628f55a4df523b3ef8460405161085691906110da565b60405180910390a3600190509392505050565b601281565b60008060019054906101000a900473ffffffffffffffffffffffffffffffffffffffff1673ffffffffffffffffffffffffffffffffffffffff163373ffffffffffffffffffffffffffffffffffffffff16146108c957600080fd5b60008054906101000a900460ff16156108e157600080fd5b6108f682600354610ee390919063ffffffff16565b60038190555061094e82600260008673ffffffffffffffffffffffffffffffffffffffff1673ffffffffffffffffffffffffffffffffffffffff16815260200190815260200160002054610ee390919063ffffffff16565b600260008573ffffffffffffffffffffffffffffffffffffffff1673ffffffffffffffffffffffffffffffffffffffff168152602001908152602001600020819055508273ffffffffffffffffffffffffffffffffffffffff167f0f6798a560793a54c3bcfe86a93cde1e73087d944c0ea20544137d4121396885836040516109d791906110da565b60405180910390a28273ffffffffffffffffffffffffffffffffffffffff16600073ffffffffffffffffffffffffffffffffffffffff167fddf252ad1be2c89b69c2b068fc378daa952ba7f163c4a11628f55a4df523b3ef84604051610a3d91906110da565b60405180910390a36001905092915050565b6000600260008373ffffffffffffffffffffffffffffffffffffffff1673ffffffffffffffffffffffffffffffffffffffff168152602001908152602001600020549050919050565b60008060019054906101000a900473ffffffffffffffffffffffffffffffffffffffff1673ffffffffffffffffffffffffffffffffffffffff163373ffffffffffffffffffffffffffffffffffffffff1614610af357600080fd5b60008054906101000a900460ff1615610b0b57600080fd5b60016000806101000a81548160ff0219169083151502179055507fae5184fba832cb2b1f702aca6117b8d265eaf03ad33eb133f19dde0f5920fa0860405160405180910390a16001905090565b60008060019054906101000a900473ffffffffffffffffffffffffffffffffffffffff16905090565b600060019054906101000a900473ffffffffffffffffffffffffffffffffffffffff1681565b6040518060400160405280600281526020017f445400000000000000000000000000000000000000000000000000000000000081525081565b60008073ffffffffffffffffffffffffffffffffffffffff168373ffffffffffffffffffffffffffffffffffffffff1603610c1a57600080fd5b600260003273ffffffffffffffffffffffffffffffffffffffff1673ffffffffffffffffffffffffffffffffffffffff16815260200190815260200160002054821115610c9c576040517f08c379a0000000000000000000000000000000000000000000000000000000008152600401610c9390611360565b60405180910390fd5b610cee82600260003273ffffffffffffffffffffffffffffffffffffffff1673ffffffffffffffffffffffffffffffffffffffff16815260200190815260200160002054610ebc90919063ffffffff16565b600260003273ffffffffffffffffffffffffffffffffffffffff1673ffffffffffffffffffffffffffffffffffffffff16815260200190815260200160002081905550610d8382600260008673ffffffffffffffffffffffffffffffffffffffff1673ffffffffffffffffffffffffffffffffffffffff16815260200190815260200160002054610ee390919063ffffffff16565b600260008573ffffffffffffffffffffffffffffffffffffffff1673ffffffffffffffffffffffffffffffffffffffff168152602001908152602001600020819055508273ffffffffffffffffffffffffffffffffffffffff163273ffffffffffffffffffffffffffffffffffffffff167fddf252ad1be2c89b69c2b068fc378daa952ba7f163c4a11628f55a4df523b3ef84604051610e2391906110da565b60405180910390a36001905092915050565b6000600160008473ffffffffffffffffffffffffffffffffffffffff1673ffffffffffffffffffffffffffffffffffffffff16815260200190815260200160002060008373ffffffffffffffffffffffffffffffffffffffff1673ffffffffffffffffffffffffffffffffffffffff16815260200190815260200160002054905092915050565b600082821115610ecf57610ece611380565b5b8183610edb91906113de565b905092915050565b60008183610ef19190611412565b905082811015610f0457610f03611380565b5b92915050565b60008115159050919050565b610f1f81610f0a565b82525050565b6000602082019050610f3a6000830184610f16565b92915050565b600081519050919050565b600082825260208201905092915050565b60005b83811015610f7a578082015181840152602081019050610f5f565b60008484015250505050565b6000601f19601f8301169050919050565b6000610fa282610f40565b610fac8185610f4b565b9350610fbc818560208601610f5c565b610fc581610f86565b840191505092915050565b60006020820190508181036000830152610fea8184610f97565b905092915050565b600080fd5b600073ffffffffffffffffffffffffffffffffffffffff82169050919050565b600061102282610ff7565b9050919050565b61103281611017565b811461103d57600080fd5b50565b60008135905061104f81611029565b92915050565b6000819050919050565b61106881611055565b811461107357600080fd5b50565b6000813590506110858161105f565b92915050565b600080604083850312156110a2576110a1610ff2565b5b60006110b085828601611040565b92505060206110c185828601611076565b9150509250929050565b6110d481611055565b82525050565b60006020820190506110ef60008301846110cb565b92915050565b60008060006060848603121561110e5761110d610ff2565b5b600061111c86828701611040565b935050602061112d86828701611040565b925050604061113e86828701611076565b9150509250925092565b600060ff82169050919050565b61115e81611148565b82525050565b60006020820190506111796000830184611155565b92915050565b60006020828403121561119557611194610ff2565b5b60006111a384828501611040565b91505092915050565b6111b581611017565b82525050565b60006020820190506111d060008301846111ac565b92915050565b600080604083850312156111ed576111ec610ff2565b5b60006111fb85828601611040565b925050602061120c85828601611040565b9150509250929050565b7f46726f6d20646f65736e2774206861766520656e6f7567682062616c616e6365600082015250565b600061124c602083610f4b565b915061125782611216565b602082019050919050565b6000602082019050818103600083015261127b8161123f565b9050919050565b7f4e6f7420616c6c6f77656420746f207370656e642074686973206d7563680000600082015250565b60006112b8601e83610f4b565b91506112c382611282565b602082019050919050565b600060208201905081810360008301526112e7816112ab565b9050919050565b7f6d73672e73656e64657220646f65736e2774206861766520656e6f756768206260008201527f616c616e63650000000000000000000000000000000000000000000000000000602082015250565b600061134a602683610f4b565b9150611355826112ee565b604082019050919050565b600060208201905081810360008301526113798161133d565b9050919050565b7f4e487b7100000000000000000000000000000000000000000000000000000000600052600160045260246000fd5b7f4e487b7100000000000000000000000000000000000000000000000000000000600052601160045260246000fd5b60006113e982611055565b91506113f483611055565b925082820390508181111561140c5761140b6113af565b5b92915050565b600061141d82611055565b915061142883611055565b92508282019050808211156114405761143f6113af565b5b9291505056fea264697066735822122055e20cd80ea2cd2bd026a392831a30f5be75da9081be809572426a06fdded42c64736f6c63430008110033608060405234801561001057600080fd5b50600060405161001f906100ce565b604051809103906000f08015801561003b573d6000803e3d6000fd5b509050806000806101000a81548173ffffffffffffffffffffffffffffffffffffffff021916908373ffffffffffffffffffffffffffffffffffffffff16021790555033600360006101000a81548173ffffffffffffffffffffffffffffffffffffffff021916908373ffffffffffffffffffffffffffffffffffffffff160217905550612710600181905550506100db565b6114f780610a1483390190565b61092a806100ea6000396000f3fe60806040526004361061004a5760003560e01c80632fdcfbd21461004f578063412664ae146100785780635f515226146100a1578063c71daccb146100de578063e4b50cb814610109575b600080fd5b34801561005b57600080fd5b50610076600480360381019061007191906105cc565b610125565b005b34801561008457600080fd5b5061009f600480360381019061009a919061061f565b6101cb565b005b3480156100ad57600080fd5b506100c860048036038101906100c3919061065f565b61026e565b6040516100d5919061069b565b60405180910390f35b3480156100ea57600080fd5b506100f3610312565b604051610100919061069b565b60405180910390f35b610123600480360381019061011e91906106b6565b6103b4565b005b60008054906101000a900473ffffffffffffffffffffffffffffffffffffffff1673ffffffffffffffffffffffffffffffffffffffff166323b872dd8484846040518463ffffffff1660e01b8152600401610182939291906106f2565b6020604051808303816000875af11580156101a1573d6000803e3d6000fd5b505050506040513d601f19601f820116820180604052508101906101c59190610761565b50505050565b60008054906101000a900473ffffffffffffffffffffffffffffffffffffffff1673ffffffffffffffffffffffffffffffffffffffff1663a9059cbb83836040518363ffffffff1660e01b815260040161022692919061078e565b6020604051808303816000875af1158015610245573d6000803e3d6000fd5b505050506040513d601f19601f820116820180604052508101906102699190610761565b505050565b60008060009054906101000a900473ffffffffffffffffffffffffffffffffffffffff1673ffffffffffffffffffffffffffffffffffffffff166370a08231836040518263ffffffff1660e01b81526004016102ca91906107b7565b602060405180830381865afa1580156102e7573d6000803e3d6000fd5b505050506040513d601f19601f8201168201806040525081019061030b91906107e7565b9050919050565b60008060009054906101000a900473ffffffffffffffffffffffffffffffffffffffff1673ffffffffffffffffffffffffffffffffffffffff166370a08231336040518263ffffffff1660e01b815260040161036e91906107b7565b602060405180830381865afa15801561038b573d6000803e3d6000fd5b505050506040513d601f19601f820116820180604052508101906103af91906107e7565b905090565b6001548160008054906101000a900473ffffffffffffffffffffffffffffffffffffffff1673ffffffffffffffffffffffffffffffffffffffff166318160ddd6040518163ffffffff1660e01b8152600401602060405180830381865afa158015610423573d6000803e3d6000fd5b505050506040513d601f19601f8201168201806040525081019061044791906107e7565b6104519190610843565b10610491576040517f08c379a0000000000000000000000000000000000000000000000000000000008152600401610488906108d4565b60405180910390fd5b60008054906101000a900473ffffffffffffffffffffffffffffffffffffffff1673ffffffffffffffffffffffffffffffffffffffff166340c10f1933836040518363ffffffff1660e01b81526004016104ec92919061078e565b6020604051808303816000875af115801561050b573d6000803e3d6000fd5b505050506040513d601f19601f8201168201806040525081019061052f9190610761565b5050565b600080fd5b600073ffffffffffffffffffffffffffffffffffffffff82169050919050565b600061056382610538565b9050919050565b61057381610558565b811461057e57600080fd5b50565b6000813590506105908161056a565b92915050565b6000819050919050565b6105a981610596565b81146105b457600080fd5b50565b6000813590506105c6816105a0565b92915050565b6000806000606084860312156105e5576105e4610533565b5b60006105f386828701610581565b935050602061060486828701610581565b9250506040610615868287016105b7565b9150509250925092565b6000806040838503121561063657610635610533565b5b600061064485828601610581565b9250506020610655858286016105b7565b9150509250929050565b60006020828403121561067557610674610533565b5b600061068384828501610581565b91505092915050565b61069581610596565b82525050565b60006020820190506106b0600083018461068c565b92915050565b6000602082840312156106cc576106cb610533565b5b60006106da848285016105b7565b91505092915050565b6106ec81610558565b82525050565b600060608201905061070760008301866106e3565b61071460208301856106e3565b610721604083018461068c565b949350505050565b60008115159050919050565b61073e81610729565b811461074957600080fd5b50565b60008151905061075b81610735565b92915050565b60006020828403121561077757610776610533565b5b60006107858482850161074c565b91505092915050565b60006040820190506107a360008301856106e3565b6107b0602083018461068c565b9392505050565b60006020820190506107cc60008301846106e3565b92915050565b6000815190506107e1816105a0565b92915050565b6000602082840312156107fd576107fc610533565b5b600061080b848285016107d2565b91505092915050565b7f4e487b7100000000000000000000000000000000000000000000000000000000600052601160045260246000fd5b600061084e82610596565b915061085983610596565b925082820190508082111561087157610870610814565b5b92915050565b600082825260208201905092915050565b7f554e4920737570706c79206973206e6f7420656e6f7567680000000000000000600082015250565b60006108be601883610877565b91506108c982610888565b602082019050919050565b600060208201905081810360008301526108ed816108b1565b905091905056fea2646970667358221220f5e45e2503c348320e2be0c5aab4e7cef831d5a12681c2fe42749b39cae7467a64736f6c63430008110033608060405260008060006101000a81548160ff02191690831515021790555033600060016101000a81548173ffffffffffffffffffffffffffffffffffffffff021916908373ffffffffffffffffffffffffffffffffffffffff16021790555034801561006b57600080fd5b5061147c8061007b6000396000f3fe608060405234801561001057600080fd5b50600436106100ea5760003560e01c806370a082311161008c5780638da5cb5b116100665780638da5cb5b1461026357806395d89b4114610281578063a9059cbb1461029f578063dd62ed3e146102cf576100ea565b806370a08231146101f75780637d64bcb414610227578063893d20e814610245576100ea565b806318160ddd116100c857806318160ddd1461015b57806323b872dd14610179578063313ce567146101a957806340c10f19146101c7576100ea565b806305d2035b146100ef57806306fdde031461010d578063095ea7b31461012b575b600080fd5b6100f76102ff565b6040516101049190610f25565b60405180910390f35b610115610310565b6040516101229190610fd0565b60405180910390f35b6101456004803603810190610140919061108b565b610349565b6040516101529190610f25565b60405180910390f35b61016361043b565b60405161017091906110da565b60405180910390f35b610193600480360381019061018e91906110f5565b610445565b6040516101a09190610f25565b60405180910390f35b6101b1610869565b6040516101be9190611164565b60405180910390f35b6101e160048036038101906101dc919061108b565b61086e565b6040516101ee9190610f25565b60405180910390f35b610211600480360381019061020c919061117f565b610a4f565b60405161021e91906110da565b60405180910390f35b61022f610a98565b60405161023c9190610f25565b60405180910390f35b61024d610b58565b60405161025a91906111bb565b60405180910390f35b61026b610b81565b60405161027891906111bb565b60405180910390f35b610289610ba7565b6040516102969190610fd0565b60405180910390f35b6102b960048036038101906102b4919061108b565b610be0565b6040516102c69190610f25565b60405180910390f35b6102e960048036038101906102e491906111d6565b610e35565b6040516102f691906110da565b60405180910390f35b60008054906101000a900460ff1681565b6040518060400160405280600981526020017f44696365546f6b656e000000000000000000000000000000000000000000000081525081565b600081600160003373ffffffffffffffffffffffffffffffffffffffff1673ffffffffffffffffffffffffffffffffffffffff16815260200190815260200160002060008573ffffffffffffffffffffffffffffffffffffffff1673ffffffffffffffffffffffffffffffffffffffff168152602001908152602001600020819055508273ffffffffffffffffffffffffffffffffffffffff163373ffffffffffffffffffffffffffffffffffffffff167f8c5be1e5ebec7d5bd14f71427d1e84f3dd0314c0f7b2291e5b200ac8c7c3b9258460405161042991906110da565b60405180910390a36001905092915050565b6000600354905090565b60008073ffffffffffffffffffffffffffffffffffffffff168373ffffffffffffffffffffffffffffffffffffffff160361047f57600080fd5b600260008573ffffffffffffffffffffffffffffffffffffffff1673ffffffffffffffffffffffffffffffffffffffff16815260200190815260200160002054821115610501576040517f08c379a00000000000000000000000000000000000000000000000000000000081526004016104f890611262565b60405180910390fd5b600160008573ffffffffffffffffffffffffffffffffffffffff1673ffffffffffffffffffffffffffffffffffffffff16815260200190815260200160002060003273ffffffffffffffffffffffffffffffffffffffff1673ffffffffffffffffffffffffffffffffffffffff168152602001908152602001600020548211156105c0576040517f08c379a00000000000000000000000000000000000000000000000000000000081526004016105b7906112ce565b60405180910390fd5b61061282600260008773ffffffffffffffffffffffffffffffffffffffff1673ffffffffffffffffffffffffffffffffffffffff16815260200190815260200160002054610ebc90919063ffffffff16565b600260008673ffffffffffffffffffffffffffffffffffffffff1673ffffffffffffffffffffffffffffffffffffffff168152602001908152602001600020819055506106a782600260008673ffffffffffffffffffffffffffffffffffffffff1673ffffffffffffffffffffffffffffffffffffffff16815260200190815260200160002054610ee390919063ffffffff16565b600260008573ffffffffffffffffffffffffffffffffffffffff1673ffffffffffffffffffffffffffffffffffffffff1681526020019081526020016000208190555061077982600160008773ffffffffffffffffffffffffffffffffffffffff1673ffffffffffffffffffffffffffffffffffffffff16815260200190815260200160002060003273ffffffffffffffffffffffffffffffffffffffff1673ffffffffffffffffffffffffffffffffffffffff16815260200190815260200160002054610ebc90919063ffffffff16565b600160008673ffffffffffffffffffffffffffffffffffffffff1673ffffffffffffffffffffffffffffffffffffffff16815260200190815260200160002060003273ffffffffffffffffffffffffffffffffffffffff1673ffffffffffffffffffffffffffffffffffffffff168152602001908152602001600020819055508273ffffffffffffffffffffffffffffffffffffffff168473ffffffffffffffffffffffffffffffffffffffff167fddf252ad1be2c89b69c2b068fc378daa952ba7f163c4a11628f55a4df523b3ef8460405161085691906110da565b60405180910390a3600190509392505050565b601281565b60008060019054906101000a900473ffffffffffffffffffffffffffffffffffffffff1673ffffffffffffffffffffffffffffffffffffffff163373ffffffffffffffffffffffffffffffffffffffff16146108c957600080fd5b60008054906101000a900460ff16156108e157600080fd5b6108f682600354610ee390919063ffffffff16565b60038190555061094e82600260008673ffffffffffffffffffffffffffffffffffffffff1673ffffffffffffffffffffffffffffffffffffffff16815260200190815260200160002054610ee390919063ffffffff16565b600260008573ffffffffffffffffffffffffffffffffffffffff1673ffffffffffffffffffffffffffffffffffffffff168152602001908152602001600020819055508273ffffffffffffffffffffffffffffffffffffffff167f0f6798a560793a54c3bcfe86a93cde1e73087d944c0ea20544137d4121396885836040516109d791906110da565b60405180910390a28273ffffffffffffffffffffffffffffffffffffffff16600073ffffffffffffffffffffffffffffffffffffffff167fddf252ad1be2c89b69c2b068fc378daa952ba7f163c4a11628f55a4df523b3ef84604051610a3d91906110da565b60405180910390a36001905092915050565b6000600260008373ffffffffffffffffffffffffffffffffffffffff1673ffffffffffffffffffffffffffffffffffffffff168152602001908152602001600020549050919050565b60008060019054906101000a900473ffffffffffffffffffffffffffffffffffffffff1673ffffffffffffffffffffffffffffffffffffffff163373ffffffffffffffffffffffffffffffffffffffff1614610af357600080fd5b60008054906101000a900460ff1615610b0b57600080fd5b60016000806101000a81548160ff0219169083151502179055507fae5184fba832cb2b1f702aca6117b8d265eaf03ad33eb133f19dde0f5920fa0860405160405180910390a16001905090565b60008060019054906101000a900473ffffffffffffffffffffffffffffffffffffffff16905090565b600060019054906101000a900473ffffffffffffffffffffffffffffffffffffffff1681565b6040518060400160405280600281526020017f445400000000000000000000000000000000000000000000000000000000000081525081565b60008073ffffffffffffffffffffffffffffffffffffffff168373ffffffffffffffffffffffffffffffffffffffff1603610c1a57600080fd5b600260003273ffffffffffffffffffffffffffffffffffffffff1673ffffffffffffffffffffffffffffffffffffffff16815260200190815260200160002054821115610c9c576040517f08c379a0000000000000000000000000000000000000000000000000000000008152600401610c9390611360565b60405180910390fd5b610cee82600260003273ffffffffffffffffffffffffffffffffffffffff1673ffffffffffffffffffffffffffffffffffffffff16815260200190815260200160002054610ebc90919063ffffffff16565b600260003273ffffffffffffffffffffffffffffffffffffffff1673ffffffffffffffffffffffffffffffffffffffff16815260200190815260200160002081905550610d8382600260008673ffffffffffffffffffffffffffffffffffffffff1673ffffffffffffffffffffffffffffffffffffffff16815260200190815260200160002054610ee390919063ffffffff16565b600260008573ffffffffffffffffffffffffffffffffffffffff1673ffffffffffffffffffffffffffffffffffffffff168152602001908152602001600020819055508273ffffffffffffffffffffffffffffffffffffffff163273ffffffffffffffffffffffffffffffffffffffff167fddf252ad1be2c89b69c2b068fc378daa952ba7f163c4a11628f55a4df523b3ef84604051610e2391906110da565b60405180910390a36001905092915050565b6000600160008473ffffffffffffffffffffffffffffffffffffffff1673ffffffffffffffffffffffffffffffffffffffff16815260200190815260200160002060008373ffffffffffffffffffffffffffffffffffffffff1673ffffffffffffffffffffffffffffffffffffffff16815260200190815260200160002054905092915050565b600082821115610ecf57610ece611380565b5b8183610edb91906113de565b905092915050565b60008183610ef19190611412565b905082811015610f0457610f03611380565b5b92915050565b60008115159050919050565b610f1f81610f0a565b82525050565b6000602082019050610f3a6000830184610f16565b92915050565b600081519050919050565b600082825260208201905092915050565b60005b83811015610f7a578082015181840152602081019050610f5f565b60008484015250505050565b6000601f19601f8301169050919050565b6000610fa282610f40565b610fac8185610f4b565b9350610fbc818560208601610f5c565b610fc581610f86565b840191505092915050565b60006020820190508181036000830152610fea8184610f97565b905092915050565b600080fd5b600073ffffffffffffffffffffffffffffffffffffffff82169050919050565b600061102282610ff7565b9050919050565b61103281611017565b811461103d57600080fd5b50565b60008135905061104f81611029565b92915050565b6000819050919050565b61106881611055565b811461107357600080fd5b50565b6000813590506110858161105f565b92915050565b600080604083850312156110a2576110a1610ff2565b5b60006110b085828601611040565b92505060206110c185828601611076565b9150509250929050565b6110d481611055565b82525050565b60006020820190506110ef60008301846110cb565b92915050565b60008060006060848603121561110e5761110d610ff2565b5b600061111c86828701611040565b935050602061112d86828701611040565b925050604061113e86828701611076565b9150509250925092565b600060ff82169050919050565b61115e81611148565b82525050565b60006020820190506111796000830184611155565b92915050565b60006020828403121561119557611194610ff2565b5b60006111a384828501611040565b91505092915050565b6111b581611017565b82525050565b60006020820190506111d060008301846111ac565b92915050565b600080604083850312156111ed576111ec610ff2565b5b60006111fb85828601611040565b925050602061120c85828601611040565b9150509250929050565b7f46726f6d20646f65736e2774206861766520656e6f7567682062616c616e6365600082015250565b600061124c602083610f4b565b915061125782611216565b602082019050919050565b6000602082019050818103600083015261127b8161123f565b9050919050565b7f4e6f7420616c6c6f77656420746f207370656e642074686973206d7563680000600082015250565b60006112b8601e83610f4b565b91506112c382611282565b602082019050919050565b600060208201905081810360008301526112e7816112ab565b9050919050565b7f6d73672e73656e64657220646f65736e2774206861766520656e6f756768206260008201527f616c616e63650000000000000000000000000000000000000000000000000000602082015250565b600061134a602683610f4b565b9150611355826112ee565b604082019050919050565b600060208201905081810360008301526113798161133d565b9050919050565b7f4e487b7100000000000000000000000000000000000000000000000000000000600052600160045260246000fd5b7f4e487b7100000000000000000000000000000000000000000000000000000000600052601160045260246000fd5b60006113e982611055565b91506113f483611055565b925082820390508181111561140c5761140b6113af565b5b92915050565b600061141d82611055565b915061142883611055565b92508282019050808211156114405761143f6113af565b5b9291505056fea264697066735822122055e20cd80ea2cd2bd026a392831a30f5be75da9081be809572426a06fdded42c64736f6c63430008110033",
  "immutableReferences": {},
  "source": "// SPDX-License-Identifier: MIT\r\npragma solidity >= 0.5.0;\r\n\r\nimport \"./ERC20.sol\";\r\n// import \"./DSMath.sol\";\r\nimport \"./PriceConsumer.sol\";\r\n// import \"./RNG.sol\";\r\nimport \"./Cro.sol\";\r\nimport \"./Shib.sol\";\r\nimport \"./Uni.sol\";\r\n\r\n// import \"@chainlink/contracts/src/v0.8/interfaces/AggregatorV3Interface.sol\";\r\n\r\ncontract Helper {\r\n\r\n    // ERC20 erc20Contract;\r\n    // RNG r = new RNG();\r\n    Cro cro = new Cro();\r\n    Shib shib = new Shib();\r\n    Uni uni = new Uni();\r\n    uint256 public platformFee = 100; //in ether\r\n    uint256 public transactionFee = 10; //in ether\r\n    //  constructor() public {\r\n    //     // platformFee = platFee;\r\n    //     // transactionFee = transFee;\r\n    // }\r\n\r\n    // function setCurrencyConversion(string memory conversion) public {\r\n    //     currentConversion = conversion;\r\n    // }\r\n\r\n    function getPlatformFee(uint256 amt) public view returns (uint256) {\r\n        return platformFee;\r\n    }\r\n\r\n    function getTransactionFee(uint256 amt) public view returns (uint256) {\r\n        return transactionFee;\r\n    }\r\n\r\n    //before using, check if address to charge has more than the platform fee\r\n    function chargePlatformFee(uint256 choiceOfCurrency, address user, address recipient) public payable {\r\n        if(choiceOfCurrency == 0) { \r\n            uint256 convertedFee = platformFee/100;\r\n            require(cro.checkBalance(user) >= convertedFee, \"Insufficient tokens\");\r\n            cro.sendToken(user, recipient, convertedFee);\r\n        } else if(choiceOfCurrency == 1) {\r\n            uint256 convertedFee = platformFee/10000;\r\n            require(shib.checkBalance(user) >= convertedFee, \"Insufficient tokens\");\r\n            shib.sendToken(user, recipient, convertedFee);  \r\n        } else if(choiceOfCurrency == 2) {\r\n            uint256 convertedFee = platformFee/10;\r\n            require(uni.checkBalance(user) >= convertedFee, \"Insufficient tokens\");\r\n            uni.sendToken(user, recipient, convertedFee); \r\n        }\r\n    }\r\n\r\n    //before using, check if address to charge has more than the transaction fee\r\n    function chargeTransactionFee(uint256 choiceOfCurrency, address user, address recipient) public payable {\r\n        if(choiceOfCurrency == 0) { \r\n            uint256 convertedFee = transactionFee/100;\r\n            require(cro.checkBalance(user) >= convertedFee, \"Insufficient tokens\");\r\n            cro.sendToken(user, recipient, convertedFee);\r\n        } else if(choiceOfCurrency == 1) {\r\n            uint256 convertedFee = transactionFee/10000;\r\n            require(shib.checkBalance(user) >= convertedFee, \"Insufficient tokens\");\r\n            shib.sendToken(user, recipient, convertedFee);  \r\n        } else if(choiceOfCurrency == 2) {\r\n            uint256 convertedFee = transactionFee/10;\r\n            require(uni.checkBalance(user) >= convertedFee, \"Insufficient tokens\");\r\n            uni.sendToken(user, recipient, convertedFee); \r\n            }\r\n    }  \r\n\r\n    function withdrawFee(uint256 choiceOfCurrency, uint256 amt, address from) public {\r\n        if(choiceOfCurrency == 0) { \r\n            uint256 convertedAmt = amt/100;\r\n            require(cro.checkBalance(from) >= convertedAmt, \"Insufficient tokens\");\r\n            cro.sendToken(from, msg.sender, convertedAmt);\r\n        } else if(choiceOfCurrency == 1) {\r\n            uint256 convertedAmt = amt/10000;\r\n            require(shib.checkBalance(from) >= convertedAmt, \"Insufficient tokens\");\r\n            shib.sendToken(from, msg.sender, convertedAmt);\r\n        } else if(choiceOfCurrency == 2) {\r\n            uint256 convertedAmt = amt/10;\r\n            require(uni.checkBalance(from) >= convertedAmt, \"Insufficient tokens\");\r\n            uni.sendToken(from, msg.sender, convertedAmt);\r\n        }\r\n    }   \r\n}\r\n",
  "sourcePath": "D:\\NUS\\Y3S2\\IS4302\\DeBank\\contracts\\Helper.sol",
  "compiler": {
    "name": "solc",
    "version": "0.8.17+commit.8df45f5f.Emscripten.clang"
  },
  "schemaVersion": "3.4.13",
  "updatedAt": "2023-04-09T04:31:02.572Z",
  "devdoc": {
    "kind": "dev",
    "methods": {},
    "version": 1
  },
  "userdoc": {
    "kind": "user",
    "methods": {},
    "version": 1
  }
}