{
  "contractName": "LiquidityPool",
  "abi": [
    {
      "inputs": [
        {
          "internalType": "contract Debank",
          "name": "deBankAddress",
          "type": "address"
        },
        {
          "internalType": "contract RNG",
          "name": "rngAddress",
          "type": "address"
        },
        {
          "internalType": "contract Cro",
          "name": "croAddress",
          "type": "address"
        },
        {
          "internalType": "contract Shib",
          "name": "shibAdress",
          "type": "address"
        },
        {
          "internalType": "contract Uni",
          "name": "uniAddress",
          "type": "address"
        },
        {
          "internalType": "contract Helper",
          "name": "helperAddress",
          "type": "address"
        }
      ],
      "stateMutability": "nonpayable",
      "type": "constructor"
    },
    {
      "anonymous": false,
      "inputs": [
        {
          "indexed": false,
          "internalType": "address",
          "name": "lender",
          "type": "address"
        },
        {
          "indexed": false,
          "internalType": "uint256",
          "name": "choiceOfCurrency",
          "type": "uint256"
        },
        {
          "indexed": false,
          "internalType": "uint256",
          "name": "depositAmount",
          "type": "uint256"
        }
      ],
      "name": "DepositMade",
      "type": "event"
    },
    {
      "anonymous": false,
      "inputs": [
        {
          "indexed": false,
          "internalType": "address",
          "name": "borrower",
          "type": "address"
        },
        {
          "indexed": false,
          "internalType": "uint256",
          "name": "choiceOfCurrency",
          "type": "uint256"
        },
        {
          "indexed": false,
          "internalType": "uint256",
          "name": "loanAmount",
          "type": "uint256"
        }
      ],
      "name": "LoanBorrowed",
      "type": "event"
    },
    {
      "anonymous": false,
      "inputs": [
        {
          "indexed": false,
          "internalType": "address",
          "name": "borrower",
          "type": "address"
        },
        {
          "indexed": false,
          "internalType": "uint256",
          "name": "choiceOfCurrency",
          "type": "uint256"
        },
        {
          "indexed": false,
          "internalType": "uint256",
          "name": "returnedAmount",
          "type": "uint256"
        }
      ],
      "name": "LoanReturned",
      "type": "event"
    },
    {
      "anonymous": false,
      "inputs": [
        {
          "indexed": false,
          "internalType": "string",
          "name": "message",
          "type": "string"
        }
      ],
      "name": "Log",
      "type": "event"
    },
    {
      "anonymous": false,
      "inputs": [
        {
          "indexed": true,
          "internalType": "address",
          "name": "previousOwner",
          "type": "address"
        },
        {
          "indexed": true,
          "internalType": "address",
          "name": "newOwner",
          "type": "address"
        }
      ],
      "name": "LogOwnershipTransferred",
      "type": "event"
    },
    {
      "anonymous": false,
      "inputs": [
        {
          "indexed": false,
          "internalType": "uint256",
          "name": "choiceOfCurrency",
          "type": "uint256"
        },
        {
          "indexed": false,
          "internalType": "uint256",
          "name": "amount",
          "type": "uint256"
        }
      ],
      "name": "Transfered",
      "type": "event"
    },
    {
      "anonymous": false,
      "inputs": [
        {
          "indexed": false,
          "internalType": "address",
          "name": "lender",
          "type": "address"
        },
        {
          "indexed": false,
          "internalType": "uint256",
          "name": "choiceOfCurrency",
          "type": "uint256"
        },
        {
          "indexed": false,
          "internalType": "uint256",
          "name": "withdrawnAmount",
          "type": "uint256"
        }
      ],
      "name": "WithdrawalMade",
      "type": "event"
    },
    {
      "inputs": [],
      "name": "numPools",
      "outputs": [
        {
          "internalType": "uint256",
          "name": "",
          "type": "uint256"
        }
      ],
      "stateMutability": "view",
      "type": "function"
    },
    {
      "inputs": [],
      "name": "owner",
      "outputs": [
        {
          "internalType": "address",
          "name": "",
          "type": "address"
        }
      ],
      "stateMutability": "view",
      "type": "function"
    },
    {
      "inputs": [
        {
          "internalType": "uint256",
          "name": "",
          "type": "uint256"
        }
      ],
      "name": "pools",
      "outputs": [
        {
          "internalType": "uint256",
          "name": "poolLoanId",
          "type": "uint256"
        },
        {
          "internalType": "string",
          "name": "currencyTypeName",
          "type": "string"
        },
        {
          "internalType": "uint256",
          "name": "poolAmount",
          "type": "uint256"
        },
        {
          "internalType": "uint256",
          "name": "borrowerInterestRate",
          "type": "uint256"
        },
        {
          "internalType": "uint256",
          "name": "lenderInterestRate",
          "type": "uint256"
        },
        {
          "internalType": "address",
          "name": "owner",
          "type": "address"
        },
        {
          "internalType": "address",
          "name": "prevOwner",
          "type": "address"
        }
      ],
      "stateMutability": "view",
      "type": "function"
    },
    {
      "inputs": [
        {
          "internalType": "address",
          "name": "newOwner",
          "type": "address"
        }
      ],
      "name": "transferOwnership",
      "outputs": [],
      "stateMutability": "nonpayable",
      "type": "function"
    },
    {
      "inputs": [
        {
          "internalType": "string",
          "name": "currencyTypeName",
          "type": "string"
        }
      ],
      "name": "addNewPool",
      "outputs": [
        {
          "internalType": "uint256",
          "name": "",
          "type": "uint256"
        }
      ],
      "stateMutability": "payable",
      "type": "function"
    },
    {
      "inputs": [
        {
          "internalType": "uint256",
          "name": "choiceOfCurrency",
          "type": "uint256"
        }
      ],
      "name": "checkPoolAmount",
      "outputs": [
        {
          "internalType": "uint256",
          "name": "",
          "type": "uint256"
        }
      ],
      "stateMutability": "view",
      "type": "function"
    },
    {
      "inputs": [
        {
          "internalType": "uint256",
          "name": "choiceOfCurrency",
          "type": "uint256"
        },
        {
          "internalType": "uint256",
          "name": "depositAmount",
          "type": "uint256"
        }
      ],
      "name": "deposit",
      "outputs": [],
      "stateMutability": "nonpayable",
      "type": "function"
    },
    {
      "inputs": [
        {
          "internalType": "uint256",
          "name": "amount",
          "type": "uint256"
        },
        {
          "internalType": "uint256",
          "name": "choiceOfCurrency",
          "type": "uint256"
        }
      ],
      "name": "withdraw",
      "outputs": [],
      "stateMutability": "nonpayable",
      "type": "function"
    },
    {
      "inputs": [
        {
          "internalType": "uint256",
          "name": "interestRate",
          "type": "uint256"
        }
      ],
      "name": "calculateInterest",
      "outputs": [],
      "stateMutability": "nonpayable",
      "type": "function"
    },
    {
      "inputs": [
        {
          "internalType": "address",
          "name": "user",
          "type": "address"
        },
        {
          "internalType": "uint256",
          "name": "currencyType",
          "type": "uint256"
        }
      ],
      "name": "getDepositCount",
      "outputs": [
        {
          "internalType": "uint256",
          "name": "",
          "type": "uint256"
        }
      ],
      "stateMutability": "view",
      "type": "function"
    },
    {
      "inputs": [
        {
          "internalType": "address",
          "name": "user",
          "type": "address"
        },
        {
          "internalType": "uint256",
          "name": "currencyType",
          "type": "uint256"
        }
      ],
      "name": "getLoanCount",
      "outputs": [
        {
          "internalType": "uint256",
          "name": "",
          "type": "uint256"
        }
      ],
      "stateMutability": "view",
      "type": "function"
    },
    {
      "inputs": [
        {
          "internalType": "uint256",
          "name": "loanAmount",
          "type": "uint256"
        },
        {
          "internalType": "uint256",
          "name": "choiceOfCurrency",
          "type": "uint256"
        }
      ],
      "name": "borrow",
      "outputs": [],
      "stateMutability": "nonpayable",
      "type": "function"
    },
    {
      "inputs": [
        {
          "internalType": "uint256",
          "name": "amount",
          "type": "uint256"
        },
        {
          "internalType": "uint256",
          "name": "choiceOfCurrency",
          "type": "uint256"
        }
      ],
      "name": "returnLoan",
      "outputs": [],
      "stateMutability": "nonpayable",
      "type": "function"
    },
    {
      "inputs": [
        {
          "internalType": "uint256",
          "name": "choiceOfCurrency",
          "type": "uint256"
        }
      ],
      "name": "getBorrowerCollateral",
      "outputs": [
        {
          "components": [
            {
              "internalType": "uint256",
              "name": "currencyType",
              "type": "uint256"
            },
            {
              "internalType": "uint256",
              "name": "collateralCurrencyType",
              "type": "uint256"
            },
            {
              "internalType": "uint256",
              "name": "amount",
              "type": "uint256"
            }
          ],
          "internalType": "struct LiquidityPool.Collateral",
          "name": "",
          "type": "tuple"
        }
      ],
      "stateMutability": "view",
      "type": "function"
    },
    {
      "inputs": [
        {
          "internalType": "uint256",
          "name": "currencyType",
          "type": "uint256"
        },
        {
          "internalType": "uint256",
          "name": "currencyFor",
          "type": "uint256"
        },
        {
          "internalType": "uint256",
          "name": "amount",
          "type": "uint256"
        }
      ],
      "name": "depositCollateral",
      "outputs": [],
      "stateMutability": "nonpayable",
      "type": "function"
    },
    {
      "inputs": [
        {
          "internalType": "uint256",
          "name": "interestRate",
          "type": "uint256"
        }
      ],
      "name": "calculateLoanInterest",
      "outputs": [],
      "stateMutability": "nonpayable",
      "type": "function"
    },
    {
      "inputs": [
        {
          "internalType": "uint256",
          "name": "choiceOfCurrency",
          "type": "uint256"
        },
        {
          "internalType": "uint256",
          "name": "amt",
          "type": "uint256"
        }
      ],
      "name": "depositToken",
      "outputs": [],
      "stateMutability": "nonpayable",
      "type": "function"
    },
    {
      "inputs": [
        {
          "internalType": "uint256",
          "name": "choiceOfCurrency",
          "type": "uint256"
        },
        {
          "internalType": "uint256",
          "name": "amt",
          "type": "uint256"
        }
      ],
      "name": "withdrawToken",
      "outputs": [],
      "stateMutability": "nonpayable",
      "type": "function"
    },
    {
      "inputs": [
        {
          "internalType": "uint256",
          "name": "choiceOfCurrency",
          "type": "uint256"
        }
      ],
      "name": "setLenderInterestRate",
      "outputs": [],
      "stateMutability": "nonpayable",
      "type": "function"
    },
    {
      "inputs": [
        {
          "internalType": "uint256",
          "name": "choiceOfCurrency",
          "type": "uint256"
        }
      ],
      "name": "setBorrowerInterestRate",
      "outputs": [],
      "stateMutability": "nonpayable",
      "type": "function"
    },
    {
      "inputs": [
        {
          "internalType": "uint256",
          "name": "choiceOfCurrency",
          "type": "uint256"
        }
      ],
      "name": "getCurrencyName",
      "outputs": [
        {
          "internalType": "string",
          "name": "",
          "type": "string"
        }
      ],
      "stateMutability": "view",
      "type": "function"
    },
    {
      "inputs": [
        {
          "internalType": "address",
          "name": "user",
          "type": "address"
        },
        {
          "internalType": "uint256",
          "name": "currencyType",
          "type": "uint256"
        }
      ],
      "name": "getLoanBalance",
      "outputs": [
        {
          "internalType": "uint256",
          "name": "",
          "type": "uint256"
        }
      ],
      "stateMutability": "view",
      "type": "function"
    },
    {
      "inputs": [
        {
          "internalType": "address",
          "name": "user",
          "type": "address"
        },
        {
          "internalType": "uint256",
          "name": "currencyType",
          "type": "uint256"
        }
      ],
      "name": "getBalance",
      "outputs": [
        {
          "internalType": "uint256",
          "name": "",
          "type": "uint256"
        }
      ],
      "stateMutability": "view",
      "type": "function"
    },
    {
      "inputs": [
        {
          "internalType": "uint256",
          "name": "choiceOfCurrency",
          "type": "uint256"
        }
      ],
      "name": "getBorrowerInterestRate",
      "outputs": [
        {
          "internalType": "uint256",
          "name": "",
          "type": "uint256"
        }
      ],
      "stateMutability": "view",
      "type": "function"
    },
    {
      "inputs": [
        {
          "internalType": "uint256",
          "name": "choiceOfCurrency",
          "type": "uint256"
        }
      ],
      "name": "getLenderInterestRate",
      "outputs": [
        {
          "internalType": "uint256",
          "name": "",
          "type": "uint256"
        }
      ],
      "stateMutability": "view",
      "type": "function"
    }
  ],
  "bytecode": "0x608060405260006009553480156200001657600080fd5b506040516200543b3803806200543b83398181016040528101906200003c9190620003a4565b85600460006101000a81548173ffffffffffffffffffffffffffffffffffffffff021916908373ffffffffffffffffffffffffffffffffffffffff160217905550846000806101000a81548173ffffffffffffffffffffffffffffffffffffffff021916908373ffffffffffffffffffffffffffffffffffffffff16021790555083600160006101000a81548173ffffffffffffffffffffffffffffffffffffffff021916908373ffffffffffffffffffffffffffffffffffffffff16021790555082600260006101000a81548173ffffffffffffffffffffffffffffffffffffffff021916908373ffffffffffffffffffffffffffffffffffffffff16021790555081600360006101000a81548173ffffffffffffffffffffffffffffffffffffffff021916908373ffffffffffffffffffffffffffffffffffffffff16021790555080600560006101000a81548173ffffffffffffffffffffffffffffffffffffffff021916908373ffffffffffffffffffffffffffffffffffffffff16021790555050505050505062000440565b600080fd5b600073ffffffffffffffffffffffffffffffffffffffff82169050919050565b6000620001ff82620001d2565b9050919050565b60006200021382620001f2565b9050919050565b620002258162000206565b81146200023157600080fd5b50565b60008151905062000245816200021a565b92915050565b60006200025882620001f2565b9050919050565b6200026a816200024b565b81146200027657600080fd5b50565b6000815190506200028a816200025f565b92915050565b60006200029d82620001f2565b9050919050565b620002af8162000290565b8114620002bb57600080fd5b50565b600081519050620002cf81620002a4565b92915050565b6000620002e282620001f2565b9050919050565b620002f481620002d5565b81146200030057600080fd5b50565b6000815190506200031481620002e9565b92915050565b60006200032782620001f2565b9050919050565b62000339816200031a565b81146200034557600080fd5b50565b60008151905062000359816200032e565b92915050565b60006200036c82620001f2565b9050919050565b6200037e816200035f565b81146200038a57600080fd5b50565b6000815190506200039e8162000373565b92915050565b60008060008060008060c08789031215620003c457620003c3620001cd565b5b6000620003d489828a0162000234565b9650506020620003e789828a0162000279565b9550506040620003fa89828a01620002be565b94505060606200040d89828a0162000303565b93505060806200042089828a0162000348565b92505060a06200043389828a016200038d565b9150509295509295509295565b614feb80620004506000396000f3fe6080604052600436106101665760003560e01c8063a57475e0116100d1578063dfe7acef1161008a578063e735dc1f11610064578063e735dc1f146105a1578063e9f3dea0146105ca578063f2fde38b146105f3578063fdb483c71461061c57610166565b8063dfe7acef146104fe578063e04ecd931461053b578063e2bbb1581461057857610166565b8063a57475e0146103da578063ac4afa3814610403578063c2384f5914610446578063d60026481461046f578063df2e74a114610498578063df813b6b146104d557610166565b8063441a3e7011610123578063441a3e70146102a65780636dc7962a146102cf5780637b7cf38c1461030c5780638da5cb5b146103495780638ee649e6146103745780639d2d04d1146103b157610166565b80630ecbcdab1461016b578063157a673d146101945780632a6ee14b146101c45780632b04e8401461020157806335c62bc21461023e5780633dc8116914610269575b600080fd5b34801561017757600080fd5b50610192600480360381019061018d9190613d36565b610645565b005b6101ae60048036038101906101a99190613ebc565b6109af565b6040516101bb9190613f14565b60405180910390f35b3480156101d057600080fd5b506101eb60048036038101906101e69190613f8d565b610b7b565b6040516101f89190613f14565b60405180910390f35b34801561020d57600080fd5b5061022860048036038101906102239190613f8d565b610c65565b6040516102359190613f14565b60405180910390f35b34801561024a57600080fd5b50610253610cc0565b6040516102609190613f14565b60405180910390f35b34801561027557600080fd5b50610290600480360381019061028b9190613fcd565b610cc6565b60405161029d919061404b565b60405180910390f35b3480156102b257600080fd5b506102cd60048036038101906102c89190613d36565b610e33565b005b3480156102db57600080fd5b506102f660048036038101906102f19190613f8d565b611311565b6040516103039190613f14565b60405180910390f35b34801561031857600080fd5b50610333600480360381019061032e9190613fcd565b61136c565b6040516103409190613f14565b60405180910390f35b34801561035557600080fd5b5061035e61138c565b60405161036b9190614075565b60405180910390f35b34801561038057600080fd5b5061039b60048036038101906103969190613fcd565b6113b2565b6040516103a89190613f14565b60405180910390f35b3480156103bd57600080fd5b506103d860048036038101906103d39190613d36565b6113d2565b005b3480156103e657600080fd5b5061040160048036038101906103fc9190613fcd565b61194a565b005b34801561040f57600080fd5b5061042a60048036038101906104259190613fcd565b611b8a565b60405161043d979695949392919061410f565b60405180910390f35b34801561045257600080fd5b5061046d60048036038101906104689190614185565b611c94565b005b34801561047b57600080fd5b5061049660048036038101906104919190613d36565b611f70565b005b3480156104a457600080fd5b506104bf60048036038101906104ba9190613fcd565b6124f5565b6040516104cc9190613f14565b60405180910390f35b3480156104e157600080fd5b506104fc60048036038101906104f79190613fcd565b612515565b005b34801561050a57600080fd5b5061052560048036038101906105209190613f8d565b6129f2565b6040516105329190613f14565b60405180910390f35b34801561054757600080fd5b50610562600480360381019061055d9190613fcd565b612adc565b60405161056f91906141d8565b60405180910390f35b34801561058457600080fd5b5061059f600480360381019061059a9190613d36565b612bc8565b005b3480156105ad57600080fd5b506105c860048036038101906105c39190613fcd565b612e09565b005b3480156105d657600080fd5b506105f160048036038101906105ec9190613fcd565b612f30565b005b3480156105ff57600080fd5b5061061a600480360381019061061591906141fa565b613057565b005b34801561062857600080fd5b50610643600480360381019061063e9190613d36565b6131aa565b005b60008211610688576040517f08c379a000000000000000000000000000000000000000000000000000000000815260040161067f90614299565b60405180910390fd5b600061069382610cc6565b90506000816040015190506000826020015190506106b360036002613743565b600460009054906101000a900473ffffffffffffffffffffffffffffffffffffffff1673ffffffffffffffffffffffffffffffffffffffff1663a5a85e7f868885876040518563ffffffff1660e01b815260040161071494939291906142b9565b602060405180830381865afa158015610731573d6000803e3d6000fd5b505050506040513d601f19601f820116820180604052508101906107559190614313565b1015610796576040517f08c379a000000000000000000000000000000000000000000000000000000000815260040161078d906143b2565b60405180910390fd5b600015156107a33361379f565b15150361080e576007339080600181540180825580915050600190039060005260206000200160009091909190916101000a81548173ffffffffffffffffffffffffffffffffffffffff021916908373ffffffffffffffffffffffffffffffffffffffff1602179055505b600060405180608001604052808781526020014281526020016108308761136c565b8152602001868152509050600d60003373ffffffffffffffffffffffffffffffffffffffff1673ffffffffffffffffffffffffffffffffffffffff1681526020019081526020016000208190806001815401808255809150506001900390600052602060002090600402016000909190919091506000820151816000015560208201518160010155604082015181600201556060820151816003015550506108d885876131aa565b85600e60003373ffffffffffffffffffffffffffffffffffffffff1673ffffffffffffffffffffffffffffffffffffffff168152602001908152602001600020600087815260200190815260200160002060008282546109389190614401565b9250508190555085600a600087815260200190815260200160002060020160008282546109659190614435565b925050819055507f85d2ace8876663584e65ae889b8c3984c9a31b5b594750252e6bda129da8283d33868860405161099f93929190614469565b60405180910390a1505050505050565b6000600660009054906101000a900473ffffffffffffffffffffffffffffffffffffffff1673ffffffffffffffffffffffffffffffffffffffff163373ffffffffffffffffffffffffffffffffffffffff1614610a0b57600080fd5b60006040518060e00160405280600954815260200184815260200134815260200160008152602001600081526020013373ffffffffffffffffffffffffffffffffffffffff168152602001600073ffffffffffffffffffffffffffffffffffffffff16815250905080600a60006009548152602001908152602001600020600082015181600001556020820151816001019081610aa891906146ac565b5060408201518160020155606082015181600301556080820151816004015560a08201518160050160006101000a81548173ffffffffffffffffffffffffffffffffffffffff021916908373ffffffffffffffffffffffffffffffffffffffff16021790555060c08201518160060160006101000a81548173ffffffffffffffffffffffffffffffffffffffff021916908373ffffffffffffffffffffffffffffffffffffffff16021790555090505060096000815480929190610b6b9061477e565b9190505550600954915050919050565b6000806000905060005b600d60008673ffffffffffffffffffffffffffffffffffffffff1673ffffffffffffffffffffffffffffffffffffffff16815260200190815260200160002080549050811015610c5a5783600d60008773ffffffffffffffffffffffffffffffffffffffff1673ffffffffffffffffffffffffffffffffffffffff1681526020019081526020016000208281548110610c2157610c206147c6565b5b90600052602060002090600402016003015403610c47578180610c439061477e565b9250505b8080610c529061477e565b915050610b85565b508091505092915050565b6000600c60008473ffffffffffffffffffffffffffffffffffffffff1673ffffffffffffffffffffffffffffffffffffffff168152602001908152602001600020600083815260200190815260200160002054905092915050565b60095481565b610cce613ccb565b610cd6613ccb565b60005b600f60003373ffffffffffffffffffffffffffffffffffffffff1673ffffffffffffffffffffffffffffffffffffffff168152602001908152602001600020805490508111610e295783600f60003373ffffffffffffffffffffffffffffffffffffffff1673ffffffffffffffffffffffffffffffffffffffff1681526020019081526020016000208281548110610d7457610d736147c6565b5b90600052602060002090600302016001015403610e1657600f60003373ffffffffffffffffffffffffffffffffffffffff1673ffffffffffffffffffffffffffffffffffffffff1681526020019081526020016000208181548110610ddc57610ddb6147c6565b5b9060005260206000209060030201604051806060016040529081600082015481526020016001820154815260200160028201548152505091505b8080610e219061477e565b915050610cd9565b5080915050919050565b60008211610e76576040517f08c379a0000000000000000000000000000000000000000000000000000000008152600401610e6d90614867565b60405180910390fd5b81600c60003373ffffffffffffffffffffffffffffffffffffffff1673ffffffffffffffffffffffffffffffffffffffff1681526020019081526020016000206000838152602001908152602001600020541015610f09576040517f08c379a0000000000000000000000000000000000000000000000000000000008152600401610f00906148d3565b60405180910390fd5b81600c60003373ffffffffffffffffffffffffffffffffffffffff1673ffffffffffffffffffffffffffffffffffffffff16815260200190815260200160002060008381526020019081526020016000206000828254610f699190614435565b92505081905550600082905060005b600b60003373ffffffffffffffffffffffffffffffffffffffff1673ffffffffffffffffffffffffffffffffffffffff168152602001908152602001600020805490508110156111fe5782600b60003373ffffffffffffffffffffffffffffffffffffffff1673ffffffffffffffffffffffffffffffffffffffff1681526020019081526020016000208281548110611014576110136147c6565b5b906000526020600020906003020160020154036111eb5781600b60003373ffffffffffffffffffffffffffffffffffffffff1673ffffffffffffffffffffffffffffffffffffffff168152602001908152602001600020828154811061107d5761107c6147c6565b5b906000526020600020906003020160000154106111125781600b60003373ffffffffffffffffffffffffffffffffffffffff1673ffffffffffffffffffffffffffffffffffffffff16815260200190815260200160002082815481106110e6576110e56147c6565b5b906000526020600020906003020160000160008282546111069190614435565b925050819055506111fe565b600b60003373ffffffffffffffffffffffffffffffffffffffff1673ffffffffffffffffffffffffffffffffffffffff1681526020019081526020016000208181548110611163576111626147c6565b5b906000526020600020906003020160000154826111809190614435565b91506000600b60003373ffffffffffffffffffffffffffffffffffffffff1673ffffffffffffffffffffffffffffffffffffffff16815260200190815260200160002082815481106111d5576111d46147c6565b5b9060005260206000209060030201600001819055505b80806111f69061477e565b915050610f78565b5082600a600084815260200190815260200160002060020160008282546112259190614435565b9250508190555060006001905060005b6009548110156112b3576000600c60003373ffffffffffffffffffffffffffffffffffffffff1673ffffffffffffffffffffffffffffffffffffffff168152602001908152602001600020600083815260200190815260200160002054036112a057600091506112b3565b80806112ab9061477e565b915050611235565b5080156112c6576112c5600833613849565b5b6112d083856131aa565b7f2d4d49c3e017b8235c908cbaa83a2431a08f3b950712696ece2088964fd399f033848660405161130393929190614469565b60405180910390a150505050565b6000600e60008473ffffffffffffffffffffffffffffffffffffffff1673ffffffffffffffffffffffffffffffffffffffff168152602001908152602001600020600083815260200190815260200160002054905092915050565b6000600a6000838152602001908152602001600020600301549050919050565b600660009054906101000a900473ffffffffffffffffffffffffffffffffffffffff1681565b6000600a6000838152602001908152602001600020600201549050919050565b816000805b600954811015611400578083036113ed57600191505b80806113f89061477e565b9150506113d7565b506001151581151514611448576040517f08c379a000000000000000000000000000000000000000000000000000000000815260040161143f90614965565b60405180910390fd5b600084036115f25782600160009054906101000a900473ffffffffffffffffffffffffffffffffffffffff1673ffffffffffffffffffffffffffffffffffffffff1663c71daccb6040518163ffffffff1660e01b8152600401602060405180830381865afa1580156114be573d6000803e3d6000fd5b505050506040513d601f19601f820116820180604052508101906114e29190614313565b1015611523576040517f08c379a000000000000000000000000000000000000000000000000000000000815260040161151a906149f7565b60405180910390fd5b600160009054906101000a900473ffffffffffffffffffffffffffffffffffffffff1673ffffffffffffffffffffffffffffffffffffffff16632fdcfbd23330866040518463ffffffff1660e01b815260040161158293929190614a17565b600060405180830381600087803b15801561159c57600080fd5b505af11580156115b0573d6000803e3d6000fd5b505050507fe446b3bca3000d6f60a112a5c82316c7e965097849a763e3dd2d6c15bcf89abc84846040516115e5929190614a4e565b60405180910390a1611944565b6001840361179c5782600260009054906101000a900473ffffffffffffffffffffffffffffffffffffffff1673ffffffffffffffffffffffffffffffffffffffff1663c71daccb6040518163ffffffff1660e01b8152600401602060405180830381865afa158015611668573d6000803e3d6000fd5b505050506040513d601f19601f8201168201806040525081019061168c9190614313565b10156116cd576040517f08c379a00000000000000000000000000000000000000000000000000000000081526004016116c4906149f7565b60405180910390fd5b600260009054906101000a900473ffffffffffffffffffffffffffffffffffffffff1673ffffffffffffffffffffffffffffffffffffffff16632fdcfbd23330866040518463ffffffff1660e01b815260040161172c93929190614a17565b600060405180830381600087803b15801561174657600080fd5b505af115801561175a573d6000803e3d6000fd5b505050507fe446b3bca3000d6f60a112a5c82316c7e965097849a763e3dd2d6c15bcf89abc848460405161178f929190614a4e565b60405180910390a1611943565b600284036119425782600360009054906101000a900473ffffffffffffffffffffffffffffffffffffffff1673ffffffffffffffffffffffffffffffffffffffff1663c71daccb6040518163ffffffff1660e01b8152600401602060405180830381865afa158015611812573d6000803e3d6000fd5b505050506040513d601f19601f820116820180604052508101906118369190614313565b1015611877576040517f08c379a000000000000000000000000000000000000000000000000000000000815260040161186e906149f7565b60405180910390fd5b600360009054906101000a900473ffffffffffffffffffffffffffffffffffffffff1673ffffffffffffffffffffffffffffffffffffffff16632fdcfbd23330866040518463ffffffff1660e01b81526004016118d693929190614a17565b600060405180830381600087803b1580156118f057600080fd5b505af1158015611904573d6000803e3d6000fd5b505050507fe446b3bca3000d6f60a112a5c82316c7e965097849a763e3dd2d6c15bcf89abc8484604051611939929190614a4e565b60405180910390a15b5b5b50505050565b60005b600880549050811015611b865760005b600954811015611b72576000600c600060088581548110611981576119806147c6565b5b9060005260206000200160009054906101000a900473ffffffffffffffffffffffffffffffffffffffff1673ffffffffffffffffffffffffffffffffffffffff1673ffffffffffffffffffffffffffffffffffffffff1681526020019081526020016000206000838152602001908152602001600020549050600080821115611b53576000600b600060088781548110611a1e57611a1d6147c6565b5b9060005260206000200160009054906101000a900473ffffffffffffffffffffffffffffffffffffffff1673ffffffffffffffffffffffffffffffffffffffff1673ffffffffffffffffffffffffffffffffffffffff1681526020019081526020016000206001611acd60088881548110611a9c57611a9b6147c6565b5b9060005260206000200160009054906101000a900473ffffffffffffffffffffffffffffffffffffffff16876129f2565b611ad79190614435565b81548110611ae857611ae76147c6565b5b90600052602060002090600302016001015442611b059190614435565b9050600062278d00905060008183611b1d9190614aa6565b90506064818987611b2e9190614ad7565b611b389190614ad7565b611b429190614aa6565b84611b4d9190614401565b93505050505b611b5d8382612bc8565b50508080611b6a9061477e565b91505061195d565b508080611b7e9061477e565b91505061194d565b5050565b600a602052806000526040600020600091509050806000015490806001018054611bb3906144cf565b80601f0160208091040260200160405190810160405280929190818152602001828054611bdf906144cf565b8015611c2c5780601f10611c0157610100808354040283529160200191611c2c565b820191906000526020600020905b815481529060010190602001808311611c0f57829003601f168201915b5050505050908060020154908060030154908060040154908060050160009054906101000a900473ffffffffffffffffffffffffffffffffffffffff16908060060160009054906101000a900473ffffffffffffffffffffffffffffffffffffffff16905087565b6000611c9e613ccb565b60005b600f60003373ffffffffffffffffffffffffffffffffffffffff1673ffffffffffffffffffffffffffffffffffffffff16815260200190815260200160002080549050811015611e9a5784600f60003373ffffffffffffffffffffffffffffffffffffffff1673ffffffffffffffffffffffffffffffffffffffff1681526020019081526020016000208281548110611d3d57611d3c6147c6565b5b90600052602060002090600302016001015403611e875785600f60003373ffffffffffffffffffffffffffffffffffffffff1673ffffffffffffffffffffffffffffffffffffffff1681526020019081526020016000208281548110611da657611da56147c6565b5b90600052602060002090600302016000015414611df8576040517f08c379a0000000000000000000000000000000000000000000000000000000008152600401611def90614b65565b60405180910390fd5b60019250600f60003373ffffffffffffffffffffffffffffffffffffffff1673ffffffffffffffffffffffffffffffffffffffff1681526020019081526020016000208181548110611e4d57611e4c6147c6565b5b9060005260206000209060030201604051806060016040529081600082015481526020016001820154815260200160028201548152505091505b8080611e929061477e565b915050611ca1565b508115611ebf578281604001818151611eb39190614401565b91508181525050611f5f565b84816000018181525050838160200181815250508281604001818152505080600f60003373ffffffffffffffffffffffffffffffffffffffff1673ffffffffffffffffffffffffffffffffffffffff1681526020019081526020016000208581548110611f2f57611f2e6147c6565b5b90600052602060002090600302016000820151816000015560208201518160010155604082015181600201559050505b611f6985846113d2565b5050505050565b60008211611fb3576040517f08c379a0000000000000000000000000000000000000000000000000000000008152600401611faa90614bf7565b60405180910390fd5b81600e60003373ffffffffffffffffffffffffffffffffffffffff1673ffffffffffffffffffffffffffffffffffffffff1681526020019081526020016000206000838152602001908152602001600020541115612046576040517f08c379a000000000000000000000000000000000000000000000000000000000815260040161203d90614c63565b60405180910390fd5b81600e60003373ffffffffffffffffffffffffffffffffffffffff1673ffffffffffffffffffffffffffffffffffffffff168152602001908152602001600020600083815260200190815260200160002060008282546120a69190614435565b92505081905550600082905060005b600d60003373ffffffffffffffffffffffffffffffffffffffff1673ffffffffffffffffffffffffffffffffffffffff1681526020019081526020016000208054905081101561233b5782600d60003373ffffffffffffffffffffffffffffffffffffffff1673ffffffffffffffffffffffffffffffffffffffff1681526020019081526020016000208281548110612151576121506147c6565b5b906000526020600020906004020160030154036123285781600d60003373ffffffffffffffffffffffffffffffffffffffff1673ffffffffffffffffffffffffffffffffffffffff16815260200190815260200160002082815481106121ba576121b96147c6565b5b9060005260206000209060040201600001541061224f5781600d60003373ffffffffffffffffffffffffffffffffffffffff1673ffffffffffffffffffffffffffffffffffffffff1681526020019081526020016000208281548110612223576122226147c6565b5b906000526020600020906004020160000160008282546122439190614435565b9250508190555061233b565b600d60003373ffffffffffffffffffffffffffffffffffffffff1673ffffffffffffffffffffffffffffffffffffffff16815260200190815260200160002081815481106122a05761229f6147c6565b5b906000526020600020906004020160000154826122bd9190614435565b91506000600d60003373ffffffffffffffffffffffffffffffffffffffff1673ffffffffffffffffffffffffffffffffffffffff1681526020019081526020016000208281548110612312576123116147c6565b5b9060005260206000209060040201600001819055505b80806123339061477e565b9150506120b5565b5061234682846113d2565b82600a6000848152602001908152602001600020600201600082825461236c9190614401565b925050819055506000600e60003373ffffffffffffffffffffffffffffffffffffffff1673ffffffffffffffffffffffffffffffffffffffff16815260200190815260200160002060008481526020019081526020016000205490506000810361241957612418600f60003373ffffffffffffffffffffffffffffffffffffffff1673ffffffffffffffffffffffffffffffffffffffff16815260200190815260200160002084613a0f565b5b60006001905060005b6009548110156124a0576000600e60003373ffffffffffffffffffffffffffffffffffffffff1673ffffffffffffffffffffffffffffffffffffffff1681526020019081526020016000206000838152602001908152602001600020540361248d57600091506124a0565b80806124989061477e565b915050612422565b5080156124b3576124b2600733613849565b5b7f0b123856bd4026ac8a7db284468fc1fb14c3c4119d1145be68d14d6afa8d5fff3385876040516124e693929190614469565b60405180910390a15050505050565b6000600a6000838152602001908152602001600020600401549050919050565b60005b6007805490508110156129ee5760005b6009548110156129da576000600e60006007858154811061254c5761254b6147c6565b5b9060005260206000200160009054906101000a900473ffffffffffffffffffffffffffffffffffffffff1673ffffffffffffffffffffffffffffffffffffffff1673ffffffffffffffffffffffffffffffffffffffff168152602001908152602001600020600083815260200190815260200160002054905060008082111561271e576000600d6000600787815481106125e9576125e86147c6565b5b9060005260206000200160009054906101000a900473ffffffffffffffffffffffffffffffffffffffff1673ffffffffffffffffffffffffffffffffffffffff1673ffffffffffffffffffffffffffffffffffffffff168152602001908152602001600020600161269860078881548110612667576126666147c6565b5b9060005260206000200160009054906101000a900473ffffffffffffffffffffffffffffffffffffffff1687610b7b565b6126a29190614435565b815481106126b3576126b26147c6565b5b906000526020600020906004020160010154426126d09190614435565b9050600062278d009050600081836126e89190614aa6565b905060648189876126f99190614ad7565b6127039190614ad7565b61270d9190614aa6565b846127189190614401565b93505050505b6127288382610645565b600e6000600786815481106127405761273f6147c6565b5b9060005260206000200160009054906101000a900473ffffffffffffffffffffffffffffffffffffffff1673ffffffffffffffffffffffffffffffffffffffff1673ffffffffffffffffffffffffffffffffffffffff168152602001908152602001600020600084815260200190815260200160002054915060006127c484610cc6565b90506000816040015190506000826000015190506127e460066005613743565b600460009054906101000a900473ffffffffffffffffffffffffffffffffffffffff1673ffffffffffffffffffffffffffffffffffffffff1663a5a85e7f888885876040518563ffffffff1660e01b815260040161284594939291906142b9565b602060405180830381865afa158015612862573d6000803e3d6000fd5b505050506040513d601f19601f820116820180604052508101906128869190614313565b116128c5577fcf34ef537ac33ee1ac626ca1587a0a7e8e51561e5514f8cb36afa1c5102b3bab6040516128b890614d41565b60405180910390a16129c2565b6128d160156014613743565b600460009054906101000a900473ffffffffffffffffffffffffffffffffffffffff1673ffffffffffffffffffffffffffffffffffffffff1663a5a85e7f888885876040518563ffffffff1660e01b815260040161293294939291906142b9565b602060405180830381865afa15801561294f573d6000803e3d6000fd5b505050506040513d601f19601f820116820180604052508101906129739190614313565b116129c1576129c06007888154811061298f5761298e6147c6565b5b9060005260206000200160009054906101000a900473ffffffffffffffffffffffffffffffffffffffff1687613b56565b5b5b505050505080806129d29061477e565b915050612528565b5080806129e69061477e565b915050612518565b5050565b6000806000905060005b600b60008673ffffffffffffffffffffffffffffffffffffffff1673ffffffffffffffffffffffffffffffffffffffff16815260200190815260200160002080549050811015612ad15783600b60008773ffffffffffffffffffffffffffffffffffffffff1673ffffffffffffffffffffffffffffffffffffffff1681526020019081526020016000208281548110612a9857612a976147c6565b5b90600052602060002090600302016002015403612abe578180612aba9061477e565b9250505b8080612ac99061477e565b9150506129fc565b508091505092915050565b60606009548210612b22576040517f08c379a0000000000000000000000000000000000000000000000000000000008152600401612b1990614dad565b60405180910390fd5b600a60008381526020019081526020016000206001018054612b43906144cf565b80601f0160208091040260200160405190810160405280929190818152602001828054612b6f906144cf565b8015612bbc5780601f10612b9157610100808354040283529160200191612bbc565b820191906000526020600020905b815481529060010190602001808311612b9f57829003601f168201915b50505050509050919050565b60008111612c0b576040517f08c379a0000000000000000000000000000000000000000000000000000000008152600401612c0290614e3f565b60405180910390fd5b60001515612c1833613ba2565b151503612c83576008339080600181540180825580915050600190039060005260206000200160009091909190916101000a81548173ffffffffffffffffffffffffffffffffffffffff021916908373ffffffffffffffffffffffffffffffffffffffff1602179055505b60006040518060600160405280838152602001428152602001848152509050600b60003373ffffffffffffffffffffffffffffffffffffffff1673ffffffffffffffffffffffffffffffffffffffff1681526020019081526020016000208190806001815401808255809150506001900390600052602060002090600302016000909190919091506000820151816000015560208201518160010155604082015181600201555050612d3583836113d2565b81600c60003373ffffffffffffffffffffffffffffffffffffffff1673ffffffffffffffffffffffffffffffffffffffff16815260200190815260200160002060008581526020019081526020016000206000828254612d959190614401565b9250508190555081600a60008581526020019081526020016000206002016000828254612dc29190614401565b925050819055507f0b05f0d1cd0819f155b8a61f60baf7767c1ee49d04aeaab701df236140eb93f9338484604051612dfc93929190614469565b60405180910390a1505050565b806000805b600954811015612e3757808303612e2457600191505b8080612e2f9061477e565b915050612e0e565b506001151581151514612e7f576040517f08c379a0000000000000000000000000000000000000000000000000000000008152600401612e7690614965565b60405180910390fd5b60008054906101000a900473ffffffffffffffffffffffffffffffffffffffff1673ffffffffffffffffffffffffffffffffffffffff1663c7e539256040518163ffffffff1660e01b8152600401602060405180830381865afa158015612eea573d6000803e3d6000fd5b505050506040513d601f19601f82011682018060405250810190612f0e9190614e98565b60ff16600a600085815260200190815260200160002060040181905550505050565b806000805b600954811015612f5e57808303612f4b57600191505b8080612f569061477e565b915050612f35565b506001151581151514612fa6576040517f08c379a0000000000000000000000000000000000000000000000000000000008152600401612f9d90614965565b60405180910390fd5b60008054906101000a900473ffffffffffffffffffffffffffffffffffffffff1673ffffffffffffffffffffffffffffffffffffffff1663c7e539256040518163ffffffff1660e01b8152600401602060405180830381865afa158015613011573d6000803e3d6000fd5b505050506040513d601f19601f820116820180604052508101906130359190614e98565b60ff16600a600085815260200190815260200160002060030181905550505050565b600660009054906101000a900473ffffffffffffffffffffffffffffffffffffffff1673ffffffffffffffffffffffffffffffffffffffff163373ffffffffffffffffffffffffffffffffffffffff16146130b157600080fd5b600073ffffffffffffffffffffffffffffffffffffffff168173ffffffffffffffffffffffffffffffffffffffff16036130ea57600080fd5b8073ffffffffffffffffffffffffffffffffffffffff16600660009054906101000a900473ffffffffffffffffffffffffffffffffffffffff1673ffffffffffffffffffffffffffffffffffffffff167fdb6d05f3295cede580affa301a1eb5297528f3b3f6a56b075887ce6f61c45f2160405160405180910390a380600660006101000a81548173ffffffffffffffffffffffffffffffffffffffff021916908373ffffffffffffffffffffffffffffffffffffffff16021790555050565b816000805b6009548110156131d8578083036131c557600191505b80806131d09061477e565b9150506131af565b506001151581151514613220576040517f08c379a000000000000000000000000000000000000000000000000000000000815260040161321790614965565b60405180910390fd5b600084036133d55782600160009054906101000a900473ffffffffffffffffffffffffffffffffffffffff1673ffffffffffffffffffffffffffffffffffffffff16635f515226306040518263ffffffff1660e01b81526004016132849190614075565b602060405180830381865afa1580156132a1573d6000803e3d6000fd5b505050506040513d601f19601f820116820180604052508101906132c59190614313565b1015613306576040517f08c379a00000000000000000000000000000000000000000000000000000000081526004016132fd90614f37565b60405180910390fd5b600160009054906101000a900473ffffffffffffffffffffffffffffffffffffffff1673ffffffffffffffffffffffffffffffffffffffff16632fdcfbd23033866040518463ffffffff1660e01b815260040161336593929190614a17565b600060405180830381600087803b15801561337f57600080fd5b505af1158015613393573d6000803e3d6000fd5b505050507fe446b3bca3000d6f60a112a5c82316c7e965097849a763e3dd2d6c15bcf89abc84846040516133c8929190614a4e565b60405180910390a161373d565b6001840361358a5782600260009054906101000a900473ffffffffffffffffffffffffffffffffffffffff1673ffffffffffffffffffffffffffffffffffffffff16635f515226306040518263ffffffff1660e01b81526004016134399190614075565b602060405180830381865afa158015613456573d6000803e3d6000fd5b505050506040513d601f19601f8201168201806040525081019061347a9190614313565b10156134bb576040517f08c379a00000000000000000000000000000000000000000000000000000000081526004016134b290614f37565b60405180910390fd5b600260009054906101000a900473ffffffffffffffffffffffffffffffffffffffff1673ffffffffffffffffffffffffffffffffffffffff16632fdcfbd23033866040518463ffffffff1660e01b815260040161351a93929190614a17565b600060405180830381600087803b15801561353457600080fd5b505af1158015613548573d6000803e3d6000fd5b505050507fe446b3bca3000d6f60a112a5c82316c7e965097849a763e3dd2d6c15bcf89abc848460405161357d929190614a4e565b60405180910390a161373c565b6002840361373b5782600360009054906101000a900473ffffffffffffffffffffffffffffffffffffffff1673ffffffffffffffffffffffffffffffffffffffff16635f515226306040518263ffffffff1660e01b81526004016135ee9190614075565b602060405180830381865afa15801561360b573d6000803e3d6000fd5b505050506040513d601f19601f8201168201806040525081019061362f9190614313565b1015613670576040517f08c379a000000000000000000000000000000000000000000000000000000000815260040161366790614f37565b60405180910390fd5b600360009054906101000a900473ffffffffffffffffffffffffffffffffffffffff1673ffffffffffffffffffffffffffffffffffffffff16632fdcfbd23033866040518463ffffffff1660e01b81526004016136cf93929190614a17565b600060405180830381600087803b1580156136e957600080fd5b505af11580156136fd573d6000803e3d6000fd5b505050507fe446b3bca3000d6f60a112a5c82316c7e965097849a763e3dd2d6c15bcf89abc8484604051613732929190614a4e565b60405180910390a15b5b5b50505050565b600061379782613789613760600286613c4c90919063ffffffff16565b61377b670de0b6b3a764000088613c6290919063ffffffff16565b613ca490919063ffffffff16565b613c4c90919063ffffffff16565b905092915050565b6000806000905060005b60078054905081101561383f578373ffffffffffffffffffffffffffffffffffffffff16600782815481106137e1576137e06147c6565b5b9060005260206000200160009054906101000a900473ffffffffffffffffffffffffffffffffffffffff1673ffffffffffffffffffffffffffffffffffffffff160361382c57600191505b80806138379061477e565b9150506137a9565b5080915050919050565b6000805b6001848054905061385e9190614435565b8110156138ec578273ffffffffffffffffffffffffffffffffffffffff1684828154811061388f5761388e6147c6565b5b9060005260206000200160009054906101000a900473ffffffffffffffffffffffffffffffffffffffff1673ffffffffffffffffffffffffffffffffffffffff16036138d9578091505b80806138e49061477e565b91505061384d565b5060008190505b600184805490506139049190614435565b8110156139c357836001826139199190614401565b8154811061392a576139296147c6565b5b9060005260206000200160009054906101000a900473ffffffffffffffffffffffffffffffffffffffff16848281548110613968576139676147c6565b5b9060005260206000200160006101000a81548173ffffffffffffffffffffffffffffffffffffffff021916908373ffffffffffffffffffffffffffffffffffffffff16021790555080806139bb9061477e565b9150506138f3565b50828054806139d5576139d4614f57565b5b6001900381819060005260206000200160006101000a81549073ffffffffffffffffffffffffffffffffffffffff02191690559055505050565b6000805b60018480549050613a249190614435565b811015613a6d5782848281548110613a3f57613a3e6147c6565b5b90600052602060002090600302016001015403613a5a578091505b8080613a659061477e565b915050613a13565b5060008190505b60018480549050613a859190614435565b811015613b0e5783600182613a9a9190614401565b81548110613aab57613aaa6147c6565b5b9060005260206000209060030201848281548110613acc57613acb6147c6565b5b90600052602060002090600302016000820154816000015560018201548160010155600282015481600201559050508080613b069061477e565b915050613a74565b5082805480613b2057613b1f614f57565b5b60019003818190600052602060002090600302016000808201600090556001820160009055600282016000905550509055505050565b613b9e600f60008473ffffffffffffffffffffffffffffffffffffffff1673ffffffffffffffffffffffffffffffffffffffff16815260200190815260200160002082613a0f565b5050565b6000806000905060005b600880549050811015613c42578373ffffffffffffffffffffffffffffffffffffffff1660088281548110613be457613be36147c6565b5b9060005260206000200160009054906101000a900473ffffffffffffffffffffffffffffffffffffffff1673ffffffffffffffffffffffffffffffffffffffff1603613c2f57600191505b8080613c3a9061477e565b915050613bac565b5080915050919050565b60008183613c5a9190614aa6565b905092915050565b6000808303613c745760009050613c9e565b8183613c809190614ad7565b9050818382613c8f9190614aa6565b14613c9d57613c9c614f86565b5b5b92915050565b60008183613cb29190614401565b905082811015613cc557613cc4614f86565b5b92915050565b60405180606001604052806000815260200160008152602001600081525090565b6000604051905090565b600080fd5b600080fd5b6000819050919050565b613d1381613d00565b8114613d1e57600080fd5b50565b600081359050613d3081613d0a565b92915050565b60008060408385031215613d4d57613d4c613cf6565b5b6000613d5b85828601613d21565b9250506020613d6c85828601613d21565b9150509250929050565b600080fd5b600080fd5b6000601f19601f8301169050919050565b7f4e487b7100000000000000000000000000000000000000000000000000000000600052604160045260246000fd5b613dc982613d80565b810181811067ffffffffffffffff82111715613de857613de7613d91565b5b80604052505050565b6000613dfb613cec565b9050613e078282613dc0565b919050565b600067ffffffffffffffff821115613e2757613e26613d91565b5b613e3082613d80565b9050602081019050919050565b82818337600083830152505050565b6000613e5f613e5a84613e0c565b613df1565b905082815260208101848484011115613e7b57613e7a613d7b565b5b613e86848285613e3d565b509392505050565b600082601f830112613ea357613ea2613d76565b5b8135613eb3848260208601613e4c565b91505092915050565b600060208284031215613ed257613ed1613cf6565b5b600082013567ffffffffffffffff811115613ef057613eef613cfb565b5b613efc84828501613e8e565b91505092915050565b613f0e81613d00565b82525050565b6000602082019050613f296000830184613f05565b92915050565b600073ffffffffffffffffffffffffffffffffffffffff82169050919050565b6000613f5a82613f2f565b9050919050565b613f6a81613f4f565b8114613f7557600080fd5b50565b600081359050613f8781613f61565b92915050565b60008060408385031215613fa457613fa3613cf6565b5b6000613fb285828601613f78565b9250506020613fc385828601613d21565b9150509250929050565b600060208284031215613fe357613fe2613cf6565b5b6000613ff184828501613d21565b91505092915050565b61400381613d00565b82525050565b60608201600082015161401f6000850182613ffa565b5060208201516140326020850182613ffa565b5060408201516140456040850182613ffa565b50505050565b60006060820190506140606000830184614009565b92915050565b61406f81613f4f565b82525050565b600060208201905061408a6000830184614066565b92915050565b600081519050919050565b600082825260208201905092915050565b60005b838110156140ca5780820151818401526020810190506140af565b60008484015250505050565b60006140e182614090565b6140eb818561409b565b93506140fb8185602086016140ac565b61410481613d80565b840191505092915050565b600060e082019050614124600083018a613f05565b818103602083015261413681896140d6565b90506141456040830188613f05565b6141526060830187613f05565b61415f6080830186613f05565b61416c60a0830185614066565b61417960c0830184614066565b98975050505050505050565b60008060006060848603121561419e5761419d613cf6565b5b60006141ac86828701613d21565b93505060206141bd86828701613d21565b92505060406141ce86828701613d21565b9150509250925092565b600060208201905081810360008301526141f281846140d6565b905092915050565b6000602082840312156142105761420f613cf6565b5b600061421e84828501613f78565b91505092915050565b7f4c6f616e20616d6f756e74206d7573742062652067726561746572207468616e60008201527f2030000000000000000000000000000000000000000000000000000000000000602082015250565b600061428360228361409b565b915061428e82614227565b604082019050919050565b600060208201905081810360008301526142b281614276565b9050919050565b60006080820190506142ce6000830187613f05565b6142db6020830186613f05565b6142e86040830185613f05565b6142f56060830184613f05565b95945050505050565b60008151905061430d81613d0a565b92915050565b60006020828403121561432957614328613cf6565b5b6000614337848285016142fe565b91505092915050565b7f496e73756666696369656e7420636f6c6c61746572616c20746f20626f72726f60008201527f7700000000000000000000000000000000000000000000000000000000000000602082015250565b600061439c60218361409b565b91506143a782614340565b604082019050919050565b600060208201905081810360008301526143cb8161438f565b9050919050565b7f4e487b7100000000000000000000000000000000000000000000000000000000600052601160045260246000fd5b600061440c82613d00565b915061441783613d00565b925082820190508082111561442f5761442e6143d2565b5b92915050565b600061444082613d00565b915061444b83613d00565b9250828203905081811115614463576144626143d2565b5b92915050565b600060608201905061447e6000830186614066565b61448b6020830185613f05565b6144986040830184613f05565b949350505050565b7f4e487b7100000000000000000000000000000000000000000000000000000000600052602260045260246000fd5b600060028204905060018216806144e757607f821691505b6020821081036144fa576144f96144a0565b5b50919050565b60008190508160005260206000209050919050565b60006020601f8301049050919050565b600082821b905092915050565b6000600883026145627fffffffffffffffffffffffffffffffffffffffffffffffffffffffffffffffff82614525565b61456c8683614525565b95508019841693508086168417925050509392505050565b6000819050919050565b60006145a96145a461459f84613d00565b614584565b613d00565b9050919050565b6000819050919050565b6145c38361458e565b6145d76145cf826145b0565b848454614532565b825550505050565b600090565b6145ec6145df565b6145f78184846145ba565b505050565b5b8181101561461b576146106000826145e4565b6001810190506145fd565b5050565b601f8211156146605761463181614500565b61463a84614515565b81016020851015614649578190505b61465d61465585614515565b8301826145fc565b50505b505050565b600082821c905092915050565b600061468360001984600802614665565b1980831691505092915050565b600061469c8383614672565b9150826002028217905092915050565b6146b582614090565b67ffffffffffffffff8111156146ce576146cd613d91565b5b6146d882546144cf565b6146e382828561461f565b600060209050601f8311600181146147165760008415614704578287015190505b61470e8582614690565b865550614776565b601f19841661472486614500565b60005b8281101561474c57848901518255600182019150602085019450602081019050614727565b868310156147695784890151614765601f891682614672565b8355505b6001600288020188555050505b505050505050565b600061478982613d00565b91507fffffffffffffffffffffffffffffffffffffffffffffffffffffffffffffffff82036147bb576147ba6143d2565b5b600182019050919050565b7f4e487b7100000000000000000000000000000000000000000000000000000000600052603260045260246000fd5b7f5769746864726177616c20616d6f756e74206d7573742062652067726561746560008201527f72207468616e2030000000000000000000000000000000000000000000000000602082015250565b600061485160288361409b565b915061485c826147f5565b604082019050919050565b6000602082019050818103600083015261488081614844565b9050919050565b7f496e73756666696369656e742062616c616e6365000000000000000000000000600082015250565b60006148bd60148361409b565b91506148c882614887565b602082019050919050565b600060208201905081810360008301526148ec816148b0565b9050919050565b7f5468652043757272656e6379206973206e6f7420737570706f7274656420796560008201527f7421000000000000000000000000000000000000000000000000000000000000602082015250565b600061494f60228361409b565b915061495a826148f3565b604082019050919050565b6000602082019050818103600083015261497e81614942565b9050919050565b7f596f7520646f6e74206861766520656e6f75676820746f6b656e20746f20646560008201527f706f736974000000000000000000000000000000000000000000000000000000602082015250565b60006149e160258361409b565b91506149ec82614985565b604082019050919050565b60006020820190508181036000830152614a10816149d4565b9050919050565b6000606082019050614a2c6000830186614066565b614a396020830185614066565b614a466040830184613f05565b949350505050565b6000604082019050614a636000830185613f05565b614a706020830184613f05565b9392505050565b7f4e487b7100000000000000000000000000000000000000000000000000000000600052601260045260246000fd5b6000614ab182613d00565b9150614abc83613d00565b925082614acc57614acb614a77565b5b828204905092915050565b6000614ae282613d00565b9150614aed83613d00565b9250828202614afb81613d00565b91508282048414831517614b1257614b116143d2565b5b5092915050565b7f496e76616c696420436f6c6c61746572616c2043757272656e63792054797065600082015250565b6000614b4f60208361409b565b9150614b5a82614b19565b602082019050919050565b60006020820190508181036000830152614b7e81614b42565b9050919050565b7f46756e64732072657475726e6564206d7573742062652067726561746572207460008201527f68616e2030000000000000000000000000000000000000000000000000000000602082015250565b6000614be160258361409b565b9150614bec82614b85565b604082019050919050565b60006020820190508181036000830152614c1081614bd4565b9050919050565b7f4578636573736976652066756e64732072657475726e65640000000000000000600082015250565b6000614c4d60188361409b565b9150614c5882614c17565b602082019050919050565b60006020820190508181036000830152614c7c81614c40565b9050919050565b7f5741524e494e473a20436f6c6c61746572616c20726174696f2068617320647260008201527f6f707065642062656c6f7720312e322120496620726174696f2066616c6c732060208201527f667572746865722062656c6f7720312e30352c20796f757220636f6c6c61746560408201527f72616c2077696c6c206265206c69717569646174656421000000000000000000606082015250565b6000614d2b60778361409b565b9150614d3682614c83565b608082019050919050565b60006020820190508181036000830152614d5a81614d1e565b9050919050565b7f496e76616c69642043757272656e637920547970650000000000000000000000600082015250565b6000614d9760158361409b565b9150614da282614d61565b602082019050919050565b60006020820190508181036000830152614dc681614d8a565b9050919050565b7f4465706f73697420616d6f756e74206d7573742062652067726561746572207460008201527f68616e2030000000000000000000000000000000000000000000000000000000602082015250565b6000614e2960258361409b565b9150614e3482614dcd565b604082019050919050565b60006020820190508181036000830152614e5881614e1c565b9050919050565b600060ff82169050919050565b614e7581614e5f565b8114614e8057600080fd5b50565b600081519050614e9281614e6c565b92915050565b600060208284031215614eae57614ead613cf6565b5b6000614ebc84828501614e83565b91505092915050565b7f496e73756666696369656e7420746f6b656e7320696e20706f6f6c20746f207760008201527f6974686472617700000000000000000000000000000000000000000000000000602082015250565b6000614f2160278361409b565b9150614f2c82614ec5565b604082019050919050565b60006020820190508181036000830152614f5081614f14565b9050919050565b7f4e487b7100000000000000000000000000000000000000000000000000000000600052603160045260246000fd5b7f4e487b7100000000000000000000000000000000000000000000000000000000600052600160045260246000fdfea26469706673582212200c21b697a006194cf5d560c6241f4fe03237411ab1e412419a844b3cd2d97a0464736f6c63430008110033",
  "immutableReferences": {},
  "source": "// SPDX-License-Identifier: MIT\r\npragma solidity >= 0.5.0;\r\n// pragma experimental ABIEncoderV2;\r\nimport \"./ERC20.sol\";\r\n// import \"./DSMath.sol\";\r\nimport \"./RNG.sol\";\r\nimport \"./Cro.sol\";\r\nimport \"./Shib.sol\";\r\nimport \"./Uni.sol\";\r\nimport \"./Debank.sol\";\r\nimport \"./Helper.sol\";\r\n\r\ncontract LiquidityPool {\r\n    \r\n    RNG r;\r\n    Cro cro;\r\n    Shib shib;\r\n    Uni uni;\r\n    Debank deBankContract;\r\n    Helper helperContract;\r\n\r\n    constructor(Debank deBankAddress, RNG rngAddress, Cro croAddress, Shib shibAdress, Uni uniAddress, Helper helperAddress) public { \r\n        deBankContract = deBankAddress; \r\n        r = rngAddress; \r\n        cro = croAddress;\r\n        shib = shibAdress;\r\n        uni = uniAddress;\r\n        helperContract = helperAddress;\r\n    }\r\n\r\n    struct Deposit {\r\n        uint256 amount;\r\n        uint256 time;\r\n        uint256 currencyType;\r\n    }\r\n\r\n    struct Loan {\r\n        uint256 amount;\r\n        uint256 time;\r\n        uint256 interestRate;\r\n        uint256 currencyType;\r\n    }\r\n\r\n    struct liquidityPool {\r\n        uint256 poolLoanId;   \r\n        string currencyTypeName;\r\n        uint256 poolAmount;       \r\n        uint256 borrowerInterestRate;\r\n        uint256 lenderInterestRate;\r\n        address owner;\r\n        address prevOwner;\r\n    }\r\n\r\n    struct Collateral {\r\n        uint256 currencyType; //the one wanna borrow\r\n        uint256 collateralCurrencyType; // what type the collateral is for\r\n        uint256 amount;\r\n    }\r\n\r\n    address public owner;\r\n    // uint256[] numPools;\r\n    address[] borrowerList;\r\n    address[] lenderList;\r\n    uint256 public numPools = 0;\r\n    mapping(uint256 => liquidityPool) public pools;\r\n\r\n    mapping(address => Deposit[]) deposits;\r\n    mapping(address => mapping(uint256 => uint256)) balances; //userAddress => (currencyType => amount)\r\n    \r\n    mapping(address => Loan[]) loans;\r\n    mapping(address => mapping(uint256 => uint256)) borrowedAmounts; //userAddress => (currencyType => amount)\r\n    mapping(address => Collateral[]) collateralAmounts; //userAddress => (currencyType => amount)\r\n\r\n    event DepositMade(address lender, uint256 choiceOfCurrency, uint256 depositAmount);\r\n    event LoanBorrowed(address borrower, uint256 choiceOfCurrency, uint256 loanAmount);\r\n    event WithdrawalMade(address lender, uint256 choiceOfCurrency, uint256 withdrawnAmount);\r\n    event LoanReturned(address borrower, uint256 choiceOfCurrency, uint256 returnedAmount);\r\n    event LogOwnershipTransferred(address indexed previousOwner, address indexed newOwner);\r\n    event Transfered(uint choiceOfCurrency, uint256 amount);\r\n    event Log(string message);\r\n    \r\n\r\n    //modifier to ensure a function is callable only by its owner    \r\n    modifier ownerOnly() {\r\n        require(msg.sender == owner);\r\n        _;\r\n    }\r\n\r\n    modifier isValidCurrency(uint256 currencyType) {\r\n        bool isValid = false;\r\n        for (uint i=0; i < numPools; i++) {\r\n            if(currencyType == i) {\r\n                isValid = true;\r\n            }\r\n        }\r\n        require (isValid == true, \"The Currency is not supported yet!\");\r\n        _;\r\n    }\r\n\r\n    function transferOwnership(address newOwner) public ownerOnly {\r\n        require(newOwner != address(0));\r\n        emit LogOwnershipTransferred(owner, newOwner);\r\n        owner = newOwner;\r\n    }\r\n\r\n    // Only owner can create pools\r\n    function addNewPool(\r\n        string memory currencyTypeName\r\n    ) public payable ownerOnly returns(uint256) {\r\n        //require(numberOfSides > 0);\r\n        //require((msg.value) > 0.00 ether, \"Please deposit a minimum amount to initiate a new currency pool\");\r\n        \r\n        //new pool object\r\n        liquidityPool memory newLiquidityPool = liquidityPool(\r\n            numPools,\r\n            currencyTypeName,\r\n            msg.value,     \r\n            0,\r\n            0,\r\n            msg.sender,  //owner\r\n            address(0) //prev owner\r\n        );\r\n        \r\n        pools[numPools] = newLiquidityPool; //commit to state variable\r\n        // numPools.push(currencyType);\r\n        numPools++;\r\n        return numPools;   //return new poolId\r\n    }\r\n\r\n    function checkPoolAmount (uint choiceOfCurrency) public view returns (uint256) {\r\n        return pools[choiceOfCurrency].poolAmount;\r\n    }\r\n\r\n    // Function to deposit funds\r\n    function deposit(uint256 choiceOfCurrency, uint256 depositAmount) public {// isValidCurrency(choiceOfCurrency) \r\n        // A 0.05% of platform fee will be charged\r\n        //!!!!!!!!!!!!!!!!!!!!!!!!!!!!!!!!!!!!\r\n        \r\n        // uint256 platformFee = helperContract.;\r\n        require(depositAmount > 0, \"Deposit amount must be greater than 0\");\r\n        \r\n        // update lenders\r\n        if (doesLenderExist(msg.sender) == false) {\r\n            lenderList.push(msg.sender);\r\n        }\r\n\r\n        // Create a new deposit struct and add it to the deposits mapping for this user\r\n        Deposit memory d= Deposit(depositAmount, block.timestamp, choiceOfCurrency);\r\n        deposits[msg.sender].push(d);\r\n\r\n        //transfer the token\r\n        depositToken(choiceOfCurrency, depositAmount);\r\n        \r\n        // Add the deposited amount to the user's balance for the specified currency\r\n        balances[msg.sender][choiceOfCurrency] += depositAmount;\r\n        // Add the deposited amount to total pool\r\n        pools[choiceOfCurrency].poolAmount += depositAmount;\r\n\r\n        emit DepositMade(msg.sender, choiceOfCurrency, depositAmount);\r\n    }\r\n\r\n    // Function to withdraw funds\r\n    function withdraw(uint256 amount, uint256 choiceOfCurrency) public {\r\n        require(amount > 0, \"Withdrawal amount must be greater than 0\");\r\n        require(balances[msg.sender][choiceOfCurrency] >= amount, \"Insufficient balance\");\r\n\r\n        balances[msg.sender][choiceOfCurrency] -= amount;\r\n\r\n        uint256 withdrawnAmount = amount;\r\n\r\n        // Update the deposit amount for the specified currency\r\n        for (uint i = 0; i < deposits[msg.sender].length; i++) {\r\n            if (deposits[msg.sender][i].currencyType == choiceOfCurrency) {\r\n                if (deposits[msg.sender][i].amount >= withdrawnAmount) {\r\n                    deposits[msg.sender][i].amount -= withdrawnAmount;\r\n                    break;\r\n                } else {\r\n                    withdrawnAmount -= deposits[msg.sender][i].amount;\r\n                    deposits[msg.sender][i].amount = 0;\r\n                }\r\n            }\r\n        }\r\n\r\n\r\n        // Return amount to total pool\r\n        pools[choiceOfCurrency].poolAmount -= amount;\r\n\r\n        // Check if all currency balance empty, True -> Remove user\r\n        bool isEmpty = true;\r\n        for (uint i = 0; i < numPools; i++) {\r\n            if (balances[msg.sender][i] == 0) {\r\n                isEmpty = false;\r\n                break;\r\n            }\r\n        }\r\n        if (isEmpty) {\r\n            removeUserFromUserList(lenderList, msg.sender);\r\n        }\r\n\r\n        // Each withdrawal will incur a fixed amount of transaction fees {$10 USD}\r\n        //!!!!!!!!!!!!!!!!!!!!!!!!!!!!!!!!!!!!!!!!!!!!!\r\n\r\n        // transfer the token\r\n        withdrawToken(choiceOfCurrency, amount);\r\n\r\n        emit WithdrawalMade(msg.sender, choiceOfCurrency, amount);\r\n    }\r\n\r\n    // Function to calculate interest earned on a user's balance for a specified currency\r\n    function calculateInterest(uint256 interestRate) public {\r\n        for (uint i = 0; i < lenderList.length; i++ ) { \r\n            for (uint j = 0; j < numPools; j++) {\r\n                uint256 totalBalance = balances[lenderList[i]][j];\r\n                uint256 interest = 0;\r\n                if (totalBalance > 0) {\r\n                    uint256 timeElapsed = block.timestamp - deposits[lenderList[i]][getDepositCount(lenderList[i], j) - 1].time;\r\n                    uint256 secondsInMonth = 2592000; // assuming 30 days in a month\r\n                    uint256 monthsElapsed = timeElapsed / secondsInMonth;\r\n                    interest += (totalBalance * interestRate * monthsElapsed) / 100;\r\n                }\r\n                deposit(j,interest);\r\n            }\r\n        }\r\n    }\r\n\r\n    // Function to get the number of deposits made by the user for a specified currency\r\n    function getDepositCount(address user, uint256 currencyType) public view returns (uint256) {\r\n        uint256 count = 0;\r\n        for (uint i = 0; i < deposits[user].length; i++) {\r\n            if (deposits[user][i].currencyType == currencyType) {\r\n                count++;\r\n            }\r\n        }\r\n        return count;\r\n    }\r\n\r\n    // Function to get the number of loans made by the user for a specified currency\r\n    function getLoanCount(address user, uint256 currencyType) public view returns (uint256) {\r\n        uint256 count = 0;\r\n        for (uint i = 0; i < loans[user].length; i++) {\r\n            if (loans[user][i].currencyType == currencyType) {\r\n                count++;\r\n            }\r\n        }\r\n        return count;\r\n    }\r\n\r\n    // Function to borrow funds\r\n    function borrow(uint256 loanAmount, uint256 choiceOfCurrency) public {\r\n        require(loanAmount > 0, \"Loan amount must be greater than 0\");\r\n\r\n        // a. check how much colleteral needed based on currency type\r\n        // b. check if got enuf of that amt \r\n        Collateral memory collateral = getBorrowerCollateral(choiceOfCurrency);\r\n        uint256 collateralAmount = collateral.amount;\r\n        uint256 collateralCurrency = collateral.collateralCurrencyType;\r\n\r\n        require(deBankContract.returnRatio(choiceOfCurrency, loanAmount, collateralCurrency, collateralAmount) >= DSMath.wdiv(3,2), \"Insufficient collateral to borrow\");\r\n\r\n        // update borrowers\r\n        if (doesBorrowerExist(msg.sender) == false) {\r\n            borrowerList.push(msg.sender);\r\n        }\r\n\r\n        // Create a new loan struct and add it to the loans mapping for this user\r\n        Loan memory loan = Loan(loanAmount, block.timestamp, getBorrowerInterestRate(choiceOfCurrency), choiceOfCurrency);\r\n        loans[msg.sender].push(loan);\r\n\r\n        // transfer the token\r\n        withdrawToken(choiceOfCurrency, loanAmount);\r\n\r\n        // Add the loan amount to the user's borrowedAmounts for the specified currency\r\n        borrowedAmounts[msg.sender][choiceOfCurrency] += loanAmount;\r\n        // Remove loan amount from total pool\r\n        pools[choiceOfCurrency].poolAmount -= loanAmount;\r\n\r\n        emit LoanBorrowed(msg.sender, choiceOfCurrency, loanAmount);\r\n    }\r\n\r\n    // Function to return loan\r\n    function returnLoan(uint256 amount, uint256 choiceOfCurrency) public {\r\n        require(amount > 0, \"Funds returned must be greater than 0\");\r\n        require(borrowedAmounts[msg.sender][choiceOfCurrency] <= amount, \"Excessive funds returned\");\r\n\r\n        // Remove the returned amount from the user's borrowedAmounts for the specified currency\r\n        borrowedAmounts[msg.sender][choiceOfCurrency] -= amount;\r\n\r\n        uint256 returnedAmount = amount;\r\n        \r\n        // Update the loan amount for the specified currency\r\n        for (uint i = 0; i < loans[msg.sender].length; i++) {\r\n            if (loans[msg.sender][i].currencyType == choiceOfCurrency) {\r\n                if (loans[msg.sender][i].amount >= returnedAmount) {\r\n                    loans[msg.sender][i].amount -= returnedAmount;\r\n                    break;\r\n                } else {\r\n                    returnedAmount -= loans[msg.sender][i].amount;\r\n                    loans[msg.sender][i].amount = 0;\r\n                }\r\n            }\r\n        }\r\n\r\n        // transfer the token\r\n        depositToken(choiceOfCurrency, amount);\r\n\r\n        // Return amount to total pool\r\n        pools[choiceOfCurrency].poolAmount += amount;\r\n\r\n        // !!!!!!!!!!!!! ADD IN !!!!!!!!!!!!!!!\r\n        // Return Funds\r\n            //  a. need to return collateral per ratio\r\n            //  b. if all loan is cleared, must remove the Collateral instance from the collateralAmount array (use pop)\r\n        uint256 totalLoanAmount = borrowedAmounts[msg.sender][choiceOfCurrency];\r\n        if (totalLoanAmount == 0) {\r\n            removeCollateralFromCollateralList(collateralAmounts[msg.sender], choiceOfCurrency);\r\n        }\r\n\r\n        // Check if all currency balance empty, True -> Remove user\r\n        bool isEmpty = true;\r\n        for (uint i = 0; i < numPools; i++) {\r\n            if (borrowedAmounts[msg.sender][i] == 0) {\r\n                isEmpty = false;\r\n                break;\r\n            }\r\n        }\r\n        if (isEmpty) {\r\n            // delete borrowerList[msg.sender];\r\n            removeUserFromUserList(borrowerList, msg.sender);\r\n        }\r\n\r\n        emit LoanReturned(msg.sender, choiceOfCurrency, amount);\r\n    }\r\n\r\n    function getBorrowerCollateral (uint256 choiceOfCurrency) public view returns (Collateral memory) {\r\n        Collateral memory collateral;\r\n        for (uint i = 0; i <= collateralAmounts[msg.sender].length; i++) {\r\n            if (collateralAmounts[msg.sender][i].collateralCurrencyType == choiceOfCurrency) \r\n                {\r\n                    collateral = collateralAmounts[msg.sender][i];\r\n                }\r\n        }\r\n        return collateral;\r\n    }\r\n\r\n    // !!!!!!!!!! NEED TO ADD IN !!!!!!!!!!!!!!!!!!!!!!!!\r\n    function depositCollateral (uint256 currencyType, uint256 currencyFor, uint256 amount) public {\r\n        //check if borrowing currency has collateral ctype \r\n        // Yes \r\n            // check if == currencyType\r\n                // Yes: put in\r\n                // No: error\r\n        // No\r\n            // add in new Collateral\r\n            // add in amount\r\n        \r\n        bool hasCollateral = false;\r\n        Collateral memory c;\r\n        for (uint256 i = 0; i < collateralAmounts[msg.sender].length; i++) {\r\n            if (collateralAmounts[msg.sender][i].collateralCurrencyType == currencyFor) {\r\n                require (collateralAmounts[msg.sender][i].currencyType == currencyType, \"Invalid Collateral Currency Type\");\r\n                hasCollateral = true;\r\n                c = collateralAmounts[msg.sender][i];\r\n            }\r\n        }\r\n        if (hasCollateral) {\r\n            c.amount += amount;\r\n        } else {\r\n            c.currencyType = currencyType;\r\n            c.collateralCurrencyType = currencyFor;\r\n            c.amount = amount;\r\n            collateralAmounts[msg.sender][currencyFor] = c;\r\n        }\r\n\r\n        depositToken(currencyType, amount);\r\n    }\r\n\r\n    // Function to calculate the interest owed on a user's loan for a specified currency\r\n    function calculateLoanInterest(uint256 interestRate) public {\r\n        for (uint i = 0; i < borrowerList.length; i++) {\r\n            for (uint j = 0; j < numPools; j++) {\r\n                uint256 totalLoanAmount = borrowedAmounts[borrowerList[i]][j];\r\n                uint256 interest = 0;\r\n                if (totalLoanAmount > 0) {\r\n                    uint256 timeElapsed = block.timestamp - loans[borrowerList[i]][getLoanCount(borrowerList[i], j) - 1].time;\r\n                    uint256 secondsInMonth = 2592000; // assuming 30 days in a month\r\n                    uint256 monthsElapsed = timeElapsed / secondsInMonth;\r\n                    interest += (totalLoanAmount * interestRate * monthsElapsed) / 100;\r\n                }\r\n                borrow(j, interest);\r\n                totalLoanAmount = borrowedAmounts[borrowerList[i]][j];\r\n\r\n                Collateral memory collateral = getBorrowerCollateral(j);\r\n                uint256 collateralAmount = collateral.amount;\r\n                uint256 collateralCurrency = collateral.currencyType;\r\n\r\n                // [Margin Call] 1.2: gives warning\r\n                if (deBankContract.returnRatio(j, totalLoanAmount, collateralCurrency, collateralAmount) <= DSMath.wdiv(6,5)) {\r\n                    emit Log (\"WARNING: Collateral ratio has dropped below 1.2! If ratio falls further below 1.05, your collateral will be liquidated!\");\r\n                } else if (deBankContract.returnRatio(j, totalLoanAmount, collateralCurrency, collateralAmount) <= DSMath.wdiv(21,20)) { // [Margin Call] 1.05: liquidate\r\n                    liquidateCollateral(borrowerList[i], j);\r\n                }\r\n            }\r\n        }\r\n        \r\n    }\r\n\r\n    // !!!!!!!!!! NEED TO ADD IN risk checking !!!!!!!!!!!!!!!!!!!!!!!!\r\n    // Function to liquidate collateral when value ratio falls below trashhold\r\n    function liquidateCollateral(address borrower, uint256 currencyFor) private {\r\n        // [Margin call] If < x1.05, liquidate (move the amount to the pool), and borrowers can keep the loan amount\r\n        removeCollateralFromCollateralList(collateralAmounts[borrower], currencyFor);\r\n    }\r\n\r\n    //--------------Helper Methods----------------\r\n    // Function to check if lender exists\r\n    function doesLenderExist (address lender) private view returns (bool) {\r\n        bool lenderExists = false;\r\n        for (uint i = 0; i < lenderList.length; i++) {\r\n            if(lenderList[i] == lender) {\r\n                lenderExists = true;\r\n            }\r\n        }\r\n        return lenderExists;\r\n    }\r\n\r\n    // Function to check if borrower exists\r\n    function doesBorrowerExist (address borrower) private view returns (bool) {\r\n        bool borrowerExists = false;\r\n        for (uint i = 0; i < borrowerList.length; i++) {\r\n            if(borrowerList[i] == borrower) {\r\n                borrowerExists = true;\r\n            }\r\n        }\r\n        return borrowerExists;\r\n    }\r\n\r\n\r\n    //-----------Pool Token Transfer Methods-----------------\r\n    function depositToken(uint256 choiceOfCurrency, uint256 amt) public isValidCurrency(choiceOfCurrency) {\r\n        if(choiceOfCurrency == 0) { //choiceOfCurrency == 0 \r\n            require(cro.checkBalance() >= amt, \"You dont have enough token to deposit\");\r\n            cro.sendToken(msg.sender, address(this), amt);\r\n            emit Transfered(choiceOfCurrency, amt);\r\n        } else if(choiceOfCurrency == 1) {\r\n            require(shib.checkBalance() >= amt, \"You dont have enough token to deposit\");\r\n            shib.sendToken(msg.sender, address(this), amt);\r\n            emit Transfered(choiceOfCurrency, amt);\r\n        } else if(choiceOfCurrency == 2) {\r\n            require(uni.checkBalance() >= amt, \"You dont have enough token to deposit\");\r\n            uni.sendToken(msg.sender, address(this), amt);\r\n            emit Transfered(choiceOfCurrency, amt);\r\n        } \r\n    }\r\n\r\n    function withdrawToken(uint256 choiceOfCurrency, uint256 amt) public isValidCurrency(choiceOfCurrency) {\r\n        if(choiceOfCurrency == 0) { //choiceOfCurrency == 0 \r\n            require(cro.checkBalance(address(this)) >= amt, \"Insufficient tokens in pool to withdraw\");\r\n            cro.sendToken(address(this), msg.sender, amt);\r\n            emit Transfered(choiceOfCurrency, amt);\r\n        } else if(choiceOfCurrency == 1) {\r\n            require(shib.checkBalance(address(this)) >= amt, \"Insufficient tokens in pool to withdraw\");\r\n            shib.sendToken(address(this), msg.sender, amt);\r\n            emit Transfered(choiceOfCurrency, amt);\r\n        } else if(choiceOfCurrency == 2) {\r\n            require(uni.checkBalance(address(this)) >= amt, \"Insufficient tokens in pool to withdraw\");\r\n            uni.sendToken(address(this), msg.sender, amt);\r\n            emit Transfered(choiceOfCurrency, amt);\r\n        } \r\n    }\r\n\r\n    //----------setter methods-------------\r\n    function setLenderInterestRate(uint256 choiceOfCurrency) public isValidCurrency(choiceOfCurrency) {\r\n        pools[choiceOfCurrency].lenderInterestRate =  r.generateRandonNumber();\r\n    }\r\n\r\n    function setBorrowerInterestRate(uint256 choiceOfCurrency) public isValidCurrency(choiceOfCurrency) {\r\n        pools[choiceOfCurrency].borrowerInterestRate =  r.generateRandonNumber();\r\n    }\r\n\r\n    //----------getter methods-------------\r\n    function getCurrencyName(uint256 choiceOfCurrency) public view returns (string memory) {\r\n        require (choiceOfCurrency < numPools, \"Invalid Currency Type\");\r\n        return pools[choiceOfCurrency].currencyTypeName;\r\n        // if (choiceOfCurrency == 0) {\r\n        //     return \"Cro\";\r\n        // } else if (choiceOfCurrency == 1) {\r\n        //     return \"Shib\";\r\n        // } else if (choiceOfCurrency == 2) {\r\n        //     return \"Uni\";\r\n        // } else {\r\n        //     return \"Invalid Currency Type\";\r\n        // }\r\n    }\r\n    \r\n    // Function to get the user's loan balance for a specified currency\r\n    function getLoanBalance(address user, uint256 currencyType) public view returns (uint256) {\r\n        return borrowedAmounts[user][currencyType];\r\n    }\r\n\r\n    // Function to get the user's balance for a specified currency\r\n    function getBalance(address user, uint256 currencyType) public view returns (uint256) {\r\n        return balances[user][currencyType];\r\n    }\r\n\r\n    function getBorrowerInterestRate(uint choiceOfCurrency) public view returns (uint256) {\r\n        return pools[choiceOfCurrency].borrowerInterestRate;\r\n    }\r\n\r\n    function getLenderInterestRate(uint choiceOfCurrency) public view returns (uint256) {\r\n        return pools[choiceOfCurrency].lenderInterestRate;\r\n    }\r\n\r\n    function removeUserFromUserList(address[] storage arr, address add) internal {\r\n        // require(index < arr.length, \"Index out of range\");\r\n        uint index = 0;\r\n        for (uint i = 0; i < arr.length - 1; i++) {\r\n            if (arr[i] == add) {\r\n                index = i;\r\n            }\r\n        }\r\n        for (uint i = index; i < arr.length - 1; i++) {\r\n            arr[i] = arr[i+1];\r\n        }\r\n        arr.pop();\r\n    }\r\n\r\n    function removeCollateralFromCollateralList(Collateral[] storage arr, uint256 currencyFor) internal {\r\n        // require(index < arr.length, \"Index out of range\");\r\n        uint index = 0;\r\n        for (uint i = 0; i < arr.length - 1; i++) {\r\n            if (arr[i].collateralCurrencyType == currencyFor) {\r\n                index = i;\r\n            }\r\n        }\r\n        for (uint i = index; i < arr.length - 1; i++) {\r\n            arr[i] = arr[i+1];\r\n        }\r\n        arr.pop();\r\n    }\r\n\r\n}",
  "sourcePath": "D:\\NUS\\Y3S2\\IS4302\\DeBank\\contracts\\LiquidityPool.sol",
  "compiler": {
    "name": "solc",
    "version": "0.8.17+commit.8df45f5f.Emscripten.clang"
  },
  "schemaVersion": "3.4.13",
  "updatedAt": "2023-04-09T04:31:02.645Z",
  "devdoc": {
    "kind": "dev",
    "methods": {},
    "version": 1
  },
  "userdoc": {
    "kind": "user",
    "methods": {},
    "version": 1
  }
}