{
  "contractName": "LiquidityPool",
  "abi": [
    {
      "inputs": [
        {
          "internalType": "contract Debank",
          "name": "deBankAddress",
          "type": "address"
        },
        {
          "internalType": "contract RNG",
          "name": "rngAddress",
          "type": "address"
        },
        {
          "internalType": "contract Cro",
          "name": "croAddress",
          "type": "address"
        },
        {
          "internalType": "contract Shib",
          "name": "shibAdress",
          "type": "address"
        },
        {
          "internalType": "contract Uni",
          "name": "uniAddress",
          "type": "address"
        },
        {
          "internalType": "contract Helper",
          "name": "helperAddress",
          "type": "address"
        }
      ],
      "stateMutability": "nonpayable",
      "type": "constructor"
    },
    {
      "anonymous": false,
      "inputs": [
        {
          "indexed": false,
          "internalType": "address",
          "name": "lender",
          "type": "address"
        },
        {
          "indexed": false,
          "internalType": "uint256",
          "name": "choiceOfCurrency",
          "type": "uint256"
        },
        {
          "indexed": false,
          "internalType": "uint256",
          "name": "depositAmount",
          "type": "uint256"
        }
      ],
      "name": "DepositMade",
      "type": "event"
    },
    {
      "anonymous": false,
      "inputs": [
        {
          "indexed": false,
          "internalType": "address",
          "name": "borrower",
          "type": "address"
        },
        {
          "indexed": false,
          "internalType": "uint256",
          "name": "choiceOfCurrency",
          "type": "uint256"
        },
        {
          "indexed": false,
          "internalType": "uint256",
          "name": "loanAmount",
          "type": "uint256"
        }
      ],
      "name": "LoanBorrowed",
      "type": "event"
    },
    {
      "anonymous": false,
      "inputs": [
        {
          "indexed": false,
          "internalType": "address",
          "name": "borrower",
          "type": "address"
        },
        {
          "indexed": false,
          "internalType": "uint256",
          "name": "choiceOfCurrency",
          "type": "uint256"
        },
        {
          "indexed": false,
          "internalType": "uint256",
          "name": "returnedAmount",
          "type": "uint256"
        }
      ],
      "name": "LoanReturned",
      "type": "event"
    },
    {
      "anonymous": false,
      "inputs": [
        {
          "indexed": false,
          "internalType": "string",
          "name": "message",
          "type": "string"
        }
      ],
      "name": "Log",
      "type": "event"
    },
    {
      "anonymous": false,
      "inputs": [
        {
          "indexed": true,
          "internalType": "address",
          "name": "previousOwner",
          "type": "address"
        },
        {
          "indexed": true,
          "internalType": "address",
          "name": "newOwner",
          "type": "address"
        }
      ],
      "name": "LogOwnershipTransferred",
      "type": "event"
    },
    {
      "anonymous": false,
      "inputs": [
        {
          "indexed": false,
          "internalType": "uint256",
          "name": "choiceOfCurrency",
          "type": "uint256"
        },
        {
          "indexed": false,
          "internalType": "uint256",
          "name": "amount",
          "type": "uint256"
        }
      ],
      "name": "Transfered",
      "type": "event"
    },
    {
      "anonymous": false,
      "inputs": [
        {
          "indexed": false,
          "internalType": "address",
          "name": "lender",
          "type": "address"
        },
        {
          "indexed": false,
          "internalType": "uint256",
          "name": "choiceOfCurrency",
          "type": "uint256"
        },
        {
          "indexed": false,
          "internalType": "uint256",
          "name": "withdrawnAmount",
          "type": "uint256"
        }
      ],
      "name": "WithdrawalMade",
      "type": "event"
    },
    {
      "inputs": [],
      "name": "numPools",
      "outputs": [
        {
          "internalType": "uint256",
          "name": "",
          "type": "uint256"
        }
      ],
      "stateMutability": "view",
      "type": "function"
    },
    {
      "inputs": [],
      "name": "owner",
      "outputs": [
        {
          "internalType": "address",
          "name": "",
          "type": "address"
        }
      ],
      "stateMutability": "view",
      "type": "function"
    },
    {
      "inputs": [
        {
          "internalType": "uint256",
          "name": "",
          "type": "uint256"
        }
      ],
      "name": "pools",
      "outputs": [
        {
          "internalType": "uint256",
          "name": "poolLoanId",
          "type": "uint256"
        },
        {
          "internalType": "string",
          "name": "currencyTypeName",
          "type": "string"
        },
        {
          "internalType": "uint256",
          "name": "poolAmount",
          "type": "uint256"
        },
        {
          "internalType": "uint256",
          "name": "borrowerInterestRate",
          "type": "uint256"
        },
        {
          "internalType": "uint256",
          "name": "lenderInterestRate",
          "type": "uint256"
        },
        {
          "internalType": "address",
          "name": "owner",
          "type": "address"
        },
        {
          "internalType": "address",
          "name": "prevOwner",
          "type": "address"
        }
      ],
      "stateMutability": "view",
      "type": "function"
    },
    {
      "inputs": [
        {
          "internalType": "address",
          "name": "newOwner",
          "type": "address"
        }
      ],
      "name": "transferOwnership",
      "outputs": [],
      "stateMutability": "nonpayable",
      "type": "function"
    },
    {
      "inputs": [
        {
          "internalType": "string",
          "name": "currencyTypeName",
          "type": "string"
        }
      ],
      "name": "addNewPool",
      "outputs": [
        {
          "internalType": "uint256",
          "name": "",
          "type": "uint256"
        }
      ],
      "stateMutability": "payable",
      "type": "function"
    },
    {
      "inputs": [
        {
          "internalType": "uint256",
          "name": "choiceOfCurrency",
          "type": "uint256"
        }
      ],
      "name": "checkPoolAmount",
      "outputs": [
        {
          "internalType": "uint256",
          "name": "",
          "type": "uint256"
        }
      ],
      "stateMutability": "view",
      "type": "function"
    },
    {
      "inputs": [
        {
          "internalType": "uint256",
          "name": "choiceOfCurrency",
          "type": "uint256"
        },
        {
          "internalType": "uint256",
          "name": "depositAmount",
          "type": "uint256"
        }
      ],
      "name": "deposit",
      "outputs": [],
      "stateMutability": "nonpayable",
      "type": "function"
    },
    {
      "inputs": [
        {
          "internalType": "uint256",
          "name": "amount",
          "type": "uint256"
        },
        {
          "internalType": "uint256",
          "name": "choiceOfCurrency",
          "type": "uint256"
        }
      ],
      "name": "withdraw",
      "outputs": [],
      "stateMutability": "nonpayable",
      "type": "function"
    },
    {
      "inputs": [
        {
          "internalType": "uint256",
          "name": "interestRate",
          "type": "uint256"
        }
      ],
      "name": "calculateInterest",
      "outputs": [],
      "stateMutability": "nonpayable",
      "type": "function"
    },
    {
      "inputs": [
        {
          "internalType": "address",
          "name": "user",
          "type": "address"
        },
        {
          "internalType": "uint256",
          "name": "currencyType",
          "type": "uint256"
        }
      ],
      "name": "getDepositCount",
      "outputs": [
        {
          "internalType": "uint256",
          "name": "",
          "type": "uint256"
        }
      ],
      "stateMutability": "view",
      "type": "function"
    },
    {
      "inputs": [
        {
          "internalType": "address",
          "name": "user",
          "type": "address"
        },
        {
          "internalType": "uint256",
          "name": "currencyType",
          "type": "uint256"
        }
      ],
      "name": "getLoanCount",
      "outputs": [
        {
          "internalType": "uint256",
          "name": "",
          "type": "uint256"
        }
      ],
      "stateMutability": "view",
      "type": "function"
    },
    {
      "inputs": [
        {
          "internalType": "uint256",
          "name": "loanAmount",
          "type": "uint256"
        },
        {
          "internalType": "uint256",
          "name": "choiceOfCurrency",
          "type": "uint256"
        }
      ],
      "name": "borrow",
      "outputs": [],
      "stateMutability": "nonpayable",
      "type": "function"
    },
    {
      "inputs": [
        {
          "internalType": "uint256",
          "name": "amount",
          "type": "uint256"
        },
        {
          "internalType": "uint256",
          "name": "choiceOfCurrency",
          "type": "uint256"
        }
      ],
      "name": "returnLoan",
      "outputs": [],
      "stateMutability": "nonpayable",
      "type": "function"
    },
    {
      "inputs": [
        {
          "internalType": "uint256",
          "name": "choiceOfCurrency",
          "type": "uint256"
        }
      ],
      "name": "getBorrowerCollateral",
      "outputs": [
        {
          "components": [
            {
              "internalType": "uint256",
              "name": "currencyType",
              "type": "uint256"
            },
            {
              "internalType": "uint256",
              "name": "collateralCurrencyType",
              "type": "uint256"
            },
            {
              "internalType": "uint256",
              "name": "amount",
              "type": "uint256"
            }
          ],
          "internalType": "struct LiquidityPool.Collateral",
          "name": "",
          "type": "tuple"
        }
      ],
      "stateMutability": "view",
      "type": "function"
    },
    {
      "inputs": [
        {
          "internalType": "uint256",
          "name": "currencyType",
          "type": "uint256"
        },
        {
          "internalType": "uint256",
          "name": "currencyFor",
          "type": "uint256"
        },
        {
          "internalType": "uint256",
          "name": "amount",
          "type": "uint256"
        }
      ],
      "name": "depositCollateral",
      "outputs": [],
      "stateMutability": "nonpayable",
      "type": "function"
    },
    {
      "inputs": [
        {
          "internalType": "uint256",
          "name": "interestRate",
          "type": "uint256"
        }
      ],
      "name": "calculateLoanInterest",
      "outputs": [],
      "stateMutability": "nonpayable",
      "type": "function"
    },
    {
      "inputs": [
        {
          "internalType": "uint256",
          "name": "choiceOfCurrency",
          "type": "uint256"
        },
        {
          "internalType": "uint256",
          "name": "amt",
          "type": "uint256"
        }
      ],
      "name": "depositToken",
      "outputs": [],
      "stateMutability": "nonpayable",
      "type": "function"
    },
    {
      "inputs": [
        {
          "internalType": "uint256",
          "name": "choiceOfCurrency",
          "type": "uint256"
        },
        {
          "internalType": "uint256",
          "name": "amt",
          "type": "uint256"
        }
      ],
      "name": "withdrawToken",
      "outputs": [],
      "stateMutability": "nonpayable",
      "type": "function"
    },
    {
      "inputs": [
        {
          "internalType": "uint256",
          "name": "choiceOfCurrency",
          "type": "uint256"
        }
      ],
      "name": "setLenderInterestRate",
      "outputs": [],
      "stateMutability": "nonpayable",
      "type": "function"
    },
    {
      "inputs": [
        {
          "internalType": "uint256",
          "name": "choiceOfCurrency",
          "type": "uint256"
        }
      ],
      "name": "setBorrowerInterestRate",
      "outputs": [],
      "stateMutability": "nonpayable",
      "type": "function"
    },
    {
      "inputs": [
        {
          "internalType": "uint256",
          "name": "choiceOfCurrency",
          "type": "uint256"
        }
      ],
      "name": "getCurrencyName",
      "outputs": [
        {
          "internalType": "string",
          "name": "",
          "type": "string"
        }
      ],
      "stateMutability": "view",
      "type": "function"
    },
    {
      "inputs": [
        {
          "internalType": "address",
          "name": "user",
          "type": "address"
        },
        {
          "internalType": "uint256",
          "name": "currencyType",
          "type": "uint256"
        }
      ],
      "name": "getLoanBalance",
      "outputs": [
        {
          "internalType": "uint256",
          "name": "",
          "type": "uint256"
        }
      ],
      "stateMutability": "view",
      "type": "function"
    },
    {
      "inputs": [
        {
          "internalType": "address",
          "name": "user",
          "type": "address"
        },
        {
          "internalType": "uint256",
          "name": "currencyType",
          "type": "uint256"
        }
      ],
      "name": "getBalance",
      "outputs": [
        {
          "internalType": "uint256",
          "name": "",
          "type": "uint256"
        }
      ],
      "stateMutability": "view",
      "type": "function"
    },
    {
      "inputs": [
        {
          "internalType": "uint256",
          "name": "choiceOfCurrency",
          "type": "uint256"
        }
      ],
      "name": "getBorrowerInterestRate",
      "outputs": [
        {
          "internalType": "uint256",
          "name": "",
          "type": "uint256"
        }
      ],
      "stateMutability": "view",
      "type": "function"
    },
    {
      "inputs": [
        {
          "internalType": "uint256",
          "name": "choiceOfCurrency",
          "type": "uint256"
        }
      ],
      "name": "getLenderInterestRate",
      "outputs": [
        {
          "internalType": "uint256",
          "name": "",
          "type": "uint256"
        }
      ],
      "stateMutability": "view",
      "type": "function"
    }
  ],
  "bytecode": "0x608060405260006009553480156200001657600080fd5b5060405162003300380380620033008339810160408190526200003991620000c5565b60048054600160a060020a0319908116600160a060020a039889161790915560008054821696881696909617909555600180548616948716949094179093556002805485169286169290921790915560038054841691851691909117905560058054909216921691909117905562000159565b600160a060020a0381168114620000c257600080fd5b50565b60008060008060008060c08789031215620000df57600080fd5b8651620000ec81620000ac565b6020880151909650620000ff81620000ac565b60408801519095506200011281620000ac565b60608801519094506200012581620000ac565b60808801519093506200013881620000ac565b60a08801519092506200014b81620000ac565b809150509295509295509295565b61319780620001696000396000f3fe60806040526004361061016a5760003560e060020a90048063a57475e0116100d5578063dfe7acef1161008e578063e735dc1f11610068578063e735dc1f146104dd578063e9f3dea0146104fd578063f2fde38b1461051d578063fdb483c71461053d57600080fd5b8063dfe7acef14610470578063e04ecd9314610490578063e2bbb158146104bd57600080fd5b8063a57475e01461038d578063ac4afa38146103ad578063c2384f59146103e0578063d600264814610400578063df2e74a114610420578063df813b6b1461045057600080fd5b8063441a3e7011610127578063441a3e70146102725780636dc7962a146102925780637b7cf38c146102d55780638da5cb5b146103055780638ee649e61461033d5780639d2d04d11461036d57600080fd5b80630ecbcdab1461016f578063157a673d146101915780632a6ee14b146101b75780632b04e840146101d757806335c62bc21461021a5780633dc8116914610230575b600080fd5b34801561017b57600080fd5b5061018f61018a366004612b63565b61055d565b005b6101a461019f366004612b9e565b61089c565b6040519081526020015b60405180910390f35b3480156101c357600080fd5b506101a46101d2366004612c66565b61099c565b3480156101e357600080fd5b506101a46101f2366004612c66565b600160a060020a03919091166000908152600c60209081526040808320938352929052205490565b34801561022657600080fd5b506101a460095481565b34801561023c57600080fd5b5061025061024b366004612c90565b610a2f565b60408051825181526020808401519082015291810151908201526060016101ae565b34801561027e57600080fd5b5061018f61028d366004612b63565b610b3f565b34801561029e57600080fd5b506101a46102ad366004612c66565b600160a060020a03919091166000908152600e60209081526040808320938352929052205490565b3480156102e157600080fd5b506101a46102f0366004612c90565b6000908152600a602052604090206003015490565b34801561031157600080fd5b5060065461032590600160a060020a031681565b604051600160a060020a0390911681526020016101ae565b34801561034957600080fd5b506101a4610358366004612c90565b6000908152600a602052604090206002015490565b34801561037957600080fd5b5061018f610388366004612b63565b610e8d565b34801561039957600080fd5b5061018f6103a8366004612c90565b611272565b3480156103b957600080fd5b506103cd6103c8366004612c90565b611402565b6040516101ae9796959493929190612cef565b3480156103ec57600080fd5b5061018f6103fb366004612d3e565b6114d3565b34801561040c57600080fd5b5061018f61041b366004612b63565b6116dc565b34801561042c57600080fd5b506101a461043b366004612c90565b6000908152600a602052604090206004015490565b34801561045c57600080fd5b5061018f61046b366004612c90565b611a66565b34801561047c57600080fd5b506101a461048b366004612c66565b611eb5565b34801561049c57600080fd5b506104b06104ab366004612c90565b611f3e565b6040516101ae9190612d6a565b3480156104c957600080fd5b5061018f6104d8366004612b63565b612035565b3480156104e957600080fd5b5061018f6104f8366004612c90565b612207565b34801561050957600080fd5b5061018f610518366004612c90565b6122f4565b34801561052957600080fd5b5061018f610538366004612d7d565b6123e1565b34801561054957600080fd5b5061018f610558366004612b63565b612474565b600082116105db5760405160e560020a62461bcd02815260206004820152602260248201527f4c6f616e20616d6f756e74206d7573742062652067726561746572207468616e60448201527f203000000000000000000000000000000000000000000000000000000000000060648201526084015b60405180910390fd5b60006105e682610a2f565b604081015160208201519192509061060060036002612776565b600480546040517fa5a85e7f000000000000000000000000000000000000000000000000000000008152918201879052602482018890526044820184905260648201859052600160a060020a03169063a5a85e7f90608401602060405180830381865afa158015610675573d6000803e3d6000fd5b505050506040513d601f19601f820116820180604052508101906106999190612d98565b10156107105760405160e560020a62461bcd02815260206004820152602160248201527f496e73756666696369656e7420636f6c6c61746572616c20746f20626f72726f60448201527f770000000000000000000000000000000000000000000000000000000000000060648201526084016105d2565b610719336127af565b151560000361077257600780546001810182556000919091527fa66cc928b5edb82af9bd49922954155ab7b0942694bea4ce44661d9a8736c68801805473ffffffffffffffffffffffffffffffffffffffff1916331790555b600060405180608001604052808781526020014281526020016107a4876000908152600a602052604090206003015490565b81526020908101879052336000908152600d825260408082208054600181810183559184529284902085516004909402019283559284015192820192909255908201516002820155606082015160039091015590506108038587612474565b336000908152600e602090815260408083208884529091528120805488929061082d908490612dca565b90915550506000858152600a602052604081206002018054889290610853908490612ddd565b90915550506040517f85d2ace8876663584e65ae889b8c3984c9a31b5b594750252e6bda129da8283d9061088c90339088908a90612df0565b60405180910390a1505050505050565b600654600090600160a060020a031633146108b657600080fd5b6040805160e08101825260095480825260208083018681523484860152600060608501819052608085018190523360a086015260c08501819052928352600a9091529290208151815591519091829160018201906109149082612e9d565b5060408201516002820155606082015160038201556080820151600482015560a082015160058201805473ffffffffffffffffffffffffffffffffffffffff19908116600160a060020a039384161790915560c0909301516006909201805490931691161790556009805490600061098b83612f63565b91905055506009549150505b919050565b600080805b600160a060020a0385166000908152600d6020526040902054811015610a2557600160a060020a0385166000908152600d602052604090208054859190839081106109ee576109ee612f7c565b90600052602060002090600402016003015403610a135781610a0f81612f63565b9250505b80610a1d81612f63565b9150506109a1565b5090505b92915050565b610a5360405180606001604052806000815260200160008152602001600081525090565b610a7760405180606001604052806000815260200160008152602001600081525090565b60005b336000908152600f60205260409020548111610b3857336000908152600f60205260409020805485919083908110610ab457610ab4612f7c565b90600052602060002090600302016001015403610b2657336000908152600f60205260409020805482908110610aec57610aec612f7c565b9060005260206000209060030201604051806060016040529081600082015481526020016001820154815260200160028201548152505091505b80610b3081612f63565b915050610a7a565b5092915050565b60008211610bb85760405160e560020a62461bcd02815260206004820152602860248201527f5769746864726177616c20616d6f756e74206d7573742062652067726561746560448201527f72207468616e203000000000000000000000000000000000000000000000000060648201526084016105d2565b336000908152600c60209081526040808320848452909152902054821115610c255760405160e560020a62461bcd02815260206004820152601460248201527f496e73756666696369656e742062616c616e636500000000000000000000000060448201526064016105d2565b336000908152600c6020908152604080832084845290915281208054849290610c4f908490612ddd565b9091555082905060005b336000908152600b6020526040902054811015610dbd57336000908152600b60205260409020805484919083908110610c9457610c94612f7c565b90600052602060002090600302016002015403610dab57336000908152600b60205260409020805483919083908110610ccf57610ccf612f7c565b90600052602060002090600302016000015410610d3557336000908152600b60205260409020805483919083908110610d0a57610d0a612f7c565b90600052602060002090600302016000016000828254610d2a9190612ddd565b90915550610dbd9050565b336000908152600b60205260409020805482908110610d5657610d56612f7c565b90600052602060002090600302016000015482610d739190612ddd565b336000908152600b602052604081208054929450909183908110610d9957610d99612f7c565b60009182526020909120600390910201555b80610db581612f63565b915050610c59565b506000828152600a602052604081206002018054859290610ddf908490612ddd565b909155506001905060005b600954811015610e3057336000908152600c602090815260408083208484529091528120549003610e1e5760009150610e30565b80610e2881612f63565b915050610dea565b508015610e4257610e4260083361280c565b610e4c8385612474565b7f2d4d49c3e017b8235c908cbaa83a2431a08f3b950712696ece2088964fd399f0338486604051610e7f93929190612df0565b60405180910390a150505050565b816000805b600954811015610eba57808303610ea857600191505b80610eb281612f63565b915050610e92565b50600181151514610ee05760405160e560020a62461bcd0281526004016105d290612f95565b8360000361103757600154604080517fc71daccb00000000000000000000000000000000000000000000000000000000815290518592600160a060020a03169163c71daccb9160048083019260209291908290030181865afa158015610f4a573d6000803e3d6000fd5b505050506040513d601f19601f82011682018060405250810190610f6e9190612d98565b1015610f8f5760405160e560020a62461bcd0281526004016105d290612ff2565b60015460405160e160020a6317ee7de9028152600160a060020a0390911690632fdcfbd290610fc69033903090889060040161304f565b600060405180830381600087803b158015610fe057600080fd5b505af1158015610ff4573d6000803e3d6000fd5b505060408051878152602081018790527fe446b3bca3000d6f60a112a5c82316c7e965097849a763e3dd2d6c15bcf89abc935001905060405180910390a161126c565b8360010361111d57600254604080517fc71daccb00000000000000000000000000000000000000000000000000000000815290518592600160a060020a03169163c71daccb9160048083019260209291908290030181865afa1580156110a1573d6000803e3d6000fd5b505050506040513d601f19601f820116820180604052508101906110c59190612d98565b10156110e65760405160e560020a62461bcd0281526004016105d290612ff2565b60025460405160e160020a6317ee7de9028152600160a060020a0390911690632fdcfbd290610fc69033903090889060040161304f565b8360020361126c57600354604080517fc71daccb00000000000000000000000000000000000000000000000000000000815290518592600160a060020a03169163c71daccb9160048083019260209291908290030181865afa158015611187573d6000803e3d6000fd5b505050506040513d601f19601f820116820180604052508101906111ab9190612d98565b10156111cc5760405160e560020a62461bcd0281526004016105d290612ff2565b60035460405160e160020a6317ee7de9028152600160a060020a0390911690632fdcfbd2906112039033903090889060040161304f565b600060405180830381600087803b15801561121d57600080fd5b505af1158015611231573d6000803e3d6000fd5b505060408051878152602081018790527fe446b3bca3000d6f60a112a5c82316c7e965097849a763e3dd2d6c15bcf89abc9350019050610e7f565b50505050565b60005b6008548110156113fe5760005b6009548110156113eb576000600c6000600885815481106112a5576112a5612f7c565b6000918252602080832090910154600160a060020a031683528281019390935260409182018120858252909252812054915081156113cc576000600b6000600887815481106112f6576112f6612f7c565b6000918252602080832090910154600160a060020a03168352820192909252604001902060088054600191611350918990811061133557611335612f7c565b600091825260209091200154600160a060020a031687611eb5565b61135a9190612ddd565b8154811061136a5761136a612f7c565b906000526020600020906003020160010154426113879190612ddd565b905062278d0060006113998284613073565b90506064816113a88a88613098565b6113b29190613098565b6113bc9190613073565b6113c69085612dca565b93505050505b6113d68382612035565b505080806113e390612f63565b915050611282565b50806113f681612f63565b915050611275565b5050565b600a602052600090815260409020805460018201805491929161142490612e11565b80601f016020809104026020016040519081016040528092919081815260200182805461145090612e11565b801561149d5780601f106114725761010080835404028352916020019161149d565b820191906000526020600020905b81548152906001019060200180831161148057829003601f168201915b5050506002840154600385015460048601546005870154600690970154959692959194509250600160a060020a03918216911687565b60006114f960405180606001604052806000815260200160008152602001600081525090565b60005b336000908152600f602052604090205481101561164557336000908152600f6020526040902080548691908390811061153757611537612f7c565b9060005260206000209060030201600101540361163357336000908152600f6020526040902080548791908390811061157257611572612f7c565b906000526020600020906003020160000154146115d45760405160e560020a62461bcd02815260206004820181905260248201527f496e76616c696420436f6c6c61746572616c2043757272656e6379205479706560448201526064016105d2565b336000908152600f60205260409020805460019450829081106115f9576115f9612f7c565b9060005260206000209060030201604051806060016040529081600082015481526020016001820154815260200160028201548152505091505b8061163d81612f63565b9150506114fc565b50811561166657828160400181815161165e9190612dca565b9052506116cb565b84815260208082018590526040808301859052336000908152600f909252902080548291908690811061169b5761169b612f7c565b90600052602060002090600302016000820151816000015560208201518160010155604082015181600201559050505b6116d58584610e8d565b5050505050565b600082116117555760405160e560020a62461bcd02815260206004820152602560248201527f46756e64732072657475726e6564206d7573742062652067726561746572207460448201527f68616e203000000000000000000000000000000000000000000000000000000060648201526084016105d2565b336000908152600e602090815260408083208484529091529020548210156117c25760405160e560020a62461bcd02815260206004820152601860248201527f4578636573736976652066756e64732072657475726e6564000000000000000060448201526064016105d2565b336000908152600e60209081526040808320848452909152812080548492906117ec908490612ddd565b9091555082905060005b336000908152600d602052604090205481101561195a57336000908152600d6020526040902080548491908390811061183157611831612f7c565b9060005260206000209060040201600301540361194857336000908152600d6020526040902080548391908390811061186c5761186c612f7c565b906000526020600020906004020160000154106118d257336000908152600d602052604090208054839190839081106118a7576118a7612f7c565b906000526020600020906004020160000160008282546118c79190612ddd565b9091555061195a9050565b336000908152600d602052604090208054829081106118f3576118f3612f7c565b906000526020600020906004020160000154826119109190612ddd565b336000908152600d60205260408120805492945090918390811061193657611936612f7c565b60009182526020909120600490910201555b8061195281612f63565b9150506117f6565b506119658284610e8d565b6000828152600a602052604081206002018054859290611986908490612dca565b9091555050336000908152600e60209081526040808320858452909152812054908190036119c757336000908152600f602052604090206119c79084612962565b600160005b600954811015611a1257336000908152600e602090815260408083208484529091528120549003611a005760009150611a12565b80611a0a81612f63565b9150506119cc565b508015611a2457611a2460073361280c565b7f0b123856bd4026ac8a7db284468fc1fb14c3c4119d1145be68d14d6afa8d5fff338587604051611a5793929190612df0565b60405180910390a15050505050565b60005b6007548110156113fe5760005b600954811015611ea2576000600e600060078581548110611a9957611a99612f7c565b6000918252602080832090910154600160a060020a03168352828101939093526040918201812085825290925281205491508115611bc0576000600d600060078781548110611aea57611aea612f7c565b6000918252602080832090910154600160a060020a03168352820192909252604001902060078054600191611b449189908110611b2957611b29612f7c565b600091825260209091200154600160a060020a03168761099c565b611b4e9190612ddd565b81548110611b5e57611b5e612f7c565b90600052602060002090600402016001015442611b7b9190612ddd565b905062278d006000611b8d8284613073565b9050606481611b9c8a88613098565b611ba69190613098565b611bb09190613073565b611bba9085612dca565b93505050505b611bca838261055d565b600e600060078681548110611be157611be1612f7c565b6000918252602080832090910154600160a060020a0316835282810193909352604091820181208682529092528120549250611c1c84610a2f565b6040810151815191925090611c3360066005612776565b600480546040517fa5a85e7f000000000000000000000000000000000000000000000000000000008152918201899052602482018890526044820184905260648201859052600160a060020a03169063a5a85e7f90608401602060405180830381865afa158015611ca8573d6000803e3d6000fd5b505050506040513d601f19601f82011682018060405250810190611ccc9190612d98565b11611daf577fcf34ef537ac33ee1ac626ca1587a0a7e8e51561e5514f8cb36afa1c5102b3bab604051611da29060208082526077908201527f5741524e494e473a20436f6c6c61746572616c20726174696f2068617320647260408201527f6f707065642062656c6f7720312e322120496620726174696f2066616c6c732060608201527f667572746865722062656c6f7720312e30352c20796f757220636f6c6c61746560808201527f72616c2077696c6c206265206c6971756964617465642100000000000000000060a082015260c00190565b60405180910390a1611e8a565b611dbb60156014612776565b600480546040517fa5a85e7f000000000000000000000000000000000000000000000000000000008152918201899052602482018890526044820184905260648201859052600160a060020a03169063a5a85e7f90608401602060405180830381865afa158015611e30573d6000803e3d6000fd5b505050506040513d601f19601f82011682018060405250810190611e549190612d98565b11611e8a57611e8a60078881548110611e6f57611e6f612f7c565b600091825260209091200154600160a060020a031687612a84565b50505050508080611e9a90612f63565b915050611a76565b5080611ead81612f63565b915050611a69565b600080805b600160a060020a0385166000908152600b6020526040902054811015610a2557600160a060020a0385166000908152600b60205260409020805485919083908110611f0757611f07612f7c565b90600052602060002090600302016002015403611f2c5781611f2881612f63565b9250505b80611f3681612f63565b915050611eba565b60606009548210611f945760405160e560020a62461bcd02815260206004820152601560248201527f496e76616c69642043757272656e63792054797065000000000000000000000060448201526064016105d2565b6000828152600a602052604090206001018054611fb090612e11565b80601f0160208091040260200160405190810160405280929190818152602001828054611fdc90612e11565b80156120295780601f10611ffe57610100808354040283529160200191612029565b820191906000526020600020905b81548152906001019060200180831161200c57829003601f168201915b50505050509050919050565b600081116120ae5760405160e560020a62461bcd02815260206004820152602560248201527f4465706f73697420616d6f756e74206d7573742062652067726561746572207460448201527f68616e203000000000000000000000000000000000000000000000000000000060648201526084016105d2565b6120b733612aa6565b151560000361211057600880546001810182556000919091527ff3f7a9fe364faab93b216da50a3214154f22a0a2b415b23a84c8169e8b636ee301805473ffffffffffffffffffffffffffffffffffffffff1916331790555b60408051606081018252828152426020808301918252828401868152336000908152600b8352948520805460018181018355918752929095208451600390930201918255915193810193909355516002909201919091556121718383610e8d565b336000908152600c602090815260408083208684529091528120805484929061219b908490612dca565b90915550506000838152600a6020526040812060020180548492906121c1908490612dca565b90915550506040517f0b05f0d1cd0819f155b8a61f60baf7767c1ee49d04aeaab701df236140eb93f9906121fa90339086908690612df0565b60405180910390a1505050565b806000805b6009548110156122345780830361222257600191505b8061222c81612f63565b91505061220c565b5060018115151461225a5760405160e560020a62461bcd0281526004016105d290612f95565b60008054906101000a9004600160a060020a0316600160a060020a031663c7e539256040518163ffffffff1660e060020a028152600401602060405180830381865afa1580156122ae573d6000803e3d6000fd5b505050506040513d601f19601f820116820180604052508101906122d291906130af565b60ff16600a600085815260200190815260200160002060040181905550505050565b806000805b6009548110156123215780830361230f57600191505b8061231981612f63565b9150506122f9565b506001811515146123475760405160e560020a62461bcd0281526004016105d290612f95565b60008054906101000a9004600160a060020a0316600160a060020a031663c7e539256040518163ffffffff1660e060020a028152600401602060405180830381865afa15801561239b573d6000803e3d6000fd5b505050506040513d601f19601f820116820180604052508101906123bf91906130af565b60ff16600a600085815260200190815260200160002060030181905550505050565b600654600160a060020a031633146123f857600080fd5b600160a060020a03811661240b57600080fd5b600654604051600160a060020a038084169216907fdb6d05f3295cede580affa301a1eb5297528f3b3f6a56b075887ce6f61c45f2190600090a36006805473ffffffffffffffffffffffffffffffffffffffff1916600160a060020a0392909216919091179055565b816000805b6009548110156124a15780830361248f57600191505b8061249981612f63565b915050612479565b506001811515146124c75760405160e560020a62461bcd0281526004016105d290612f95565b836000036125ac576001546040517f5f5152260000000000000000000000000000000000000000000000000000000081523060048201528491600160a060020a031690635f51522690602401602060405180830381865afa158015612530573d6000803e3d6000fd5b505050506040513d601f19601f820116820180604052508101906125549190612d98565b10156125755760405160e560020a62461bcd0281526004016105d2906130d2565b60015460405160e160020a6317ee7de9028152600160a060020a0390911690632fdcfbd290610fc69030903390889060040161304f565b83600103612691576002546040517f5f5152260000000000000000000000000000000000000000000000000000000081523060048201528491600160a060020a031690635f51522690602401602060405180830381865afa158015612615573d6000803e3d6000fd5b505050506040513d601f19601f820116820180604052508101906126399190612d98565b101561265a5760405160e560020a62461bcd0281526004016105d2906130d2565b60025460405160e160020a6317ee7de9028152600160a060020a0390911690632fdcfbd290610fc69030903390889060040161304f565b8360020361126c576003546040517f5f5152260000000000000000000000000000000000000000000000000000000081523060048201528491600160a060020a031690635f51522690602401602060405180830381865afa1580156126fa573d6000803e3d6000fd5b505050506040513d601f19601f8201168201806040525081019061271e9190612d98565b101561273f5760405160e560020a62461bcd0281526004016105d2906130d2565b60035460405160e160020a6317ee7de9028152600160a060020a0390911690632fdcfbd2906112039030903390889060040161304f565b60006127a8826127a261278a826002612b03565b61279c87670de0b6b3a7640000612b0f565b90612b45565b90612b03565b9392505050565b600080805b600754811015610b385783600160a060020a0316600782815481106127db576127db612f7c565b600091825260209091200154600160a060020a0316036127fa57600191505b8061280481612f63565b9150506127b4565b6000805b835461281e90600190612ddd565b8110156128715782600160a060020a031684828154811061284157612841612f7c565b600091825260209091200154600160a060020a03160361285f578091505b8061286981612f63565b915050612810565b50805b835461288290600190612ddd565b81101561291d5783612895826001612dca565b815481106128a5576128a5612f7c565b9060005260206000200160009054906101000a9004600160a060020a03168482815481106128d5576128d5612f7c565b6000918252602090912001805473ffffffffffffffffffffffffffffffffffffffff1916600160a060020a03929092169190911790558061291581612f63565b915050612874565b508280548061292e5761292e61312f565b6000828152602090208101600019908101805473ffffffffffffffffffffffffffffffffffffffff19169055019055505050565b6000805b835461297490600190612ddd565b8110156129bb578284828154811061298e5761298e612f7c565b906000526020600020906003020160010154036129a9578091505b806129b381612f63565b915050612966565b50805b83546129cc90600190612ddd565b811015612a4957836129df826001612dca565b815481106129ef576129ef612f7c565b9060005260206000209060030201848281548110612a0f57612a0f612f7c565b6000918252602090912082546003909202019081556001808301549082015560029182015491015580612a4181612f63565b9150506129be565b5082805480612a5a57612a5a61312f565b60008281526020812060036000199093019283020181815560018101829055600201559055505050565b600160a060020a0382166000908152600f602052604090206113fe9082612962565b600080805b600854811015610b385783600160a060020a031660088281548110612ad257612ad2612f7c565b600091825260209091200154600160a060020a031603612af157600191505b80612afb81612f63565b915050612aab565b60006127a88284613073565b600082600003612b2157506000610a29565b612b2b8284613098565b905081612b388483613073565b14610a2957610a29613148565b6000612b518284612dca565b905082811015610a2957610a29613148565b60008060408385031215612b7657600080fd5b50508035926020909101359150565b60e060020a634e487b7102600052604160045260246000fd5b600060208284031215612bb057600080fd5b813567ffffffffffffffff80821115612bc857600080fd5b818401915084601f830112612bdc57600080fd5b813581811115612bee57612bee612b85565b604051601f8201601f19908116603f01168101908382118183101715612c1657612c16612b85565b81604052828152876020848701011115612c2f57600080fd5b826020860160208301376000928101602001929092525095945050505050565b8035600160a060020a038116811461099757600080fd5b60008060408385031215612c7957600080fd5b612c8283612c4f565b946020939093013593505050565b600060208284031215612ca257600080fd5b5035919050565b6000815180845260005b81811015612ccf57602081850181015186830182015201612cb3565b506000602082860101526020601f19601f83011685010191505092915050565b87815260e060208201526000612d0860e0830189612ca9565b60408301979097525060608101949094526080840192909252600160a060020a0390811660a08401521660c09091015292915050565b600080600060608486031215612d5357600080fd5b505081359360208301359350604090920135919050565b6020815260006127a86020830184612ca9565b600060208284031215612d8f57600080fd5b6127a882612c4f565b600060208284031215612daa57600080fd5b5051919050565b60e060020a634e487b7102600052601160045260246000fd5b80820180821115610a2957610a29612db1565b81810381811115610a2957610a29612db1565b600160a060020a039390931683526020830191909152604082015260600190565b600281046001821680612e2557607f821691505b602082108103612e485760e060020a634e487b7102600052602260045260246000fd5b50919050565b601f821115612e98576000818152602081206020601f86010481016020861015612e755750805b6020601f860104820191505b81811015612e9457828155600101612e81565b5050505b505050565b815167ffffffffffffffff811115612eb757612eb7612b85565b612ecb81612ec58454612e11565b84612e4e565b602080601f831160018114612f045760008415612ee85750858301515b60028086026008870290910a6000190419821617865550612e94565b600085815260208120601f198616915b82811015612f3357888601518255948401946001909101908401612f14565b5085821015612f5357878501516008601f88160260020a60001904191681555b5050505050600202600101905550565b600060018201612f7557612f75612db1565b5060010190565b60e060020a634e487b7102600052603260045260246000fd5b60208082526022908201527f5468652043757272656e6379206973206e6f7420737570706f7274656420796560408201527f7421000000000000000000000000000000000000000000000000000000000000606082015260800190565b60208082526025908201527f596f7520646f6e74206861766520656e6f75676820746f6b656e20746f20646560408201527f706f736974000000000000000000000000000000000000000000000000000000606082015260800190565b600160a060020a039384168152919092166020820152604081019190915260600190565b6000826130935760e060020a634e487b7102600052601260045260246000fd5b500490565b8082028115828204841417610a2957610a29612db1565b6000602082840312156130c157600080fd5b815160ff811681146127a857600080fd5b60208082526027908201527f496e73756666696369656e7420746f6b656e7320696e20706f6f6c20746f207760408201527f6974686472617700000000000000000000000000000000000000000000000000606082015260800190565b60e060020a634e487b7102600052603160045260246000fd5b60e060020a634e487b7102600052600160045260246000fdfea26469706673582212201989f04be8480e9433fc7cc71052ac06d650640c6e2fcaf48d1bd1ceb82a80c764736f6c63430008110033",
  "immutableReferences": {},
  "source": "// SPDX-License-Identifier: MIT\r\npragma solidity >= 0.5.0;\r\n// pragma experimental ABIEncoderV2;\r\nimport \"./ERC20.sol\";\r\n// import \"./DSMath.sol\";\r\nimport \"./RNG.sol\";\r\nimport \"./Cro.sol\";\r\nimport \"./Shib.sol\";\r\nimport \"./Uni.sol\";\r\nimport \"./Debank.sol\";\r\nimport \"./Helper.sol\";\r\n\r\ncontract LiquidityPool {\r\n    \r\n    RNG r;\r\n    Cro cro;\r\n    Shib shib;\r\n    Uni uni;\r\n    Debank deBankContract;\r\n    Helper helperContract;\r\n\r\n    constructor(Debank deBankAddress, RNG rngAddress, Cro croAddress, Shib shibAdress, Uni uniAddress, Helper helperAddress) public { \r\n        deBankContract = deBankAddress; \r\n        r = rngAddress; \r\n        cro = croAddress;\r\n        shib = shibAdress;\r\n        uni = uniAddress;\r\n        helperContract = helperAddress;\r\n    }\r\n\r\n    struct Deposit {\r\n        uint256 amount;\r\n        uint256 time;\r\n        uint256 currencyType;\r\n    }\r\n\r\n    struct Loan {\r\n        uint256 amount;\r\n        uint256 time;\r\n        uint256 interestRate;\r\n        uint256 currencyType;\r\n    }\r\n\r\n    struct liquidityPool {\r\n        uint256 poolLoanId;   \r\n        string currencyTypeName;\r\n        uint256 poolAmount;       \r\n        uint256 borrowerInterestRate;\r\n        uint256 lenderInterestRate;\r\n        address owner;\r\n        address prevOwner;\r\n    }\r\n\r\n    struct Collateral {\r\n        uint256 currencyType; //the one wanna borrow\r\n        uint256 collateralCurrencyType; // what type the collateral is for\r\n        uint256 amount;\r\n    }\r\n\r\n    address public owner;\r\n    // uint256[] numPools;\r\n    address[] borrowerList;\r\n    address[] lenderList;\r\n    uint256 public numPools = 0;\r\n    mapping(uint256 => liquidityPool) public pools;\r\n\r\n    mapping(address => Deposit[]) deposits;\r\n    mapping(address => mapping(uint256 => uint256)) balances; //userAddress => (currencyType => amount)\r\n    \r\n    mapping(address => Loan[]) loans;\r\n    mapping(address => mapping(uint256 => uint256)) borrowedAmounts; //userAddress => (currencyType => amount)\r\n    mapping(address => Collateral[]) collateralAmounts; //userAddress => (currencyType => amount)\r\n\r\n    event DepositMade(address lender, uint256 choiceOfCurrency, uint256 depositAmount);\r\n    event LoanBorrowed(address borrower, uint256 choiceOfCurrency, uint256 loanAmount);\r\n    event WithdrawalMade(address lender, uint256 choiceOfCurrency, uint256 withdrawnAmount);\r\n    event LoanReturned(address borrower, uint256 choiceOfCurrency, uint256 returnedAmount);\r\n    event LogOwnershipTransferred(address indexed previousOwner, address indexed newOwner);\r\n    event Transfered(uint choiceOfCurrency, uint256 amount);\r\n    event Log(string message);\r\n    \r\n\r\n    //modifier to ensure a function is callable only by its owner    \r\n    modifier ownerOnly() {\r\n        require(msg.sender == owner);\r\n        _;\r\n    }\r\n\r\n    modifier isValidCurrency(uint256 currencyType) {\r\n        bool isValid = false;\r\n        for (uint i=0; i < numPools; i++) {\r\n            if(currencyType == i) {\r\n                isValid = true;\r\n            }\r\n        }\r\n        require (isValid == true, \"The Currency is not supported yet!\");\r\n        _;\r\n    }\r\n\r\n    function transferOwnership(address newOwner) public ownerOnly {\r\n        require(newOwner != address(0));\r\n        emit LogOwnershipTransferred(owner, newOwner);\r\n        owner = newOwner;\r\n    }\r\n\r\n    // Only owner can create pools\r\n    function addNewPool(\r\n        string memory currencyTypeName\r\n    ) public payable ownerOnly returns(uint256) {\r\n        //require(numberOfSides > 0);\r\n        //require((msg.value) > 0.00 ether, \"Please deposit a minimum amount to initiate a new currency pool\");\r\n        \r\n        //new pool object\r\n        liquidityPool memory newLiquidityPool = liquidityPool(\r\n            numPools,\r\n            currencyTypeName,\r\n            msg.value,     \r\n            0,\r\n            0,\r\n            msg.sender,  //owner\r\n            address(0) //prev owner\r\n        );\r\n        \r\n        pools[numPools] = newLiquidityPool; //commit to state variable\r\n        // numPools.push(currencyType);\r\n        numPools++;\r\n        return numPools;   //return new poolId\r\n    }\r\n\r\n    function checkPoolAmount (uint choiceOfCurrency) public view returns (uint256) {\r\n        return pools[choiceOfCurrency].poolAmount;\r\n    }\r\n\r\n    // Function to deposit funds\r\n    function deposit(uint256 choiceOfCurrency, uint256 depositAmount) public {// isValidCurrency(choiceOfCurrency) \r\n        // A 0.05% of platform fee will be charged\r\n        //!!!!!!!!!!!!!!!!!!!!!!!!!!!!!!!!!!!!\r\n        \r\n        // uint256 platformFee = helperContract.;\r\n        require(depositAmount > 0, \"Deposit amount must be greater than 0\");\r\n        \r\n        // update lenders\r\n        if (doesLenderExist(msg.sender) == false) {\r\n            lenderList.push(msg.sender);\r\n        }\r\n\r\n        // Create a new deposit struct and add it to the deposits mapping for this user\r\n        Deposit memory d= Deposit(depositAmount, block.timestamp, choiceOfCurrency);\r\n        deposits[msg.sender].push(d);\r\n\r\n        //transfer the token\r\n        depositToken(choiceOfCurrency, depositAmount);\r\n        \r\n        // Add the deposited amount to the user's balance for the specified currency\r\n        balances[msg.sender][choiceOfCurrency] += depositAmount;\r\n        // Add the deposited amount to total pool\r\n        pools[choiceOfCurrency].poolAmount += depositAmount;\r\n\r\n        emit DepositMade(msg.sender, choiceOfCurrency, depositAmount);\r\n    }\r\n\r\n    // Function to withdraw funds\r\n    function withdraw(uint256 amount, uint256 choiceOfCurrency) public {\r\n        require(amount > 0, \"Withdrawal amount must be greater than 0\");\r\n        require(balances[msg.sender][choiceOfCurrency] >= amount, \"Insufficient balance\");\r\n\r\n        balances[msg.sender][choiceOfCurrency] -= amount;\r\n\r\n        uint256 withdrawnAmount = amount;\r\n\r\n        // Update the deposit amount for the specified currency\r\n        for (uint i = 0; i < deposits[msg.sender].length; i++) {\r\n            if (deposits[msg.sender][i].currencyType == choiceOfCurrency) {\r\n                if (deposits[msg.sender][i].amount >= withdrawnAmount) {\r\n                    deposits[msg.sender][i].amount -= withdrawnAmount;\r\n                    break;\r\n                } else {\r\n                    withdrawnAmount -= deposits[msg.sender][i].amount;\r\n                    deposits[msg.sender][i].amount = 0;\r\n                }\r\n            }\r\n        }\r\n\r\n\r\n        // Return amount to total pool\r\n        pools[choiceOfCurrency].poolAmount -= amount;\r\n\r\n        // Check if all currency balance empty, True -> Remove user\r\n        bool isEmpty = true;\r\n        for (uint i = 0; i < numPools; i++) {\r\n            if (balances[msg.sender][i] == 0) {\r\n                isEmpty = false;\r\n                break;\r\n            }\r\n        }\r\n        if (isEmpty) {\r\n            removeUserFromUserList(lenderList, msg.sender);\r\n        }\r\n\r\n        // Each withdrawal will incur a fixed amount of transaction fees {$10 USD}\r\n        //!!!!!!!!!!!!!!!!!!!!!!!!!!!!!!!!!!!!!!!!!!!!!\r\n\r\n        // transfer the token\r\n        withdrawToken(choiceOfCurrency, amount);\r\n\r\n        emit WithdrawalMade(msg.sender, choiceOfCurrency, amount);\r\n    }\r\n\r\n    // Function to calculate interest earned on a user's balance for a specified currency\r\n    function calculateInterest(uint256 interestRate) public {\r\n        for (uint i = 0; i < lenderList.length; i++ ) { \r\n            for (uint j = 0; j < numPools; j++) {\r\n                uint256 totalBalance = balances[lenderList[i]][j];\r\n                uint256 interest = 0;\r\n                if (totalBalance > 0) {\r\n                    uint256 timeElapsed = block.timestamp - deposits[lenderList[i]][getDepositCount(lenderList[i], j) - 1].time;\r\n                    uint256 secondsInMonth = 2592000; // assuming 30 days in a month\r\n                    uint256 monthsElapsed = timeElapsed / secondsInMonth;\r\n                    interest += (totalBalance * interestRate * monthsElapsed) / 100;\r\n                }\r\n                deposit(j,interest);\r\n            }\r\n        }\r\n    }\r\n\r\n    // Function to get the number of deposits made by the user for a specified currency\r\n    function getDepositCount(address user, uint256 currencyType) public view returns (uint256) {\r\n        uint256 count = 0;\r\n        for (uint i = 0; i < deposits[user].length; i++) {\r\n            if (deposits[user][i].currencyType == currencyType) {\r\n                count++;\r\n            }\r\n        }\r\n        return count;\r\n    }\r\n\r\n    // Function to get the number of loans made by the user for a specified currency\r\n    function getLoanCount(address user, uint256 currencyType) public view returns (uint256) {\r\n        uint256 count = 0;\r\n        for (uint i = 0; i < loans[user].length; i++) {\r\n            if (loans[user][i].currencyType == currencyType) {\r\n                count++;\r\n            }\r\n        }\r\n        return count;\r\n    }\r\n\r\n    // Function to borrow funds\r\n    function borrow(uint256 loanAmount, uint256 choiceOfCurrency) public {\r\n        require(loanAmount > 0, \"Loan amount must be greater than 0\");\r\n\r\n        // a. check how much colleteral needed based on currency type\r\n        // b. check if got enuf of that amt \r\n        Collateral memory collateral = getBorrowerCollateral(choiceOfCurrency);\r\n        uint256 collateralAmount = collateral.amount;\r\n        uint256 collateralCurrency = collateral.collateralCurrencyType;\r\n\r\n        require(deBankContract.returnRatio(choiceOfCurrency, loanAmount, collateralCurrency, collateralAmount) >= DSMath.wdiv(3,2), \"Insufficient collateral to borrow\");\r\n\r\n        // update borrowers\r\n        if (doesBorrowerExist(msg.sender) == false) {\r\n            borrowerList.push(msg.sender);\r\n        }\r\n\r\n        // Create a new loan struct and add it to the loans mapping for this user\r\n        Loan memory loan = Loan(loanAmount, block.timestamp, getBorrowerInterestRate(choiceOfCurrency), choiceOfCurrency);\r\n        loans[msg.sender].push(loan);\r\n\r\n        // transfer the token\r\n        withdrawToken(choiceOfCurrency, loanAmount);\r\n\r\n        // Add the loan amount to the user's borrowedAmounts for the specified currency\r\n        borrowedAmounts[msg.sender][choiceOfCurrency] += loanAmount;\r\n        // Remove loan amount from total pool\r\n        pools[choiceOfCurrency].poolAmount -= loanAmount;\r\n\r\n        emit LoanBorrowed(msg.sender, choiceOfCurrency, loanAmount);\r\n    }\r\n\r\n    // Function to return loan\r\n    function returnLoan(uint256 amount, uint256 choiceOfCurrency) public {\r\n        require(amount > 0, \"Funds returned must be greater than 0\");\r\n        require(borrowedAmounts[msg.sender][choiceOfCurrency] <= amount, \"Excessive funds returned\");\r\n\r\n        // Remove the returned amount from the user's borrowedAmounts for the specified currency\r\n        borrowedAmounts[msg.sender][choiceOfCurrency] -= amount;\r\n\r\n        uint256 returnedAmount = amount;\r\n        \r\n        // Update the loan amount for the specified currency\r\n        for (uint i = 0; i < loans[msg.sender].length; i++) {\r\n            if (loans[msg.sender][i].currencyType == choiceOfCurrency) {\r\n                if (loans[msg.sender][i].amount >= returnedAmount) {\r\n                    loans[msg.sender][i].amount -= returnedAmount;\r\n                    break;\r\n                } else {\r\n                    returnedAmount -= loans[msg.sender][i].amount;\r\n                    loans[msg.sender][i].amount = 0;\r\n                }\r\n            }\r\n        }\r\n\r\n        // transfer the token\r\n        depositToken(choiceOfCurrency, amount);\r\n\r\n        // Return amount to total pool\r\n        pools[choiceOfCurrency].poolAmount += amount;\r\n\r\n        // !!!!!!!!!!!!! ADD IN !!!!!!!!!!!!!!!\r\n        // Return Funds\r\n            //  a. need to return collateral per ratio\r\n            //  b. if all loan is cleared, must remove the Collateral instance from the collateralAmount array (use pop)\r\n        uint256 totalLoanAmount = borrowedAmounts[msg.sender][choiceOfCurrency];\r\n        if (totalLoanAmount == 0) {\r\n            removeCollateralFromCollateralList(collateralAmounts[msg.sender], choiceOfCurrency);\r\n        }\r\n\r\n        // Check if all currency balance empty, True -> Remove user\r\n        bool isEmpty = true;\r\n        for (uint i = 0; i < numPools; i++) {\r\n            if (borrowedAmounts[msg.sender][i] == 0) {\r\n                isEmpty = false;\r\n                break;\r\n            }\r\n        }\r\n        if (isEmpty) {\r\n            // delete borrowerList[msg.sender];\r\n            removeUserFromUserList(borrowerList, msg.sender);\r\n        }\r\n\r\n        emit LoanReturned(msg.sender, choiceOfCurrency, amount);\r\n    }\r\n\r\n    function getBorrowerCollateral (uint256 choiceOfCurrency) public view returns (Collateral memory) {\r\n        Collateral memory collateral;\r\n        for (uint i = 0; i <= collateralAmounts[msg.sender].length; i++) {\r\n            if (collateralAmounts[msg.sender][i].collateralCurrencyType == choiceOfCurrency) \r\n                {\r\n                    collateral = collateralAmounts[msg.sender][i];\r\n                }\r\n        }\r\n        return collateral;\r\n    }\r\n\r\n    // !!!!!!!!!! NEED TO ADD IN !!!!!!!!!!!!!!!!!!!!!!!!\r\n    function depositCollateral (uint256 currencyType, uint256 currencyFor, uint256 amount) public {\r\n        //check if borrowing currency has collateral ctype \r\n        // Yes \r\n            // check if == currencyType\r\n                // Yes: put in\r\n                // No: error\r\n        // No\r\n            // add in new Collateral\r\n            // add in amount\r\n        \r\n        bool hasCollateral = false;\r\n        Collateral memory c;\r\n        for (uint256 i = 0; i < collateralAmounts[msg.sender].length; i++) {\r\n            if (collateralAmounts[msg.sender][i].collateralCurrencyType == currencyFor) {\r\n                require (collateralAmounts[msg.sender][i].currencyType == currencyType, \"Invalid Collateral Currency Type\");\r\n                hasCollateral = true;\r\n                c = collateralAmounts[msg.sender][i];\r\n            }\r\n        }\r\n        if (hasCollateral) {\r\n            c.amount += amount;\r\n        } else {\r\n            c.currencyType = currencyType;\r\n            c.collateralCurrencyType = currencyFor;\r\n            c.amount = amount;\r\n            collateralAmounts[msg.sender][currencyFor] = c;\r\n        }\r\n\r\n        depositToken(currencyType, amount);\r\n    }\r\n\r\n    // Function to calculate the interest owed on a user's loan for a specified currency\r\n    function calculateLoanInterest(uint256 interestRate) public {\r\n        for (uint i = 0; i < borrowerList.length; i++) {\r\n            for (uint j = 0; j < numPools; j++) {\r\n                uint256 totalLoanAmount = borrowedAmounts[borrowerList[i]][j];\r\n                uint256 interest = 0;\r\n                if (totalLoanAmount > 0) {\r\n                    uint256 timeElapsed = block.timestamp - loans[borrowerList[i]][getLoanCount(borrowerList[i], j) - 1].time;\r\n                    uint256 secondsInMonth = 2592000; // assuming 30 days in a month\r\n                    uint256 monthsElapsed = timeElapsed / secondsInMonth;\r\n                    interest += (totalLoanAmount * interestRate * monthsElapsed) / 100;\r\n                }\r\n                borrow(j, interest);\r\n                totalLoanAmount = borrowedAmounts[borrowerList[i]][j];\r\n\r\n                Collateral memory collateral = getBorrowerCollateral(j);\r\n                uint256 collateralAmount = collateral.amount;\r\n                uint256 collateralCurrency = collateral.currencyType;\r\n\r\n                // [Margin Call] 1.2: gives warning\r\n                if (deBankContract.returnRatio(j, totalLoanAmount, collateralCurrency, collateralAmount) <= DSMath.wdiv(6,5)) {\r\n                    emit Log (\"WARNING: Collateral ratio has dropped below 1.2! If ratio falls further below 1.05, your collateral will be liquidated!\");\r\n                } else if (deBankContract.returnRatio(j, totalLoanAmount, collateralCurrency, collateralAmount) <= DSMath.wdiv(21,20)) { // [Margin Call] 1.05: liquidate\r\n                    liquidateCollateral(borrowerList[i], j);\r\n                }\r\n            }\r\n        }\r\n        \r\n    }\r\n\r\n    // !!!!!!!!!! NEED TO ADD IN risk checking !!!!!!!!!!!!!!!!!!!!!!!!\r\n    // Function to liquidate collateral when value ratio falls below trashhold\r\n    function liquidateCollateral(address borrower, uint256 currencyFor) private {\r\n        // [Margin call] If < x1.05, liquidate (move the amount to the pool), and borrowers can keep the loan amount\r\n        removeCollateralFromCollateralList(collateralAmounts[borrower], currencyFor);\r\n    }\r\n\r\n    //--------------Helper Methods----------------\r\n    // Function to check if lender exists\r\n    function doesLenderExist (address lender) private view returns (bool) {\r\n        bool lenderExists = false;\r\n        for (uint i = 0; i < lenderList.length; i++) {\r\n            if(lenderList[i] == lender) {\r\n                lenderExists = true;\r\n            }\r\n        }\r\n        return lenderExists;\r\n    }\r\n\r\n    // Function to check if borrower exists\r\n    function doesBorrowerExist (address borrower) private view returns (bool) {\r\n        bool borrowerExists = false;\r\n        for (uint i = 0; i < borrowerList.length; i++) {\r\n            if(borrowerList[i] == borrower) {\r\n                borrowerExists = true;\r\n            }\r\n        }\r\n        return borrowerExists;\r\n    }\r\n\r\n\r\n    //-----------Pool Token Transfer Methods-----------------\r\n    function depositToken(uint256 choiceOfCurrency, uint256 amt) public isValidCurrency(choiceOfCurrency) {\r\n        if(choiceOfCurrency == 0) { //choiceOfCurrency == 0 \r\n            require(cro.checkBalance() >= amt, \"You dont have enough token to deposit\");\r\n            cro.sendToken(msg.sender, address(this), amt);\r\n            emit Transfered(choiceOfCurrency, amt);\r\n        } else if(choiceOfCurrency == 1) {\r\n            require(shib.checkBalance() >= amt, \"You dont have enough token to deposit\");\r\n            shib.sendToken(msg.sender, address(this), amt);\r\n            emit Transfered(choiceOfCurrency, amt);\r\n        } else if(choiceOfCurrency == 2) {\r\n            require(uni.checkBalance() >= amt, \"You dont have enough token to deposit\");\r\n            uni.sendToken(msg.sender, address(this), amt);\r\n            emit Transfered(choiceOfCurrency, amt);\r\n        } \r\n    }\r\n\r\n    function withdrawToken(uint256 choiceOfCurrency, uint256 amt) public isValidCurrency(choiceOfCurrency) {\r\n        if(choiceOfCurrency == 0) { //choiceOfCurrency == 0 \r\n            require(cro.checkBalance(address(this)) >= amt, \"Insufficient tokens in pool to withdraw\");\r\n            cro.sendToken(address(this), msg.sender, amt);\r\n            emit Transfered(choiceOfCurrency, amt);\r\n        } else if(choiceOfCurrency == 1) {\r\n            require(shib.checkBalance(address(this)) >= amt, \"Insufficient tokens in pool to withdraw\");\r\n            shib.sendToken(address(this), msg.sender, amt);\r\n            emit Transfered(choiceOfCurrency, amt);\r\n        } else if(choiceOfCurrency == 2) {\r\n            require(uni.checkBalance(address(this)) >= amt, \"Insufficient tokens in pool to withdraw\");\r\n            uni.sendToken(address(this), msg.sender, amt);\r\n            emit Transfered(choiceOfCurrency, amt);\r\n        } \r\n    }\r\n\r\n    //----------setter methods-------------\r\n    function setLenderInterestRate(uint256 choiceOfCurrency) public isValidCurrency(choiceOfCurrency) {\r\n        pools[choiceOfCurrency].lenderInterestRate =  r.generateRandonNumber();\r\n    }\r\n\r\n    function setBorrowerInterestRate(uint256 choiceOfCurrency) public isValidCurrency(choiceOfCurrency) {\r\n        pools[choiceOfCurrency].borrowerInterestRate =  r.generateRandonNumber();\r\n    }\r\n\r\n    //----------getter methods-------------\r\n    function getCurrencyName(uint256 choiceOfCurrency) public view returns (string memory) {\r\n        require (choiceOfCurrency < numPools, \"Invalid Currency Type\");\r\n        return pools[choiceOfCurrency].currencyTypeName;\r\n        // if (choiceOfCurrency == 0) {\r\n        //     return \"Cro\";\r\n        // } else if (choiceOfCurrency == 1) {\r\n        //     return \"Shib\";\r\n        // } else if (choiceOfCurrency == 2) {\r\n        //     return \"Uni\";\r\n        // } else {\r\n        //     return \"Invalid Currency Type\";\r\n        // }\r\n    }\r\n    \r\n    // Function to get the user's loan balance for a specified currency\r\n    function getLoanBalance(address user, uint256 currencyType) public view returns (uint256) {\r\n        return borrowedAmounts[user][currencyType];\r\n    }\r\n\r\n    // Function to get the user's balance for a specified currency\r\n    function getBalance(address user, uint256 currencyType) public view returns (uint256) {\r\n        return balances[user][currencyType];\r\n    }\r\n\r\n    function getBorrowerInterestRate(uint choiceOfCurrency) public view returns (uint256) {\r\n        return pools[choiceOfCurrency].borrowerInterestRate;\r\n    }\r\n\r\n    function getLenderInterestRate(uint choiceOfCurrency) public view returns (uint256) {\r\n        return pools[choiceOfCurrency].lenderInterestRate;\r\n    }\r\n\r\n    function removeUserFromUserList(address[] storage arr, address add) internal {\r\n        // require(index < arr.length, \"Index out of range\");\r\n        uint index = 0;\r\n        for (uint i = 0; i < arr.length - 1; i++) {\r\n            if (arr[i] == add) {\r\n                index = i;\r\n            }\r\n        }\r\n        for (uint i = index; i < arr.length - 1; i++) {\r\n            arr[i] = arr[i+1];\r\n        }\r\n        arr.pop();\r\n    }\r\n\r\n    function removeCollateralFromCollateralList(Collateral[] storage arr, uint256 currencyFor) internal {\r\n        // require(index < arr.length, \"Index out of range\");\r\n        uint index = 0;\r\n        for (uint i = 0; i < arr.length - 1; i++) {\r\n            if (arr[i].collateralCurrencyType == currencyFor) {\r\n                index = i;\r\n            }\r\n        }\r\n        for (uint i = index; i < arr.length - 1; i++) {\r\n            arr[i] = arr[i+1];\r\n        }\r\n        arr.pop();\r\n    }\r\n\r\n}",
  "sourcePath": "C:\\Documents\\NUS\\NUS Mods\\IS4302\\DeBank\\contracts\\LiquidityPool.sol",
  "compiler": {
    "name": "solc",
    "version": "0.8.17+commit.8df45f5f.Emscripten.clang"
  },
  "schemaVersion": "3.4.11",
  "updatedAt": "2023-04-09T05:21:59.344Z",
  "devdoc": {
    "kind": "dev",
    "methods": {},
    "version": 1
  },
  "userdoc": {
    "kind": "user",
    "methods": {},
    "version": 1
  }
}