{
  "contractName": "PriceConsumer",
  "abi": [
    {
      "inputs": [
        {
          "internalType": "uint8",
          "name": "forcedNumber",
          "type": "uint8"
        }
      ],
      "name": "setPrice",
      "outputs": [],
      "stateMutability": "nonpayable",
      "type": "function"
    },
    {
      "inputs": [],
      "name": "getLatestPrice",
      "outputs": [
        {
          "internalType": "uint8",
          "name": "",
          "type": "uint8"
        }
      ],
      "stateMutability": "view",
      "type": "function"
    }
  ],
  "bytecode": "0x608060405234801561001057600080fd5b5060ed8061001f6000396000f3fe6080604052348015600f57600080fd5b5060043610604e577c010000000000000000000000000000000000000000000000000000000060003504638e15f47381146053578063be1271c414606c575b600080fd5b6000546040805160ff9092168252519081900360200190f35b608d6077366004608f565b6000805460ff191660ff92909216919091179055565b005b60006020828403121560a057600080fd5b813560ff8116811460b057600080fd5b939250505056fea2646970667358221220653a31bc8378ea41d65aa65f410671758ae5e51d037c7e23ea2aa1805a910da764736f6c63430008110033",
  "immutableReferences": {},
  "source": "// SPDX-License-Identifier: MIT\r\npragma solidity >= 0.5.0;\r\n\r\ncontract PriceConsumer{\r\n    uint8 price;\r\n\r\n    function setPrice(uint8 forcedNumber) public{\r\n         price = forcedNumber;\r\n    }\r\n    function getLatestPrice() public view returns (uint8) {\r\n        return price;\r\n    }\r\n}",
  "sourcePath": "C:\\Documents\\NUS\\NUS Mods\\IS4302\\DeBank\\contracts\\PriceConsumer.sol",
  "compiler": {
    "name": "solc",
    "version": "0.8.17+commit.8df45f5f.Emscripten.clang"
  },
  "schemaVersion": "3.4.11",
  "updatedAt": "2023-04-09T05:21:59.360Z",
  "devdoc": {
    "kind": "dev",
    "methods": {},
    "version": 1
  },
  "userdoc": {
    "kind": "user",
    "methods": {},
    "version": 1
  }
}