{
  "contractName": "PriceConsumer",
  "abi": [
    {
      "inputs": [
        {
          "internalType": "uint8",
          "name": "forcedNumber",
          "type": "uint8"
        }
      ],
      "name": "setPrice",
      "outputs": [],
      "stateMutability": "nonpayable",
      "type": "function"
    },
    {
      "inputs": [],
      "name": "getLatestPrice",
      "outputs": [
        {
          "internalType": "uint8",
          "name": "",
          "type": "uint8"
        }
      ],
      "stateMutability": "view",
      "type": "function"
    }
  ],
  "bytecode": "0x608060405234801561001057600080fd5b50610173806100206000396000f3fe608060405234801561001057600080fd5b50600436106100365760003560e01c80638e15f4731461003b578063be1271c414610059575b600080fd5b610043610075565b60405161005091906100c4565b60405180910390f35b610073600480360381019061006e9190610110565b61008b565b005b60008060009054906101000a900460ff16905090565b806000806101000a81548160ff021916908360ff16021790555050565b600060ff82169050919050565b6100be816100a8565b82525050565b60006020820190506100d960008301846100b5565b92915050565b600080fd5b6100ed816100a8565b81146100f857600080fd5b50565b60008135905061010a816100e4565b92915050565b600060208284031215610126576101256100df565b5b6000610134848285016100fb565b9150509291505056fea26469706673582212202bffc180a89308fd22710ab702eaf698b1d3dcd589307f8e0af512d6627fac7164736f6c63430008110033",
  "immutableReferences": {},
  "source": "// SPDX-License-Identifier: MIT\r\npragma solidity >= 0.5.0;\r\n\r\ncontract PriceConsumer{\r\n    uint8 price;\r\n\r\n    function setPrice(uint8 forcedNumber) public{\r\n         price = forcedNumber;\r\n    }\r\n    function getLatestPrice() public view returns (uint8) {\r\n        return price;\r\n    }\r\n}",
  "sourcePath": "D:\\NUS\\Y3S2\\IS4302\\DeBank\\contracts\\PriceConsumer.sol",
  "compiler": {
    "name": "solc",
    "version": "0.8.17+commit.8df45f5f.Emscripten.clang"
  },
  "schemaVersion": "3.4.13",
  "updatedAt": "2023-04-09T04:31:02.703Z",
  "devdoc": {
    "kind": "dev",
    "methods": {},
    "version": 1
  },
  "userdoc": {
    "kind": "user",
    "methods": {},
    "version": 1
  }
}