{
  "contractName": "RNG",
  "abi": [
    {
      "inputs": [],
      "name": "generateRandonNumber",
      "outputs": [
        {
          "internalType": "uint8",
          "name": "",
          "type": "uint8"
        }
      ],
      "stateMutability": "view",
      "type": "function"
    },
    {
      "inputs": [
        {
          "internalType": "uint8",
          "name": "forcedNumber",
          "type": "uint8"
        }
      ],
      "name": "setRandomNumber",
      "outputs": [],
      "stateMutability": "nonpayable",
      "type": "function"
    }
  ],
  "bytecode": "0x608060405234801561001057600080fd5b5060ed8061001f6000396000f3fe6080604052348015600f57600080fd5b5060043610604e577c010000000000000000000000000000000000000000000000000000000060003504633532328481146053578063c7e53925146076575b600080fd5b6074605e366004608f565b6000805460ff191660ff92909216919091179055565b005b6000546040805160ff9092168252519081900360200190f35b60006020828403121560a057600080fd5b813560ff8116811460b057600080fd5b939250505056fea2646970667358221220c5915d80ea5e43f48c505b588c55fbfc681cfc940e4fab421feb89e5e12621e364736f6c63430008110033",
  "immutableReferences": {},
  "source": "// SPDX-License-Identifier: MIT\r\npragma solidity >= 0.5.0;\r\n\r\n\r\ncontract RNG{\r\n    uint8 fakeRandomNumber;\r\n\r\n    function generateRandonNumber() public view returns (uint8){\r\n        return fakeRandomNumber;\r\n    }\r\n\r\n    function setRandomNumber(uint8 forcedNumber) public{\r\n         fakeRandomNumber = forcedNumber;\r\n    }\r\n}",
  "sourcePath": "C:\\Documents\\NUS\\NUS Mods\\IS4302\\DeBank\\contracts\\RNG.sol",
  "compiler": {
    "name": "solc",
    "version": "0.8.17+commit.8df45f5f.Emscripten.clang"
  },
  "schemaVersion": "3.4.11",
  "updatedAt": "2023-04-09T05:21:59.362Z",
  "devdoc": {
    "kind": "dev",
    "methods": {},
    "version": 1
  },
  "userdoc": {
    "kind": "user",
    "methods": {},
    "version": 1
  }
}