{
  "contractName": "RNG",
  "abi": [
    {
      "inputs": [],
      "name": "generateRandonNumber",
      "outputs": [
        {
          "internalType": "uint8",
          "name": "",
          "type": "uint8"
        }
      ],
      "stateMutability": "view",
      "type": "function"
    },
    {
      "inputs": [
        {
          "internalType": "uint8",
          "name": "forcedNumber",
          "type": "uint8"
        }
      ],
      "name": "setRandomNumber",
      "outputs": [],
      "stateMutability": "nonpayable",
      "type": "function"
    }
  ],
  "bytecode": "0x608060405234801561001057600080fd5b50610173806100206000396000f3fe608060405234801561001057600080fd5b50600436106100365760003560e01c8063353232841461003b578063c7e5392514610057575b600080fd5b610055600480360381019061005091906100e6565b610075565b005b61005f610092565b60405161006c9190610122565b60405180910390f35b806000806101000a81548160ff021916908360ff16021790555050565b60008060009054906101000a900460ff16905090565b600080fd5b600060ff82169050919050565b6100c3816100ad565b81146100ce57600080fd5b50565b6000813590506100e0816100ba565b92915050565b6000602082840312156100fc576100fb6100a8565b5b600061010a848285016100d1565b91505092915050565b61011c816100ad565b82525050565b60006020820190506101376000830184610113565b9291505056fea2646970667358221220973c190aa5fdb3be9958d04892c9f55838f378e0faf1323f62e4b3443ff9f3e364736f6c63430008110033",
  "immutableReferences": {},
  "source": "// SPDX-License-Identifier: MIT\r\npragma solidity >= 0.5.0;\r\n\r\n\r\ncontract RNG{\r\n    uint8 fakeRandomNumber;\r\n\r\n    function generateRandonNumber() public view returns (uint8){\r\n        return fakeRandomNumber;\r\n    }\r\n\r\n    function setRandomNumber(uint8 forcedNumber) public{\r\n         fakeRandomNumber = forcedNumber;\r\n    }\r\n}",
  "sourcePath": "D:\\NUS\\Y3S2\\IS4302\\DeBank\\contracts\\RNG.sol",
  "compiler": {
    "name": "solc",
    "version": "0.8.17+commit.8df45f5f.Emscripten.clang"
  },
  "schemaVersion": "3.4.13",
  "updatedAt": "2023-04-09T04:31:02.708Z",
  "devdoc": {
    "kind": "dev",
    "methods": {},
    "version": 1
  },
  "userdoc": {
    "kind": "user",
    "methods": {},
    "version": 1
  }
}