{
  "contractName": "Shib",
  "abi": [
    {
      "inputs": [],
      "stateMutability": "nonpayable",
      "type": "constructor"
    },
    {
      "inputs": [
        {
          "internalType": "uint256",
          "name": "amt",
          "type": "uint256"
        }
      ],
      "name": "getToken",
      "outputs": [],
      "stateMutability": "payable",
      "type": "function"
    },
    {
      "inputs": [
        {
          "internalType": "address",
          "name": "user",
          "type": "address"
        }
      ],
      "name": "checkBalance",
      "outputs": [
        {
          "internalType": "uint256",
          "name": "",
          "type": "uint256"
        }
      ],
      "stateMutability": "view",
      "type": "function"
    },
    {
      "inputs": [],
      "name": "checkBalance",
      "outputs": [
        {
          "internalType": "uint256",
          "name": "",
          "type": "uint256"
        }
      ],
      "stateMutability": "view",
      "type": "function"
    },
    {
      "inputs": [
        {
          "internalType": "address",
          "name": "from",
          "type": "address"
        },
        {
          "internalType": "address",
          "name": "to",
          "type": "address"
        },
        {
          "internalType": "uint256",
          "name": "amt",
          "type": "uint256"
        }
      ],
      "name": "sendToken",
      "outputs": [],
      "stateMutability": "nonpayable",
      "type": "function"
    },
    {
      "inputs": [
        {
          "internalType": "address",
          "name": "to",
          "type": "address"
        },
        {
          "internalType": "uint256",
          "name": "amt",
          "type": "uint256"
        }
      ],
      "name": "sendToken",
      "outputs": [],
      "stateMutability": "nonpayable",
      "type": "function"
    }
  ],
  "bytecode": "0x608060405234801561001057600080fd5b50600060405161001f90610073565b604051809103906000f08015801561003b573d6000803e3d6000fd5b5060008054600160a060020a03909216600160a060020a03199283161790556003805490911633179055506305f5e100600155610080565b610a5b806106da83390190565b61064b8061008f6000396000f3fe608060405260043610610066577c010000000000000000000000000000000000000000000000000000000060003504632fdcfbd2811461006b578063412664ae1461008d5780635f515226146100ad578063c71daccb146100df578063e4b50cb8146100f4575b600080fd5b34801561007757600080fd5b5061008b6100863660046104ff565b610107565b005b34801561009957600080fd5b5061008b6100a836600461053b565b6101a5565b3480156100b957600080fd5b506100cd6100c8366004610565565b61023a565b60405190815260200160405180910390f35b3480156100eb57600080fd5b506100cd6102c8565b61008b610102366004610587565b610353565b6000546040517f23b872dd000000000000000000000000000000000000000000000000000000008152600160a060020a038581166004830152848116602483015260448201849052909116906323b872dd906064016020604051808303816000875af115801561017b573d6000803e3d6000fd5b505050506040513d601f19601f8201168201806040525081019061019f91906105a0565b50505050565b6000546040517fa9059cbb000000000000000000000000000000000000000000000000000000008152600160a060020a038481166004830152602482018490529091169063a9059cbb906044016020604051808303816000875af1158015610211573d6000803e3d6000fd5b505050506040513d601f19601f8201168201806040525081019061023591906105a0565b505050565b600080546040517f70a08231000000000000000000000000000000000000000000000000000000008152600160a060020a038481166004830152909116906370a0823190602401602060405180830381865afa15801561029e573d6000803e3d6000fd5b505050506040513d601f19601f820116820180604052508101906102c291906105c2565b92915050565b600080546040517f70a08231000000000000000000000000000000000000000000000000000000008152336004820152600160a060020a03909116906370a0823190602401602060405180830381865afa15801561032a573d6000803e3d6000fd5b505050506040513d601f19601f8201168201806040525081019061034e91906105c2565b905090565b600154600054604080517f18160ddd00000000000000000000000000000000000000000000000000000000815290518492600160a060020a0316916318160ddd9160048083019260209291908290030181865afa1580156103b8573d6000803e3d6000fd5b505050506040513d601f19601f820116820180604052508101906103dc91906105c2565b6103e691906105db565b10610451576040517f08c379a000000000000000000000000000000000000000000000000000000000815260206004820152601960248201527f5348494220737570706c79206973206e6f7420656e6f75676800000000000000604482015260640160405180910390fd5b6000546040517f40c10f1900000000000000000000000000000000000000000000000000000000815233600482015260248101839052600160a060020a03909116906340c10f19906044016020604051808303816000875af11580156104bb573d6000803e3d6000fd5b505050506040513d601f19601f820116820180604052508101906104df91906105a0565b5050565b8035600160a060020a03811681146104fa57600080fd5b919050565b60008060006060848603121561051457600080fd5b61051d846104e3565b925061052b602085016104e3565b9150604084013590509250925092565b6000806040838503121561054e57600080fd5b610557836104e3565b946020939093013593505050565b60006020828403121561057757600080fd5b610580826104e3565b9392505050565b60006020828403121561059957600080fd5b5035919050565b6000602082840312156105b257600080fd5b8151801515811461058057600080fd5b6000602082840312156105d457600080fd5b5051919050565b808201808211156102c2577f4e487b7100000000000000000000000000000000000000000000000000000000600052601160045260246000fdfea264697066735822122039dff3ceefa11c41eae80c5b65fc83c0470bed6c02935479a438bd69caeffdfa64736f6c63430008110033608060405260008054600160a860020a031916610100330217905534801561002657600080fd5b50610a25806100366000396000f3fe608060405234801561001057600080fd5b5060043610610107576000357c01000000000000000000000000000000000000000000000000000000009004806370a08231116100a95780638da5cb5b116100835780638da5cb5b1461023757806395d89b411461024f578063a9059cbb1461028b578063dd62ed3e1461029e57600080fd5b806370a08231146101dc5780637d64bcb414610205578063893d20e81461020d57600080fd5b806318160ddd116100e557806318160ddd1461018a57806323b872dd1461019c578063313ce567146101af57806340c10f19146101c957600080fd5b806305d2035b1461010c57806306fdde031461012e578063095ea7b314610177575b600080fd5b6000546101199060ff1681565b60405190151581526020015b60405180910390f35b61016a6040518060400160405280600981526020017f44696365546f6b656e000000000000000000000000000000000000000000000081525081565b604051610125919061084d565b6101196101853660046108b7565b6102d7565b6003545b604051908152602001610125565b6101196101aa3660046108e1565b610344565b6101b7601281565b60405160ff9091168152602001610125565b6101196101d73660046108b7565b610565565b61018e6101ea36600461091d565b600160a060020a031660009081526002602052604090205490565b61011961065a565b6000546101009004600160a060020a03165b604051600160a060020a039091168152602001610125565b60005461021f906101009004600160a060020a031681565b61016a6040518060400160405280600281526020017f445400000000000000000000000000000000000000000000000000000000000081525081565b6101196102993660046108b7565b6106c1565b61018e6102ac366004610938565b600160a060020a03918216600090815260016020908152604080832093909416825291909152205490565b336000818152600160209081526040808320600160a060020a038716808552925280832085905551919290917f8c5be1e5ebec7d5bd14f71427d1e84f3dd0314c0f7b2291e5b200ac8c7c3b925906103329086815260200190565b60405180910390a35060015b92915050565b6000600160a060020a03831661035957600080fd5b600160a060020a0384166000908152600260205260409020548211156103e0576040517f08c379a000000000000000000000000000000000000000000000000000000000815260206004820181905260248201527f46726f6d20646f65736e2774206861766520656e6f7567682062616c616e636560448201526064015b60405180910390fd5b600160a060020a038416600090815260016020908152604080832032845290915290205482111561046d576040517f08c379a000000000000000000000000000000000000000000000000000000000815260206004820152601e60248201527f4e6f7420616c6c6f77656420746f207370656e642074686973206d756368000060448201526064016103d7565b600160a060020a038416600090815260026020526040902054610490908361080c565b600160a060020a0380861660009081526002602052604080822093909355908516815220546104bf908361082f565b600160a060020a0380851660009081526002602090815260408083209490945591871681526001825282812032825290915220546104fd908361080c565b600160a060020a03858116600081815260016020908152604080832032845282529182902094909455518581529186169290917fddf252ad1be2c89b69c2b068fc378daa952ba7f163c4a11628f55a4df523b3ef910160405180910390a35060019392505050565b600080546101009004600160a060020a0316331461058257600080fd5b60005460ff161561059257600080fd5b60035461059f908361082f565b600355600160a060020a0383166000908152600260205260409020546105c5908361082f565b600160a060020a038416600081815260026020526040908190209290925590517f0f6798a560793a54c3bcfe86a93cde1e73087d944c0ea20544137d4121396885906106149085815260200190565b60405180910390a2604051828152600160a060020a038416906000907fddf252ad1be2c89b69c2b068fc378daa952ba7f163c4a11628f55a4df523b3ef90602001610332565b600080546101009004600160a060020a0316331461067757600080fd5b60005460ff161561068757600080fd5b6000805460ff191660011781556040517fae5184fba832cb2b1f702aca6117b8d265eaf03ad33eb133f19dde0f5920fa089190a150600190565b6000600160a060020a0383166106d657600080fd5b32600090815260026020526040902054821115610775576040517f08c379a000000000000000000000000000000000000000000000000000000000815260206004820152602660248201527f6d73672e73656e64657220646f65736e2774206861766520656e6f756768206260448201527f616c616e6365000000000000000000000000000000000000000000000000000060648201526084016103d7565b3260009081526002602052604090205461078f908361080c565b3260009081526002602052604080822092909255600160a060020a038516815220546107bb908361082f565b600160a060020a0384166000818152600260205260409081902092909255905132907fddf252ad1be2c89b69c2b068fc378daa952ba7f163c4a11628f55a4df523b3ef906103329086815260200190565b60008282111561081e5761081e61096b565b61082882846109c9565b9392505050565b600061083b82846109dc565b90508281101561033e5761033e61096b565b600060208083528351808285015260005b8181101561087a5785810183015185820160400152820161085e565b506000604082860101526040601f19601f8301168501019250505092915050565b8035600160a060020a03811681146108b257600080fd5b919050565b600080604083850312156108ca57600080fd5b6108d38361089b565b946020939093013593505050565b6000806000606084860312156108f657600080fd5b6108ff8461089b565b925061090d6020850161089b565b9150604084013590509250925092565b60006020828403121561092f57600080fd5b6108288261089b565b6000806040838503121561094b57600080fd5b6109548361089b565b91506109626020840161089b565b90509250929050565b7f4e487b7100000000000000000000000000000000000000000000000000000000600052600160045260246000fd5b7f4e487b7100000000000000000000000000000000000000000000000000000000600052601160045260246000fd5b8181038181111561033e5761033e61099a565b8082018082111561033e5761033e61099a56fea26469706673582212207abe87f2a9935227aaed9e2370ae396d356146763d882aadfba3fe20b0be922364736f6c63430008110033",
  "immutableReferences": {},
  "source": "// SPDX-License-Identifier: MIT\r\npragma solidity >= 0.5.0;\r\nimport \"./ERC20.sol\";\r\n\r\ncontract Shib {\r\n    ERC20 erc20Contract;\r\n    uint256 supplyLimt;\r\n    uint256 currentSupply;\r\n    address owner;\r\n    \r\n    constructor() public {\r\n        ERC20 e = new ERC20();\r\n        erc20Contract = e;\r\n        owner = msg.sender;\r\n        //100 Mil supply\r\n        supplyLimt = 100000000;\r\n    }\r\n\r\n    //1 SHIB = 0.0001 ETH\r\n    function getToken(uint256 amt) public payable {\r\n        require(erc20Contract.totalSupply() + amt < supplyLimt, \"SHIB supply is not enough\");\r\n        erc20Contract.mint(msg.sender, amt);\r\n    }\r\n\r\n    function checkBalance() public view returns(uint256) {\r\n        return erc20Contract.balanceOf(msg.sender);\r\n    }\r\n\r\n    function checkBalance(address user) public view returns(uint256) {\r\n        return erc20Contract.balanceOf(user);\r\n    }\r\n\r\n    function sendToken(address from, address to, uint256 amt) public{   \r\n        erc20Contract.transferFrom(from,to,amt);\r\n    }\r\n\r\n    function sendToken(address to, uint256 amt) public {   \r\n        erc20Contract.transfer(to,amt);\r\n    }\r\n}",
  "sourcePath": "C:\\Documents\\NUS\\NUS Mods\\IS4302\\DeBank\\contracts\\Shib.sol",
  "compiler": {
    "name": "solc",
    "version": "0.8.17+commit.8df45f5f.Emscripten.clang"
  },
  "schemaVersion": "3.4.11",
  "updatedAt": "2023-04-09T05:21:59.364Z",
  "devdoc": {
    "kind": "dev",
    "methods": {},
    "version": 1
  },
  "userdoc": {
    "kind": "user",
    "methods": {},
    "version": 1
  }
}