{
  "contractName": "SpotOnContract",
  "abi": [
    {
      "inputs": [
        {
          "internalType": "uint256",
          "name": "",
          "type": "uint256"
        }
      ],
      "name": "activeSpotOnContracts",
      "outputs": [
        {
          "internalType": "uint256",
          "name": "spotOnContractId",
          "type": "uint256"
        },
        {
          "internalType": "uint256",
          "name": "currency",
          "type": "uint256"
        },
        {
          "internalType": "uint256",
          "name": "amount",
          "type": "uint256"
        },
        {
          "internalType": "uint256",
          "name": "repaymentAmount",
          "type": "uint256"
        },
        {
          "internalType": "uint256",
          "name": "acceptableRange",
          "type": "uint256"
        },
        {
          "internalType": "uint256",
          "name": "loadPeriod",
          "type": "uint256"
        },
        {
          "internalType": "uint256",
          "name": "interestRate",
          "type": "uint256"
        },
        {
          "internalType": "uint256",
          "name": "collateral",
          "type": "uint256"
        },
        {
          "internalType": "uint256",
          "name": "collateralCurrency",
          "type": "uint256"
        },
        {
          "internalType": "uint256",
          "name": "startDate",
          "type": "uint256"
        },
        {
          "internalType": "address",
          "name": "borrower",
          "type": "address"
        },
        {
          "internalType": "address",
          "name": "lender",
          "type": "address"
        }
      ],
      "stateMutability": "view",
      "type": "function"
    },
    {
      "inputs": [
        {
          "internalType": "uint256",
          "name": "",
          "type": "uint256"
        }
      ],
      "name": "closedSpotOnContracts",
      "outputs": [
        {
          "internalType": "uint256",
          "name": "spotOnContractId",
          "type": "uint256"
        },
        {
          "internalType": "uint256",
          "name": "currency",
          "type": "uint256"
        },
        {
          "internalType": "uint256",
          "name": "amount",
          "type": "uint256"
        },
        {
          "internalType": "uint256",
          "name": "repaymentAmount",
          "type": "uint256"
        },
        {
          "internalType": "uint256",
          "name": "acceptableRange",
          "type": "uint256"
        },
        {
          "internalType": "uint256",
          "name": "loadPeriod",
          "type": "uint256"
        },
        {
          "internalType": "uint256",
          "name": "interestRate",
          "type": "uint256"
        },
        {
          "internalType": "uint256",
          "name": "collateral",
          "type": "uint256"
        },
        {
          "internalType": "uint256",
          "name": "collateralCurrency",
          "type": "uint256"
        },
        {
          "internalType": "uint256",
          "name": "startDate",
          "type": "uint256"
        },
        {
          "internalType": "address",
          "name": "borrower",
          "type": "address"
        },
        {
          "internalType": "address",
          "name": "lender",
          "type": "address"
        }
      ],
      "stateMutability": "view",
      "type": "function"
    },
    {
      "inputs": [],
      "name": "numOfClosedContracts",
      "outputs": [
        {
          "internalType": "uint256",
          "name": "",
          "type": "uint256"
        }
      ],
      "stateMutability": "view",
      "type": "function"
    },
    {
      "inputs": [],
      "name": "numOfContracts",
      "outputs": [
        {
          "internalType": "uint256",
          "name": "",
          "type": "uint256"
        }
      ],
      "stateMutability": "view",
      "type": "function"
    },
    {
      "inputs": [
        {
          "internalType": "uint256",
          "name": "spotOnContractId",
          "type": "uint256"
        }
      ],
      "name": "closeContract",
      "outputs": [],
      "stateMutability": "nonpayable",
      "type": "function"
    },
    {
      "inputs": [
        {
          "internalType": "uint256",
          "name": "spotOnContractId",
          "type": "uint256"
        }
      ],
      "name": "getSpotOnContractAddress",
      "outputs": [
        {
          "internalType": "address",
          "name": "",
          "type": "address"
        }
      ],
      "stateMutability": "view",
      "type": "function"
    },
    {
      "inputs": [
        {
          "internalType": "uint256",
          "name": "spotOnContractId",
          "type": "uint256"
        }
      ],
      "name": "getSpotOnLender",
      "outputs": [
        {
          "internalType": "address",
          "name": "",
          "type": "address"
        }
      ],
      "stateMutability": "view",
      "type": "function"
    },
    {
      "inputs": [
        {
          "internalType": "uint256",
          "name": "spotOnContractId",
          "type": "uint256"
        }
      ],
      "name": "getSpotOnBorrower",
      "outputs": [
        {
          "internalType": "address",
          "name": "",
          "type": "address"
        }
      ],
      "stateMutability": "view",
      "type": "function"
    },
    {
      "inputs": [],
      "name": "getTimeStamp",
      "outputs": [
        {
          "internalType": "uint256",
          "name": "",
          "type": "uint256"
        }
      ],
      "stateMutability": "view",
      "type": "function"
    },
    {
      "inputs": [
        {
          "internalType": "uint256",
          "name": "spotOnContractId",
          "type": "uint256"
        }
      ],
      "name": "getCurrencyType",
      "outputs": [
        {
          "internalType": "uint256",
          "name": "",
          "type": "uint256"
        }
      ],
      "stateMutability": "view",
      "type": "function"
    },
    {
      "inputs": [
        {
          "internalType": "uint256",
          "name": "spotOnContractId",
          "type": "uint256"
        }
      ],
      "name": "getCollateralAmount",
      "outputs": [
        {
          "internalType": "uint256",
          "name": "",
          "type": "uint256"
        }
      ],
      "stateMutability": "view",
      "type": "function"
    },
    {
      "inputs": [
        {
          "internalType": "uint256",
          "name": "spotOnContractId",
          "type": "uint256"
        }
      ],
      "name": "getCollateralCurrency",
      "outputs": [
        {
          "internalType": "uint256",
          "name": "",
          "type": "uint256"
        }
      ],
      "stateMutability": "view",
      "type": "function"
    },
    {
      "inputs": [
        {
          "internalType": "uint256",
          "name": "spotOnContractId",
          "type": "uint256"
        }
      ],
      "name": "getAmount",
      "outputs": [
        {
          "internalType": "uint256",
          "name": "",
          "type": "uint256"
        }
      ],
      "stateMutability": "view",
      "type": "function"
    },
    {
      "inputs": [
        {
          "internalType": "uint256",
          "name": "spotOnContractId",
          "type": "uint256"
        }
      ],
      "name": "getLoanPeriod",
      "outputs": [
        {
          "internalType": "uint256",
          "name": "",
          "type": "uint256"
        }
      ],
      "stateMutability": "view",
      "type": "function"
    },
    {
      "inputs": [
        {
          "internalType": "uint256",
          "name": "spotOnContractId",
          "type": "uint256"
        }
      ],
      "name": "getInterestRate",
      "outputs": [
        {
          "internalType": "uint256",
          "name": "",
          "type": "uint256"
        }
      ],
      "stateMutability": "view",
      "type": "function"
    },
    {
      "inputs": [
        {
          "internalType": "uint256",
          "name": "spotOnContractId",
          "type": "uint256"
        }
      ],
      "name": "getAcceptableRange",
      "outputs": [
        {
          "internalType": "uint256",
          "name": "",
          "type": "uint256"
        }
      ],
      "stateMutability": "view",
      "type": "function"
    },
    {
      "inputs": [
        {
          "internalType": "uint256",
          "name": "amount",
          "type": "uint256"
        },
        {
          "internalType": "uint256",
          "name": "currency",
          "type": "uint256"
        },
        {
          "internalType": "uint256",
          "name": "acceptableRange",
          "type": "uint256"
        },
        {
          "internalType": "uint256",
          "name": "interestRate",
          "type": "uint256"
        },
        {
          "internalType": "uint256",
          "name": "loanPeriod",
          "type": "uint256"
        },
        {
          "internalType": "uint256",
          "name": "collateral",
          "type": "uint256"
        },
        {
          "internalType": "uint256",
          "name": "collateralCurrency",
          "type": "uint256"
        }
      ],
      "name": "createContract",
      "outputs": [
        {
          "internalType": "uint256",
          "name": "",
          "type": "uint256"
        }
      ],
      "stateMutability": "nonpayable",
      "type": "function"
    },
    {
      "inputs": [
        {
          "internalType": "uint256",
          "name": "spotOnContractId",
          "type": "uint256"
        },
        {
          "internalType": "uint256",
          "name": "startDate",
          "type": "uint256"
        }
      ],
      "name": "setLoanDates",
      "outputs": [],
      "stateMutability": "nonpayable",
      "type": "function"
    },
    {
      "inputs": [
        {
          "internalType": "uint256",
          "name": "spotOnContractId",
          "type": "uint256"
        },
        {
          "internalType": "uint256",
          "name": "startDate",
          "type": "uint256"
        },
        {
          "internalType": "uint256",
          "name": "endDate",
          "type": "uint256"
        },
        {
          "internalType": "uint256",
          "name": "interestRate",
          "type": "uint256"
        },
        {
          "internalType": "uint256",
          "name": "amount",
          "type": "uint256"
        }
      ],
      "name": "setRepaymentAmount",
      "outputs": [],
      "stateMutability": "nonpayable",
      "type": "function"
    },
    {
      "inputs": [
        {
          "internalType": "uint256",
          "name": "spotOnContractId",
          "type": "uint256"
        },
        {
          "internalType": "address",
          "name": "borrowerAddress",
          "type": "address"
        }
      ],
      "name": "setBorrower",
      "outputs": [],
      "stateMutability": "nonpayable",
      "type": "function"
    },
    {
      "inputs": [
        {
          "internalType": "uint256",
          "name": "spotOnContractId",
          "type": "uint256"
        },
        {
          "internalType": "address",
          "name": "lenderAddress",
          "type": "address"
        }
      ],
      "name": "setLender",
      "outputs": [],
      "stateMutability": "nonpayable",
      "type": "function"
    },
    {
      "inputs": [
        {
          "internalType": "uint256",
          "name": "spotOnContractId",
          "type": "uint256"
        },
        {
          "internalType": "uint256",
          "name": "newAmount",
          "type": "uint256"
        }
      ],
      "name": "setAmount",
      "outputs": [],
      "stateMutability": "nonpayable",
      "type": "function"
    },
    {
      "inputs": [
        {
          "internalType": "uint256",
          "name": "spotOnContractId",
          "type": "uint256"
        },
        {
          "internalType": "uint256",
          "name": "collateralAmount",
          "type": "uint256"
        }
      ],
      "name": "addCollateral",
      "outputs": [],
      "stateMutability": "nonpayable",
      "type": "function"
    }
  ],
  "bytecode": "0x60806040526000600155600060025534801561001a57600080fd5b5061130f8061002a6000396000f3fe608060405234801561001057600080fd5b506004361061014d5760003560e01c8063a8f35adf116100c3578063c25015d61161007c578063c25015d614610424578063c6a023e914610454578063d0ce736014610470578063d31ec57b1461048c578063da235b22146104bc578063fd6c4ff8146104da5761014d565b8063a8f35adf1461033e578063b18884cc1461035a578063b3892d081461038a578063b38b200f146103a6578063bdc7c12b146103c4578063c03b2a78146103f45761014d565b8063688ac95511610115578063688ac955146102085780637fa0a8151461024357806383529a3a146102735780639980ec86146102a357806399d88dda146102d3578063a17aba251461030e5761014d565b80630a28c0b2146101525780630c196a741461016e578063139daf801461019e5780635118b866146101ba57806363f5adb5146101ea575b600080fd5b61016c60048036038101906101679190610e80565b6104f6565b005b61018860048036038101906101839190610ec0565b61054f565b6040516101959190610efc565b60405180910390f35b6101b860048036038101906101b39190610e80565b61056f565b005b6101d460048036038101906101cf9190610ec0565b6105c8565b6040516101e19190610efc565b60405180910390f35b6101f26105e8565b6040516101ff9190610efc565b60405180910390f35b610222600480360381019061021d9190610ec0565b6105ee565b60405161023a9c9b9a99989796959493929190610f26565b60405180910390f35b61025d60048036038101906102589190610ec0565b61068e565b60405161026a9190610efc565b60405180910390f35b61028d60048036038101906102889190610ec0565b6106ae565b60405161029a9190610fe0565b60405180910390f35b6102bd60048036038101906102b89190610ec0565b6106ee565b6040516102ca9190610efc565b60405180910390f35b6102ed60048036038101906102e89190610ec0565b61070e565b6040516103059c9b9a99989796959493929190610f26565b60405180910390f35b61032860048036038101906103239190610ec0565b6107ae565b6040516103359190610fe0565b60405180910390f35b61035860048036038101906103539190610ffb565b6107ee565b005b610374600480360381019061036f919061103b565b61081f565b6040516103819190610efc565b60405180910390f35b6103a4600480360381019061039f91906110dd565b610a2f565b005b6103ae610ad5565b6040516103bb9190610efc565b60405180910390f35b6103de60048036038101906103d99190610ec0565b610adb565b6040516103eb9190610efc565b60405180910390f35b61040e60048036038101906104099190610ec0565b610afb565b60405161041b9190610efc565b60405180910390f35b61043e60048036038101906104399190610ec0565b610b1b565b60405161044b9190610efc565b60405180910390f35b61046e60048036038101906104699190610ffb565b610b3b565b005b61048a60048036038101906104859190610ec0565b610b5a565b005b6104a660048036038101906104a19190610ec0565b610d84565b6040516104b39190610fe0565b60405180910390f35b6104c4610dc0565b6040516104d19190610efc565b60405180910390f35b6104f460048036038101906104ef9190610ffb565b610dc8565b005b8060036000848152602001908152602001600020600a0160006101000a81548173ffffffffffffffffffffffffffffffffffffffff021916908373ffffffffffffffffffffffffffffffffffffffff1602179055505050565b600060036000838152602001908152602001600020600601549050919050565b8060036000848152602001908152602001600020600b0160006101000a81548173ffffffffffffffffffffffffffffffffffffffff021916908373ffffffffffffffffffffffffffffffffffffffff1602179055505050565b600060036000838152602001908152602001600020600101549050919050565b60015481565b600460205280600052604060002060009150905080600001549080600101549080600201549080600301549080600401549080600501549080600601549080600701549080600801549080600901549080600a0160009054906101000a900473ffffffffffffffffffffffffffffffffffffffff169080600b0160009054906101000a900473ffffffffffffffffffffffffffffffffffffffff1690508c565b600060036000838152602001908152602001600020600501549050919050565b600060036000838152602001908152602001600020600b0160009054906101000a900473ffffffffffffffffffffffffffffffffffffffff169050919050565b600060036000838152602001908152602001600020600201549050919050565b600360205280600052604060002060009150905080600001549080600101549080600201549080600301549080600401549080600501549080600601549080600701549080600801549080600901549080600a0160009054906101000a900473ffffffffffffffffffffffffffffffffffffffff169080600b0160009054906101000a900473ffffffffffffffffffffffffffffffffffffffff1690508c565b600060036000838152602001908152602001600020600a0160009054906101000a900473ffffffffffffffffffffffffffffffffffffffff169050919050565b806003600084815260200190815260200160002060070160008282546108149190611187565b925050819055505050565b60008060016000815480929190610835906111bb565b91905055905060006040518061018001604052808381526020018a81526020018b81526020016000815260200189815260200187815260200188815260200186815260200185815260200160008152602001600073ffffffffffffffffffffffffffffffffffffffff168152602001600073ffffffffffffffffffffffffffffffffffffffff1681525090508060036000848152602001908152602001600020600082015181600001556020820151816001015560408201518160020155606082015181600301556080820151816004015560a0820151816005015560c0820151816006015560e082015181600701556101008201518160080155610120820151816009015561014082015181600a0160006101000a81548173ffffffffffffffffffffffffffffffffffffffff021916908373ffffffffffffffffffffffffffffffffffffffff16021790555061016082015181600b0160006101000a81548173ffffffffffffffffffffffffffffffffffffffff021916908373ffffffffffffffffffffffffffffffffffffffff1602179055509050503060008084815260200190815260200160002060006101000a81548173ffffffffffffffffffffffffffffffffffffffff021916908373ffffffffffffffffffffffffffffffffffffffff1602179055508192505050979650505050505050565b6000620151808585610a419190611203565b610a4b9190611266565b90506000601e82610a5c9190611266565b90506000849050600084905060005b83811015610aae5761271083612710610a849190611187565b87610a8f9190611297565b610a999190611266565b91508080610aa6906111bb565b915050610a6b565b5080600360008b815260200190815260200160002060030181905550505050505050505050565b60025481565b600060036000838152602001908152602001600020600701549050919050565b600060036000838152602001908152602001600020600401549050919050565b600060036000838152602001908152602001600020600801549050919050565b8060036000848152602001908152602001600020600201819055505050565b600360008281526020019081526020016000206004600083815260200190815260200160002060008201548160000155600182015481600101556002820154816002015560038201548160030155600482015481600401556005820154816005015560068201548160060155600782015481600701556008820154816008015560098201548160090155600a820160009054906101000a900473ffffffffffffffffffffffffffffffffffffffff1681600a0160006101000a81548173ffffffffffffffffffffffffffffffffffffffff021916908373ffffffffffffffffffffffffffffffffffffffff160217905550600b820160009054906101000a900473ffffffffffffffffffffffffffffffffffffffff1681600b0160006101000a81548173ffffffffffffffffffffffffffffffffffffffff021916908373ffffffffffffffffffffffffffffffffffffffff16021790555090505060036000828152602001908152602001600020600080820160009055600182016000905560028201600090556003820160009055600482016000905560058201600090556006820160009055600782016000905560088201600090556009820160009055600a820160006101000a81549073ffffffffffffffffffffffffffffffffffffffff0219169055600b820160006101000a81549073ffffffffffffffffffffffffffffffffffffffff0219169055505060026000815480929190610d7c906111bb565b919050555050565b600080600083815260200190815260200160002060009054906101000a900473ffffffffffffffffffffffffffffffffffffffff169050919050565b600042905090565b8060036000848152602001908152602001600020600901819055505050565b600080fd5b6000819050919050565b610dff81610dec565b8114610e0a57600080fd5b50565b600081359050610e1c81610df6565b92915050565b600073ffffffffffffffffffffffffffffffffffffffff82169050919050565b6000610e4d82610e22565b9050919050565b610e5d81610e42565b8114610e6857600080fd5b50565b600081359050610e7a81610e54565b92915050565b60008060408385031215610e9757610e96610de7565b5b6000610ea585828601610e0d565b9250506020610eb685828601610e6b565b9150509250929050565b600060208284031215610ed657610ed5610de7565b5b6000610ee484828501610e0d565b91505092915050565b610ef681610dec565b82525050565b6000602082019050610f116000830184610eed565b92915050565b610f2081610e42565b82525050565b600061018082019050610f3c600083018f610eed565b610f49602083018e610eed565b610f56604083018d610eed565b610f63606083018c610eed565b610f70608083018b610eed565b610f7d60a083018a610eed565b610f8a60c0830189610eed565b610f9760e0830188610eed565b610fa5610100830187610eed565b610fb3610120830186610eed565b610fc1610140830185610f17565b610fcf610160830184610f17565b9d9c50505050505050505050505050565b6000602082019050610ff56000830184610f17565b92915050565b6000806040838503121561101257611011610de7565b5b600061102085828601610e0d565b925050602061103185828601610e0d565b9150509250929050565b600080600080600080600060e0888a03121561105a57611059610de7565b5b60006110688a828b01610e0d565b97505060206110798a828b01610e0d565b965050604061108a8a828b01610e0d565b955050606061109b8a828b01610e0d565b94505060806110ac8a828b01610e0d565b93505060a06110bd8a828b01610e0d565b92505060c06110ce8a828b01610e0d565b91505092959891949750929550565b600080600080600060a086880312156110f9576110f8610de7565b5b600061110788828901610e0d565b955050602061111888828901610e0d565b945050604061112988828901610e0d565b935050606061113a88828901610e0d565b925050608061114b88828901610e0d565b9150509295509295909350565b7f4e487b7100000000000000000000000000000000000000000000000000000000600052601160045260246000fd5b600061119282610dec565b915061119d83610dec565b92508282019050808211156111b5576111b4611158565b5b92915050565b60006111c682610dec565b91507fffffffffffffffffffffffffffffffffffffffffffffffffffffffffffffffff82036111f8576111f7611158565b5b600182019050919050565b600061120e82610dec565b915061121983610dec565b925082820390508181111561123157611230611158565b5b92915050565b7f4e487b7100000000000000000000000000000000000000000000000000000000600052601260045260246000fd5b600061127182610dec565b915061127c83610dec565b92508261128c5761128b611237565b5b828204905092915050565b60006112a282610dec565b91506112ad83610dec565b92508282026112bb81610dec565b915082820484148315176112d2576112d1611158565b5b509291505056fea264697066735822122032204a2a6cccfc88ff6bfae7f620b318faea560977988b0fe05b499bd15b6bb164736f6c63430008110033",
  "immutableReferences": {},
  "source": "// SPDX-License-Identifier: MIT\npragma solidity >= 0.5.0;\n\n\ncontract SpotOnContract {\n    struct spotOnContract {\n        uint256 spotOnContractId;\n        uint256 currency; \n        uint256 amount;\n        uint256 repaymentAmount;\n        uint256 acceptableRange;\n        uint256 loadPeriod;\n        uint256 interestRate; //monthly interest rate\n        uint256 collateral;\n        uint256 collateralCurrency;\n        uint256 startDate;\n        address borrower;\n        address lender;  \n    }\n    mapping(uint256 => address) spotOnContractAddress;\n    uint256 public numOfContracts = 0;\n    uint256 public numOfClosedContracts = 0;\n    mapping(uint256 => spotOnContract) public activeSpotOnContracts; // tracks all active spotOnContracts\n    mapping(uint256 => spotOnContract) public closedSpotOnContracts; //tracks all closed spotOnContracts\n\n    function closeContract(uint256 spotOnContractId) public {\n        closedSpotOnContracts[spotOnContractId] = activeSpotOnContracts[spotOnContractId];\n        delete activeSpotOnContracts[spotOnContractId];\n        numOfClosedContracts++;\n    }\n\n    function getSpotOnContractAddress(uint256 spotOnContractId) public view returns(address) {\n        return spotOnContractAddress[spotOnContractId];\n    }\n\n    function getSpotOnLender(uint256 spotOnContractId) public view returns(address) {\n        return activeSpotOnContracts[spotOnContractId].lender;\n    }\n\n    function getSpotOnBorrower(uint256 spotOnContractId) public view returns(address) {\n        return activeSpotOnContracts[spotOnContractId].borrower;\n    }\n\n    function getTimeStamp() public view returns(uint) {\n        return block.timestamp;\n    }\n\n    function getCurrencyType(uint256 spotOnContractId) public view returns(uint256) {\n        return activeSpotOnContracts[spotOnContractId].currency;\n    }\n\n    function getCollateralAmount(uint256 spotOnContractId) public view returns(uint256) {\n        return activeSpotOnContracts[spotOnContractId].collateral;\n    }\n\n    function getCollateralCurrency(uint256 spotOnContractId) public view returns(uint256) {\n        return activeSpotOnContracts[spotOnContractId].collateralCurrency;\n    }\n\n    function getAmount(uint256 spotOnContractId) public view returns(uint256) {\n        return activeSpotOnContracts[spotOnContractId].amount;\n    }\n\n    function getLoanPeriod(uint256 spotOnContractId) public view returns(uint256) {\n        return activeSpotOnContracts[spotOnContractId].loadPeriod;\n    }\n\n    function getInterestRate(uint256 spotOnContractId) public view returns(uint256) {\n        return activeSpotOnContracts[spotOnContractId].interestRate;\n    }\n\n    function getAcceptableRange(uint256 spotOnContractId) public view returns(uint256) {\n        return activeSpotOnContracts[spotOnContractId].acceptableRange;\n    }\n\n    function createContract(\n        uint256 amount,\n        uint256 currency,\n        uint256 acceptableRange,\n        uint256 interestRate,\n        uint256 loanPeriod,\n        uint256 collateral,\n        uint256 collateralCurrency\n    ) public returns(uint256) {\n        uint spotOnContractId = numOfContracts++;\n        spotOnContract memory newSpotOnContract = spotOnContract(\n            spotOnContractId,\n            currency,\n            amount,\n            0,\n            acceptableRange,\n            loanPeriod,\n            interestRate,\n            collateral,\n            collateralCurrency,\n            0,\n            address(0),\n            address(0)\n        );\n        activeSpotOnContracts[spotOnContractId] = newSpotOnContract;\n        spotOnContractAddress[spotOnContractId] = address(this);\n        return spotOnContractId;\n    }\n\n    //function set loan start and end date\n    function setLoanDates(uint256 spotOnContractId, uint256 startDate) public {\n        activeSpotOnContracts[spotOnContractId].startDate = startDate;\n    }\n\n    //function set repaymentAmount\n    function setRepaymentAmount(uint256 spotOnContractId, uint256 startDate, uint256 endDate, uint256 interestRate, uint256 amount) public {\n        uint256 daysBetween = (endDate - startDate) / 86400; // Number of seconds in a day\n        uint256 monthsBetween = daysBetween / 30; // Approximate number of months between the dates\n        uint256 interestRatePerMonth = interestRate;\n        uint256 totalAmountDue = amount;\n        for (uint256 i = 0; i < monthsBetween; i++) {\n            totalAmountDue = (amount * (10000 + interestRatePerMonth)) / 10000; // Compounding interest monthly\n        }\n        activeSpotOnContracts[spotOnContractId].repaymentAmount = totalAmountDue;\n    }\n\n    function setBorrower(uint256 spotOnContractId, address borrowerAddress) public {\n        activeSpotOnContracts[spotOnContractId].borrower = borrowerAddress;\n    }\n\n    function setLender(uint256 spotOnContractId, address lenderAddress) public {\n        activeSpotOnContracts[spotOnContractId].lender = lenderAddress;\n    }\n\n    function setAmount(uint256 spotOnContractId, uint256 newAmount) public {\n        activeSpotOnContracts[spotOnContractId].amount = newAmount;\n    }\n\n    function addCollateral(uint256 spotOnContractId, uint256 collateralAmount) public {\n        activeSpotOnContracts[spotOnContractId].collateral += collateralAmount;\n    }\n\n}\n",
  "sourcePath": "/Users/kaushikr/Documents/DeBank/contracts/SpotOnContract.sol",
  "compiler": {
    "name": "solc",
    "version": "0.8.17+commit.8df45f5f.Emscripten.clang"
  },
  "schemaVersion": "3.4.11",
  "updatedAt": "2023-04-09T04:50:48.413Z",
  "networkType": "ethereum",
  "devdoc": {
    "kind": "dev",
    "methods": {},
    "version": 1
  },
  "userdoc": {
    "kind": "user",
    "methods": {},
    "version": 1
  }
}