{
  "contractName": "SpotOnContract",
  "abi": [
    {
      "inputs": [
        {
          "internalType": "uint256",
          "name": "",
          "type": "uint256"
        }
      ],
      "name": "activeSpotOnContracts",
      "outputs": [
        {
          "internalType": "uint256",
          "name": "spotOnContractId",
          "type": "uint256"
        },
        {
          "internalType": "uint256",
          "name": "currency",
          "type": "uint256"
        },
        {
          "internalType": "uint256",
          "name": "amount",
          "type": "uint256"
        },
        {
          "internalType": "uint256",
          "name": "repaymentAmount",
          "type": "uint256"
        },
        {
          "internalType": "uint256",
          "name": "acceptableRange",
          "type": "uint256"
        },
        {
          "internalType": "uint256",
          "name": "loadPeriod",
          "type": "uint256"
        },
        {
          "internalType": "uint256",
          "name": "interestRate",
          "type": "uint256"
        },
        {
          "internalType": "uint256",
          "name": "collateral",
          "type": "uint256"
        },
        {
          "internalType": "uint256",
          "name": "collateralCurrency",
          "type": "uint256"
        },
        {
          "internalType": "uint256",
          "name": "startDate",
          "type": "uint256"
        },
        {
          "internalType": "address",
          "name": "borrower",
          "type": "address"
        },
        {
          "internalType": "address",
          "name": "lender",
          "type": "address"
        }
      ],
      "stateMutability": "view",
      "type": "function"
    },
    {
      "inputs": [
        {
          "internalType": "uint256",
          "name": "",
          "type": "uint256"
        }
      ],
      "name": "closedSpotOnContracts",
      "outputs": [
        {
          "internalType": "uint256",
          "name": "spotOnContractId",
          "type": "uint256"
        },
        {
          "internalType": "uint256",
          "name": "currency",
          "type": "uint256"
        },
        {
          "internalType": "uint256",
          "name": "amount",
          "type": "uint256"
        },
        {
          "internalType": "uint256",
          "name": "repaymentAmount",
          "type": "uint256"
        },
        {
          "internalType": "uint256",
          "name": "acceptableRange",
          "type": "uint256"
        },
        {
          "internalType": "uint256",
          "name": "loadPeriod",
          "type": "uint256"
        },
        {
          "internalType": "uint256",
          "name": "interestRate",
          "type": "uint256"
        },
        {
          "internalType": "uint256",
          "name": "collateral",
          "type": "uint256"
        },
        {
          "internalType": "uint256",
          "name": "collateralCurrency",
          "type": "uint256"
        },
        {
          "internalType": "uint256",
          "name": "startDate",
          "type": "uint256"
        },
        {
          "internalType": "address",
          "name": "borrower",
          "type": "address"
        },
        {
          "internalType": "address",
          "name": "lender",
          "type": "address"
        }
      ],
      "stateMutability": "view",
      "type": "function"
    },
    {
      "inputs": [],
      "name": "numOfClosedContracts",
      "outputs": [
        {
          "internalType": "uint256",
          "name": "",
          "type": "uint256"
        }
      ],
      "stateMutability": "view",
      "type": "function"
    },
    {
      "inputs": [],
      "name": "numOfContracts",
      "outputs": [
        {
          "internalType": "uint256",
          "name": "",
          "type": "uint256"
        }
      ],
      "stateMutability": "view",
      "type": "function"
    },
    {
      "inputs": [
        {
          "internalType": "uint256",
          "name": "spotOnContractId",
          "type": "uint256"
        }
      ],
      "name": "closeContract",
      "outputs": [],
      "stateMutability": "nonpayable",
      "type": "function"
    },
    {
      "inputs": [
        {
          "internalType": "uint256",
          "name": "spotOnContractId",
          "type": "uint256"
        }
      ],
      "name": "getSpotOnContractAddress",
      "outputs": [
        {
          "internalType": "address",
          "name": "",
          "type": "address"
        }
      ],
      "stateMutability": "view",
      "type": "function"
    },
    {
      "inputs": [
        {
          "internalType": "uint256",
          "name": "spotOnContractId",
          "type": "uint256"
        }
      ],
      "name": "getSpotOnLender",
      "outputs": [
        {
          "internalType": "address",
          "name": "",
          "type": "address"
        }
      ],
      "stateMutability": "view",
      "type": "function"
    },
    {
      "inputs": [
        {
          "internalType": "uint256",
          "name": "spotOnContractId",
          "type": "uint256"
        }
      ],
      "name": "getSpotOnBorrower",
      "outputs": [
        {
          "internalType": "address",
          "name": "",
          "type": "address"
        }
      ],
      "stateMutability": "view",
      "type": "function"
    },
    {
      "inputs": [],
      "name": "getTimeStamp",
      "outputs": [
        {
          "internalType": "uint256",
          "name": "",
          "type": "uint256"
        }
      ],
      "stateMutability": "view",
      "type": "function"
    },
    {
      "inputs": [
        {
          "internalType": "uint256",
          "name": "spotOnContractId",
          "type": "uint256"
        }
      ],
      "name": "getCurrencyType",
      "outputs": [
        {
          "internalType": "uint256",
          "name": "",
          "type": "uint256"
        }
      ],
      "stateMutability": "view",
      "type": "function"
    },
    {
      "inputs": [
        {
          "internalType": "uint256",
          "name": "spotOnContractId",
          "type": "uint256"
        }
      ],
      "name": "getCollateralAmount",
      "outputs": [
        {
          "internalType": "uint256",
          "name": "",
          "type": "uint256"
        }
      ],
      "stateMutability": "view",
      "type": "function"
    },
    {
      "inputs": [
        {
          "internalType": "uint256",
          "name": "spotOnContractId",
          "type": "uint256"
        }
      ],
      "name": "getCollateralCurrency",
      "outputs": [
        {
          "internalType": "uint256",
          "name": "",
          "type": "uint256"
        }
      ],
      "stateMutability": "view",
      "type": "function"
    },
    {
      "inputs": [
        {
          "internalType": "uint256",
          "name": "spotOnContractId",
          "type": "uint256"
        }
      ],
      "name": "getAmount",
      "outputs": [
        {
          "internalType": "uint256",
          "name": "",
          "type": "uint256"
        }
      ],
      "stateMutability": "view",
      "type": "function"
    },
    {
      "inputs": [
        {
          "internalType": "uint256",
          "name": "spotOnContractId",
          "type": "uint256"
        }
      ],
      "name": "getLoanPeriod",
      "outputs": [
        {
          "internalType": "uint256",
          "name": "",
          "type": "uint256"
        }
      ],
      "stateMutability": "view",
      "type": "function"
    },
    {
      "inputs": [
        {
          "internalType": "uint256",
          "name": "spotOnContractId",
          "type": "uint256"
        }
      ],
      "name": "getInterestRate",
      "outputs": [
        {
          "internalType": "uint256",
          "name": "",
          "type": "uint256"
        }
      ],
      "stateMutability": "view",
      "type": "function"
    },
    {
      "inputs": [
        {
          "internalType": "uint256",
          "name": "spotOnContractId",
          "type": "uint256"
        }
      ],
      "name": "getAcceptableRange",
      "outputs": [
        {
          "internalType": "uint256",
          "name": "",
          "type": "uint256"
        }
      ],
      "stateMutability": "view",
      "type": "function"
    },
    {
      "inputs": [
        {
          "internalType": "uint256",
          "name": "amount",
          "type": "uint256"
        },
        {
          "internalType": "uint256",
          "name": "currency",
          "type": "uint256"
        },
        {
          "internalType": "uint256",
          "name": "acceptableRange",
          "type": "uint256"
        },
        {
          "internalType": "uint256",
          "name": "interestRate",
          "type": "uint256"
        },
        {
          "internalType": "uint256",
          "name": "loanPeriod",
          "type": "uint256"
        },
        {
          "internalType": "uint256",
          "name": "collateral",
          "type": "uint256"
        },
        {
          "internalType": "uint256",
          "name": "collateralCurrency",
          "type": "uint256"
        }
      ],
      "name": "createContract",
      "outputs": [
        {
          "internalType": "uint256",
          "name": "",
          "type": "uint256"
        }
      ],
      "stateMutability": "nonpayable",
      "type": "function"
    },
    {
      "inputs": [
        {
          "internalType": "uint256",
          "name": "spotOnContractId",
          "type": "uint256"
        },
        {
          "internalType": "uint256",
          "name": "startDate",
          "type": "uint256"
        }
      ],
      "name": "setLoanDates",
      "outputs": [],
      "stateMutability": "nonpayable",
      "type": "function"
    },
    {
      "inputs": [
        {
          "internalType": "uint256",
          "name": "spotOnContractId",
          "type": "uint256"
        },
        {
          "internalType": "uint256",
          "name": "startDate",
          "type": "uint256"
        },
        {
          "internalType": "uint256",
          "name": "endDate",
          "type": "uint256"
        },
        {
          "internalType": "uint256",
          "name": "interestRate",
          "type": "uint256"
        },
        {
          "internalType": "uint256",
          "name": "amount",
          "type": "uint256"
        }
      ],
      "name": "setRepaymentAmount",
      "outputs": [],
      "stateMutability": "nonpayable",
      "type": "function"
    },
    {
      "inputs": [
        {
          "internalType": "uint256",
          "name": "spotOnContractId",
          "type": "uint256"
        },
        {
          "internalType": "address",
          "name": "borrowerAddress",
          "type": "address"
        }
      ],
      "name": "setBorrower",
      "outputs": [],
      "stateMutability": "nonpayable",
      "type": "function"
    },
    {
      "inputs": [
        {
          "internalType": "uint256",
          "name": "spotOnContractId",
          "type": "uint256"
        },
        {
          "internalType": "address",
          "name": "lenderAddress",
          "type": "address"
        }
      ],
      "name": "setLender",
      "outputs": [],
      "stateMutability": "nonpayable",
      "type": "function"
    },
    {
      "inputs": [
        {
          "internalType": "uint256",
          "name": "spotOnContractId",
          "type": "uint256"
        },
        {
          "internalType": "uint256",
          "name": "newAmount",
          "type": "uint256"
        }
      ],
      "name": "setAmount",
      "outputs": [],
      "stateMutability": "nonpayable",
      "type": "function"
    },
    {
      "inputs": [
        {
          "internalType": "uint256",
          "name": "spotOnContractId",
          "type": "uint256"
        },
        {
          "internalType": "uint256",
          "name": "collateralAmount",
          "type": "uint256"
        }
      ],
      "name": "addCollateral",
      "outputs": [],
      "stateMutability": "nonpayable",
      "type": "function"
    }
  ],
  "bytecode": "0x60806040526000600155600060025534801561001a57600080fd5b50610b328061002a6000396000f3fe608060405234801561001057600080fd5b506004361061016a576000357c010000000000000000000000000000000000000000000000000000000090048063a8f35adf116100e0578063c25015d611610099578063c25015d614610504578063c6a023e914610527578063d0ce73601461054a578063d31ec57b1461055d578063da235b2214610586578063fd6c4ff81461058c57600080fd5b8063a8f35adf1461047c578063b18884cc1461048f578063b3892d08146104a2578063b38b200f146104b5578063bdc7c12b146104be578063c03b2a78146104e157600080fd5b8063688ac95511610132578063688ac9551461026b5780637fa0a8151461034a57806383529a3a1461036d5780639980ec86146103b157806399d88dda146103d4578063a17aba251461045057600080fd5b80630a28c0b21461016f5780630c196a74146101bd578063139daf80146101f35780635118b8661461023f57806363f5adb514610262575b600080fd5b6101bb61017d366004610938565b600091825260036020526040909120600a01805473ffffffffffffffffffffffffffffffffffffffff1916600160a060020a03909216919091179055565b005b6101e06101cb366004610974565b60009081526003602052604090206006015490565b6040519081526020015b60405180910390f35b6101bb610201366004610938565b600091825260036020526040909120600b01805473ffffffffffffffffffffffffffffffffffffffff1916600160a060020a03909216919091179055565b6101e061024d366004610974565b60009081526003602052604090206001015490565b6101e060015481565b6102e5610279366004610974565b600460208190526000918252604090912080546001820154600283015460038401549484015460058501546006860154600787015460088801546009890154600a8a0154600b909a0154989a97999698959694959394929391929091600160a060020a0391821691168c565b604080519c8d5260208d019b909b52998b019890985260608a0196909652608089019490945260a088019290925260c087015260e0860152610100850152610120840152600160a060020a0390811661014084015216610160820152610180016101ea565b6101e0610358366004610974565b60009081526003602052604090206005015490565b61039961037b366004610974565b6000908152600360205260409020600b0154600160a060020a031690565b604051600160a060020a0390911681526020016101ea565b6101e06103bf366004610974565b60009081526003602052604090206002015490565b6102e56103e2366004610974565b600360208190526000918252604090912080546001820154600283015493830154600484015460058501546006860154600787015460088801546009890154600a8a0154600b909a0154989a979997989697959694959394929391929091600160a060020a0390811691168c565b61039961045e366004610974565b6000908152600360205260409020600a0154600160a060020a031690565b6101bb61048a36600461098d565b6105af565b6101e061049d3660046109af565b6105d9565b6101bb6104b03660046109fb565b61077f565b6101e060025481565b6101e06104cc366004610974565b60009081526003602052604090206007015490565b6101e06104ef366004610974565b60009081526003602052604090206004015490565b6101e0610512366004610974565b60009081526003602052604090206008015490565b6101bb61053536600461098d565b60009182526003602052604090912060020155565b6101bb610558366004610974565b61080e565b61039961056b366004610974565b600090815260208190526040902054600160a060020a031690565b426101e0565b6101bb61059a36600461098d565b60009182526003602052604090912060090155565b600082815260036020526040812060070180548392906105d0908490610a65565b90915550505050565b60018054600091829190826105ed83610a7e565b91905055905060006040518061018001604052808381526020018a81526020018b815260200160008152602001898152602001878152602001888152602001868152602001858152602001600081526020016000600160a060020a031681526020016000600160a060020a031681525090508060036000848152602001908152602001600020600082015181600001556020820151816001015560408201518160020155606082015181600301556080820151816004015560a0820151816005015560c0820151816006015560e082015181600701556101008201518160080155610120820151816009015561014082015181600a0160006101000a815481600160a060020a030219169083600160a060020a0316021790555061016082015181600b0160006101000a815481600160a060020a030219169083600160a060020a031602179055509050503060008084815260200190815260200160002060006101000a815481600160a060020a030219169083600160a060020a031602179055508192505050979650505050505050565b60006201518061078f8686610a97565b6107999190610aaa565b905060006107a8601e83610aaa565b9050838360005b838110156107ec576127106107c48482610a65565b6107ce9088610ae5565b6107d89190610aaa565b9150806107e481610a7e565b9150506107af565b5060009889526003602081905260409099209098019790975550505050505050565b6000818152600360208181526040808420600480845291852081548155600180830180549183019190915560028084018054828501558488018054858a01558686018054978601979097556005808701805491870191909155600680880180549188019190915560078089018054918901919091556008808a018054918a01919091556009808b018054918b0191909155600a808c018054918c01805473ffffffffffffffffffffffffffffffffffffffff19908116600160a060020a0394851617909155600b808f01805491909e018054831691909416179092559e909d52998e9055968d9055938c9055918b9055968a90559589905594889055938790558690559085905583548316909355825490911690915580549161093083610a7e565b919050555050565b6000806040838503121561094b57600080fd5b823591506020830135600160a060020a038116811461096957600080fd5b809150509250929050565b60006020828403121561098657600080fd5b5035919050565b600080604083850312156109a057600080fd5b50508035926020909101359150565b600080600080600080600060e0888a0312156109ca57600080fd5b505085359760208701359750604087013596606081013596506080810135955060a0810135945060c0013592509050565b600080600080600060a08688031215610a1357600080fd5b505083359560208501359550604085013594606081013594506080013592509050565b7f4e487b7100000000000000000000000000000000000000000000000000000000600052601160045260246000fd5b80820180821115610a7857610a78610a36565b92915050565b600060018201610a9057610a90610a36565b5060010190565b81810381811115610a7857610a78610a36565b600082610ae0577f4e487b7100000000000000000000000000000000000000000000000000000000600052601260045260246000fd5b500490565b8082028115828204841417610a7857610a78610a3656fea264697066735822122033819377dbeea34ecccdf234d0e9a264fb837af1bedd80efc4abe47dff35e1f464736f6c63430008110033",
  "immutableReferences": {},
  "source": "// SPDX-License-Identifier: MIT\r\npragma solidity >= 0.5.0;\r\n\r\n\r\ncontract SpotOnContract {\r\n    struct spotOnContract {\r\n        uint256 spotOnContractId;\r\n        uint256 currency; \r\n        uint256 amount;\r\n        uint256 repaymentAmount;\r\n        uint256 acceptableRange;\r\n        uint256 loadPeriod;\r\n        uint256 interestRate; //monthly interest rate\r\n        uint256 collateral;\r\n        uint256 collateralCurrency;\r\n        uint256 startDate;\r\n        address borrower;\r\n        address lender;  \r\n    }\r\n    mapping(uint256 => address) spotOnContractAddress;\r\n    uint256 public numOfContracts = 0;\r\n    uint256 public numOfClosedContracts = 0;\r\n    mapping(uint256 => spotOnContract) public activeSpotOnContracts; // tracks all active spotOnContracts\r\n    mapping(uint256 => spotOnContract) public closedSpotOnContracts; //tracks all closed spotOnContracts\r\n\r\n    function closeContract(uint256 spotOnContractId) public {\r\n        closedSpotOnContracts[spotOnContractId] = activeSpotOnContracts[spotOnContractId];\r\n        delete activeSpotOnContracts[spotOnContractId];\r\n        numOfClosedContracts++;\r\n    }\r\n\r\n    function getSpotOnContractAddress(uint256 spotOnContractId) public view returns(address) {\r\n        return spotOnContractAddress[spotOnContractId];\r\n    }\r\n\r\n    function getSpotOnLender(uint256 spotOnContractId) public view returns(address) {\r\n        return activeSpotOnContracts[spotOnContractId].lender;\r\n    }\r\n\r\n    function getSpotOnBorrower(uint256 spotOnContractId) public view returns(address) {\r\n        return activeSpotOnContracts[spotOnContractId].borrower;\r\n    }\r\n\r\n    function getTimeStamp() public view returns(uint) {\r\n        return block.timestamp;\r\n    }\r\n\r\n    function getCurrencyType(uint256 spotOnContractId) public view returns(uint256) {\r\n        return activeSpotOnContracts[spotOnContractId].currency;\r\n    }\r\n\r\n    function getCollateralAmount(uint256 spotOnContractId) public view returns(uint256) {\r\n        return activeSpotOnContracts[spotOnContractId].collateral;\r\n    }\r\n\r\n    function getCollateralCurrency(uint256 spotOnContractId) public view returns(uint256) {\r\n        return activeSpotOnContracts[spotOnContractId].collateralCurrency;\r\n    }\r\n\r\n    function getAmount(uint256 spotOnContractId) public view returns(uint256) {\r\n        return activeSpotOnContracts[spotOnContractId].amount;\r\n    }\r\n\r\n    function getLoanPeriod(uint256 spotOnContractId) public view returns(uint256) {\r\n        return activeSpotOnContracts[spotOnContractId].loadPeriod;\r\n    }\r\n\r\n    function getInterestRate(uint256 spotOnContractId) public view returns(uint256) {\r\n        return activeSpotOnContracts[spotOnContractId].interestRate;\r\n    }\r\n\r\n    function getAcceptableRange(uint256 spotOnContractId) public view returns(uint256) {\r\n        return activeSpotOnContracts[spotOnContractId].acceptableRange;\r\n    }\r\n\r\n    function createContract(\r\n        uint256 amount,\r\n        uint256 currency,\r\n        uint256 acceptableRange,\r\n        uint256 interestRate,\r\n        uint256 loanPeriod,\r\n        uint256 collateral,\r\n        uint256 collateralCurrency\r\n    ) public returns(uint256) {\r\n        uint spotOnContractId = numOfContracts++;\r\n        spotOnContract memory newSpotOnContract = spotOnContract(\r\n            spotOnContractId,\r\n            currency,\r\n            amount,\r\n            0,\r\n            acceptableRange,\r\n            loanPeriod,\r\n            interestRate,\r\n            collateral,\r\n            collateralCurrency,\r\n            0,\r\n            address(0),\r\n            address(0)\r\n        );\r\n        activeSpotOnContracts[spotOnContractId] = newSpotOnContract;\r\n        spotOnContractAddress[spotOnContractId] = address(this);\r\n        return spotOnContractId;\r\n    }\r\n\r\n    //function set loan start and end date\r\n    function setLoanDates(uint256 spotOnContractId, uint256 startDate) public {\r\n        activeSpotOnContracts[spotOnContractId].startDate = startDate;\r\n    }\r\n\r\n    //function set repaymentAmount\r\n    function setRepaymentAmount(uint256 spotOnContractId, uint256 startDate, uint256 endDate, uint256 interestRate, uint256 amount) public {\r\n        uint256 daysBetween = (endDate - startDate) / 86400; // Number of seconds in a day\r\n        uint256 monthsBetween = daysBetween / 30; // Approximate number of months between the dates\r\n        uint256 interestRatePerMonth = interestRate;\r\n        uint256 totalAmountDue = amount;\r\n        for (uint256 i = 0; i < monthsBetween; i++) {\r\n            totalAmountDue = (amount * (10000 + interestRatePerMonth)) / 10000; // Compounding interest monthly\r\n        }\r\n        activeSpotOnContracts[spotOnContractId].repaymentAmount = totalAmountDue;\r\n    }\r\n\r\n    function setBorrower(uint256 spotOnContractId, address borrowerAddress) public {\r\n        activeSpotOnContracts[spotOnContractId].borrower = borrowerAddress;\r\n    }\r\n\r\n    function setLender(uint256 spotOnContractId, address lenderAddress) public {\r\n        activeSpotOnContracts[spotOnContractId].lender = lenderAddress;\r\n    }\r\n\r\n    function setAmount(uint256 spotOnContractId, uint256 newAmount) public {\r\n        activeSpotOnContracts[spotOnContractId].amount = newAmount;\r\n    }\r\n\r\n    function addCollateral(uint256 spotOnContractId, uint256 collateralAmount) public {\r\n        activeSpotOnContracts[spotOnContractId].collateral += collateralAmount;\r\n    }\r\n\r\n}\r\n",
  "sourcePath": "C:\\Documents\\NUS\\NUS Mods\\IS4302\\DeBank\\contracts\\SpotOnContract.sol",
  "compiler": {
    "name": "solc",
    "version": "0.8.17+commit.8df45f5f.Emscripten.clang"
  },
  "schemaVersion": "3.4.11",
  "updatedAt": "2023-04-09T05:21:59.380Z",
  "devdoc": {
    "kind": "dev",
    "methods": {},
    "version": 1
  },
  "userdoc": {
    "kind": "user",
    "methods": {},
    "version": 1
  }
}