{
  "contractName": "SpotOn",
  "abi": [
    {
      "inputs": [
        {
          "internalType": "contract SpotOnContract",
          "name": "spotOnContractAddress",
          "type": "address"
        },
        {
          "internalType": "contract Cro",
          "name": "croContractAddress",
          "type": "address"
        },
        {
          "internalType": "contract Shib",
          "name": "shibContractAddress",
          "type": "address"
        },
        {
          "internalType": "contract Uni",
          "name": "uniContractAddress",
          "type": "address"
        },
        {
          "internalType": "contract Debank",
          "name": "debankAddress",
          "type": "address"
        }
      ],
      "stateMutability": "payable",
      "type": "constructor"
    },
    {
      "anonymous": false,
      "inputs": [
        {
          "indexed": false,
          "internalType": "string",
          "name": "addCollateral",
          "type": "string"
        }
      ],
      "name": "Log",
      "type": "event"
    },
    {
      "anonymous": false,
      "inputs": [
        {
          "indexed": false,
          "internalType": "uint256",
          "name": "spotOnContractId",
          "type": "uint256"
        },
        {
          "indexed": false,
          "internalType": "uint256",
          "name": "collateralAmount",
          "type": "uint256"
        }
      ],
      "name": "MarginCallTriggered",
      "type": "event"
    },
    {
      "anonymous": false,
      "inputs": [
        {
          "indexed": false,
          "internalType": "uint256",
          "name": "choiceOfCurrency",
          "type": "uint256"
        },
        {
          "indexed": false,
          "internalType": "uint256",
          "name": "amount",
          "type": "uint256"
        }
      ],
      "name": "Transferred",
      "type": "event"
    },
    {
      "anonymous": false,
      "inputs": [
        {
          "indexed": false,
          "internalType": "uint256",
          "name": "spotOnContractId",
          "type": "uint256"
        }
      ],
      "name": "loanOffered",
      "type": "event"
    },
    {
      "anonymous": false,
      "inputs": [
        {
          "indexed": false,
          "internalType": "uint256",
          "name": "spotOnContractId",
          "type": "uint256"
        }
      ],
      "name": "loanRequested",
      "type": "event"
    },
    {
      "anonymous": false,
      "inputs": [
        {
          "indexed": false,
          "internalType": "uint256",
          "name": "spotOnContractId",
          "type": "uint256"
        }
      ],
      "name": "loanTaken",
      "type": "event"
    },
    {
      "inputs": [],
      "name": "numOfLoans",
      "outputs": [
        {
          "internalType": "uint256",
          "name": "",
          "type": "uint256"
        }
      ],
      "stateMutability": "view",
      "type": "function"
    },
    {
      "inputs": [
        {
          "internalType": "uint256",
          "name": "",
          "type": "uint256"
        }
      ],
      "name": "spotOnContracts",
      "outputs": [
        {
          "internalType": "contract SpotOnContract",
          "name": "",
          "type": "address"
        }
      ],
      "stateMutability": "view",
      "type": "function"
    },
    {
      "inputs": [
        {
          "internalType": "uint256",
          "name": "amount",
          "type": "uint256"
        },
        {
          "internalType": "uint256",
          "name": "currency",
          "type": "uint256"
        },
        {
          "internalType": "uint256",
          "name": "acceptableRange",
          "type": "uint256"
        },
        {
          "internalType": "uint256",
          "name": "interestRate",
          "type": "uint256"
        },
        {
          "internalType": "uint256",
          "name": "loanPeriod",
          "type": "uint256"
        },
        {
          "internalType": "uint256",
          "name": "collateral",
          "type": "uint256"
        },
        {
          "internalType": "uint256",
          "name": "collateralCurrency",
          "type": "uint256"
        }
      ],
      "name": "requestLoan",
      "outputs": [
        {
          "internalType": "uint256",
          "name": "",
          "type": "uint256"
        }
      ],
      "stateMutability": "payable",
      "type": "function"
    },
    {
      "inputs": [
        {
          "internalType": "string",
          "name": "currencyType",
          "type": "string"
        }
      ],
      "name": "addCurrency",
      "outputs": [],
      "stateMutability": "nonpayable",
      "type": "function"
    },
    {
      "inputs": [
        {
          "internalType": "uint256",
          "name": "spotOnContractId",
          "type": "uint256"
        },
        {
          "internalType": "uint256",
          "name": "newAmount",
          "type": "uint256"
        }
      ],
      "name": "editAmount",
      "outputs": [],
      "stateMutability": "nonpayable",
      "type": "function"
    },
    {
      "inputs": [
        {
          "internalType": "uint256",
          "name": "spotOnContractId",
          "type": "uint256"
        }
      ],
      "name": "takeOnLoan",
      "outputs": [],
      "stateMutability": "payable",
      "type": "function"
    },
    {
      "inputs": [
        {
          "internalType": "uint256",
          "name": "spotOnContractId",
          "type": "uint256"
        }
      ],
      "name": "transferAmount",
      "outputs": [],
      "stateMutability": "nonpayable",
      "type": "function"
    },
    {
      "inputs": [
        {
          "internalType": "uint256",
          "name": "spotOnContractId",
          "type": "uint256"
        }
      ],
      "name": "triggerMarginCall",
      "outputs": [],
      "stateMutability": "nonpayable",
      "type": "function"
    },
    {
      "inputs": [
        {
          "internalType": "uint256",
          "name": "spotOnContractId",
          "type": "uint256"
        }
      ],
      "name": "liquidateCollateral",
      "outputs": [],
      "stateMutability": "nonpayable",
      "type": "function"
    },
    {
      "inputs": [
        {
          "internalType": "uint256",
          "name": "spotOnContractId",
          "type": "uint256"
        },
        {
          "internalType": "uint256",
          "name": "amount",
          "type": "uint256"
        }
      ],
      "name": "addCollateral",
      "outputs": [],
      "stateMutability": "nonpayable",
      "type": "function"
    },
    {
      "inputs": [
        {
          "internalType": "uint256",
          "name": "amount",
          "type": "uint256"
        },
        {
          "internalType": "uint256",
          "name": "currency",
          "type": "uint256"
        },
        {
          "internalType": "uint256",
          "name": "acceptableRange",
          "type": "uint256"
        },
        {
          "internalType": "uint256",
          "name": "interestRate",
          "type": "uint256"
        },
        {
          "internalType": "uint256",
          "name": "loanPeriod",
          "type": "uint256"
        },
        {
          "internalType": "uint256",
          "name": "collateral",
          "type": "uint256"
        },
        {
          "internalType": "uint256",
          "name": "collateralCurrency",
          "type": "uint256"
        }
      ],
      "name": "offerLoan",
      "outputs": [
        {
          "internalType": "uint256",
          "name": "",
          "type": "uint256"
        }
      ],
      "stateMutability": "nonpayable",
      "type": "function"
    },
    {
      "inputs": [
        {
          "internalType": "uint256",
          "name": "choiceOfCurrency",
          "type": "uint256"
        },
        {
          "internalType": "uint256",
          "name": "amount",
          "type": "uint256"
        },
        {
          "internalType": "uint256",
          "name": "spotOnContractId",
          "type": "uint256"
        }
      ],
      "name": "depositCollateral",
      "outputs": [],
      "stateMutability": "nonpayable",
      "type": "function"
    },
    {
      "inputs": [],
      "name": "getTimeStamp",
      "outputs": [
        {
          "internalType": "uint256",
          "name": "",
          "type": "uint256"
        }
      ],
      "stateMutability": "view",
      "type": "function"
    }
  ],
  "bytecode": "0x60806040526040516200001290620000d9565b604051809103906000f0801580156200002f573d6000803e3d6000fd5b5060048054600160a060020a03928316600160a060020a03199182161790915560068054808316908416179055600780549182169190921617905560006009819055600a55604051620025fa38819003908190833981016040819052620000969162000100565b505060008054600160a060020a03948516600160a060020a0319918216179091556002805482163317905560058054939094169216919091179091555062000180565b61010c80620024ee83390190565b600160a060020a0381168114620000fd57600080fd5b50565b600080600080600060a086880312156200011957600080fd5b85516200012681620000e7565b60208701519095506200013981620000e7565b60408701519094506200014c81620000e7565b60608701519093506200015f81620000e7565b60808701519092506200017281620000e7565b809150509295509295909350565b61235e80620001906000396000f3fe6080604052600436106100de576000357c0100000000000000000000000000000000000000000000000000000000900480637ac551a81161009c578063c2384f5911610076578063c2384f5914610201578063c388836114610221578063da235b221461026f578063ef7179981461028257600080fd5b80637ac551a8146101ae578063a1d0a48f146101c1578063a8f35adf146101e157600080fd5b8062a9dd1e146100e35780633938ccdf1461010557806343362da31461012557806355574c9b1461014e5780635cc926551461016e578063609b99211461018e575b600080fd5b3480156100ef57600080fd5b506101036100fe366004611ef1565b610295565b005b34801561011157600080fd5b50610103610120366004611ef1565b6105ed565b34801561013157600080fd5b5061013b60095481565b6040519081526020015b60405180910390f35b34801561015a57600080fd5b50610103610169366004611ef1565b610920565b34801561017a57600080fd5b5061013b610189366004611f0a565b610d0d565b34801561019a57600080fd5b506101036101a9366004611f56565b610f14565b6101036101bc366004611ef1565b6110c2565b3480156101cd57600080fd5b506101036101dc366004611f91565b611677565b3480156101ed57600080fd5b506101036101fc366004611f56565b6116ab565b34801561020d57600080fd5b5061010361021c366004612042565b611725565b34801561022d57600080fd5b5061025761023c366004611ef1565b600860205260009081526040902054600160a060020a031681565b604051600160a060020a039091168152602001610145565b34801561027b57600080fd5b504261013b565b61013b610290366004611f0a565b611cf0565b6000805460405160e160020a634cc0764302815260048101849052600160a060020a0390911690639980ec8690602401602060405180830381865afa1580156102e2573d6000803e3d6000fd5b505050506040513d601f19601f82011682018060405250810190610306919061206e565b600080546040517f5118b866000000000000000000000000000000000000000000000000000000008152600481018690529293509091600160a060020a0390911690635118b86690602401602060405180830381865afa15801561036e573d6000803e3d6000fd5b505050506040513d601f19601f82011682018060405250810190610392919061206e565b600080546040517fbdc7c12b000000000000000000000000000000000000000000000000000000008152600481018790529293509091600160a060020a039091169063bdc7c12b90602401602060405180830381865afa1580156103fa573d6000803e3d6000fd5b505050506040513d601f19601f8201168201806040525081019061041e919061206e565b600080546040517fc25015d6000000000000000000000000000000000000000000000000000000008152600481018890529293509091600160a060020a039091169063c25015d690602401602060405180830381865afa158015610486573d6000803e3d6000fd5b505050506040513d601f19601f820116820180604052508101906104aa919061206e565b6001546040517fa5a85e7f00000000000000000000000000000000000000000000000000000000815260048101869052602481018790526044810183905260648101859052919250600091600160a060020a039091169063a5a85e7f90608401602060405180830381865afa158015610527573d6000803e3d6000fd5b505050506040513d601f19601f8201168201806040525081019061054b919061206e565b905061055960156014611e52565b811161056d57610568866105ed565b6105e5565b61057960036002611e52565b81116105e5577fcf34ef537ac33ee1ac626ca1587a0a7e8e51561e5514f8cb36afa1c5102b3bab6040516105dc906020808252818101527f506c6561736520616464206f6e20746f20796f757220636f6c6c61746572616c604082015260600190565b60405180910390a15b505050505050565b6000805460405160e160020a6341a94d1d0281526004810184905230319291600160a060020a0316906383529a3a90602401602060405180830381865afa15801561063c573d6000803e3d6000fd5b505050506040513d601f19601f820116820180604052508101906106609190612087565b600080546040517fc25015d6000000000000000000000000000000000000000000000000000000008152600481018790529293509091600160a060020a039091169063c25015d690602401602060405180830381865afa1580156106c8573d6000803e3d6000fd5b505050506040513d601f19601f820116820180604052508101906106ec919061206e565b600080546040517fbdc7c12b000000000000000000000000000000000000000000000000000000008152600481018890529293509091600160a060020a039091169063bdc7c12b90602401602060405180830381865afa158015610754573d6000803e3d6000fd5b505050506040513d601f19601f82011682018060405250810190610778919061206e565b9050816000036107f15760055460405160e160020a6320933257028152600160a060020a038581166004830152602482018490529091169063412664ae906044015b600060405180830381600087803b1580156107d457600080fd5b505af11580156107e8573d6000803e3d6000fd5b505050506108df565b81600103610851576006546040517f2fdcfbd2000000000000000000000000000000000000000000000000000000008152306004820152600160a060020a0385811660248301526044820184905290911690632fdcfbd2906064016107ba565b816002036108df576007546040517f2fdcfbd2000000000000000000000000000000000000000000000000000000008152306004820152600160a060020a0385811660248301526044820184905290911690632fdcfbd290606401600060405180830381600087803b1580156108c657600080fd5b505af11580156108da573d6000803e3d6000fd5b505050505b60408051868152602081018690527f8c0256fa1145c0f31b07101b4f02878945534996f6aacccb9790f40c1145761891015b60405180910390a15050505050565b6000805460405160e160020a6341a94d1d02815260048101849052600160a060020a03909116906383529a3a90602401602060405180830381865afa15801561096d573d6000803e3d6000fd5b505050506040513d601f19601f820116820180604052508101906109919190612087565b905033600160a060020a03821614610a185760405160e560020a62461bcd028152602060048201526024808201527f6f6e6c79206c656e6465722063616e207472616e7366657220746f20626f727260448201527f6f7765720000000000000000000000000000000000000000000000000000000060648201526084015b60405180910390fd5b6000805460405160e060020a63a17aba2502815260048101859052600160a060020a039091169063a17aba2590602401602060405180830381865afa158015610a65573d6000803e3d6000fd5b505050506040513d601f19601f82011682018060405250810190610a899190612087565b6000805460405160e160020a634cc07643028152600481018790529293509091600160a060020a0390911690639980ec8690602401602060405180830381865afa158015610adb573d6000803e3d6000fd5b505050506040513d601f19601f82011682018060405250810190610aff919061206e565b600080546040517f5118b866000000000000000000000000000000000000000000000000000000008152600481018890529293509091600160a060020a0390911690635118b86690602401602060405180830381865afa158015610b67573d6000803e3d6000fd5b505050506040513d601f19601f82011682018060405250810190610b8b919061206e565b905080600003610c2c5760055460405160e160020a6320933257028152600160a060020a038581166004830152602482018590529091169063412664ae906044015b600060405180830381600087803b158015610be757600080fd5b505af1158015610bfb573d6000803e3d6000fd5b50506040805184815260208101869052600080516020612309833981519152935001905060405180910390a1610d06565b80600103610c705760065460405160e160020a6320933257028152600160a060020a038581166004830152602482018590529091169063412664ae90604401610bcd565b80600203610d065760075460405160e160020a6320933257028152600160a060020a038581166004830152602482018590529091169063412664ae90604401600060405180830381600087803b158015610cc957600080fd5b505af1158015610cdd573d6000803e3d6000fd5b505060408051848152602081018690526000805160206123098339815191529350019050610911565b5050505050565b60006002610d1c8960036120c9565b610d2691906120e0565b831015610d9e5760405160e560020a62461bcd02815260206004820152603360248201527f636f6c6c61746572616c206d757374206265206174206c6561737420312e352060448201527f74696d6573206f662074686520616d6f756e74000000000000000000000000006064820152608401610a0f565b600080546040517fb18884cc000000000000000000000000000000000000000000000000000000008152600481018b9052602481018a905260448101899052606481018790526084810188905260a4810186905260c48101859052600160a060020a039091169063b18884cc9060e4016020604051808303816000875af1158015610e2d573d6000803e3d6000fd5b505050506040513d601f19601f82011682018060405250810190610e51919061206e565b6000546040517f139daf8000000000000000000000000000000000000000000000000000000000815260048101839052336024820152919250600160a060020a03169063139daf8090604401600060405180830381600087803b158015610eb757600080fd5b505af1158015610ecb573d6000803e3d6000fd5b505050507fdda768f34386e6f0b0c5347aab8c044173b7170f7534adcb5c7e624b113a422481604051610f0091815260200190565b60405180910390a198975050505050505050565b600080546040517fc03b2a7800000000000000000000000000000000000000000000000000000000815260048101859052600160a060020a039091169063c03b2a7890602401602060405180830381865afa158015610f77573d6000803e3d6000fd5b505050506040513d601f19601f82011682018060405250810190610f9b919061206e565b6000805460405160e160020a634cc07643028152600481018790529293509091600160a060020a0390911690639980ec8690602401602060405180830381865afa158015610fed573d6000803e3d6000fd5b505050506040513d601f19601f82011682018060405250810190611011919061206e565b90508261101e8383612105565b1115801561103557506110318282612118565b8311155b61103e57600080fd5b6000546040517fc6a023e90000000000000000000000000000000000000000000000000000000081526004810186905260248101859052600160a060020a039091169063c6a023e990604401600060405180830381600087803b1580156110a457600080fd5b505af11580156110b8573d6000803e3d6000fd5b5050505050505050565b6000805460405160e060020a63a17aba2502815260048101849052600160a060020a039091169063a17aba2590602401602060405180830381865afa15801561110f573d6000803e3d6000fd5b505050506040513d601f19601f820116820180604052508101906111339190612087565b600160a060020a031614806111bf57506000805460405160e160020a6341a94d1d02815260048101849052600160a060020a03909116906383529a3a90602401602060405180830381865afa158015611190573d6000803e3d6000fd5b505050506040513d601f19601f820116820180604052508101906111b49190612087565b600160a060020a0316145b6111c857600080fd5b6000805460405160e060020a63a17aba2502815260048101849052600160a060020a039091169063a17aba2590602401602060405180830381865afa158015611215573d6000803e3d6000fd5b505050506040513d601f19601f820116820180604052508101906112399190612087565b600160a060020a0316036112c5576000546040517f0a28c0b200000000000000000000000000000000000000000000000000000000815260048101839052336024820152600160a060020a0390911690630a28c0b290604401600060405180830381600087803b1580156112ac57600080fd5b505af11580156112c0573d6000803e3d6000fd5b505050505b6000805460405160e160020a6341a94d1d02815260048101849052600160a060020a03909116906383529a3a90602401602060405180830381865afa158015611312573d6000803e3d6000fd5b505050506040513d601f19601f820116820180604052508101906113369190612087565b600160a060020a0316036113c2576000546040517f139daf8000000000000000000000000000000000000000000000000000000000815260048101839052336024820152600160a060020a039091169063139daf8090604401600060405180830381600087803b1580156113a957600080fd5b505af11580156113bd573d6000803e3d6000fd5b505050505b600042600080546040517f7fa0a815000000000000000000000000000000000000000000000000000000008152600481018690529293509091600160a060020a0390911690637fa0a81590602401602060405180830381865afa15801561142d573d6000803e3d6000fd5b505050506040513d601f19601f82011682018060405250810190611451919061206e565b9050600061145f8284612118565b6000546040517ffd6c4ff80000000000000000000000000000000000000000000000000000000081526004810187905260248101869052919250600160a060020a03169063fd6c4ff890604401600060405180830381600087803b1580156114c657600080fd5b505af11580156114da573d6000803e3d6000fd5b50506000805460405160e160020a634cc0764302815260048101899052919350600160a060020a03169150639980ec8690602401602060405180830381865afa15801561152b573d6000803e3d6000fd5b505050506040513d601f19601f8201168201806040525081019061154f919061206e565b600080546040517f0c196a74000000000000000000000000000000000000000000000000000000008152600481018990529293509091600160a060020a0390911690630c196a7490602401602060405180830381865afa1580156115b7573d6000803e3d6000fd5b505050506040513d601f19601f820116820180604052508101906115db919061206e565b6000546040517fb3892d080000000000000000000000000000000000000000000000000000000081526004810189905260248101889052604481018690526064810183905260848101859052919250600160a060020a03169063b3892d089060a401600060405180830381600087803b15801561165757600080fd5b505af115801561166b573d6000803e3d6000fd5b50505050505050505050565b600a80549060006116878361212b565b9091555050600a5460009081526003602052604090206116a782826121cc565b5050565b6000546040517fa8f35adf0000000000000000000000000000000000000000000000000000000081526004810184905260248101839052600160a060020a039091169063a8f35adf90604401600060405180830381600087803b15801561171157600080fd5b505af11580156105e5573d6000803e3d6000fd5b826000805b600a548110156117525780830361174057600191505b8061174a8161212b565b91505061172a565b506001811515146117ce5760405160e560020a62461bcd02815260206004820152602260248201527f5468652043757272656e6379206973206e6f7420737570706f7274656420796560448201527f74210000000000000000000000000000000000000000000000000000000000006064820152608401610a0f565b600084116118215760405160e560020a62461bcd02815260206004820152601660248201527f43616e2774206465706f736974203020746f6b656e73000000000000000000006044820152606401610a0f565b6000805460405160e060020a63a17aba2502815260048101869052600160a060020a039091169063a17aba2590602401602060405180830381865afa15801561186e573d6000803e3d6000fd5b505050506040513d601f19601f820116820180604052508101906118929190612087565b905033600160a060020a038216146118ef5760405160e560020a62461bcd02815260206004820152601960248201527f6f6e6c7920626f72726f7765722063616e206465706f736974000000000000006044820152606401610a0f565b600080546040517fd31ec57b00000000000000000000000000000000000000000000000000000000815260048101879052600160a060020a039091169063d31ec57b90602401602060405180830381865afa158015611952573d6000803e3d6000fd5b505050506040513d601f19601f820116820180604052508101906119769190612087565b905086600003611abd576005546040517f5f5152260000000000000000000000000000000000000000000000000000000081523360048201528791600160a060020a031690635f51522690602401602060405180830381865afa1580156119e1573d6000803e3d6000fd5b505050506040513d601f19601f82011682018060405250810190611a05919061206e565b1015611a265760405160e560020a62461bcd028152600401610a0f90612292565b60055460405160e160020a6320933257028152600160a060020a038381166004830152602482018990529091169063412664ae906044015b600060405180830381600087803b158015611a7857600080fd5b505af1158015611a8c573d6000803e3d6000fd5b5050604080518a8152602081018a9052600080516020612309833981519152935001905060405180910390a1611ce7565b86600103611ba7576006546040517f5f5152260000000000000000000000000000000000000000000000000000000081523360048201528791600160a060020a031690635f51522690602401602060405180830381865afa158015611b26573d6000803e3d6000fd5b505050506040513d601f19601f82011682018060405250810190611b4a919061206e565b1015611b6b5760405160e560020a62461bcd028152600401610a0f90612292565b60065460405160e160020a6320933257028152600160a060020a038381166004830152602482018990529091169063412664ae90604401611a5e565b86600203611ce7576007546040517f5f5152260000000000000000000000000000000000000000000000000000000081523360048201528791600160a060020a031690635f51522690602401602060405180830381865afa158015611c10573d6000803e3d6000fd5b505050506040513d601f19601f82011682018060405250810190611c34919061206e565b1015611c555760405160e560020a62461bcd028152600401610a0f90612292565b60075460405160e160020a6320933257028152600160a060020a038381166004830152602482018990529091169063412664ae90604401600060405180830381600087803b158015611ca657600080fd5b505af1158015611cba573d6000803e3d6000fd5b5050604080518a8152602081018a9052600080516020612309833981519152935001905060405180910390a15b50505050505050565b600080546040517fb18884cc000000000000000000000000000000000000000000000000000000008152600481018a90526024810189905260448101889052606481018790526084810186905260a4810185905260c481018490528291600160a060020a03169063b18884cc9060e4016020604051808303816000875af1158015611d7f573d6000803e3d6000fd5b505050506040513d601f19601f82011682018060405250810190611da3919061206e565b6000546040517f0a28c0b200000000000000000000000000000000000000000000000000000000815260048101839052336024820152919250600160a060020a031690630a28c0b290604401600060405180830381600087803b158015611e0957600080fd5b505af1158015611e1d573d6000803e3d6000fd5b505050507feb3314873b5788471cf6c7f56de3c0fd715abd5ea75eb55e36a2ba9d5ba1037b81604051610f0091815260200190565b6000611e8482611e7e611e66826002611e8b565b611e7887670de0b6b3a7640000611e9d565b90611ed3565b90611e8b565b9392505050565b6000611e8482846120e0565b92915050565b600082600003611eaf57506000611e97565b611eb982846120c9565b905081611ec684836120e0565b14611e9757611e976122ef565b6000611edf8284612118565b905082811015611e9757611e976122ef565b600060208284031215611f0357600080fd5b5035919050565b600080600080600080600060e0888a031215611f2557600080fd5b505085359760208701359750604087013596606081013596506080810135955060a0810135945060c0013592509050565b60008060408385031215611f6957600080fd5b50508035926020909101359150565b60e060020a634e487b7102600052604160045260246000fd5b600060208284031215611fa357600080fd5b813567ffffffffffffffff80821115611fbb57600080fd5b818401915084601f830112611fcf57600080fd5b813581811115611fe157611fe1611f78565b604051601f8201601f19908116603f0116810190838211818310171561200957612009611f78565b8160405282815287602084870101111561202257600080fd5b826020860160208301376000928101602001929092525095945050505050565b60008060006060848603121561205757600080fd5b505081359360208301359350604090920135919050565b60006020828403121561208057600080fd5b5051919050565b60006020828403121561209957600080fd5b8151600160a060020a0381168114611e8457600080fd5b60e060020a634e487b7102600052601160045260246000fd5b8082028115828204841417611e9757611e976120b0565b6000826121005760e060020a634e487b7102600052601260045260246000fd5b500490565b81810381811115611e9757611e976120b0565b80820180821115611e9757611e976120b0565b60006001820161213d5761213d6120b0565b5060010190565b60028104600182168061215857607f821691505b60208210810361217b5760e060020a634e487b7102600052602260045260246000fd5b50919050565b601f8211156121c7576000818152602081206020601f860104810160208610156121a85750805b6020601f860104820191505b818110156105e5578281556001016121b4565b505050565b815167ffffffffffffffff8111156121e6576121e6611f78565b6121fa816121f48454612144565b84612181565b602080601f83116001811461223357600084156122175750858301515b60028086026008870290910a60001904198216178655506105e5565b600085815260208120601f198616915b8281101561226257888601518255948401946001909101908401612243565b508582101561228257878501516008601f88160260020a60001904191681555b5050505050600202600101905550565b60208082526027908201527f496e73756666696369656e7420746f6b656e7320696e20706f6f6c20746f207760408201527f6974686472617700000000000000000000000000000000000000000000000000606082015260800190565b60e060020a634e487b7102600052600160045260246000fdfe386a2715c15d0381e62d31062277a1c3c883a3e5715caafe752168e575c2bb63a26469706673582212203cd159477eaf711182a21050aa53629361e9d4a3dfc3b1a8d368f6fe202584d764736f6c63430008110033608060405234801561001057600080fd5b5060ed8061001f6000396000f3fe6080604052348015600f57600080fd5b5060043610604e577c010000000000000000000000000000000000000000000000000000000060003504633532328481146053578063c7e53925146076575b600080fd5b6074605e366004608f565b6000805460ff191660ff92909216919091179055565b005b6000546040805160ff9092168252519081900360200190f35b60006020828403121560a057600080fd5b813560ff8116811460b057600080fd5b939250505056fea2646970667358221220c5915d80ea5e43f48c505b588c55fbfc681cfc940e4fab421feb89e5e12621e364736f6c63430008110033",
  "immutableReferences": {},
  "source": "// SPDX-License-Identifier: MIT\r\npragma solidity >= 0.5.0;\r\n\r\nimport \"./SpotOnContract.sol\";\r\nimport \"./RNG.sol\";\r\nimport \"./Cro.sol\";\r\nimport \"./Shib.sol\";\r\nimport \"./Uni.sol\";\r\nimport \"./Debank.sol\";\r\n\r\ncontract SpotOn {\r\n    SpotOnContract spot_on_contract;\r\n    Debank de_bank;\r\n    address owner;\r\n    mapping(uint256 => string) currencyTypes;\r\n    RNG r = new RNG();\r\n    Cro cro;\r\n    Shib shib = shib;\r\n    Uni uni = uni;\r\n\r\n    constructor(SpotOnContract spotOnContractAddress,\r\n            Cro croContractAddress,\r\n            Shib shibContractAddress,\r\n            Uni uniContractAddress,\r\n            Debank debankAddress\r\n    ) public payable {\r\n        spot_on_contract = spotOnContractAddress;\r\n        // de_bank = debankAddress;\r\n        owner = msg.sender;\r\n        cro = croContractAddress;\r\n    }\r\n\r\n    event loanRequested (uint256 spotOnContractId);\r\n    event loanOffered (uint256 spotOnContractId);\r\n    event loanTaken (uint256 spotOnContractId);\r\n    event Transferred(uint256 choiceOfCurrency, uint amount);\r\n    event MarginCallTriggered(uint spotOnContractId, uint collateralAmount);\r\n    event Log(string addCollateral);\r\n\r\n    mapping(uint256 => SpotOnContract) public spotOnContracts;  // tracks all loans that have been accepted, to check loanPeriod is valid\r\n    uint256 public numOfLoans = 0;\r\n    uint256 numCurrencyTypes = 0;\r\n\r\n    function requestLoan(\r\n        uint256 amount, \r\n        uint256 currency, \r\n        uint256 acceptableRange, \r\n        uint256 interestRate, \r\n        uint256 loanPeriod, \r\n        uint256 collateral,\r\n        uint256 collateralCurrency) public payable returns (uint256){\r\n        \r\n        // require(collateral >= (amount * 3) / 2, \"collateral must be at least 1.5 times of the amount\");\r\n        // creates new spotOnContract\r\n        uint256 spotOnContractId = spot_on_contract.createContract(\r\n            amount, currency, acceptableRange, interestRate, loanPeriod, collateral, collateralCurrency\r\n        );\r\n        \r\n        spot_on_contract.setBorrower(spotOnContractId, msg.sender);\r\n        emit loanRequested(spotOnContractId);\r\n        return spotOnContractId;\r\n    }\r\n\r\n    function addCurrency(string memory currencyType) public {\r\n        numCurrencyTypes++;\r\n        currencyTypes[numCurrencyTypes] = currencyType;\r\n    }\r\n\r\n    function editAmount(uint256 spotOnContractId, uint256 newAmount) public {\r\n        uint256 acceptableRange = spot_on_contract.getAcceptableRange(spotOnContractId);\r\n        uint256 amount = spot_on_contract.getAmount(spotOnContractId);\r\n        require(amount - acceptableRange <= newAmount && newAmount <= amount + acceptableRange);\r\n        spot_on_contract.setAmount(spotOnContractId, newAmount);\r\n    }\r\n\r\n    function takeOnLoan(uint256 spotOnContractId) public payable {\r\n        require(spot_on_contract.getSpotOnBorrower(spotOnContractId) == address(0) || spot_on_contract.getSpotOnLender(spotOnContractId) == address(0));\r\n\r\n        if (spot_on_contract.getSpotOnBorrower(spotOnContractId) == address(0)) {\r\n            spot_on_contract.setBorrower(spotOnContractId, msg.sender);\r\n        }\r\n\r\n        if (spot_on_contract.getSpotOnLender(spotOnContractId) == address(0)) {\r\n            spot_on_contract.setLender(spotOnContractId, msg.sender);\r\n        }\r\n        //set startDate, repaymentDate\r\n        uint256 timeNow = getTimeStamp();\r\n        uint256 loanPeriod = spot_on_contract.getLoanPeriod(spotOnContractId);\r\n        uint256 repaymentDate = timeNow + loanPeriod;\r\n        spot_on_contract.setLoanDates(spotOnContractId, timeNow);\r\n\r\n        //set repaymentAmount\r\n        uint256 amount = spot_on_contract.getAmount(spotOnContractId);\r\n        uint256 interestRate = spot_on_contract.getInterestRate(spotOnContractId);\r\n        spot_on_contract.setRepaymentAmount(spotOnContractId, timeNow, repaymentDate , interestRate, amount);\r\n        \r\n    }\r\n\r\n\r\n    function transferAmount(uint256 spotOnContractId) public {\r\n        address lender = spot_on_contract.getSpotOnLender(spotOnContractId);\r\n        require (msg.sender == lender , \"only lender can transfer to borrower\");\r\n        address borrower = spot_on_contract.getSpotOnBorrower(spotOnContractId);\r\n        uint256 amount = spot_on_contract.getAmount(spotOnContractId);\r\n        uint256 choiceOfCurrency = spot_on_contract.getCurrencyType(spotOnContractId);\r\n        if(choiceOfCurrency == 0) { //choiceOfCurrency == 0 \r\n            // require(cro.checkBalance(address(this)) >= amount, \"Insufficient tokens in pool to withdraw\");\r\n            cro.sendToken(borrower, amount);\r\n            emit Transferred(choiceOfCurrency, amount);\r\n        } else if(choiceOfCurrency == 1) {\r\n            // require(shib.checkBalance(address(this)) >= amount, \"Insufficient tokens in pool to withdraw\");\r\n            shib.sendToken(borrower, amount);\r\n            emit Transferred(choiceOfCurrency, amount);\r\n        } else if(choiceOfCurrency == 2) {\r\n            // require(uni.checkBalance(address(this)) >= amount, \"Insufficient tokens in pool to withdraw\");\r\n            uni.sendToken(borrower, amount);\r\n            emit Transferred(choiceOfCurrency, amount);\r\n        } \r\n    }\r\n\r\n\r\n    function triggerMarginCall (uint256 spotOnContractId) public {\r\n        uint256 amount = spot_on_contract.getAmount(spotOnContractId);\r\n        uint256 currencyType = spot_on_contract.getCurrencyType(spotOnContractId);\r\n        uint256 collateralAmount = spot_on_contract.getCollateralAmount(spotOnContractId);\r\n        uint256 collateralCurrency = spot_on_contract.getCollateralCurrency(spotOnContractId);\r\n        \r\n        uint256 ratio = de_bank.returnRatio(currencyType, amount, collateralCurrency, collateralAmount);\r\n\r\n        if (ratio <= DSMath.wdiv(21, 20)) {\r\n            liquidateCollateral(spotOnContractId);\r\n        } else if (ratio <= DSMath.wdiv(3,2)) {\r\n            emit Log(\"Please add on to your collateral\");\r\n        }\r\n    }\r\n\r\n    function liquidateCollateral(uint256 spotOnContractId) public {\r\n        uint256 recoverCollateral = address(this).balance;\r\n        address lender = spot_on_contract.getSpotOnLender(spotOnContractId);\r\n\r\n        uint256 collateralCurrency = spot_on_contract.getCollateralCurrency(spotOnContractId);\r\n        uint256 collateralAmount = spot_on_contract.getCollateralAmount(spotOnContractId);\r\n        if (collateralCurrency == 0) {\r\n            cro.sendToken(lender, collateralAmount);\r\n        } else if (collateralCurrency == 1) {\r\n            shib.sendToken(address(this), lender, collateralAmount);\r\n        } else if (collateralCurrency == 2) {\r\n            uni.sendToken(address(this), lender, collateralAmount);\r\n        } \r\n        emit MarginCallTriggered(spotOnContractId, recoverCollateral);\r\n    }\r\n\r\n    function addCollateral(uint256 spotOnContractId, uint256 amount) public {\r\n        spot_on_contract.addCollateral(spotOnContractId, amount);\r\n    }\r\n\r\n    function offerLoan(\r\n        uint256 amount, \r\n        uint256 currency, \r\n        uint256 acceptableRange, \r\n        uint256 interestRate, \r\n        uint256 loanPeriod, \r\n        uint256 collateral,\r\n        uint256 collateralCurrency) public returns (uint256){\r\n\r\n        require(collateral >= (amount * 3) / 2, \"collateral must be at least 1.5 times of the amount\");\r\n        uint256 spotOnContractId = spot_on_contract.createContract(\r\n            amount, currency, acceptableRange, loanPeriod, interestRate, collateral, collateralCurrency\r\n        );\r\n\r\n        spot_on_contract.setLender(spotOnContractId, msg.sender);\r\n        emit loanOffered(spotOnContractId);(spotOnContractId);\r\n        return spotOnContractId;\r\n    }\r\n\r\n\r\n    modifier isValidCurrency(uint256 currencyType) {\r\n        bool isValid = false;\r\n        for (uint i = 0; i < numCurrencyTypes ; i++) {\r\n            if(currencyType == i) {\r\n                isValid = true;\r\n            }\r\n        }\r\n        require (isValid == true, \"The Currency is not supported yet!\");\r\n        _;\r\n    }\r\n\r\n    \r\n    function depositCollateral(uint256 choiceOfCurrency, uint256 amount, uint256 spotOnContractId) public isValidCurrency(choiceOfCurrency) {\r\n        require (amount > 0, \"Can't deposit 0 tokens\");\r\n        \r\n        //checks sender is the borrower\r\n        address borrower = spot_on_contract.getSpotOnBorrower(spotOnContractId);\r\n        require (msg.sender == borrower, \"only borrower can deposit\");\r\n\r\n        address spotOnContractAddress = spot_on_contract.getSpotOnContractAddress(spotOnContractId);\r\n\r\n        //transfer the token\r\n        if(choiceOfCurrency == 0) { \r\n            require(cro.checkBalance(msg.sender) >= amount, \"Insufficient tokens in pool to withdraw\");\r\n            cro.sendToken(spotOnContractAddress, amount);\r\n            emit Transferred(choiceOfCurrency, amount);\r\n        } \r\n        else if(choiceOfCurrency == 1) {\r\n            require(shib.checkBalance(msg.sender) >= amount, \"Insufficient tokens in pool to withdraw\");\r\n            shib.sendToken(spotOnContractAddress, amount);\r\n            emit Transferred(choiceOfCurrency, amount);\r\n        } else if(choiceOfCurrency == 2) {\r\n            require(uni.checkBalance(msg.sender) >= amount, \"Insufficient tokens in pool to withdraw\");\r\n            uni.sendToken(spotOnContractAddress, amount);\r\n            emit Transferred(choiceOfCurrency, amount);\r\n        } \r\n    }\r\n\r\n    function getTimeStamp() public view returns(uint) {\r\n        return block.timestamp;\r\n    }\r\n}",
  "sourcePath": "C:\\Documents\\NUS\\NUS Mods\\IS4302\\DeBank\\contracts\\SpotOn.sol",
  "compiler": {
    "name": "solc",
    "version": "0.8.17+commit.8df45f5f.Emscripten.clang"
  },
  "schemaVersion": "3.4.11",
  "updatedAt": "2023-04-09T05:21:59.370Z",
  "devdoc": {
    "kind": "dev",
    "methods": {},
    "version": 1
  },
  "userdoc": {
    "kind": "user",
    "methods": {},
    "version": 1
  }
}