{
  "contractName": "SpotOn",
  "abi": [
    {
      "inputs": [
        {
          "internalType": "contract SpotOnContract",
          "name": "spotOnContractAddress",
          "type": "address"
        },
        {
          "internalType": "contract Cro",
          "name": "croContractAddress",
          "type": "address"
        },
        {
          "internalType": "contract Shib",
          "name": "shibContractAddress",
          "type": "address"
        },
        {
          "internalType": "contract Uni",
          "name": "uniContractAddress",
          "type": "address"
        },
        {
          "internalType": "contract Debank",
          "name": "debankAddress",
          "type": "address"
        }
      ],
      "stateMutability": "payable",
      "type": "constructor"
    },
    {
      "anonymous": false,
      "inputs": [
        {
          "indexed": false,
          "internalType": "string",
          "name": "addCollateral",
          "type": "string"
        }
      ],
      "name": "Log",
      "type": "event"
    },
    {
      "anonymous": false,
      "inputs": [
        {
          "indexed": false,
          "internalType": "uint256",
          "name": "spotOnContractId",
          "type": "uint256"
        },
        {
          "indexed": false,
          "internalType": "uint256",
          "name": "collateralAmount",
          "type": "uint256"
        }
      ],
      "name": "MarginCallTriggered",
      "type": "event"
    },
    {
      "anonymous": false,
      "inputs": [
        {
          "indexed": false,
          "internalType": "uint256",
          "name": "choiceOfCurrency",
          "type": "uint256"
        },
        {
          "indexed": false,
          "internalType": "uint256",
          "name": "amount",
          "type": "uint256"
        }
      ],
      "name": "Transferred",
      "type": "event"
    },
    {
      "anonymous": false,
      "inputs": [
        {
          "indexed": false,
          "internalType": "uint256",
          "name": "spotOnContractId",
          "type": "uint256"
        }
      ],
      "name": "loanOffered",
      "type": "event"
    },
    {
      "anonymous": false,
      "inputs": [
        {
          "indexed": false,
          "internalType": "uint256",
          "name": "spotOnContractId",
          "type": "uint256"
        }
      ],
      "name": "loanRequested",
      "type": "event"
    },
    {
      "anonymous": false,
      "inputs": [
        {
          "indexed": false,
          "internalType": "uint256",
          "name": "spotOnContractId",
          "type": "uint256"
        }
      ],
      "name": "loanTaken",
      "type": "event"
    },
    {
      "inputs": [],
      "name": "numOfLoans",
      "outputs": [
        {
          "internalType": "uint256",
          "name": "",
          "type": "uint256"
        }
      ],
      "stateMutability": "view",
      "type": "function"
    },
    {
      "inputs": [
        {
          "internalType": "uint256",
          "name": "",
          "type": "uint256"
        }
      ],
      "name": "spotOnContracts",
      "outputs": [
        {
          "internalType": "contract SpotOnContract",
          "name": "",
          "type": "address"
        }
      ],
      "stateMutability": "view",
      "type": "function"
    },
    {
      "inputs": [
        {
          "internalType": "uint256",
          "name": "amount",
          "type": "uint256"
        },
        {
          "internalType": "uint256",
          "name": "currency",
          "type": "uint256"
        },
        {
          "internalType": "uint256",
          "name": "acceptableRange",
          "type": "uint256"
        },
        {
          "internalType": "uint256",
          "name": "interestRate",
          "type": "uint256"
        },
        {
          "internalType": "uint256",
          "name": "loanPeriod",
          "type": "uint256"
        },
        {
          "internalType": "uint256",
          "name": "collateral",
          "type": "uint256"
        },
        {
          "internalType": "uint256",
          "name": "collateralCurrency",
          "type": "uint256"
        }
      ],
      "name": "requestLoan",
      "outputs": [
        {
          "internalType": "uint256",
          "name": "",
          "type": "uint256"
        }
      ],
      "stateMutability": "payable",
      "type": "function"
    },
    {
      "inputs": [
        {
          "internalType": "string",
          "name": "currencyType",
          "type": "string"
        }
      ],
      "name": "addCurrency",
      "outputs": [],
      "stateMutability": "nonpayable",
      "type": "function"
    },
    {
      "inputs": [
        {
          "internalType": "uint256",
          "name": "spotOnContractId",
          "type": "uint256"
        },
        {
          "internalType": "uint256",
          "name": "newAmount",
          "type": "uint256"
        }
      ],
      "name": "editAmount",
      "outputs": [],
      "stateMutability": "nonpayable",
      "type": "function"
    },
    {
      "inputs": [
        {
          "internalType": "uint256",
          "name": "spotOnContractId",
          "type": "uint256"
        }
      ],
      "name": "takeOnLoan",
      "outputs": [],
      "stateMutability": "payable",
      "type": "function"
    },
    {
      "inputs": [
        {
          "internalType": "uint256",
          "name": "spotOnContractId",
          "type": "uint256"
        }
      ],
      "name": "transferAmount",
      "outputs": [],
      "stateMutability": "nonpayable",
      "type": "function"
    },
    {
      "inputs": [
        {
          "internalType": "uint256",
          "name": "spotOnContractId",
          "type": "uint256"
        }
      ],
      "name": "triggerMarginCall",
      "outputs": [],
      "stateMutability": "nonpayable",
      "type": "function"
    },
    {
      "inputs": [
        {
          "internalType": "uint256",
          "name": "spotOnContractId",
          "type": "uint256"
        }
      ],
      "name": "liquidateCollateral",
      "outputs": [],
      "stateMutability": "nonpayable",
      "type": "function"
    },
    {
      "inputs": [
        {
          "internalType": "uint256",
          "name": "spotOnContractId",
          "type": "uint256"
        },
        {
          "internalType": "uint256",
          "name": "amount",
          "type": "uint256"
        }
      ],
      "name": "addCollateral",
      "outputs": [],
      "stateMutability": "nonpayable",
      "type": "function"
    },
    {
      "inputs": [
        {
          "internalType": "uint256",
          "name": "amount",
          "type": "uint256"
        },
        {
          "internalType": "uint256",
          "name": "currency",
          "type": "uint256"
        },
        {
          "internalType": "uint256",
          "name": "acceptableRange",
          "type": "uint256"
        },
        {
          "internalType": "uint256",
          "name": "interestRate",
          "type": "uint256"
        },
        {
          "internalType": "uint256",
          "name": "loanPeriod",
          "type": "uint256"
        },
        {
          "internalType": "uint256",
          "name": "collateral",
          "type": "uint256"
        },
        {
          "internalType": "uint256",
          "name": "collateralCurrency",
          "type": "uint256"
        }
      ],
      "name": "offerLoan",
      "outputs": [
        {
          "internalType": "uint256",
          "name": "",
          "type": "uint256"
        }
      ],
      "stateMutability": "nonpayable",
      "type": "function"
    },
    {
      "inputs": [
        {
          "internalType": "uint256",
          "name": "choiceOfCurrency",
          "type": "uint256"
        },
        {
          "internalType": "uint256",
          "name": "amount",
          "type": "uint256"
        },
        {
          "internalType": "uint256",
          "name": "spotOnContractId",
          "type": "uint256"
        }
      ],
      "name": "depositCollateral",
      "outputs": [],
      "stateMutability": "nonpayable",
      "type": "function"
    },
    {
      "inputs": [],
      "name": "getTimeStamp",
      "outputs": [
        {
          "internalType": "uint256",
          "name": "",
          "type": "uint256"
        }
      ],
      "stateMutability": "view",
      "type": "function"
    }
  ],
  "bytecode": "0x6080604052604051620000129062000232565b604051809103906000f0801580156200002f573d6000803e3d6000fd5b50600460006101000a81548173ffffffffffffffffffffffffffffffffffffffff021916908373ffffffffffffffffffffffffffffffffffffffff160217905550600660009054906101000a900473ffffffffffffffffffffffffffffffffffffffff16600660006101000a81548173ffffffffffffffffffffffffffffffffffffffff021916908373ffffffffffffffffffffffffffffffffffffffff160217905550600760009054906101000a900473ffffffffffffffffffffffffffffffffffffffff16600760006101000a81548173ffffffffffffffffffffffffffffffffffffffff021916908373ffffffffffffffffffffffffffffffffffffffff16021790555060006009556000600a5560405162003b8b38038062003b8b8339818101604052810190620001659190620003d2565b846000806101000a81548173ffffffffffffffffffffffffffffffffffffffff021916908373ffffffffffffffffffffffffffffffffffffffff16021790555033600260006101000a81548173ffffffffffffffffffffffffffffffffffffffff021916908373ffffffffffffffffffffffffffffffffffffffff16021790555083600560006101000a81548173ffffffffffffffffffffffffffffffffffffffff021916908373ffffffffffffffffffffffffffffffffffffffff16021790555050505050506200045a565b61019380620039f883390190565b600080fd5b600073ffffffffffffffffffffffffffffffffffffffff82169050919050565b6000620002728262000245565b9050919050565b6000620002868262000265565b9050919050565b620002988162000279565b8114620002a457600080fd5b50565b600081519050620002b8816200028d565b92915050565b6000620002cb8262000265565b9050919050565b620002dd81620002be565b8114620002e957600080fd5b50565b600081519050620002fd81620002d2565b92915050565b6000620003108262000265565b9050919050565b620003228162000303565b81146200032e57600080fd5b50565b600081519050620003428162000317565b92915050565b6000620003558262000265565b9050919050565b620003678162000348565b81146200037357600080fd5b50565b60008151905062000387816200035c565b92915050565b60006200039a8262000265565b9050919050565b620003ac816200038d565b8114620003b857600080fd5b50565b600081519050620003cc81620003a1565b92915050565b600080600080600060a08688031215620003f157620003f062000240565b5b60006200040188828901620002a7565b95505060206200041488828901620002ec565b9450506040620004278882890162000331565b93505060606200043a8882890162000376565b92505060806200044d88828901620003bb565b9150509295509295909350565b61358e806200046a6000396000f3fe6080604052600436106100c15760003560e01c80637ac551a81161007f578063c2384f5911610059578063c2384f5914610240578063c388836114610269578063da235b22146102a6578063ef717998146102d1576100c1565b80637ac551a8146101d2578063a1d0a48f146101ee578063a8f35adf14610217576100c1565b8062a9dd1e146100c65780633938ccdf146100ef57806343362da31461011857806355574c9b146101435780635cc926551461016c578063609b9921146101a9575b600080fd5b3480156100d257600080fd5b506100ed60048036038101906100e891906126e7565b610301565b005b3480156100fb57600080fd5b50610116600480360381019061011191906126e7565b610694565b005b34801561012457600080fd5b5061012d610a8c565b60405161013a9190612723565b60405180910390f35b34801561014f57600080fd5b5061016a600480360381019061016591906126e7565b610a92565b005b34801561017857600080fd5b50610193600480360381019061018e919061273e565b611000565b6040516101a09190612723565b60405180910390f35b3480156101b557600080fd5b506101d060048036038101906101cb91906127e0565b6111dd565b005b6101ec60048036038101906101e791906126e7565b6113dd565b005b3480156101fa57600080fd5b5061021560048036038101906102109190612966565b611b56565b005b34801561022357600080fd5b5061023e600480360381019061023991906127e0565b611b94565b005b34801561024c57600080fd5b50610267600480360381019061026291906129af565b611c25565b005b34801561027557600080fd5b50610290600480360381019061028b91906126e7565b6123aa565b60405161029d9190612a81565b60405180910390f35b3480156102b257600080fd5b506102bb6123dd565b6040516102c89190612723565b60405180910390f35b6102eb60048036038101906102e6919061273e565b6123e5565b6040516102f89190612723565b60405180910390f35b60008060009054906101000a900473ffffffffffffffffffffffffffffffffffffffff1673ffffffffffffffffffffffffffffffffffffffff16639980ec86836040518263ffffffff1660e01b815260040161035d9190612723565b602060405180830381865afa15801561037a573d6000803e3d6000fd5b505050506040513d601f19601f8201168201806040525081019061039e9190612ab1565b905060008060009054906101000a900473ffffffffffffffffffffffffffffffffffffffff1673ffffffffffffffffffffffffffffffffffffffff16635118b866846040518263ffffffff1660e01b81526004016103fc9190612723565b602060405180830381865afa158015610419573d6000803e3d6000fd5b505050506040513d601f19601f8201168201806040525081019061043d9190612ab1565b905060008060009054906101000a900473ffffffffffffffffffffffffffffffffffffffff1673ffffffffffffffffffffffffffffffffffffffff1663bdc7c12b856040518263ffffffff1660e01b815260040161049b9190612723565b602060405180830381865afa1580156104b8573d6000803e3d6000fd5b505050506040513d601f19601f820116820180604052508101906104dc9190612ab1565b905060008060009054906101000a900473ffffffffffffffffffffffffffffffffffffffff1673ffffffffffffffffffffffffffffffffffffffff1663c25015d6866040518263ffffffff1660e01b815260040161053a9190612723565b602060405180830381865afa158015610557573d6000803e3d6000fd5b505050506040513d601f19601f8201168201806040525081019061057b9190612ab1565b90506000600160009054906101000a900473ffffffffffffffffffffffffffffffffffffffff1673ffffffffffffffffffffffffffffffffffffffff1663a5a85e7f858785876040518563ffffffff1660e01b81526004016105e09493929190612ade565b602060405180830381865afa1580156105fd573d6000803e3d6000fd5b505050506040513d601f19601f820116820180604052508101906106219190612ab1565b905061062f601560146125c2565b81116106435761063e86610694565b61068c565b61064f600360026125c2565b811161068b577fcf34ef537ac33ee1ac626ca1587a0a7e8e51561e5514f8cb36afa1c5102b3bab60405161068290612b80565b60405180910390a15b5b505050505050565b600047905060008060009054906101000a900473ffffffffffffffffffffffffffffffffffffffff1673ffffffffffffffffffffffffffffffffffffffff166383529a3a846040518263ffffffff1660e01b81526004016106f59190612723565b602060405180830381865afa158015610712573d6000803e3d6000fd5b505050506040513d601f19601f820116820180604052508101906107369190612bde565b905060008060009054906101000a900473ffffffffffffffffffffffffffffffffffffffff1673ffffffffffffffffffffffffffffffffffffffff1663c25015d6856040518263ffffffff1660e01b81526004016107949190612723565b602060405180830381865afa1580156107b1573d6000803e3d6000fd5b505050506040513d601f19601f820116820180604052508101906107d59190612ab1565b905060008060009054906101000a900473ffffffffffffffffffffffffffffffffffffffff1673ffffffffffffffffffffffffffffffffffffffff1663bdc7c12b866040518263ffffffff1660e01b81526004016108339190612723565b602060405180830381865afa158015610850573d6000803e3d6000fd5b505050506040513d601f19601f820116820180604052508101906108749190612ab1565b90506000820361091257600560009054906101000a900473ffffffffffffffffffffffffffffffffffffffff1673ffffffffffffffffffffffffffffffffffffffff1663412664ae84836040518363ffffffff1660e01b81526004016108db929190612c1a565b600060405180830381600087803b1580156108f557600080fd5b505af1158015610909573d6000803e3d6000fd5b50505050610a4c565b600182036109b057600660009054906101000a900473ffffffffffffffffffffffffffffffffffffffff1673ffffffffffffffffffffffffffffffffffffffff16632fdcfbd23085846040518463ffffffff1660e01b815260040161097993929190612c43565b600060405180830381600087803b15801561099357600080fd5b505af11580156109a7573d6000803e3d6000fd5b50505050610a4b565b60028203610a4a57600760009054906101000a900473ffffffffffffffffffffffffffffffffffffffff1673ffffffffffffffffffffffffffffffffffffffff16632fdcfbd23085846040518463ffffffff1660e01b8152600401610a1793929190612c43565b600060405180830381600087803b158015610a3157600080fd5b505af1158015610a45573d6000803e3d6000fd5b505050505b5b5b7f8c0256fa1145c0f31b07101b4f02878945534996f6aacccb9790f40c114576188585604051610a7d929190612c7a565b60405180910390a15050505050565b60095481565b60008060009054906101000a900473ffffffffffffffffffffffffffffffffffffffff1673ffffffffffffffffffffffffffffffffffffffff166383529a3a836040518263ffffffff1660e01b8152600401610aee9190612723565b602060405180830381865afa158015610b0b573d6000803e3d6000fd5b505050506040513d601f19601f82011682018060405250810190610b2f9190612bde565b90508073ffffffffffffffffffffffffffffffffffffffff163373ffffffffffffffffffffffffffffffffffffffff1614610b9f576040517f08c379a0000000000000000000000000000000000000000000000000000000008152600401610b9690612d15565b60405180910390fd5b60008060009054906101000a900473ffffffffffffffffffffffffffffffffffffffff1673ffffffffffffffffffffffffffffffffffffffff1663a17aba25846040518263ffffffff1660e01b8152600401610bfb9190612723565b602060405180830381865afa158015610c18573d6000803e3d6000fd5b505050506040513d601f19601f82011682018060405250810190610c3c9190612bde565b905060008060009054906101000a900473ffffffffffffffffffffffffffffffffffffffff1673ffffffffffffffffffffffffffffffffffffffff16639980ec86856040518263ffffffff1660e01b8152600401610c9a9190612723565b602060405180830381865afa158015610cb7573d6000803e3d6000fd5b505050506040513d601f19601f82011682018060405250810190610cdb9190612ab1565b905060008060009054906101000a900473ffffffffffffffffffffffffffffffffffffffff1673ffffffffffffffffffffffffffffffffffffffff16635118b866866040518263ffffffff1660e01b8152600401610d399190612723565b602060405180830381865afa158015610d56573d6000803e3d6000fd5b505050506040513d601f19601f82011682018060405250810190610d7a9190612ab1565b905060008103610e5157600560009054906101000a900473ffffffffffffffffffffffffffffffffffffffff1673ffffffffffffffffffffffffffffffffffffffff1663412664ae84846040518363ffffffff1660e01b8152600401610de1929190612c1a565b600060405180830381600087803b158015610dfb57600080fd5b505af1158015610e0f573d6000803e3d6000fd5b505050507f386a2715c15d0381e62d31062277a1c3c883a3e5715caafe752168e575c2bb638183604051610e44929190612c7a565b60405180910390a1610ff9565b60018103610f2657600660009054906101000a900473ffffffffffffffffffffffffffffffffffffffff1673ffffffffffffffffffffffffffffffffffffffff1663412664ae84846040518363ffffffff1660e01b8152600401610eb6929190612c1a565b600060405180830381600087803b158015610ed057600080fd5b505af1158015610ee4573d6000803e3d6000fd5b505050507f386a2715c15d0381e62d31062277a1c3c883a3e5715caafe752168e575c2bb638183604051610f19929190612c7a565b60405180910390a1610ff8565b60028103610ff757600760009054906101000a900473ffffffffffffffffffffffffffffffffffffffff1673ffffffffffffffffffffffffffffffffffffffff1663412664ae84846040518363ffffffff1660e01b8152600401610f8b929190612c1a565b600060405180830381600087803b158015610fa557600080fd5b505af1158015610fb9573d6000803e3d6000fd5b505050507f386a2715c15d0381e62d31062277a1c3c883a3e5715caafe752168e575c2bb638183604051610fee929190612c7a565b60405180910390a15b5b5b5050505050565b600060026003896110119190612d64565b61101b9190612dd5565b83101561105d576040517f08c379a000000000000000000000000000000000000000000000000000000000815260040161105490612e78565b60405180910390fd5b60008060009054906101000a900473ffffffffffffffffffffffffffffffffffffffff1673ffffffffffffffffffffffffffffffffffffffff1663b18884cc8a8a8a898b8a8a6040518863ffffffff1660e01b81526004016110c59796959493929190612e98565b6020604051808303816000875af11580156110e4573d6000803e3d6000fd5b505050506040513d601f19601f820116820180604052508101906111089190612ab1565b905060008054906101000a900473ffffffffffffffffffffffffffffffffffffffff1673ffffffffffffffffffffffffffffffffffffffff1663139daf8082336040518363ffffffff1660e01b8152600401611165929190612f07565b600060405180830381600087803b15801561117f57600080fd5b505af1158015611193573d6000803e3d6000fd5b505050507fdda768f34386e6f0b0c5347aab8c044173b7170f7534adcb5c7e624b113a4224816040516111c69190612723565b60405180910390a180915050979650505050505050565b60008060009054906101000a900473ffffffffffffffffffffffffffffffffffffffff1673ffffffffffffffffffffffffffffffffffffffff1663c03b2a78846040518263ffffffff1660e01b81526004016112399190612723565b602060405180830381865afa158015611256573d6000803e3d6000fd5b505050506040513d601f19601f8201168201806040525081019061127a9190612ab1565b905060008060009054906101000a900473ffffffffffffffffffffffffffffffffffffffff1673ffffffffffffffffffffffffffffffffffffffff16639980ec86856040518263ffffffff1660e01b81526004016112d89190612723565b602060405180830381865afa1580156112f5573d6000803e3d6000fd5b505050506040513d601f19601f820116820180604052508101906113199190612ab1565b90508282826113289190612f30565b111580156113415750818161133d9190612f64565b8311155b61134a57600080fd5b60008054906101000a900473ffffffffffffffffffffffffffffffffffffffff1673ffffffffffffffffffffffffffffffffffffffff1663c6a023e985856040518363ffffffff1660e01b81526004016113a5929190612c7a565b600060405180830381600087803b1580156113bf57600080fd5b505af11580156113d3573d6000803e3d6000fd5b5050505050505050565b600073ffffffffffffffffffffffffffffffffffffffff1660008054906101000a900473ffffffffffffffffffffffffffffffffffffffff1673ffffffffffffffffffffffffffffffffffffffff1663a17aba25836040518263ffffffff1660e01b815260040161144e9190612723565b602060405180830381865afa15801561146b573d6000803e3d6000fd5b505050506040513d601f19601f8201168201806040525081019061148f9190612bde565b73ffffffffffffffffffffffffffffffffffffffff1614806115765750600073ffffffffffffffffffffffffffffffffffffffff1660008054906101000a900473ffffffffffffffffffffffffffffffffffffffff1673ffffffffffffffffffffffffffffffffffffffff166383529a3a836040518263ffffffff1660e01b815260040161151d9190612723565b602060405180830381865afa15801561153a573d6000803e3d6000fd5b505050506040513d601f19601f8201168201806040525081019061155e9190612bde565b73ffffffffffffffffffffffffffffffffffffffff16145b61157f57600080fd5b600073ffffffffffffffffffffffffffffffffffffffff1660008054906101000a900473ffffffffffffffffffffffffffffffffffffffff1673ffffffffffffffffffffffffffffffffffffffff1663a17aba25836040518263ffffffff1660e01b81526004016115f09190612723565b602060405180830381865afa15801561160d573d6000803e3d6000fd5b505050506040513d601f19601f820116820180604052508101906116319190612bde565b73ffffffffffffffffffffffffffffffffffffffff16036116da5760008054906101000a900473ffffffffffffffffffffffffffffffffffffffff1673ffffffffffffffffffffffffffffffffffffffff16630a28c0b282336040518363ffffffff1660e01b81526004016116a7929190612f07565b600060405180830381600087803b1580156116c157600080fd5b505af11580156116d5573d6000803e3d6000fd5b505050505b600073ffffffffffffffffffffffffffffffffffffffff1660008054906101000a900473ffffffffffffffffffffffffffffffffffffffff1673ffffffffffffffffffffffffffffffffffffffff166383529a3a836040518263ffffffff1660e01b815260040161174b9190612723565b602060405180830381865afa158015611768573d6000803e3d6000fd5b505050506040513d601f19601f8201168201806040525081019061178c9190612bde565b73ffffffffffffffffffffffffffffffffffffffff16036118355760008054906101000a900473ffffffffffffffffffffffffffffffffffffffff1673ffffffffffffffffffffffffffffffffffffffff1663139daf8082336040518363ffffffff1660e01b8152600401611802929190612f07565b600060405180830381600087803b15801561181c57600080fd5b505af1158015611830573d6000803e3d6000fd5b505050505b600061183f6123dd565b905060008060009054906101000a900473ffffffffffffffffffffffffffffffffffffffff1673ffffffffffffffffffffffffffffffffffffffff16637fa0a815846040518263ffffffff1660e01b815260040161189d9190612723565b602060405180830381865afa1580156118ba573d6000803e3d6000fd5b505050506040513d601f19601f820116820180604052508101906118de9190612ab1565b9050600081836118ee9190612f64565b905060008054906101000a900473ffffffffffffffffffffffffffffffffffffffff1673ffffffffffffffffffffffffffffffffffffffff1663fd6c4ff885856040518363ffffffff1660e01b815260040161194b929190612c7a565b600060405180830381600087803b15801561196557600080fd5b505af1158015611979573d6000803e3d6000fd5b5050505060008060009054906101000a900473ffffffffffffffffffffffffffffffffffffffff1673ffffffffffffffffffffffffffffffffffffffff16639980ec86866040518263ffffffff1660e01b81526004016119d99190612723565b602060405180830381865afa1580156119f6573d6000803e3d6000fd5b505050506040513d601f19601f82011682018060405250810190611a1a9190612ab1565b905060008060009054906101000a900473ffffffffffffffffffffffffffffffffffffffff1673ffffffffffffffffffffffffffffffffffffffff16630c196a74876040518263ffffffff1660e01b8152600401611a789190612723565b602060405180830381865afa158015611a95573d6000803e3d6000fd5b505050506040513d601f19601f82011682018060405250810190611ab99190612ab1565b905060008054906101000a900473ffffffffffffffffffffffffffffffffffffffff1673ffffffffffffffffffffffffffffffffffffffff1663b3892d0887878685876040518663ffffffff1660e01b8152600401611b1c959493929190612f98565b600060405180830381600087803b158015611b3657600080fd5b505af1158015611b4a573d6000803e3d6000fd5b50505050505050505050565b600a6000815480929190611b6990612feb565b91905055508060036000600a5481526020019081526020016000209081611b909190613240565b5050565b60008054906101000a900473ffffffffffffffffffffffffffffffffffffffff1673ffffffffffffffffffffffffffffffffffffffff1663a8f35adf83836040518363ffffffff1660e01b8152600401611bef929190612c7a565b600060405180830381600087803b158015611c0957600080fd5b505af1158015611c1d573d6000803e3d6000fd5b505050505050565b826000805b600a54811015611c5357808303611c4057600191505b8080611c4b90612feb565b915050611c2a565b506001151581151514611c9b576040517f08c379a0000000000000000000000000000000000000000000000000000000008152600401611c9290613384565b60405180910390fd5b60008411611cde576040517f08c379a0000000000000000000000000000000000000000000000000000000008152600401611cd5906133f0565b60405180910390fd5b60008060009054906101000a900473ffffffffffffffffffffffffffffffffffffffff1673ffffffffffffffffffffffffffffffffffffffff1663a17aba25856040518263ffffffff1660e01b8152600401611d3a9190612723565b602060405180830381865afa158015611d57573d6000803e3d6000fd5b505050506040513d601f19601f82011682018060405250810190611d7b9190612bde565b90508073ffffffffffffffffffffffffffffffffffffffff163373ffffffffffffffffffffffffffffffffffffffff1614611deb576040517f08c379a0000000000000000000000000000000000000000000000000000000008152600401611de29061345c565b60405180910390fd5b60008060009054906101000a900473ffffffffffffffffffffffffffffffffffffffff1673ffffffffffffffffffffffffffffffffffffffff1663d31ec57b866040518263ffffffff1660e01b8152600401611e479190612723565b602060405180830381865afa158015611e64573d6000803e3d6000fd5b505050506040513d601f19601f82011682018060405250810190611e889190612bde565b90506000870361203d5785600560009054906101000a900473ffffffffffffffffffffffffffffffffffffffff1673ffffffffffffffffffffffffffffffffffffffff16635f515226336040518263ffffffff1660e01b8152600401611eee919061347c565b602060405180830381865afa158015611f0b573d6000803e3d6000fd5b505050506040513d601f19601f82011682018060405250810190611f2f9190612ab1565b1015611f70576040517f08c379a0000000000000000000000000000000000000000000000000000000008152600401611f6790613509565b60405180910390fd5b600560009054906101000a900473ffffffffffffffffffffffffffffffffffffffff1673ffffffffffffffffffffffffffffffffffffffff1663412664ae82886040518363ffffffff1660e01b8152600401611fcd929190612c1a565b600060405180830381600087803b158015611fe757600080fd5b505af1158015611ffb573d6000803e3d6000fd5b505050507f386a2715c15d0381e62d31062277a1c3c883a3e5715caafe752168e575c2bb638787604051612030929190612c7a565b60405180910390a16123a1565b600187036121f05785600660009054906101000a900473ffffffffffffffffffffffffffffffffffffffff1673ffffffffffffffffffffffffffffffffffffffff16635f515226336040518263ffffffff1660e01b81526004016120a1919061347c565b602060405180830381865afa1580156120be573d6000803e3d6000fd5b505050506040513d601f19601f820116820180604052508101906120e29190612ab1565b1015612123576040517f08c379a000000000000000000000000000000000000000000000000000000000815260040161211a90613509565b60405180910390fd5b600660009054906101000a900473ffffffffffffffffffffffffffffffffffffffff1673ffffffffffffffffffffffffffffffffffffffff1663412664ae82886040518363ffffffff1660e01b8152600401612180929190612c1a565b600060405180830381600087803b15801561219a57600080fd5b505af11580156121ae573d6000803e3d6000fd5b505050507f386a2715c15d0381e62d31062277a1c3c883a3e5715caafe752168e575c2bb6387876040516121e3929190612c7a565b60405180910390a16123a0565b6002870361239f5785600760009054906101000a900473ffffffffffffffffffffffffffffffffffffffff1673ffffffffffffffffffffffffffffffffffffffff16635f515226336040518263ffffffff1660e01b8152600401612254919061347c565b602060405180830381865afa158015612271573d6000803e3d6000fd5b505050506040513d601f19601f820116820180604052508101906122959190612ab1565b10156122d6576040517f08c379a00000000000000000000000000000000000000000000000000000000081526004016122cd90613509565b60405180910390fd5b600760009054906101000a900473ffffffffffffffffffffffffffffffffffffffff1673ffffffffffffffffffffffffffffffffffffffff1663412664ae82886040518363ffffffff1660e01b8152600401612333929190612c1a565b600060405180830381600087803b15801561234d57600080fd5b505af1158015612361573d6000803e3d6000fd5b505050507f386a2715c15d0381e62d31062277a1c3c883a3e5715caafe752168e575c2bb638787604051612396929190612c7a565b60405180910390a15b5b5b50505050505050565b60086020528060005260406000206000915054906101000a900473ffffffffffffffffffffffffffffffffffffffff1681565b600042905090565b600060026003896123f69190612d64565b6124009190612dd5565b831015612442576040517f08c379a000000000000000000000000000000000000000000000000000000000815260040161243990612e78565b60405180910390fd5b60008060009054906101000a900473ffffffffffffffffffffffffffffffffffffffff1673ffffffffffffffffffffffffffffffffffffffff1663b18884cc8a8a8a8a8a8a8a6040518863ffffffff1660e01b81526004016124aa9796959493929190612e98565b6020604051808303816000875af11580156124c9573d6000803e3d6000fd5b505050506040513d601f19601f820116820180604052508101906124ed9190612ab1565b905060008054906101000a900473ffffffffffffffffffffffffffffffffffffffff1673ffffffffffffffffffffffffffffffffffffffff16630a28c0b282336040518363ffffffff1660e01b815260040161254a929190612f07565b600060405180830381600087803b15801561256457600080fd5b505af1158015612578573d6000803e3d6000fd5b505050507feb3314873b5788471cf6c7f56de3c0fd715abd5ea75eb55e36a2ba9d5ba1037b816040516125ab9190612723565b60405180910390a180915050979650505050505050565b6000612616826126086125df60028661261e90919063ffffffff16565b6125fa670de0b6b3a76400008861263490919063ffffffff16565b61267690919063ffffffff16565b61261e90919063ffffffff16565b905092915050565b6000818361262c9190612dd5565b905092915050565b60008083036126465760009050612670565b81836126529190612d64565b90508183826126619190612dd5565b1461266f5761266e613529565b5b5b92915050565b600081836126849190612f64565b90508281101561269757612696613529565b5b92915050565b6000604051905090565b600080fd5b600080fd5b6000819050919050565b6126c4816126b1565b81146126cf57600080fd5b50565b6000813590506126e1816126bb565b92915050565b6000602082840312156126fd576126fc6126a7565b5b600061270b848285016126d2565b91505092915050565b61271d816126b1565b82525050565b60006020820190506127386000830184612714565b92915050565b600080600080600080600060e0888a03121561275d5761275c6126a7565b5b600061276b8a828b016126d2565b975050602061277c8a828b016126d2565b965050604061278d8a828b016126d2565b955050606061279e8a828b016126d2565b94505060806127af8a828b016126d2565b93505060a06127c08a828b016126d2565b92505060c06127d18a828b016126d2565b91505092959891949750929550565b600080604083850312156127f7576127f66126a7565b5b6000612805858286016126d2565b9250506020612816858286016126d2565b9150509250929050565b600080fd5b600080fd5b6000601f19601f8301169050919050565b7f4e487b7100000000000000000000000000000000000000000000000000000000600052604160045260246000fd5b6128738261282a565b810181811067ffffffffffffffff821117156128925761289161283b565b5b80604052505050565b60006128a561269d565b90506128b1828261286a565b919050565b600067ffffffffffffffff8211156128d1576128d061283b565b5b6128da8261282a565b9050602081019050919050565b82818337600083830152505050565b6000612909612904846128b6565b61289b565b90508281526020810184848401111561292557612924612825565b5b6129308482856128e7565b509392505050565b600082601f83011261294d5761294c612820565b5b813561295d8482602086016128f6565b91505092915050565b60006020828403121561297c5761297b6126a7565b5b600082013567ffffffffffffffff81111561299a576129996126ac565b5b6129a684828501612938565b91505092915050565b6000806000606084860312156129c8576129c76126a7565b5b60006129d6868287016126d2565b93505060206129e7868287016126d2565b92505060406129f8868287016126d2565b9150509250925092565b600073ffffffffffffffffffffffffffffffffffffffff82169050919050565b6000819050919050565b6000612a47612a42612a3d84612a02565b612a22565b612a02565b9050919050565b6000612a5982612a2c565b9050919050565b6000612a6b82612a4e565b9050919050565b612a7b81612a60565b82525050565b6000602082019050612a966000830184612a72565b92915050565b600081519050612aab816126bb565b92915050565b600060208284031215612ac757612ac66126a7565b5b6000612ad584828501612a9c565b91505092915050565b6000608082019050612af36000830187612714565b612b006020830186612714565b612b0d6040830185612714565b612b1a6060830184612714565b95945050505050565b600082825260208201905092915050565b7f506c6561736520616464206f6e20746f20796f757220636f6c6c61746572616c600082015250565b6000612b6a602083612b23565b9150612b7582612b34565b602082019050919050565b60006020820190508181036000830152612b9981612b5d565b9050919050565b6000612bab82612a02565b9050919050565b612bbb81612ba0565b8114612bc657600080fd5b50565b600081519050612bd881612bb2565b92915050565b600060208284031215612bf457612bf36126a7565b5b6000612c0284828501612bc9565b91505092915050565b612c1481612ba0565b82525050565b6000604082019050612c2f6000830185612c0b565b612c3c6020830184612714565b9392505050565b6000606082019050612c586000830186612c0b565b612c656020830185612c0b565b612c726040830184612714565b949350505050565b6000604082019050612c8f6000830185612714565b612c9c6020830184612714565b9392505050565b7f6f6e6c79206c656e6465722063616e207472616e7366657220746f20626f727260008201527f6f77657200000000000000000000000000000000000000000000000000000000602082015250565b6000612cff602483612b23565b9150612d0a82612ca3565b604082019050919050565b60006020820190508181036000830152612d2e81612cf2565b9050919050565b7f4e487b7100000000000000000000000000000000000000000000000000000000600052601160045260246000fd5b6000612d6f826126b1565b9150612d7a836126b1565b9250828202612d88816126b1565b91508282048414831517612d9f57612d9e612d35565b5b5092915050565b7f4e487b7100000000000000000000000000000000000000000000000000000000600052601260045260246000fd5b6000612de0826126b1565b9150612deb836126b1565b925082612dfb57612dfa612da6565b5b828204905092915050565b7f636f6c6c61746572616c206d757374206265206174206c6561737420312e352060008201527f74696d6573206f662074686520616d6f756e7400000000000000000000000000602082015250565b6000612e62603383612b23565b9150612e6d82612e06565b604082019050919050565b60006020820190508181036000830152612e9181612e55565b9050919050565b600060e082019050612ead600083018a612714565b612eba6020830189612714565b612ec76040830188612714565b612ed46060830187612714565b612ee16080830186612714565b612eee60a0830185612714565b612efb60c0830184612714565b98975050505050505050565b6000604082019050612f1c6000830185612714565b612f296020830184612c0b565b9392505050565b6000612f3b826126b1565b9150612f46836126b1565b9250828203905081811115612f5e57612f5d612d35565b5b92915050565b6000612f6f826126b1565b9150612f7a836126b1565b9250828201905080821115612f9257612f91612d35565b5b92915050565b600060a082019050612fad6000830188612714565b612fba6020830187612714565b612fc76040830186612714565b612fd46060830185612714565b612fe16080830184612714565b9695505050505050565b6000612ff6826126b1565b91507fffffffffffffffffffffffffffffffffffffffffffffffffffffffffffffffff820361302857613027612d35565b5b600182019050919050565b600081519050919050565b7f4e487b7100000000000000000000000000000000000000000000000000000000600052602260045260246000fd5b6000600282049050600182168061308557607f821691505b6020821081036130985761309761303e565b5b50919050565b60008190508160005260206000209050919050565b60006020601f8301049050919050565b600082821b905092915050565b6000600883026131007fffffffffffffffffffffffffffffffffffffffffffffffffffffffffffffffff826130c3565b61310a86836130c3565b95508019841693508086168417925050509392505050565b600061313d613138613133846126b1565b612a22565b6126b1565b9050919050565b6000819050919050565b61315783613122565b61316b61316382613144565b8484546130d0565b825550505050565b600090565b613180613173565b61318b81848461314e565b505050565b5b818110156131af576131a4600082613178565b600181019050613191565b5050565b601f8211156131f4576131c58161309e565b6131ce846130b3565b810160208510156131dd578190505b6131f16131e9856130b3565b830182613190565b50505b505050565b600082821c905092915050565b6000613217600019846008026131f9565b1980831691505092915050565b60006132308383613206565b9150826002028217905092915050565b61324982613033565b67ffffffffffffffff8111156132625761326161283b565b5b61326c825461306d565b6132778282856131b3565b600060209050601f8311600181146132aa5760008415613298578287015190505b6132a28582613224565b86555061330a565b601f1984166132b88661309e565b60005b828110156132e0578489015182556001820191506020850194506020810190506132bb565b868310156132fd57848901516132f9601f891682613206565b8355505b6001600288020188555050505b505050505050565b7f5468652043757272656e6379206973206e6f7420737570706f7274656420796560008201527f7421000000000000000000000000000000000000000000000000000000000000602082015250565b600061336e602283612b23565b915061337982613312565b604082019050919050565b6000602082019050818103600083015261339d81613361565b9050919050565b7f43616e2774206465706f736974203020746f6b656e7300000000000000000000600082015250565b60006133da601683612b23565b91506133e5826133a4565b602082019050919050565b60006020820190508181036000830152613409816133cd565b9050919050565b7f6f6e6c7920626f72726f7765722063616e206465706f73697400000000000000600082015250565b6000613446601983612b23565b915061345182613410565b602082019050919050565b6000602082019050818103600083015261347581613439565b9050919050565b60006020820190506134916000830184612c0b565b92915050565b7f496e73756666696369656e7420746f6b656e7320696e20706f6f6c20746f207760008201527f6974686472617700000000000000000000000000000000000000000000000000602082015250565b60006134f3602783612b23565b91506134fe82613497565b604082019050919050565b60006020820190508181036000830152613522816134e6565b9050919050565b7f4e487b7100000000000000000000000000000000000000000000000000000000600052600160045260246000fdfea2646970667358221220807b46084e3da5fe309beb78fc6c470fc2ec055d8ac5a91bca9b3f031ccd128764736f6c63430008110033608060405234801561001057600080fd5b50610173806100206000396000f3fe608060405234801561001057600080fd5b50600436106100365760003560e01c8063353232841461003b578063c7e5392514610057575b600080fd5b610055600480360381019061005091906100e6565b610075565b005b61005f610092565b60405161006c9190610122565b60405180910390f35b806000806101000a81548160ff021916908360ff16021790555050565b60008060009054906101000a900460ff16905090565b600080fd5b600060ff82169050919050565b6100c3816100ad565b81146100ce57600080fd5b50565b6000813590506100e0816100ba565b92915050565b6000602082840312156100fc576100fb6100a8565b5b600061010a848285016100d1565b91505092915050565b61011c816100ad565b82525050565b60006020820190506101376000830184610113565b9291505056fea2646970667358221220973c190aa5fdb3be9958d04892c9f55838f378e0faf1323f62e4b3443ff9f3e364736f6c63430008110033",
  "immutableReferences": {},
  "source": "// SPDX-License-Identifier: MIT\r\npragma solidity >= 0.5.0;\r\n\r\nimport \"./SpotOnContract.sol\";\r\nimport \"./RNG.sol\";\r\nimport \"./Cro.sol\";\r\nimport \"./Shib.sol\";\r\nimport \"./Uni.sol\";\r\nimport \"./Debank.sol\";\r\n\r\ncontract SpotOn {\r\n    SpotOnContract spot_on_contract;\r\n    Debank de_bank;\r\n    address owner;\r\n    mapping(uint256 => string) currencyTypes;\r\n    RNG r = new RNG();\r\n    Cro cro;\r\n    Shib shib = shib;\r\n    Uni uni = uni;\r\n\r\n    constructor(SpotOnContract spotOnContractAddress,\r\n            Cro croContractAddress,\r\n            Shib shibContractAddress,\r\n            Uni uniContractAddress,\r\n            Debank debankAddress\r\n    ) public payable {\r\n        spot_on_contract = spotOnContractAddress;\r\n        // de_bank = debankAddress;\r\n        owner = msg.sender;\r\n        cro = croContractAddress;\r\n    }\r\n\r\n    event loanRequested (uint256 spotOnContractId);\r\n    event loanOffered (uint256 spotOnContractId);\r\n    event loanTaken (uint256 spotOnContractId);\r\n    event Transferred(uint256 choiceOfCurrency, uint amount);\r\n    event MarginCallTriggered(uint spotOnContractId, uint collateralAmount);\r\n    event Log(string addCollateral);\r\n\r\n    mapping(uint256 => SpotOnContract) public spotOnContracts;  // tracks all loans that have been accepted, to check loanPeriod is valid\r\n    uint256 public numOfLoans = 0;\r\n    uint256 numCurrencyTypes = 0;\r\n\r\n    function requestLoan(\r\n        uint256 amount, \r\n        uint256 currency, \r\n        uint256 acceptableRange, \r\n        uint256 interestRate, \r\n        uint256 loanPeriod, \r\n        uint256 collateral,\r\n        uint256 collateralCurrency) public payable returns (uint256){\r\n        \r\n        require(collateral >= (amount * 3) / 2, \"collateral must be at least 1.5 times of the amount\");\r\n        // creates new spotOnContract\r\n        uint256 spotOnContractId = spot_on_contract.createContract(\r\n            amount, currency, acceptableRange, interestRate, loanPeriod, collateral, collateralCurrency\r\n        );\r\n        \r\n        spot_on_contract.setBorrower(spotOnContractId, msg.sender);\r\n        emit loanRequested(spotOnContractId);\r\n        return spotOnContractId;\r\n    }\r\n\r\n    function addCurrency(string memory currencyType) public {\r\n        numCurrencyTypes++;\r\n        currencyTypes[numCurrencyTypes] = currencyType;\r\n    }\r\n\r\n    function editAmount(uint256 spotOnContractId, uint256 newAmount) public {\r\n        uint256 acceptableRange = spot_on_contract.getAcceptableRange(spotOnContractId);\r\n        uint256 amount = spot_on_contract.getAmount(spotOnContractId);\r\n        require(amount - acceptableRange <= newAmount && newAmount <= amount + acceptableRange);\r\n        spot_on_contract.setAmount(spotOnContractId, newAmount);\r\n    }\r\n\r\n    function takeOnLoan(uint256 spotOnContractId) public payable {\r\n        require(spot_on_contract.getSpotOnBorrower(spotOnContractId) == address(0) || spot_on_contract.getSpotOnLender(spotOnContractId) == address(0));\r\n\r\n        if (spot_on_contract.getSpotOnBorrower(spotOnContractId) == address(0)) {\r\n            spot_on_contract.setBorrower(spotOnContractId, msg.sender);\r\n        }\r\n\r\n        if (spot_on_contract.getSpotOnLender(spotOnContractId) == address(0)) {\r\n            spot_on_contract.setLender(spotOnContractId, msg.sender);\r\n        }\r\n        //set startDate, repaymentDate\r\n        uint256 timeNow = getTimeStamp();\r\n        uint256 loanPeriod = spot_on_contract.getLoanPeriod(spotOnContractId);\r\n        uint256 repaymentDate = timeNow + loanPeriod;\r\n        spot_on_contract.setLoanDates(spotOnContractId, timeNow);\r\n\r\n        //set repaymentAmount\r\n        uint256 amount = spot_on_contract.getAmount(spotOnContractId);\r\n        uint256 interestRate = spot_on_contract.getInterestRate(spotOnContractId);\r\n        spot_on_contract.setRepaymentAmount(spotOnContractId, timeNow, repaymentDate , interestRate, amount);\r\n        \r\n    }\r\n\r\n\r\n    function transferAmount(uint256 spotOnContractId) public {\r\n        address lender = spot_on_contract.getSpotOnLender(spotOnContractId);\r\n        require (msg.sender == lender , \"only lender can transfer to borrower\");\r\n        address borrower = spot_on_contract.getSpotOnBorrower(spotOnContractId);\r\n        uint256 amount = spot_on_contract.getAmount(spotOnContractId);\r\n        uint256 choiceOfCurrency = spot_on_contract.getCurrencyType(spotOnContractId);\r\n        if(choiceOfCurrency == 0) { //choiceOfCurrency == 0 \r\n            // require(cro.checkBalance(address(this)) >= amount, \"Insufficient tokens in pool to withdraw\");\r\n            cro.sendToken(borrower, amount);\r\n            emit Transferred(choiceOfCurrency, amount);\r\n        } else if(choiceOfCurrency == 1) {\r\n            // require(shib.checkBalance(address(this)) >= amount, \"Insufficient tokens in pool to withdraw\");\r\n            shib.sendToken(borrower, amount);\r\n            emit Transferred(choiceOfCurrency, amount);\r\n        } else if(choiceOfCurrency == 2) {\r\n            // require(uni.checkBalance(address(this)) >= amount, \"Insufficient tokens in pool to withdraw\");\r\n            uni.sendToken(borrower, amount);\r\n            emit Transferred(choiceOfCurrency, amount);\r\n        } \r\n    }\r\n\r\n\r\n    function triggerMarginCall (uint256 spotOnContractId) public {\r\n        uint256 amount = spot_on_contract.getAmount(spotOnContractId);\r\n        uint256 currencyType = spot_on_contract.getCurrencyType(spotOnContractId);\r\n        uint256 collateralAmount = spot_on_contract.getCollateralAmount(spotOnContractId);\r\n        uint256 collateralCurrency = spot_on_contract.getCollateralCurrency(spotOnContractId);\r\n        \r\n        uint256 ratio = de_bank.returnRatio(currencyType, amount, collateralCurrency, collateralAmount);\r\n\r\n        if (ratio <= DSMath.wdiv(21, 20)) {\r\n            liquidateCollateral(spotOnContractId);\r\n        } else if (ratio <= DSMath.wdiv(3,2)) {\r\n            emit Log(\"Please add on to your collateral\");\r\n        }\r\n    }\r\n\r\n    function liquidateCollateral(uint256 spotOnContractId) public {\r\n        uint256 recoverCollateral = address(this).balance;\r\n        address lender = spot_on_contract.getSpotOnLender(spotOnContractId);\r\n\r\n        uint256 collateralCurrency = spot_on_contract.getCollateralCurrency(spotOnContractId);\r\n        uint256 collateralAmount = spot_on_contract.getCollateralAmount(spotOnContractId);\r\n        if (collateralCurrency == 0) {\r\n            cro.sendToken(lender, collateralAmount);\r\n        } else if (collateralCurrency == 1) {\r\n            shib.sendToken(address(this), lender, collateralAmount);\r\n        } else if (collateralCurrency == 2) {\r\n            uni.sendToken(address(this), lender, collateralAmount);\r\n        } \r\n        emit MarginCallTriggered(spotOnContractId, recoverCollateral);\r\n    }\r\n\r\n    function addCollateral(uint256 spotOnContractId, uint256 amount) public {\r\n        spot_on_contract.addCollateral(spotOnContractId, amount);\r\n    }\r\n\r\n    function offerLoan(\r\n        uint256 amount, \r\n        uint256 currency, \r\n        uint256 acceptableRange, \r\n        uint256 interestRate, \r\n        uint256 loanPeriod, \r\n        uint256 collateral,\r\n        uint256 collateralCurrency) public returns (uint256){\r\n\r\n        require(collateral >= (amount * 3) / 2, \"collateral must be at least 1.5 times of the amount\");\r\n        uint256 spotOnContractId = spot_on_contract.createContract(\r\n            amount, currency, acceptableRange, loanPeriod, interestRate, collateral, collateralCurrency\r\n        );\r\n\r\n        spot_on_contract.setLender(spotOnContractId, msg.sender);\r\n        emit loanOffered(spotOnContractId);(spotOnContractId);\r\n        return spotOnContractId;\r\n    }\r\n\r\n\r\n    modifier isValidCurrency(uint256 currencyType) {\r\n        bool isValid = false;\r\n        for (uint i = 0; i < numCurrencyTypes ; i++) {\r\n            if(currencyType == i) {\r\n                isValid = true;\r\n            }\r\n        }\r\n        require (isValid == true, \"The Currency is not supported yet!\");\r\n        _;\r\n    }\r\n\r\n    \r\n    function depositCollateral(uint256 choiceOfCurrency, uint256 amount, uint256 spotOnContractId) public isValidCurrency(choiceOfCurrency) {\r\n        require (amount > 0, \"Can't deposit 0 tokens\");\r\n        \r\n        //checks sender is the borrower\r\n        address borrower = spot_on_contract.getSpotOnBorrower(spotOnContractId);\r\n        require (msg.sender == borrower, \"only borrower can deposit\");\r\n\r\n        address spotOnContractAddress = spot_on_contract.getSpotOnContractAddress(spotOnContractId);\r\n\r\n        //transfer the token\r\n        if(choiceOfCurrency == 0) { \r\n            require(cro.checkBalance(msg.sender) >= amount, \"Insufficient tokens in pool to withdraw\");\r\n            cro.sendToken(spotOnContractAddress, amount);\r\n            emit Transferred(choiceOfCurrency, amount);\r\n        } \r\n        else if(choiceOfCurrency == 1) {\r\n            require(shib.checkBalance(msg.sender) >= amount, \"Insufficient tokens in pool to withdraw\");\r\n            shib.sendToken(spotOnContractAddress, amount);\r\n            emit Transferred(choiceOfCurrency, amount);\r\n        } else if(choiceOfCurrency == 2) {\r\n            require(uni.checkBalance(msg.sender) >= amount, \"Insufficient tokens in pool to withdraw\");\r\n            uni.sendToken(spotOnContractAddress, amount);\r\n            emit Transferred(choiceOfCurrency, amount);\r\n        } \r\n    }\r\n\r\n    function getTimeStamp() public view returns(uint) {\r\n        return block.timestamp;\r\n    }\r\n}",
  "sourcePath": "D:\\NUS\\Y3S2\\IS4302\\DeBank\\contracts\\SpotOn.sol",
  "compiler": {
    "name": "solc",
    "version": "0.8.17+commit.8df45f5f.Emscripten.clang"
  },
  "schemaVersion": "3.4.13",
  "updatedAt": "2023-04-09T04:31:02.759Z",
  "devdoc": {
    "kind": "dev",
    "methods": {},
    "version": 1
  },
  "userdoc": {
    "kind": "user",
    "methods": {},
    "version": 1
  }
}